{
  "address": "0x3976BD6F4B82C97314570A77bc1e979f7A839A24",
  "abi": [
    {
      "inputs": [
        {
          "internalType": "contract ITicket",
          "name": "_ticket",
          "type": "address"
        },
        {
          "internalType": "contract IDrawBuffer",
          "name": "_drawBuffer",
          "type": "address"
        },
        {
          "internalType": "contract IPrizeDistributionBuffer",
          "name": "_prizeDistributionBuffer",
          "type": "address"
        }
      ],
      "stateMutability": "nonpayable",
      "type": "constructor"
    },
    {
      "anonymous": false,
      "inputs": [
        {
          "indexed": true,
          "internalType": "contract ITicket",
          "name": "ticket",
          "type": "address"
        },
        {
          "indexed": true,
          "internalType": "contract IDrawBuffer",
          "name": "drawBuffer",
          "type": "address"
        },
        {
          "indexed": true,
          "internalType": "contract IPrizeDistributionBuffer",
          "name": "prizeDistributionBuffer",
          "type": "address"
        }
      ],
      "name": "Deployed",
      "type": "event"
    },
    {
      "anonymous": false,
      "inputs": [
        {
          "indexed": true,
          "internalType": "contract PrizeDistributor",
          "name": "prizeDistributor",
          "type": "address"
        }
      ],
      "name": "PrizeDistributorSet",
      "type": "event"
    },
    {
      "inputs": [],
      "name": "TIERS_LENGTH",
      "outputs": [
        {
          "internalType": "uint8",
          "name": "",
          "type": "uint8"
        }
      ],
      "stateMutability": "view",
      "type": "function"
    },
    {
      "inputs": [
        {
          "internalType": "address",
          "name": "_user",
          "type": "address"
        },
        {
          "internalType": "uint32[]",
          "name": "_drawIds",
          "type": "uint32[]"
        },
        {
          "internalType": "bytes",
          "name": "_pickIndicesForDraws",
          "type": "bytes"
        }
      ],
      "name": "calculate",
      "outputs": [
        {
          "internalType": "uint256[]",
          "name": "",
          "type": "uint256[]"
        },
        {
          "internalType": "bytes",
          "name": "",
          "type": "bytes"
        }
      ],
      "stateMutability": "view",
      "type": "function"
    },
    {
      "inputs": [],
      "name": "drawBuffer",
      "outputs": [
        {
          "internalType": "contract IDrawBuffer",
          "name": "",
          "type": "address"
        }
      ],
      "stateMutability": "view",
      "type": "function"
    },
    {
      "inputs": [],
      "name": "getDrawBuffer",
      "outputs": [
        {
          "internalType": "contract IDrawBuffer",
          "name": "",
          "type": "address"
        }
      ],
      "stateMutability": "view",
      "type": "function"
    },
    {
      "inputs": [
        {
          "internalType": "address",
          "name": "_user",
          "type": "address"
        },
        {
          "internalType": "uint32[]",
          "name": "_drawIds",
          "type": "uint32[]"
        }
      ],
      "name": "getNormalizedBalancesForDrawIds",
      "outputs": [
        {
          "internalType": "uint256[]",
          "name": "",
          "type": "uint256[]"
        }
      ],
      "stateMutability": "view",
      "type": "function"
    },
    {
      "inputs": [],
      "name": "getPrizeDistributionBuffer",
      "outputs": [
        {
          "internalType": "contract IPrizeDistributionBuffer",
          "name": "",
          "type": "address"
        }
      ],
      "stateMutability": "view",
      "type": "function"
    },
    {
      "inputs": [],
      "name": "prizeDistributionBuffer",
      "outputs": [
        {
          "internalType": "contract IPrizeDistributionBuffer",
          "name": "",
          "type": "address"
        }
      ],
      "stateMutability": "view",
      "type": "function"
    },
    {
      "inputs": [],
      "name": "ticket",
      "outputs": [
        {
          "internalType": "contract ITicket",
          "name": "",
          "type": "address"
        }
      ],
      "stateMutability": "view",
      "type": "function"
    }
  ],
  "transactionHash": "0x20211e287376ba00d88b6a8cae9806081c0c2d03ab9723d80d6150ecc7669b67",
  "args": [
    "0x6a304dFdb9f808741244b6bfEe65ca7B3b3A6076",
    "0x44B1d66E7B9d4467139924f31754F34cbC392f44",
    "0xcf6030BDEaB4E503D186426510aD88C1DA7125A3"
  ],
  "solcInputHash": "7e8084d0a22db9e877c42567b125a31e",
  "bytecode": "0x60e06040523480156200001157600080fd5b5060405162002202380380620022028339810160408190526200003491620001a7565b6001600160a01b038316620000905760405162461bcd60e51b815260206004820152601860248201527f4472617743616c632f7469636b65742d6e6f742d7a65726f000000000000000060448201526064015b60405180910390fd5b6001600160a01b038116620000e85760405162461bcd60e51b815260206004820152601560248201527f4472617743616c632f7064622d6e6f742d7a65726f0000000000000000000000604482015260640162000087565b6001600160a01b038216620001405760405162461bcd60e51b815260206004820152601460248201527f4472617743616c632f64682d6e6f742d7a65726f000000000000000000000000604482015260640162000087565b6001600160601b0319606084811b821660a05283811b821660805282901b1660c0526040516001600160a01b0382811691848216918616907fc95935a66d15e0da5e412aca0ad27ae891d20b2fb91cf3994b6a3bf2b817808290600090a450505062000214565b600080600060608486031215620001bd57600080fd5b8351620001ca81620001fb565b6020850151909350620001dd81620001fb565b6040850151909250620001f081620001fb565b809150509250925092565b6001600160a01b03811681146200021157600080fd5b50565b60805160601c60a05160601c60c05160601c611f7f620002836000396000818160920152818161016e0152818161028c01526104b1015260008181610109015281816107dd015261087001526000818160e001528181610197015281816101d901526104200152611f7f6000f3fe608060405234801561001057600080fd5b50600436106100885760003560e01c8063aaca392e1161005b578063aaca392e1461014b578063bd97a2521461016c578063ce343bb614610192578063f8d0ca4c146101b957600080fd5b80630840bbdd1461008d5780634019f2d6146100de5780636cc25db7146101045780638045fbcf1461012b575b600080fd5b6100b47f000000000000000000000000000000000000000000000000000000000000000081565b60405173ffffffffffffffffffffffffffffffffffffffff90911681526020015b60405180910390f35b7f00000000000000000000000000000000000000000000000000000000000000006100b4565b6100b47f000000000000000000000000000000000000000000000000000000000000000081565b61013e6101393660046114df565b6101d3565b6040516100d59190611afc565b61015e610159366004611532565b610352565b6040516100d5929190611b0f565b7f00000000000000000000000000000000000000000000000000000000000000006100b4565b6100b47f000000000000000000000000000000000000000000000000000000000000000081565b6101c1601081565b60405160ff90911681526020016100d5565b606060007f000000000000000000000000000000000000000000000000000000000000000073ffffffffffffffffffffffffffffffffffffffff1663d0bb78f385856040518363ffffffff1660e01b8152600401610232929190611b74565b60006040518083038186803b15801561024a57600080fd5b505afa15801561025e573d6000803e3d6000fd5b505050506040513d6000823e601f3d908101601f1916820160405261028691908101906116fd565b905060007f000000000000000000000000000000000000000000000000000000000000000073ffffffffffffffffffffffffffffffffffffffff1663d30a5daf86866040518363ffffffff1660e01b81526004016102e5929190611b74565b60006040518083038186803b1580156102fd57600080fd5b505afa158015610311573d6000803e3d6000fd5b505050506040513d6000823e601f3d908101601f1916820160405261033991908101906117f8565b90506103468683836105dd565b925050505b9392505050565b6060806000610363848601866115dd565b805190915086146103e05760405162461bcd60e51b8152602060048201526024808201527f4472617743616c632f696e76616c69642d7069636b2d696e64696365732d6c6560448201527f6e6774680000000000000000000000000000000000000000000000000000000060648201526084015b60405180910390fd5b6040517fd0bb78f300000000000000000000000000000000000000000000000000000000815260009073ffffffffffffffffffffffffffffffffffffffff7f0000000000000000000000000000000000000000000000000000000000000000169063d0bb78f390610457908b908b90600401611b74565b60006040518083038186803b15801561046f57600080fd5b505afa158015610483573d6000803e3d6000fd5b505050506040513d6000823e601f3d908101601f191682016040526104ab91908101906116fd565b905060007f000000000000000000000000000000000000000000000000000000000000000073ffffffffffffffffffffffffffffffffffffffff1663d30a5daf8a8a6040518363ffffffff1660e01b815260040161050a929190611b74565b60006040518083038186803b15801561052257600080fd5b505afa158015610536573d6000803e3d6000fd5b505050506040513d6000823e601f3d908101601f1916820160405261055e91908101906117f8565b9050600061056d8b84846105dd565b6040517fffffffffffffffffffffffffffffffffffffffff00000000000000000000000060608e901b1660208201529091506000906034016040516020818303038152906040528051906020012090506105ca8282868887610a48565b9650965050505050509550959350505050565b815160609060008167ffffffffffffffff8111156105fd576105fd611f08565b604051908082528060200260200182016040528015610626578160200160208202803683370190505b50905060008267ffffffffffffffff81111561064457610644611f08565b60405190808252806020026020018201604052801561066d578160200160208202803683370190505b50905060005b838163ffffffff16101561079c57858163ffffffff168151811061069957610699611ef2565b60200260200101516040015163ffffffff16878263ffffffff16815181106106c3576106c3611ef2565b60200260200101516040015103838263ffffffff16815181106106e8576106e8611ef2565b602002602001019067ffffffffffffffff16908167ffffffffffffffff1681525050858163ffffffff168151811061072257610722611ef2565b60200260200101516060015163ffffffff16878263ffffffff168151811061074c5761074c611ef2565b60200260200101516040015103828263ffffffff168151811061077157610771611ef2565b67ffffffffffffffff909216602092830291909101909101528061079481611e98565b915050610673565b506040517f68c7fd5700000000000000000000000000000000000000000000000000000000815260009073ffffffffffffffffffffffffffffffffffffffff7f000000000000000000000000000000000000000000000000000000000000000016906368c7fd5790610816908b9087908790600401611a31565b60006040518083038186803b15801561082e57600080fd5b505afa158015610842573d6000803e3d6000fd5b505050506040513d6000823e601f3d908101601f1916820160405261086a9190810190611924565b905060007f000000000000000000000000000000000000000000000000000000000000000073ffffffffffffffffffffffffffffffffffffffff16638e6d536a85856040518363ffffffff1660e01b81526004016108c9929190611bbf565b60006040518083038186803b1580156108e157600080fd5b505afa1580156108f5573d6000803e3d6000fd5b505050506040513d6000823e601f3d908101601f1916820160405261091d9190810190611924565b905060008567ffffffffffffffff81111561093a5761093a611f08565b604051908082528060200260200182016040528015610963578160200160208202803683370190505b50905060005b86811015610a3a5782818151811061098357610983611ef2565b6020026020010151600014156109b85760008282815181106109a7576109a7611ef2565b602002602001018181525050610a28565b8281815181106109ca576109ca611ef2565b60200260200101518482815181106109e4576109e4611ef2565b6020026020010151670de0b6b3a76400006109ff9190611dff565b610a099190611cef565b828281518110610a1b57610a1b611ef2565b6020026020010181815250505b80610a3281611e7d565b915050610969565b509998505050505050505050565b6060806000875167ffffffffffffffff811115610a6757610a67611f08565b604051908082528060200260200182016040528015610a90578160200160208202803683370190505b5090506000885167ffffffffffffffff811115610aaf57610aaf611f08565b604051908082528060200260200182016040528015610ae257816020015b6060815260200190600190039081610acd5790505b5090504260005b88518163ffffffff161015610ccf57868163ffffffff1681518110610b1057610b10611ef2565b602002602001015160a0015163ffffffff16898263ffffffff1681518110610b3a57610b3a611ef2565b602002602001015160400151610b509190611c9e565b67ffffffffffffffff168267ffffffffffffffff1610610bb25760405162461bcd60e51b815260206004820152601560248201527f4472617743616c632f647261772d65787069726564000000000000000000000060448201526064016103d7565b6000610bfc888363ffffffff1681518110610bcf57610bcf611ef2565b60200260200101518d8463ffffffff1681518110610bef57610bef611ef2565b6020026020010151610d02565b9050610c768a8363ffffffff1681518110610c1957610c19611ef2565b6020026020010151600001518267ffffffffffffffff168d8c8663ffffffff1681518110610c4957610c49611ef2565b60200260200101518c8763ffffffff1681518110610c6957610c69611ef2565b6020026020010151610d3f565b868463ffffffff1681518110610c8e57610c8e611ef2565b60200260200101868563ffffffff1681518110610cad57610cad611ef2565b6020908102919091010191909152525080610cc781611e98565b915050610ae9565b5081604051602001610ce19190611a7c565b60405160208183030381529060405293508294505050509550959350505050565b6000670de0b6b3a76400008360c001516cffffffffffffffffffffffffff1683610d2c9190611dff565b610d369190611cef565b90505b92915050565b600060606000610d4e846110c4565b85516040805160108082526102208201909252929350909160009160208201610200803683370190505090506000866080015163ffffffff168363ffffffff161115610ddc5760405162461bcd60e51b815260206004820152601f60248201527f4472617743616c632f657863656564732d6d61782d757365722d7069636b730060448201526064016103d7565b60005b8363ffffffff168163ffffffff161015610ff4578a898263ffffffff1681518110610e0c57610e0c611ef2565b602002602001015167ffffffffffffffff1610610e6b5760405162461bcd60e51b815260206004820181905260248201527f4472617743616c632f696e73756666696369656e742d757365722d7069636b7360448201526064016103d7565b63ffffffff811615610f225788610e83600183611e35565b63ffffffff1681518110610e9957610e99611ef2565b602002602001015167ffffffffffffffff16898263ffffffff1681518110610ec357610ec3611ef2565b602002602001015167ffffffffffffffff1611610f225760405162461bcd60e51b815260206004820152601860248201527f4472617743616c632f7069636b732d617363656e64696e67000000000000000060448201526064016103d7565b60008a8a8363ffffffff1681518110610f3d57610f3d611ef2565b6020026020010151604051602001610f6992919091825267ffffffffffffffff16602082015260400190565b6040516020818303038152906040528051906020012060001c90506000610f91828f896111c9565b9050601060ff82161015610fdf578360ff168160ff161115610fb1578093505b848160ff1681518110610fc657610fc6611ef2565b602002602001018051809190610fdb90611e7d565b9052505b50508080610fec90611e98565b915050610ddf565b506000806110028984611268565b905060005b8360ff16811161109057600085828151811061102557611025611ef2565b6020026020010151111561107e5784818151811061104557611045611ef2565b602002602001015182828151811061105f5761105f611ef2565b60200260200101516110719190611dff565b61107b9084611c86565b92505b8061108881611e7d565b915050611007565b50633b9aca00896101000151836110a79190611dff565b6110b19190611cef565b9d939c50929a5050505050505050505050565b60606000826020015160ff1667ffffffffffffffff8111156110e8576110e8611f08565b604051908082528060200260200182016040528015611111578160200160208202803683370190505b508351909150600190611125906002611d54565b61112f9190611e1e565b8160008151811061114257611142611ef2565b602090810291909101015260015b836020015160ff168160ff1610156111c257835160ff1682611173600184611e5a565b60ff168151811061118657611186611ef2565b6020026020010151901b828260ff16815181106111a5576111a5611ef2565b6020908102919091010152806111ba81611ebc565b915050611150565b5092915050565b80516000908190815b8160ff168160ff16101561125d576000858260ff16815181106111f7576111f7611ef2565b602002602001015190508087168189161461123c578360ff168360ff16141561122757600094505050505061034b565b6112318484611e5a565b94505050505061034b565b8361124681611ebc565b94505050808061125590611ebc565b9150506111d2565b506103468282611e5a565b60606000611277836001611cca565b60ff1667ffffffffffffffff81111561129257611292611f08565b6040519080825280602002602001820160405280156112bb578160200160208202803683370190505b50905060005b8360ff168160ff161161130d576112db858260ff16611315565b828260ff16815181106112f0576112f0611ef2565b60209081029190910101528061130581611ebc565b9150506112c1565b509392505050565b6000808360e00151836010811061132e5761132e611ef2565b602002015163ffffffff169050600061134b856000015185611360565b90506113578183611cef565b95945050505050565b600081156113a657611373600183611e1e565b6113809060ff8516611dff565b6001901b6113918360ff8616611dff565b6001901b61139f9190611e1e565b9050610d39565b506001610d39565b803573ffffffffffffffffffffffffffffffffffffffff811681146113d257600080fd5b919050565b600082601f8301126113e857600080fd5b60405161020080820182811067ffffffffffffffff8211171561140d5761140d611f08565b604052818482810187101561142157600080fd5b600092505b601083101561144f57805161143a81611f1e565b82526001929092019160209182019101611426565b509195945050505050565b60008083601f84011261146c57600080fd5b50813567ffffffffffffffff81111561148457600080fd5b6020830191508360208260051b850101111561149f57600080fd5b9250929050565b80516cffffffffffffffffffffffffff811681146113d257600080fd5b80516113d281611f1e565b805160ff811681146113d257600080fd5b6000806000604084860312156114f457600080fd5b6114fd846113ae565b9250602084013567ffffffffffffffff81111561151957600080fd5b6115258682870161145a565b9497909650939450505050565b60008060008060006060868803121561154a57600080fd5b611553866113ae565b9450602086013567ffffffffffffffff8082111561157057600080fd5b61157c89838a0161145a565b9096509450604088013591508082111561159557600080fd5b818801915088601f8301126115a957600080fd5b8135818111156115b857600080fd5b8960208285010111156115ca57600080fd5b9699959850939650602001949392505050565b600060208083850312156115f057600080fd5b823567ffffffffffffffff8082111561160857600080fd5b818501915085601f83011261161c57600080fd5b813561162f61162a82611c62565b611c31565b80828252858201915085850189878560051b880101111561164f57600080fd5b60005b848110156116ee5781358681111561166957600080fd5b8701603f81018c1361167a57600080fd5b8881013561168a61162a82611c62565b808282528b82019150604084018f60408560051b87010111156116ac57600080fd5b600094505b838510156116d85780356116c481611f33565b835260019490940193918c01918c016116b1565b5087525050509287019290870190600101611652565b50909998505050505050505050565b6000602080838503121561171057600080fd5b825167ffffffffffffffff81111561172757600080fd5b8301601f8101851361173857600080fd5b805161174661162a82611c62565b8181528381019083850160a0808502860187018a101561176557600080fd5b60009550855b858110156117e95781838c031215611781578687fd5b611789611be4565b835181528884015161179a81611f1e565b818a01526040848101516117ad81611f33565b908201526060848101516117c081611f33565b908201526080848101516117d381611f1e565b908201528552938701939181019160010161176b565b50919998505050505050505050565b6000602080838503121561180b57600080fd5b825167ffffffffffffffff81111561182257600080fd5b8301601f8101851361183357600080fd5b805161184161162a82611c62565b81815283810190838501610300808502860187018a101561186157600080fd5b60009550855b858110156117e95781838c03121561187d578687fd5b611885611c0d565b61188e846114ce565b815261189b8985016114ce565b8982015260406118ac8186016114c3565b9082015260606118bd8582016114c3565b9082015260806118ce8582016114c3565b9082015260a06118df8582016114c3565b9082015260c06118f08582016114a6565b9082015260e06119028d8683016113d7565b908201526102e084015161010082015285529387019391810191600101611867565b6000602080838503121561193757600080fd5b825167ffffffffffffffff81111561194e57600080fd5b8301601f8101851361195f57600080fd5b805161196d61162a82611c62565b80828252848201915084840188868560051b870101111561198d57600080fd5b600094505b838510156119b0578051835260019490940193918501918501611992565b50979650505050505050565b600081518084526020808501945080840160005b838110156119ec578151875295820195908201906001016119d0565b509495945050505050565b600081518084526020808501945080840160005b838110156119ec57815167ffffffffffffffff1687529582019590820190600101611a0b565b73ffffffffffffffffffffffffffffffffffffffff84168152606060208201526000611a6060608301856119f7565b8281036040840152611a7281856119f7565b9695505050505050565b6000602080830181845280855180835260408601915060408160051b870101925083870160005b82811015611aef577fffffffffffffffffffffffffffffffffffffffffffffffffffffffffffffffc0888603018452611add8583516119bc565b94509285019290850190600101611aa3565b5092979650505050505050565b602081526000610d3660208301846119bc565b604081526000611b2260408301856119bc565b602083820381850152845180835260005b81811015611b4e578681018301518482018401528201611b33565b81811115611b5f5760008383860101525b50601f01601f19169190910101949350505050565b60208082528181018390526000908460408401835b86811015611bb4578235611b9c81611f1e565b63ffffffff1682529183019190830190600101611b89565b509695505050505050565b604081526000611bd260408301856119f7565b828103602084015261135781856119f7565b60405160a0810167ffffffffffffffff81118282101715611c0757611c07611f08565b60405290565b604051610120810167ffffffffffffffff81118282101715611c0757611c07611f08565b604051601f8201601f1916810167ffffffffffffffff81118282101715611c5a57611c5a611f08565b604052919050565b600067ffffffffffffffff821115611c7c57611c7c611f08565b5060051b60200190565b60008219821115611c9957611c99611edc565b500190565b600067ffffffffffffffff808316818516808303821115611cc157611cc1611edc565b01949350505050565b600060ff821660ff84168060ff03821115611ce757611ce7611edc565b019392505050565b600082611d0c57634e487b7160e01b600052601260045260246000fd5b500490565b600181815b80851115611d4c578160001904821115611d3257611d32611edc565b80851615611d3f57918102915b93841c9390800290611d16565b509250929050565b6000610d3660ff841683600082611d6d57506001610d39565b81611d7a57506000610d39565b8160018114611d905760028114611d9a57611db6565b6001915050610d39565b60ff841115611dab57611dab611edc565b50506001821b610d39565b5060208310610133831016604e8410600b8410161715611dd9575081810a610d39565b611de38383611d11565b8060001904821115611df757611df7611edc565b029392505050565b6000816000190483118215151615611e1957611e19611edc565b500290565b600082821015611e3057611e30611edc565b500390565b600063ffffffff83811690831681811015611e5257611e52611edc565b039392505050565b600060ff821660ff841680821015611e7457611e74611edc565b90039392505050565b6000600019821415611e9157611e91611edc565b5060010190565b600063ffffffff80831681811415611eb257611eb2611edc565b6001019392505050565b600060ff821660ff811415611ed357611ed3611edc565b60010192915050565b634e487b7160e01b600052601160045260246000fd5b634e487b7160e01b600052603260045260246000fd5b634e487b7160e01b600052604160045260246000fd5b63ffffffff81168114611f3057600080fd5b50565b67ffffffffffffffff81168114611f3057600080fdfea2646970667358221220eb3352120cedd3faec6af5d3db7d9884b515c524e8c3d7b4d3df0cd799c87d7d64736f6c63430008060033",
  "devdoc": {
    "author": "PoolTogether Inc Team",
    "kind": "dev",
    "methods": {
      "calculate(address,uint32[],bytes)": {
        "params": {
          "data": "The ABI encoded pick indices for all Draws. Expected to be winning picks. Pick indices must be less than the totalUserPicks.",
          "drawIds": "drawId array for which to calculate prize amounts for.",
          "user": "User for which to calculate prize amount."
        },
        "returns": {
          "_0": "List of awardable prize amounts ordered by drawId."
        }
      },
      "constructor": {
        "params": {
          "_drawBuffer": "The address of the draw buffer to push draws to",
          "_prizeDistributionBuffer": "PrizeDistributionBuffer address",
          "_ticket": "Ticket associated with this DrawCalculator"
        }
      },
      "getDrawBuffer()": {
        "returns": {
          "_0": "IDrawBuffer"
        }
      },
      "getNormalizedBalancesForDrawIds(address,uint32[])": {
        "params": {
          "drawIds": "The drawsId to consider",
          "user": "The users address"
        },
        "returns": {
          "_0": "Array of balances"
        }
      },
      "getPrizeDistributionBuffer()": {
        "returns": {
          "_0": "IDrawBuffer"
        }
      }
    },
    "title": "PoolTogether V4 DrawCalculator",
    "version": 1
  },
  "userdoc": {
    "events": {
      "Deployed(address,address,address)": {
        "notice": "Emitted when the contract is initialized"
      },
      "PrizeDistributorSet(address)": {
        "notice": "Emitted when the prizeDistributor is set/updated"
      }
    },
    "kind": "user",
    "methods": {
      "TIERS_LENGTH()": {
        "notice": "The tiers array length"
      },
      "calculate(address,uint32[],bytes)": {
        "notice": "Calculates the prize amount for a user for Multiple Draws. Typically called by a PrizeDistributor."
      },
      "constructor": {
        "notice": "Constructor for DrawCalculator"
      },
      "drawBuffer()": {
        "notice": "DrawBuffer address"
      },
      "getDrawBuffer()": {
        "notice": "Read global DrawBuffer variable."
      },
      "getNormalizedBalancesForDrawIds(address,uint32[])": {
        "notice": "Returns a users balances expressed as a fraction of the total supply over time."
      },
      "getPrizeDistributionBuffer()": {
        "notice": "Read global DrawBuffer variable."
      },
      "prizeDistributionBuffer()": {
        "notice": "The stored history of draw settings.  Stored as ring buffer."
      },
      "ticket()": {
        "notice": "Ticket associated with DrawCalculator"
      }
    },
    "notice": "The DrawCalculator calculates a user's prize by matching a winning random number against their picks. A users picks are generated deterministically based on their address and balance of tickets held. Prize payouts are divided into multiple tiers: grand prize, second place, etc... A user with a higher average weighted balance (during each draw period) will be given a large number of picks to choose from, and thus a higher chance to match the winning numbers.",
    "version": 1
  },
  "storageLayout": {
    "storage": [],
    "types": null
  }
}