{
  "address": "0x5D0D2bBa32D0913Ffc852FecFDf26582410f5f66",
  "abi": [
    {
      "inputs": [
        {
          "internalType": "address",
          "name": "_owner",
          "type": "address"
        },
        {
          "internalType": "contract IPrizeTierHistory",
          "name": "_prizeTierHistory",
          "type": "address"
        },
        {
          "internalType": "contract IDrawBuffer",
          "name": "_drawBuffer",
          "type": "address"
        },
        {
          "internalType": "contract IPrizeDistributionBuffer",
          "name": "_prizeDistributionBuffer",
          "type": "address"
        },
        {
          "internalType": "contract ITicket",
          "name": "_ticket",
          "type": "address"
        },
        {
          "internalType": "uint256",
          "name": "_minPickCost",
          "type": "uint256"
        }
      ],
      "stateMutability": "nonpayable",
      "type": "constructor"
    },
    {
      "anonymous": false,
      "inputs": [
        {
          "indexed": true,
          "internalType": "address",
          "name": "previousManager",
          "type": "address"
        },
        {
          "indexed": true,
          "internalType": "address",
          "name": "newManager",
          "type": "address"
        }
      ],
      "name": "ManagerTransferred",
      "type": "event"
    },
    {
      "anonymous": false,
      "inputs": [
        {
          "indexed": true,
          "internalType": "address",
          "name": "pendingOwner",
          "type": "address"
        }
      ],
      "name": "OwnershipOffered",
      "type": "event"
    },
    {
      "anonymous": false,
      "inputs": [
        {
          "indexed": true,
          "internalType": "address",
          "name": "previousOwner",
          "type": "address"
        },
        {
          "indexed": true,
          "internalType": "address",
          "name": "newOwner",
          "type": "address"
        }
      ],
      "name": "OwnershipTransferred",
      "type": "event"
    },
    {
      "anonymous": false,
      "inputs": [
        {
          "indexed": true,
          "internalType": "uint32",
          "name": "drawId",
          "type": "uint32"
        },
        {
          "indexed": false,
          "internalType": "uint256",
          "name": "totalNetworkTicketSupply",
          "type": "uint256"
        }
      ],
      "name": "PrizeDistributionPushed",
      "type": "event"
    },
    {
      "anonymous": false,
      "inputs": [
        {
          "indexed": true,
          "internalType": "uint32",
          "name": "drawId",
          "type": "uint32"
        },
        {
          "indexed": false,
          "internalType": "uint256",
          "name": "totalNetworkTicketSupply",
          "type": "uint256"
        }
      ],
      "name": "PrizeDistributionSet",
      "type": "event"
    },
    {
      "inputs": [
        {
          "internalType": "uint32",
          "name": "_drawId",
          "type": "uint32"
        },
        {
          "internalType": "uint256",
          "name": "_totalNetworkTicketSupply",
          "type": "uint256"
        }
      ],
      "name": "calculatePrizeDistribution",
      "outputs": [
        {
          "components": [
            {
              "internalType": "uint8",
              "name": "bitRangeSize",
              "type": "uint8"
            },
            {
              "internalType": "uint8",
              "name": "matchCardinality",
              "type": "uint8"
            },
            {
              "internalType": "uint32",
              "name": "startTimestampOffset",
              "type": "uint32"
            },
            {
              "internalType": "uint32",
              "name": "endTimestampOffset",
              "type": "uint32"
            },
            {
              "internalType": "uint32",
              "name": "maxPicksPerUser",
              "type": "uint32"
            },
            {
              "internalType": "uint32",
              "name": "expiryDuration",
              "type": "uint32"
            },
            {
              "internalType": "uint104",
              "name": "numberOfPicks",
              "type": "uint104"
            },
            {
              "internalType": "uint32[16]",
              "name": "tiers",
              "type": "uint32[16]"
            },
            {
              "internalType": "uint256",
              "name": "prize",
              "type": "uint256"
            }
          ],
          "internalType": "struct IPrizeDistributionBuffer.PrizeDistribution",
          "name": "",
          "type": "tuple"
        }
      ],
      "stateMutability": "view",
      "type": "function"
    },
    {
      "inputs": [
        {
          "internalType": "uint32",
          "name": "_drawId",
          "type": "uint32"
        },
        {
          "internalType": "uint256",
          "name": "_totalNetworkTicketSupply",
          "type": "uint256"
        },
        {
          "internalType": "uint32",
          "name": "_beaconPeriodSeconds",
          "type": "uint32"
        },
        {
          "internalType": "uint64",
          "name": "_drawTimestamp",
          "type": "uint64"
        }
      ],
      "name": "calculatePrizeDistributionWithDrawData",
      "outputs": [
        {
          "components": [
            {
              "internalType": "uint8",
              "name": "bitRangeSize",
              "type": "uint8"
            },
            {
              "internalType": "uint8",
              "name": "matchCardinality",
              "type": "uint8"
            },
            {
              "internalType": "uint32",
              "name": "startTimestampOffset",
              "type": "uint32"
            },
            {
              "internalType": "uint32",
              "name": "endTimestampOffset",
              "type": "uint32"
            },
            {
              "internalType": "uint32",
              "name": "maxPicksPerUser",
              "type": "uint32"
            },
            {
              "internalType": "uint32",
              "name": "expiryDuration",
              "type": "uint32"
            },
            {
              "internalType": "uint104",
              "name": "numberOfPicks",
              "type": "uint104"
            },
            {
              "internalType": "uint32[16]",
              "name": "tiers",
              "type": "uint32[16]"
            },
            {
              "internalType": "uint256",
              "name": "prize",
              "type": "uint256"
            }
          ],
          "internalType": "struct IPrizeDistributionBuffer.PrizeDistribution",
          "name": "",
          "type": "tuple"
        }
      ],
      "stateMutability": "view",
      "type": "function"
    },
    {
      "inputs": [],
      "name": "claimOwnership",
      "outputs": [],
      "stateMutability": "nonpayable",
      "type": "function"
    },
    {
      "inputs": [],
      "name": "drawBuffer",
      "outputs": [
        {
          "internalType": "contract IDrawBuffer",
          "name": "",
          "type": "address"
        }
      ],
      "stateMutability": "view",
      "type": "function"
    },
    {
      "inputs": [],
      "name": "manager",
      "outputs": [
        {
          "internalType": "address",
          "name": "",
          "type": "address"
        }
      ],
      "stateMutability": "view",
      "type": "function"
    },
    {
      "inputs": [],
      "name": "minPickCost",
      "outputs": [
        {
          "internalType": "uint256",
          "name": "",
          "type": "uint256"
        }
      ],
      "stateMutability": "view",
      "type": "function"
    },
    {
      "inputs": [],
      "name": "owner",
      "outputs": [
        {
          "internalType": "address",
          "name": "",
          "type": "address"
        }
      ],
      "stateMutability": "view",
      "type": "function"
    },
    {
      "inputs": [],
      "name": "pendingOwner",
      "outputs": [
        {
          "internalType": "address",
          "name": "",
          "type": "address"
        }
      ],
      "stateMutability": "view",
      "type": "function"
    },
    {
      "inputs": [],
      "name": "prizeDistributionBuffer",
      "outputs": [
        {
          "internalType": "contract IPrizeDistributionBuffer",
          "name": "",
          "type": "address"
        }
      ],
      "stateMutability": "view",
      "type": "function"
    },
    {
      "inputs": [],
      "name": "prizeTierHistory",
      "outputs": [
        {
          "internalType": "contract IPrizeTierHistory",
          "name": "",
          "type": "address"
        }
      ],
      "stateMutability": "view",
      "type": "function"
    },
    {
      "inputs": [
        {
          "internalType": "uint32",
          "name": "_drawId",
          "type": "uint32"
        },
        {
          "internalType": "uint256",
          "name": "_totalNetworkTicketSupply",
          "type": "uint256"
        }
      ],
      "name": "pushPrizeDistribution",
      "outputs": [
        {
          "components": [
            {
              "internalType": "uint8",
              "name": "bitRangeSize",
              "type": "uint8"
            },
            {
              "internalType": "uint8",
              "name": "matchCardinality",
              "type": "uint8"
            },
            {
              "internalType": "uint32",
              "name": "startTimestampOffset",
              "type": "uint32"
            },
            {
              "internalType": "uint32",
              "name": "endTimestampOffset",
              "type": "uint32"
            },
            {
              "internalType": "uint32",
              "name": "maxPicksPerUser",
              "type": "uint32"
            },
            {
              "internalType": "uint32",
              "name": "expiryDuration",
              "type": "uint32"
            },
            {
              "internalType": "uint104",
              "name": "numberOfPicks",
              "type": "uint104"
            },
            {
              "internalType": "uint32[16]",
              "name": "tiers",
              "type": "uint32[16]"
            },
            {
              "internalType": "uint256",
              "name": "prize",
              "type": "uint256"
            }
          ],
          "internalType": "struct IPrizeDistributionBuffer.PrizeDistribution",
          "name": "",
          "type": "tuple"
        }
      ],
      "stateMutability": "nonpayable",
      "type": "function"
    },
    {
      "inputs": [],
      "name": "renounceOwnership",
      "outputs": [],
      "stateMutability": "nonpayable",
      "type": "function"
    },
    {
      "inputs": [
        {
          "internalType": "address",
          "name": "_newManager",
          "type": "address"
        }
      ],
      "name": "setManager",
      "outputs": [
        {
          "internalType": "bool",
          "name": "",
          "type": "bool"
        }
      ],
      "stateMutability": "nonpayable",
      "type": "function"
    },
    {
      "inputs": [
        {
          "internalType": "uint32",
          "name": "_drawId",
          "type": "uint32"
        },
        {
          "internalType": "uint256",
          "name": "_totalNetworkTicketSupply",
          "type": "uint256"
        }
      ],
      "name": "setPrizeDistribution",
      "outputs": [
        {
          "components": [
            {
              "internalType": "uint8",
              "name": "bitRangeSize",
              "type": "uint8"
            },
            {
              "internalType": "uint8",
              "name": "matchCardinality",
              "type": "uint8"
            },
            {
              "internalType": "uint32",
              "name": "startTimestampOffset",
              "type": "uint32"
            },
            {
              "internalType": "uint32",
              "name": "endTimestampOffset",
              "type": "uint32"
            },
            {
              "internalType": "uint32",
              "name": "maxPicksPerUser",
              "type": "uint32"
            },
            {
              "internalType": "uint32",
              "name": "expiryDuration",
              "type": "uint32"
            },
            {
              "internalType": "uint104",
              "name": "numberOfPicks",
              "type": "uint104"
            },
            {
              "internalType": "uint32[16]",
              "name": "tiers",
              "type": "uint32[16]"
            },
            {
              "internalType": "uint256",
              "name": "prize",
              "type": "uint256"
            }
          ],
          "internalType": "struct IPrizeDistributionBuffer.PrizeDistribution",
          "name": "",
          "type": "tuple"
        }
      ],
      "stateMutability": "nonpayable",
      "type": "function"
    },
    {
      "inputs": [],
      "name": "ticket",
      "outputs": [
        {
          "internalType": "contract ITicket",
          "name": "",
          "type": "address"
        }
      ],
      "stateMutability": "view",
      "type": "function"
    },
    {
      "inputs": [
        {
          "internalType": "address",
          "name": "_newOwner",
          "type": "address"
        }
      ],
      "name": "transferOwnership",
      "outputs": [],
      "stateMutability": "nonpayable",
      "type": "function"
    }
  ],
  "transactionHash": "0x4bc8309b2e0680f3ea40f316b41007dcc450b05fe24f6c710ca87b19a2689f87",
  "args": [
    "0x21E8fFC0108B0cbA465E26cA0a0EA3955475e9b2",
    "0x4Fb9178b46a06edB9231E650FBD8D64397f41051",
    "0x44B1d66E7B9d4467139924f31754F34cbC392f44",
    "0xcf6030BDEaB4E503D186426510aD88C1DA7125A3",
    "0x6a304dFdb9f808741244b6bfEe65ca7B3b3A6076",
    1000000
  ],
  "solcInputHash": "8de2730cf5e263103c2ac52c02e7eaa7",
  "bytecode": "0x6101206040523480156200001257600080fd5b5060405162001b5b38038062001b5b833981016040819052620000359162000284565b85620000418162000234565b506001600160a01b0386166200008f5760405162461bcd60e51b815260206004820152600e60248201526d5044432f6f776e65722d7a65726f60901b60448201526064015b60405180910390fd5b6001600160a01b038516620000d65760405162461bcd60e51b815260206004820152600c60248201526b5044432f7074682d7a65726f60a01b604482015260640162000086565b6001600160a01b0384166200011c5760405162461bcd60e51b815260206004820152600b60248201526a5044432f64622d7a65726f60a81b604482015260640162000086565b6001600160a01b038316620001635760405162461bcd60e51b815260206004820152600c60248201526b5044432f7064622d7a65726f60a01b604482015260640162000086565b6001600160a01b038216620001ad5760405162461bcd60e51b815260206004820152600f60248201526e5044432f7469636b65742d7a65726f60881b604482015260640162000086565b60008111620001ff5760405162461bcd60e51b815260206004820152601560248201527f5044432f7069636b2d636f73742d67742d7a65726f0000000000000000000000604482015260640162000086565b610100526001600160601b0319606094851b811660805292841b831660a05290831b821660c05290911b1660e0525062000325565b600080546001600160a01b038381166001600160a01b0319831681178455604051919092169283917f8be0079c531659141344cd1fd0a4f28419497f9722a3daafe3b4186f6b6457e09190a35050565b60008060008060008060c087890312156200029e57600080fd5b8651620002ab816200030c565b6020880151909650620002be816200030c565b6040880151909550620002d1816200030c565b6060880151909450620002e4816200030c565b6080880151909350620002f7816200030c565b8092505060a087015190509295509295509295565b6001600160a01b03811681146200032257600080fd5b50565b60805160601c60a05160601c60c05160601c60e05160601c610100516117bb620003a06000396000818161013301526106ac01526000818161020f01526107de015260008181610168015281816103ca015261054d0152600081816102620152610a0a0152600081816101a70152610cfe01526117bb6000f3fe608060405234801561001057600080fd5b50600436106101005760003560e01c80636cc25db711610097578063ce343bb611610066578063ce343bb61461025d578063d0ebdbe714610284578063e30c3978146102a7578063f2fde38b146102b857600080fd5b80636cc25db71461020a578063715018a6146102315780638bf02df8146102395780638da5cb5b1461024c57600080fd5b80633ec018fc116100d35780633ec018fc146101c9578063481c6a75146101dc5780634e71e0c8146101ed5780636665f32b146101f757600080fd5b80630348b07614610105578063082d80ff1461012e5780630840bbdd146101635780633cd4b918146101a2575b600080fd5b61011861011336600461131f565b6102cb565b60405161012591906114f7565b60405180910390f35b6101557f000000000000000000000000000000000000000000000000000000000000000081565b604051908152602001610125565b61018a7f000000000000000000000000000000000000000000000000000000000000000081565b6040516001600160a01b039091168152602001610125565b61018a7f000000000000000000000000000000000000000000000000000000000000000081565b6101186101d736600461131f565b61049d565b6002546001600160a01b031661018a565b6101f561060f565b005b61011861020536600461134b565b61069d565b61018a7f000000000000000000000000000000000000000000000000000000000000000081565b6101f5610956565b61011861024736600461131f565b6109cb565b6000546001600160a01b031661018a565b61018a7f000000000000000000000000000000000000000000000000000000000000000081565b6102976102923660046110e6565b610aaa565b6040519015158152602001610125565b6001546001600160a01b031661018a565b6101f56102c63660046110e6565b610b26565b6102d3610fe6565b336102e66002546001600160a01b031690565b6001600160a01b031614806103145750336103096000546001600160a01b031690565b6001600160a01b0316145b61038b5760405162461bcd60e51b815260206004820152602660248201527f4d616e61676561626c652f63616c6c65722d6e6f742d6d616e616765722d6f7260448201527f2d6f776e6572000000000000000000000000000000000000000000000000000060648201526084015b60405180910390fd5b600061039784846109cb565b6040517f1124e1dc0000000000000000000000000000000000000000000000000000000081529091506001600160a01b037f00000000000000000000000000000000000000000000000000000000000000001690631124e1dc906104019087908590600401611506565b602060405180830381600087803b15801561041b57600080fd5b505af115801561042f573d6000803e3d6000fd5b505050506040513d601f19601f8201168201806040525081019061045391906111bc565b508363ffffffff167f362b45fbcdb636bf7950cef7aeb4d38e93501268c3627eb4fd7c68d1550eaea98460405161048c91815260200190565b60405180910390a290505b92915050565b6104a5610fe6565b336104b86000546001600160a01b031690565b6001600160a01b03161461050e5760405162461bcd60e51b815260206004820152601860248201527f4f776e61626c652f63616c6c65722d6e6f742d6f776e657200000000000000006044820152606401610382565b600061051a84846109cb565b6040517fce336ce90000000000000000000000000000000000000000000000000000000081529091506001600160a01b037f0000000000000000000000000000000000000000000000000000000000000000169063ce336ce9906105849087908590600401611506565b602060405180830381600087803b15801561059e57600080fd5b505af11580156105b2573d6000803e3d6000fd5b505050506040513d601f19601f820116820180604052508101906105d69190611302565b508363ffffffff167f62230ad64212d08d65551ffdab2c5eb6be8c31bea5d493cac0a51a65f84758e98460405161048c91815260200190565b6001546001600160a01b031633146106695760405162461bcd60e51b815260206004820152601f60248201527f4f776e61626c652f63616c6c65722d6e6f742d70656e64696e674f776e6572006044820152606401610382565b60015461067e906001600160a01b0316610c62565b6001805473ffffffffffffffffffffffffffffffffffffffff19169055565b6106a5610fe6565b60006106d17f0000000000000000000000000000000000000000000000000000000000000000866115a0565b905060006106e0878684610cbf565b60408051600180825281830190925291925060009190602080830190803683375050604080516001808252818301909252929350600092915060208083019080368337505050604084015190915061073e9063ffffffff16876116cf565b826000815181106107515761075161172e565b67ffffffffffffffff90921660209283029190910190910152606083015161077f9063ffffffff16876116cf565b816000815181106107925761079261172e565b67ffffffffffffffff909216602092830291909101909101526040517f8e6d536a0000000000000000000000000000000000000000000000000000000081526000906001600160a01b037f00000000000000000000000000000000000000000000000000000000000000001690638e6d536a9061081590869086906004016114c9565b60006040518083038186803b15801561082d57600080fd5b505afa158015610841573d6000803e3d6000fd5b505050506040513d6000823e601f3d908101601f19168201604052610869919081019061110f565b90508060008151811061087e5761087e61172e565b60200260200101518910156108d55760405162461bcd60e51b815260206004820152601a60248201527f5044462f696e76616c69642d6e6574776f726b2d737570706c790000000000006044820152606401610382565b88156109405761092789826000815181106108f2576108f261172e565b60200260200101518660c001516cffffffffffffffffffffffffff1661091891906116b0565b61092291906115a0565b610e71565b6cffffffffffffffffffffffffff1660c0850152610948565b600060c08501525b509198975050505050505050565b336109696000546001600160a01b031690565b6001600160a01b0316146109bf5760405162461bcd60e51b815260206004820152601860248201527f4f776e61626c652f63616c6c65722d6e6f742d6f776e657200000000000000006044820152606401610382565b6109c96000610c62565b565b6109d3610fe6565b6040517f83c34aaf00000000000000000000000000000000000000000000000000000000815263ffffffff841660048201526000907f00000000000000000000000000000000000000000000000000000000000000006001600160a01b0316906383c34aaf9060240160a06040518083038186803b158015610a5457600080fd5b505afa158015610a68573d6000803e3d6000fd5b505050506040513d601f19601f82011682018060405250810190610a8c91906111de565b9050610aa284848360800151846040015161069d565b949350505050565b600033610abf6000546001600160a01b031690565b6001600160a01b031614610b155760405162461bcd60e51b815260206004820152601860248201527f4f776e61626c652f63616c6c65722d6e6f742d6f776e657200000000000000006044820152606401610382565b610b1e82610efa565b90505b919050565b33610b396000546001600160a01b031690565b6001600160a01b031614610b8f5760405162461bcd60e51b815260206004820152601860248201527f4f776e61626c652f63616c6c65722d6e6f742d6f776e657200000000000000006044820152606401610382565b6001600160a01b038116610c0b5760405162461bcd60e51b815260206004820152602560248201527f4f776e61626c652f70656e64696e674f776e65722d6e6f742d7a65726f2d616460448201527f64726573730000000000000000000000000000000000000000000000000000006064820152608401610382565b6001805473ffffffffffffffffffffffffffffffffffffffff19166001600160a01b0383169081179091556040517f239a2ddded15777fa246aed5f7e1a9bc69a39d4eb4a397034d1d85766cca7d4c90600090a250565b600080546001600160a01b0383811673ffffffffffffffffffffffffffffffffffffffff19831681178455604051919092169283917f8be0079c531659141344cd1fd0a4f28419497f9722a3daafe3b4186f6b6457e09190a35050565b610cc7610fe6565b6040517f4aac253d00000000000000000000000000000000000000000000000000000000815263ffffffff851660048201526000907f00000000000000000000000000000000000000000000000000000000000000006001600160a01b031690634aac253d906024016102c06040518083038186803b158015610d4957600080fd5b505afa158015610d5d573d6000803e3d6000fd5b505050506040513d601f19601f82011682018060405250810190610d81919061126d565b905060005b80610d90816116f8565b9150849050610da082600161157b565b8351610dad906002611605565b610db79190611605565b10610d86576000604051806101200160405280846000015160ff1681526020018360ff1681526020018763ffffffff168152602001846080015163ffffffff168152602001846040015163ffffffff168152602001846060015163ffffffff168152602001610e3b8486600001516002610e319190611605565b6109229190611605565b6cffffffffffffffffffffffffff1681526020018460c0015181526020018460a0015181525090508093505050505b9392505050565b60006cffffffffffffffffffffffffff821115610ef65760405162461bcd60e51b815260206004820152602760248201527f53616665436173743a2076616c756520646f65736e27742066697420696e203160448201527f30342062697473000000000000000000000000000000000000000000000000006064820152608401610382565b5090565b6002546000906001600160a01b03908116908316811415610f835760405162461bcd60e51b815260206004820152602360248201527f4d616e61676561626c652f6578697374696e672d6d616e616765722d6164647260448201527f65737300000000000000000000000000000000000000000000000000000000006064820152608401610382565b6002805473ffffffffffffffffffffffffffffffffffffffff19166001600160a01b0385811691821790925560405190918316907f9cb45c728de594dab506a1f1a8554e24c8eeaf983618d5ec5dd7bc6f3c49feee90600090a350600192915050565b6040805161012081018252600080825260208201819052918101829052606081018290526080810182905260a0810182905260c081019190915260e0810161102c611039565b8152602001600081525090565b6040518061020001604052806010906020820280368337509192915050565b600082601f83011261106957600080fd5b60405161020080820182811067ffffffffffffffff8211171561108e5761108e611744565b60405281848281018710156110a257600080fd5b600092505b60108310156110d05780516110bb8161175a565b825260019290920191602091820191016110a7565b509195945050505050565b8051610b218161175a565b6000602082840312156110f857600080fd5b81356001600160a01b0381168114610e6a57600080fd5b6000602080838503121561112257600080fd5b825167ffffffffffffffff8082111561113a57600080fd5b818501915085601f83011261114e57600080fd5b81518181111561116057611160611744565b8060051b915061117184830161154a565b8181528481019084860184860187018a101561118c57600080fd5b600095505b838610156111af578051835260019590950194918601918601611191565b5098975050505050505050565b6000602082840312156111ce57600080fd5b81518015158114610e6a57600080fd5b600060a082840312156111f057600080fd5b60405160a0810181811067ffffffffffffffff8211171561121357611213611744565b6040528251815260208301516112288161175a565b6020820152604083015161123b8161176f565b6040820152606083015161124e8161176f565b606082015260808301516112618161175a565b60808201529392505050565b60006102c0828403121561128057600080fd5b611288611521565b825160ff8116811461129957600080fd5b81526112a7602084016110db565b60208201526112b8604084016110db565b60408201526112c9606084016110db565b60608201526112da608084016110db565b608082015260a083015160a08201526112f68460c08501611058565b60c08201529392505050565b60006020828403121561131457600080fd5b8151610e6a8161175a565b6000806040838503121561133257600080fd5b823561133d8161175a565b946020939093013593505050565b6000806000806080858703121561136157600080fd5b843561136c8161175a565b93506020850135925060408501356113838161175a565b915060608501356113938161176f565b939692955090935050565b8060005b60108110156113c757815163ffffffff168452602093840193909101906001016113a2565b50505050565b600081518084526020808501945080840160005b8381101561140757815167ffffffffffffffff16875295820195908201906001016113e1565b509495945050505050565b60ff815116825260ff6020820151166020830152604081015161143d604084018263ffffffff169052565b506060810151611455606084018263ffffffff169052565b50608081015161146d608084018263ffffffff169052565b5060a081015161148560a084018263ffffffff169052565b5060c08101516114a660c08401826cffffffffffffffffffffffffff169052565b5060e08101516114b960e084018261139e565b5061010001516102e09190910152565b6040815260006114dc60408301856113cd565b82810360208401526114ee81856113cd565b95945050505050565b61030081016104978284611412565b63ffffffff831681526103208101610e6a6020830184611412565b60405160e0810167ffffffffffffffff8111828210171561154457611544611744565b60405290565b604051601f8201601f1916810167ffffffffffffffff8111828210171561157357611573611744565b604052919050565b600060ff821660ff84168060ff0382111561159857611598611718565b019392505050565b6000826115bd57634e487b7160e01b600052601260045260246000fd5b500490565b600181815b808511156115fd5781600019048211156115e3576115e3611718565b808516156115f057918102915b93841c93908002906115c7565b509250929050565b6000610e6a60ff84168360008261161e57506001610497565b8161162b57506000610497565b8160018114611641576002811461164b57611667565b6001915050610497565b60ff84111561165c5761165c611718565b50506001821b610497565b5060208310610133831016604e8410600b841016171561168a575081810a610497565b61169483836115c2565b80600019048211156116a8576116a8611718565b029392505050565b60008160001904831182151516156116ca576116ca611718565b500290565b600067ffffffffffffffff838116908316818110156116f0576116f0611718565b039392505050565b600060ff821660ff81141561170f5761170f611718565b60010192915050565b634e487b7160e01b600052601160045260246000fd5b634e487b7160e01b600052603260045260246000fd5b634e487b7160e01b600052604160045260246000fd5b63ffffffff8116811461176c57600080fd5b50565b67ffffffffffffffff8116811461176c57600080fdfea264697066735822122073c06e78f141b740821763ebf9bba41de4b16e1013fcaf4afc9d14b631511ddf64736f6c63430008060033",
  "devdoc": {
    "author": "PoolTogether Inc.",
    "events": {
      "PrizeDistributionPushed(uint32,uint256)": {
        "params": {
          "drawId": "The draw id for which the prize dist was pushed",
          "totalNetworkTicketSupply": "The total network ticket supply that was used to compute the cardinality and portion of picks"
        }
      },
      "PrizeDistributionSet(uint32,uint256)": {
        "params": {
          "drawId": "The draw id for which the prize dist was set",
          "totalNetworkTicketSupply": "The total network ticket supply that was used to compute the cardinality and portion of picks"
        }
      }
    },
    "kind": "dev",
    "methods": {
      "calculatePrizeDistribution(uint32,uint256)": {
        "params": {
          "_drawId": "The draw id to pull from the Draw Buffer and Prize Tier History",
          "_totalNetworkTicketSupply": "The total of all ticket supplies across all prize pools in this network"
        },
        "returns": {
          "_0": "PrizeDistribution using info from the Draw for the given draw id, total network ticket supply, and PrizeTier for the draw."
        }
      },
      "calculatePrizeDistributionWithDrawData(uint32,uint256,uint32,uint64)": {
        "params": {
          "_beaconPeriodSeconds": "The beacon period in seconds",
          "_drawId": "The draw from which to use the Draw and",
          "_drawTimestamp": "The timestamp at which the draw RNG request started.",
          "_totalNetworkTicketSupply": "The sum of all ticket supplies across all prize pools on the network"
        },
        "returns": {
          "_0": "A PrizeDistribution based on the given params and PrizeTier for the passed draw id"
        }
      },
      "claimOwnership()": {
        "details": "This function is only callable by the `_pendingOwner`."
      },
      "manager()": {
        "returns": {
          "_0": "Current `_manager` address."
        }
      },
      "pendingOwner()": {
        "returns": {
          "_0": "Current `_pendingOwner` address."
        }
      },
      "pushPrizeDistribution(uint32,uint256)": {
        "params": {
          "_drawId": "The draw id to compute for",
          "_totalNetworkTicketSupply": "The total supply of tickets across all prize pools for the network that the ticket belongs to."
        },
        "returns": {
          "_0": "The resulting Prize Distribution"
        }
      },
      "renounceOwnership()": {
        "details": "Leaves the contract without owner. It will not be possible to call `onlyOwner` functions anymore. Can only be called by the current owner. NOTE: Renouncing ownership will leave the contract without an owner, thereby removing any functionality that is only available to the owner."
      },
      "setManager(address)": {
        "details": "Throws if called by any account other than the owner.",
        "params": {
          "_newManager": "New _manager address."
        },
        "returns": {
          "_0": "Boolean to indicate if the operation was successful or not."
        }
      },
      "setPrizeDistribution(uint32,uint256)": {
        "params": {
          "_drawId": "The draw id to compute for",
          "_totalNetworkTicketSupply": "The total supply of tickets across all prize pools for the network that the ticket belongs to."
        },
        "returns": {
          "_0": "The resulting Prize Distribution"
        }
      },
      "transferOwnership(address)": {
        "params": {
          "_newOwner": "Address to transfer ownership to."
        }
      }
    },
    "title": "Prize Distribution Factory",
    "version": 1
  },
  "userdoc": {
    "events": {
      "PrizeDistributionPushed(uint32,uint256)": {
        "notice": "Emitted when a new Prize Distribution is pushed."
      },
      "PrizeDistributionSet(uint32,uint256)": {
        "notice": "Emitted when a Prize Distribution is set (overrides another)"
      }
    },
    "kind": "user",
    "methods": {
      "calculatePrizeDistribution(uint32,uint256)": {
        "notice": "Calculates what the prize distribution will be, given a draw id and total network ticket supply."
      },
      "calculatePrizeDistributionWithDrawData(uint32,uint256,uint32,uint64)": {
        "notice": "Calculates what the prize distribution will be, given a draw id and total network ticket supply."
      },
      "claimOwnership()": {
        "notice": "Allows the `_pendingOwner` address to finalize the transfer."
      },
      "drawBuffer()": {
        "notice": "The draw buffer to pull the draw from"
      },
      "manager()": {
        "notice": "Gets current `_manager`."
      },
      "minPickCost()": {
        "notice": "The minimum cost of each pick.  Used to calculate the cardinality."
      },
      "owner()": {
        "notice": "Returns the address of the current owner."
      },
      "pendingOwner()": {
        "notice": "Gets current `_pendingOwner`."
      },
      "prizeDistributionBuffer()": {
        "notice": "The prize distribution buffer to push and set.  This contract must be the manager or owner of the buffer."
      },
      "prizeTierHistory()": {
        "notice": "The prize tier history to pull tier information from"
      },
      "pushPrizeDistribution(uint32,uint256)": {
        "notice": "Allows the owner or manager to push a new prize distribution onto the buffer. The PrizeTier and Draw for the given draw id will be pulled in, and the total network ticket supply will be used to calculate cardinality."
      },
      "renounceOwnership()": {
        "notice": "Renounce ownership of the contract."
      },
      "setManager(address)": {
        "notice": "Set or change of manager."
      },
      "setPrizeDistribution(uint32,uint256)": {
        "notice": "Allows the owner or manager to override an existing prize distribution in the buffer. The PrizeTier and Draw for the given draw id will be pulled in, and the total network ticket supply will be used to calculate cardinality."
      },
      "ticket()": {
        "notice": "The ticket whose average total supply will be measured to calculate the portion of picks"
      },
      "transferOwnership(address)": {
        "notice": "Allows current owner to set the `_pendingOwner` address."
      }
    },
    "notice": "The Prize Distribution Factory populates a Prize Distribution Buffer for a prize pool.  It uses a Prize Tier History, Draw Buffer and Ticket to compute the correct prize distribution.  It automatically sets the cardinality based on the minPickCost and the total network ticket supply.",
    "version": 1
  },
  "storageLayout": {
    "storage": [
      {
        "astId": 4755,
        "contract": "@pooltogether/v4-periphery/contracts/PrizeDistributionFactory.sol:PrizeDistributionFactory",
        "label": "_owner",
        "offset": 0,
        "slot": "0",
        "type": "t_address"
      },
      {
        "astId": 4757,
        "contract": "@pooltogether/v4-periphery/contracts/PrizeDistributionFactory.sol:PrizeDistributionFactory",
        "label": "_pendingOwner",
        "offset": 0,
        "slot": "1",
        "type": "t_address"
      },
      {
        "astId": 4653,
        "contract": "@pooltogether/v4-periphery/contracts/PrizeDistributionFactory.sol:PrizeDistributionFactory",
        "label": "_manager",
        "offset": 0,
        "slot": "2",
        "type": "t_address"
      }
    ],
    "types": {
      "t_address": {
        "encoding": "inplace",
        "label": "address",
        "numberOfBytes": "20"
      }
    }
  }
}