{
  "address": "0xEeF2297e15CD085A0ad33197CE8c2Eab6F023c2B",
  "abi": [
    {
      "inputs": [
        {
          "internalType": "contract IAToken",
          "name": "_aToken",
          "type": "address"
        },
        {
          "internalType": "contract IRewardsController",
          "name": "_rewardsController",
          "type": "address"
        },
        {
          "internalType": "contract IPoolAddressesProviderRegistry",
          "name": "_poolAddressesProviderRegistry",
          "type": "address"
        },
        {
          "internalType": "string",
          "name": "_name",
          "type": "string"
        },
        {
          "internalType": "string",
          "name": "_symbol",
          "type": "string"
        },
        {
          "internalType": "uint8",
          "name": "decimals_",
          "type": "uint8"
        },
        {
          "internalType": "address",
          "name": "_owner",
          "type": "address"
        }
      ],
      "stateMutability": "nonpayable",
      "type": "constructor"
    },
    {
      "anonymous": false,
      "inputs": [
        {
          "indexed": true,
          "internalType": "contract IAToken",
          "name": "aToken",
          "type": "address"
        },
        {
          "indexed": false,
          "internalType": "contract IRewardsController",
          "name": "rewardsController",
          "type": "address"
        },
        {
          "indexed": false,
          "internalType": "contract IPoolAddressesProviderRegistry",
          "name": "poolAddressesProviderRegistry",
          "type": "address"
        },
        {
          "indexed": false,
          "internalType": "string",
          "name": "name",
          "type": "string"
        },
        {
          "indexed": false,
          "internalType": "string",
          "name": "symbol",
          "type": "string"
        },
        {
          "indexed": false,
          "internalType": "uint8",
          "name": "decimals",
          "type": "uint8"
        },
        {
          "indexed": true,
          "internalType": "address",
          "name": "owner",
          "type": "address"
        }
      ],
      "name": "AaveV3YieldSourceInitialized",
      "type": "event"
    },
    {
      "anonymous": false,
      "inputs": [
        {
          "indexed": true,
          "internalType": "address",
          "name": "owner",
          "type": "address"
        },
        {
          "indexed": true,
          "internalType": "address",
          "name": "spender",
          "type": "address"
        },
        {
          "indexed": false,
          "internalType": "uint256",
          "name": "value",
          "type": "uint256"
        }
      ],
      "name": "Approval",
      "type": "event"
    },
    {
      "anonymous": false,
      "inputs": [
        {
          "indexed": true,
          "internalType": "address",
          "name": "from",
          "type": "address"
        },
        {
          "indexed": true,
          "internalType": "address",
          "name": "to",
          "type": "address"
        },
        {
          "indexed": false,
          "internalType": "address[]",
          "name": "rewardsList",
          "type": "address[]"
        },
        {
          "indexed": false,
          "internalType": "uint256[]",
          "name": "claimedAmounts",
          "type": "uint256[]"
        }
      ],
      "name": "Claimed",
      "type": "event"
    },
    {
      "anonymous": false,
      "inputs": [
        {
          "indexed": true,
          "internalType": "address",
          "name": "from",
          "type": "address"
        },
        {
          "indexed": true,
          "internalType": "address",
          "name": "spender",
          "type": "address"
        },
        {
          "indexed": false,
          "internalType": "uint256",
          "name": "amount",
          "type": "uint256"
        },
        {
          "indexed": true,
          "internalType": "contract IERC20",
          "name": "token",
          "type": "address"
        }
      ],
      "name": "DecreasedERC20Allowance",
      "type": "event"
    },
    {
      "anonymous": false,
      "inputs": [
        {
          "indexed": true,
          "internalType": "address",
          "name": "from",
          "type": "address"
        },
        {
          "indexed": true,
          "internalType": "address",
          "name": "spender",
          "type": "address"
        },
        {
          "indexed": false,
          "internalType": "uint256",
          "name": "amount",
          "type": "uint256"
        },
        {
          "indexed": true,
          "internalType": "contract IERC20",
          "name": "token",
          "type": "address"
        }
      ],
      "name": "IncreasedERC20Allowance",
      "type": "event"
    },
    {
      "anonymous": false,
      "inputs": [
        {
          "indexed": true,
          "internalType": "address",
          "name": "previousManager",
          "type": "address"
        },
        {
          "indexed": true,
          "internalType": "address",
          "name": "newManager",
          "type": "address"
        }
      ],
      "name": "ManagerTransferred",
      "type": "event"
    },
    {
      "anonymous": false,
      "inputs": [
        {
          "indexed": true,
          "internalType": "address",
          "name": "pendingOwner",
          "type": "address"
        }
      ],
      "name": "OwnershipOffered",
      "type": "event"
    },
    {
      "anonymous": false,
      "inputs": [
        {
          "indexed": true,
          "internalType": "address",
          "name": "previousOwner",
          "type": "address"
        },
        {
          "indexed": true,
          "internalType": "address",
          "name": "newOwner",
          "type": "address"
        }
      ],
      "name": "OwnershipTransferred",
      "type": "event"
    },
    {
      "anonymous": false,
      "inputs": [
        {
          "indexed": true,
          "internalType": "address",
          "name": "from",
          "type": "address"
        },
        {
          "indexed": false,
          "internalType": "uint256",
          "name": "shares",
          "type": "uint256"
        },
        {
          "indexed": false,
          "internalType": "uint256",
          "name": "amount",
          "type": "uint256"
        }
      ],
      "name": "RedeemedToken",
      "type": "event"
    },
    {
      "anonymous": false,
      "inputs": [
        {
          "indexed": true,
          "internalType": "address",
          "name": "from",
          "type": "address"
        },
        {
          "indexed": false,
          "internalType": "uint256",
          "name": "shares",
          "type": "uint256"
        },
        {
          "indexed": false,
          "internalType": "uint256",
          "name": "amount",
          "type": "uint256"
        },
        {
          "indexed": true,
          "internalType": "address",
          "name": "to",
          "type": "address"
        }
      ],
      "name": "SuppliedTokenTo",
      "type": "event"
    },
    {
      "anonymous": false,
      "inputs": [
        {
          "indexed": true,
          "internalType": "address",
          "name": "from",
          "type": "address"
        },
        {
          "indexed": true,
          "internalType": "address",
          "name": "to",
          "type": "address"
        },
        {
          "indexed": false,
          "internalType": "uint256",
          "name": "value",
          "type": "uint256"
        }
      ],
      "name": "Transfer",
      "type": "event"
    },
    {
      "anonymous": false,
      "inputs": [
        {
          "indexed": true,
          "internalType": "address",
          "name": "from",
          "type": "address"
        },
        {
          "indexed": true,
          "internalType": "address",
          "name": "to",
          "type": "address"
        },
        {
          "indexed": false,
          "internalType": "uint256",
          "name": "amount",
          "type": "uint256"
        },
        {
          "indexed": true,
          "internalType": "contract IERC20",
          "name": "token",
          "type": "address"
        }
      ],
      "name": "TransferredERC20",
      "type": "event"
    },
    {
      "inputs": [],
      "name": "aToken",
      "outputs": [
        {
          "internalType": "contract IAToken",
          "name": "",
          "type": "address"
        }
      ],
      "stateMutability": "view",
      "type": "function"
    },
    {
      "inputs": [
        {
          "internalType": "address",
          "name": "owner",
          "type": "address"
        },
        {
          "internalType": "address",
          "name": "spender",
          "type": "address"
        }
      ],
      "name": "allowance",
      "outputs": [
        {
          "internalType": "uint256",
          "name": "",
          "type": "uint256"
        }
      ],
      "stateMutability": "view",
      "type": "function"
    },
    {
      "inputs": [
        {
          "internalType": "address",
          "name": "spender",
          "type": "address"
        },
        {
          "internalType": "uint256",
          "name": "amount",
          "type": "uint256"
        }
      ],
      "name": "approve",
      "outputs": [
        {
          "internalType": "bool",
          "name": "",
          "type": "bool"
        }
      ],
      "stateMutability": "nonpayable",
      "type": "function"
    },
    {
      "inputs": [
        {
          "internalType": "address",
          "name": "account",
          "type": "address"
        }
      ],
      "name": "balanceOf",
      "outputs": [
        {
          "internalType": "uint256",
          "name": "",
          "type": "uint256"
        }
      ],
      "stateMutability": "view",
      "type": "function"
    },
    {
      "inputs": [
        {
          "internalType": "address",
          "name": "_user",
          "type": "address"
        }
      ],
      "name": "balanceOfToken",
      "outputs": [
        {
          "internalType": "uint256",
          "name": "",
          "type": "uint256"
        }
      ],
      "stateMutability": "view",
      "type": "function"
    },
    {
      "inputs": [],
      "name": "claimOwnership",
      "outputs": [],
      "stateMutability": "nonpayable",
      "type": "function"
    },
    {
      "inputs": [
        {
          "internalType": "address",
          "name": "_to",
          "type": "address"
        }
      ],
      "name": "claimRewards",
      "outputs": [],
      "stateMutability": "nonpayable",
      "type": "function"
    },
    {
      "inputs": [],
      "name": "decimals",
      "outputs": [
        {
          "internalType": "uint8",
          "name": "",
          "type": "uint8"
        }
      ],
      "stateMutability": "view",
      "type": "function"
    },
    {
      "inputs": [
        {
          "internalType": "address",
          "name": "spender",
          "type": "address"
        },
        {
          "internalType": "uint256",
          "name": "subtractedValue",
          "type": "uint256"
        }
      ],
      "name": "decreaseAllowance",
      "outputs": [
        {
          "internalType": "bool",
          "name": "",
          "type": "bool"
        }
      ],
      "stateMutability": "nonpayable",
      "type": "function"
    },
    {
      "inputs": [
        {
          "internalType": "contract IERC20",
          "name": "_token",
          "type": "address"
        },
        {
          "internalType": "address",
          "name": "_spender",
          "type": "address"
        },
        {
          "internalType": "uint256",
          "name": "_amount",
          "type": "uint256"
        }
      ],
      "name": "decreaseERC20Allowance",
      "outputs": [],
      "stateMutability": "nonpayable",
      "type": "function"
    },
    {
      "inputs": [],
      "name": "depositToken",
      "outputs": [
        {
          "internalType": "address",
          "name": "",
          "type": "address"
        }
      ],
      "stateMutability": "view",
      "type": "function"
    },
    {
      "inputs": [
        {
          "internalType": "address",
          "name": "spender",
          "type": "address"
        },
        {
          "internalType": "uint256",
          "name": "addedValue",
          "type": "uint256"
        }
      ],
      "name": "increaseAllowance",
      "outputs": [
        {
          "internalType": "bool",
          "name": "",
          "type": "bool"
        }
      ],
      "stateMutability": "nonpayable",
      "type": "function"
    },
    {
      "inputs": [
        {
          "internalType": "contract IERC20",
          "name": "_token",
          "type": "address"
        },
        {
          "internalType": "address",
          "name": "_spender",
          "type": "address"
        },
        {
          "internalType": "uint256",
          "name": "_amount",
          "type": "uint256"
        }
      ],
      "name": "increaseERC20Allowance",
      "outputs": [],
      "stateMutability": "nonpayable",
      "type": "function"
    },
    {
      "inputs": [],
      "name": "manager",
      "outputs": [
        {
          "internalType": "address",
          "name": "",
          "type": "address"
        }
      ],
      "stateMutability": "view",
      "type": "function"
    },
    {
      "inputs": [],
      "name": "name",
      "outputs": [
        {
          "internalType": "string",
          "name": "",
          "type": "string"
        }
      ],
      "stateMutability": "view",
      "type": "function"
    },
    {
      "inputs": [],
      "name": "owner",
      "outputs": [
        {
          "internalType": "address",
          "name": "",
          "type": "address"
        }
      ],
      "stateMutability": "view",
      "type": "function"
    },
    {
      "inputs": [],
      "name": "pendingOwner",
      "outputs": [
        {
          "internalType": "address",
          "name": "",
          "type": "address"
        }
      ],
      "stateMutability": "view",
      "type": "function"
    },
    {
      "inputs": [],
      "name": "poolAddressesProviderRegistry",
      "outputs": [
        {
          "internalType": "contract IPoolAddressesProviderRegistry",
          "name": "",
          "type": "address"
        }
      ],
      "stateMutability": "view",
      "type": "function"
    },
    {
      "inputs": [
        {
          "internalType": "uint256",
          "name": "_redeemAmount",
          "type": "uint256"
        }
      ],
      "name": "redeemToken",
      "outputs": [
        {
          "internalType": "uint256",
          "name": "",
          "type": "uint256"
        }
      ],
      "stateMutability": "nonpayable",
      "type": "function"
    },
    {
      "inputs": [],
      "name": "renounceOwnership",
      "outputs": [],
      "stateMutability": "nonpayable",
      "type": "function"
    },
    {
      "inputs": [],
      "name": "rewardsController",
      "outputs": [
        {
          "internalType": "contract IRewardsController",
          "name": "",
          "type": "address"
        }
      ],
      "stateMutability": "view",
      "type": "function"
    },
    {
      "inputs": [
        {
          "internalType": "address",
          "name": "_newManager",
          "type": "address"
        }
      ],
      "name": "setManager",
      "outputs": [
        {
          "internalType": "bool",
          "name": "",
          "type": "bool"
        }
      ],
      "stateMutability": "nonpayable",
      "type": "function"
    },
    {
      "inputs": [
        {
          "internalType": "uint256",
          "name": "_depositAmount",
          "type": "uint256"
        },
        {
          "internalType": "address",
          "name": "_to",
          "type": "address"
        }
      ],
      "name": "supplyTokenTo",
      "outputs": [],
      "stateMutability": "nonpayable",
      "type": "function"
    },
    {
      "inputs": [],
      "name": "symbol",
      "outputs": [
        {
          "internalType": "string",
          "name": "",
          "type": "string"
        }
      ],
      "stateMutability": "view",
      "type": "function"
    },
    {
      "inputs": [],
      "name": "totalSupply",
      "outputs": [
        {
          "internalType": "uint256",
          "name": "",
          "type": "uint256"
        }
      ],
      "stateMutability": "view",
      "type": "function"
    },
    {
      "inputs": [
        {
          "internalType": "address",
          "name": "recipient",
          "type": "address"
        },
        {
          "internalType": "uint256",
          "name": "amount",
          "type": "uint256"
        }
      ],
      "name": "transfer",
      "outputs": [
        {
          "internalType": "bool",
          "name": "",
          "type": "bool"
        }
      ],
      "stateMutability": "nonpayable",
      "type": "function"
    },
    {
      "inputs": [
        {
          "internalType": "contract IERC20",
          "name": "_token",
          "type": "address"
        },
        {
          "internalType": "address",
          "name": "_to",
          "type": "address"
        },
        {
          "internalType": "uint256",
          "name": "_amount",
          "type": "uint256"
        }
      ],
      "name": "transferERC20",
      "outputs": [],
      "stateMutability": "nonpayable",
      "type": "function"
    },
    {
      "inputs": [
        {
          "internalType": "address",
          "name": "sender",
          "type": "address"
        },
        {
          "internalType": "address",
          "name": "recipient",
          "type": "address"
        },
        {
          "internalType": "uint256",
          "name": "amount",
          "type": "uint256"
        }
      ],
      "name": "transferFrom",
      "outputs": [
        {
          "internalType": "bool",
          "name": "",
          "type": "bool"
        }
      ],
      "stateMutability": "nonpayable",
      "type": "function"
    },
    {
      "inputs": [
        {
          "internalType": "address",
          "name": "_newOwner",
          "type": "address"
        }
      ],
      "name": "transferOwnership",
      "outputs": [],
      "stateMutability": "nonpayable",
      "type": "function"
    }
  ],
  "transactionHash": "0xf6374aed919aedc124c4fd9121f91931c38afb6b4b3eb8a43223a47c7d75e602",
  "args": [
    "0x625E7708f30cA75bfd92586e17077590C60eb4cD",
    "0x929EC64c34a17401F460460D4B9390518E5B473e",
    "0x770ef9f4fe897e59daCc474EF11238303F9552b6",
    "PoolTogether aOptUSDC Yield",
    "PTaOptUSDCY",
    6,
    "0x8d352083F7094dc51Cd7dA8c5C0985AD6e149629"
  ],
  "numDeployments": 1,
  "solcInputHash": "ff7e67c0ff14d2da1bf9b03eede41cd1",
  "bytecode": "0x6101406040523480156200001257600080fd5b506040516200398738038062003987833981016040819052620000359162000a34565b80848481600390805190602001906200005092919062000873565b5080516200006690600490602084019062000873565b5050506200007a816200037560201b60201c565b5060016008556001600160a01b038116620000dc5760405162461bcd60e51b815260206004820152601f60248201527f41617665563359532f6f776e65722d6e6f742d7a65726f2d616464726573730060448201526064015b60405180910390fd5b6001600160a01b038716620001345760405162461bcd60e51b815260206004820181905260248201527f41617665563359532f61546f6b656e2d6e6f742d7a65726f2d616464726573736044820152606401620000d3565b60008260ff1611620001895760405162461bcd60e51b815260206004820152601960248201527f41617665563359532f646563696d616c732d67742d7a65726f000000000000006044820152606401620000d3565b6001600160a01b038616620001e15760405162461bcd60e51b815260206004820152601c60248201527f41617665563359532f52432d6e6f742d7a65726f2d61646472657373000000006044820152606401620000d3565b6001600160a01b038516620002395760405162461bcd60e51b815260206004820152601c60248201527f41617665563359532f50522d6e6f742d7a65726f2d61646472657373000000006044820152606401620000d3565b6001600160a01b03871660805260ff8216610120526200025b82600a62000c20565b6101008181525050866001600160a01b031663b16a19de6040518163ffffffff1660e01b8152600401602060405180830381865afa158015620002a2573d6000803e3d6000fd5b505050506040513d601f19601f82011682018060405250810190620002c8919062000c31565b6001600160a01b0390811660e05286811660a052851660c05262000313620002ef620003c7565b60001960e0516001600160a01b0316620004ba60201b6200140a179092919060201c565b806001600160a01b0316876001600160a01b03167fb4c0233428c55a68617f46f436f714ada4aebd76cf3d8844a1d76846ed646a8688888888886040516200036095949392919062000c7f565b60405180910390a35050505050505062000e59565b600580546001600160a01b038381166001600160a01b0319831681179093556040519116919082907f8be0079c531659141344cd1fd0a4f28419497f9722a3daafe3b4186f6b6457e090600090a35050565b600060c0516001600160a01b031663365ccbbf6040518163ffffffff1660e01b8152600401600060405180830381865afa1580156200040a573d6000803e3d6000fd5b505050506040513d6000823e601f3d908101601f1916820160405262000434919081019062000cd7565b60008151811062000449576200044962000d95565b60200260200101516001600160a01b031663026b1d5f6040518163ffffffff1660e01b8152600401602060405180830381865afa1580156200048f573d6000803e3d6000fd5b505050506040513d601f19601f82011682018060405250810190620004b5919062000c31565b905090565b801580620005385750604051636eb1769f60e11b81523060048201526001600160a01b03838116602483015284169063dd62ed3e90604401602060405180830381865afa15801562000510573d6000803e3d6000fd5b505050506040513d601f19601f8201168201806040525081019062000536919062000dab565b155b620005ac5760405162461bcd60e51b815260206004820152603660248201527f5361666545524332303a20617070726f76652066726f6d206e6f6e2d7a65726f60448201527f20746f206e6f6e2d7a65726f20616c6c6f77616e6365000000000000000000006064820152608401620000d3565b604080516001600160a01b038416602482015260448082018490528251808303909101815260649091019091526020810180516001600160e01b0390811663095ea7b360e01b17909152620006049185916200060916565b505050565b600062000665826040518060400160405280602081526020017f5361666545524332303a206c6f772d6c6576656c2063616c6c206661696c6564815250856001600160a01b0316620006e760201b6200158b179092919060201c565b80519091501562000604578080602001905181019062000686919062000dc5565b620006045760405162461bcd60e51b815260206004820152602a60248201527f5361666545524332303a204552433230206f7065726174696f6e20646964206e6044820152691bdd081cdd58d8d9595960b21b6064820152608401620000d3565b6060620006f8848460008562000702565b90505b9392505050565b606082471015620007655760405162461bcd60e51b815260206004820152602660248201527f416464726573733a20696e73756666696369656e742062616c616e636520666f6044820152651c8818d85b1b60d21b6064820152608401620000d3565b843b620007b55760405162461bcd60e51b815260206004820152601d60248201527f416464726573733a2063616c6c20746f206e6f6e2d636f6e74726163740000006044820152606401620000d3565b600080866001600160a01b03168587604051620007d3919062000de9565b60006040518083038185875af1925050503d806000811462000812576040519150601f19603f3d011682016040523d82523d6000602084013e62000817565b606091505b5090925090506200082a82828662000835565b979650505050505050565b6060831562000846575081620006fb565b825115620008575782518084602001fd5b8160405162461bcd60e51b8152600401620000d3919062000e07565b828054620008819062000e1c565b90600052602060002090601f016020900481019282620008a55760008555620008f0565b82601f10620008c057805160ff1916838001178555620008f0565b82800160010185558215620008f0579182015b82811115620008f0578251825591602001919060010190620008d3565b50620008fe92915062000902565b5090565b5b80821115620008fe576000815560010162000903565b6001600160a01b03811681146200092f57600080fd5b50565b634e487b7160e01b600052604160045260246000fd5b604051601f8201601f191681016001600160401b038111828210171562000973576200097362000932565b604052919050565b60005b83811015620009985781810151838201526020016200097e565b83811115620009a8576000848401525b50505050565b600082601f830112620009c057600080fd5b81516001600160401b03811115620009dc57620009dc62000932565b620009f1601f8201601f191660200162000948565b81815284602083860101111562000a0757600080fd5b62000a1a8260208301602087016200097b565b949350505050565b805162000a2f8162000919565b919050565b600080600080600080600060e0888a03121562000a5057600080fd5b875162000a5d8162000919565b602089015190975062000a708162000919565b604089015190965062000a838162000919565b60608901519095506001600160401b038082111562000aa157600080fd5b62000aaf8b838c01620009ae565b955060808a015191508082111562000ac657600080fd5b5062000ad58a828b01620009ae565b93505060a088015160ff8116811462000aed57600080fd5b915062000afd60c0890162000a22565b905092959891949750929550565b634e487b7160e01b600052601160045260246000fd5b600181815b8085111562000b6257816000190482111562000b465762000b4662000b0b565b8085161562000b5457918102915b93841c939080029062000b26565b509250929050565b60008262000b7b5750600162000c1a565b8162000b8a5750600062000c1a565b816001811462000ba3576002811462000bae5762000bce565b600191505062000c1a565b60ff84111562000bc25762000bc262000b0b565b50506001821b62000c1a565b5060208310610133831016604e8410600b841016171562000bf3575081810a62000c1a565b62000bff838362000b21565b806000190482111562000c165762000c1662000b0b565b0290505b92915050565b6000620006fb60ff84168362000b6a565b60006020828403121562000c4457600080fd5b8151620006fb8162000919565b6000815180845262000c6b8160208601602086016200097b565b601f01601f19169290920160200192915050565b6001600160a01b0386811682528516602082015260a06040820181905260009062000cad9083018662000c51565b828103606084015262000cc1818662000c51565b91505060ff831660808301529695505050505050565b6000602080838503121562000ceb57600080fd5b82516001600160401b038082111562000d0357600080fd5b818501915085601f83011262000d1857600080fd5b81518181111562000d2d5762000d2d62000932565b8060051b915062000d4084830162000948565b818152918301840191848101908884111562000d5b57600080fd5b938501935b8385101562000d89578451925062000d788362000919565b828252938501939085019062000d60565b98975050505050505050565b634e487b7160e01b600052603260045260246000fd5b60006020828403121562000dbe57600080fd5b5051919050565b60006020828403121562000dd857600080fd5b81518015158114620006fb57600080fd5b6000825162000dfd8184602087016200097b565b9190910192915050565b602081526000620006fb602083018462000c51565b600181811c9082168062000e3157607f821691505b6020821081141562000e5357634e487b7160e01b600052602260045260246000fd5b50919050565b60805160a05160c05160e0516101005161012051612a8a62000efd60003960006102540152600081816116460152818161167b015281816116af01526117470152600081816103cc0152818161055c0152818161060e01528181610aa00152610b0001526000818161047801526118f90152600081816102c501526111f701526000818161035c01528181611182015281816115cd0152611f3f0152612a8a6000f3fe608060405234801561001057600080fd5b50600436106101cf5760003560e01c806395d89b4111610104578063c89039c5116100a2578063e30c397811610071578063e30c39781461044f578063ef5cfb8c14610460578063f2ca6b9114610473578063f2fde38b1461049a57600080fd5b8063c89039c5146103ca578063cad1b113146103f0578063d0ebdbe714610403578063dd62ed3e1461041657600080fd5b8063a457c2d7116100de578063a457c2d71461037e578063a9059cbb14610391578063b29fd859146103a4578063b99152d0146103b757600080fd5b806395d89b411461033c5780639db5dbe414610344578063a0c1f15e1461035757600080fd5b8063481c6a751161017157806370a082311161014b57806370a08231146102e7578063715018a61461031057806387a6eeef146103185780638da5cb5b1461032b57600080fd5b8063481c6a75146102915780634e71e0c8146102b65780636bb65f53146102c057600080fd5b806318160ddd116101ad57806318160ddd1461023257806323b872dd1461023a578063313ce5671461024d578063395093511461027e57600080fd5b8063013054c2146101d457806306fdde03146101fa578063095ea7b31461020f575b600080fd5b6101e76101e23660046124e1565b6104ad565b6040519081526020015b60405180910390f35b610202610762565b6040516101f19190612526565b61022261021d36600461256e565b6107f4565b60405190151581526020016101f1565b6002546101e7565b61022261024836600461259a565b61080a565b60405160ff7f00000000000000000000000000000000000000000000000000000000000000001681526020016101f1565b61022261028c36600461256e565b6108cb565b6007546001600160a01b03165b6040516001600160a01b0390911681526020016101f1565b6102be610907565b005b61029e7f000000000000000000000000000000000000000000000000000000000000000081565b6101e76102f53660046125db565b6001600160a01b031660009081526020819052604090205490565b6102be610995565b6102be6103263660046125f8565b610a0a565b6005546001600160a01b031661029e565b610202610bd6565b6102be61035236600461259a565b610be5565b61029e7f000000000000000000000000000000000000000000000000000000000000000081565b61022261038c36600461256e565b610cfa565b61022261039f36600461256e565b610dab565b6102be6103b236600461259a565b610db8565b6101e76103c53660046125db565b610ec0565b7f000000000000000000000000000000000000000000000000000000000000000061029e565b6102be6103fe36600461259a565b610ef0565b6102226104113660046125db565b610ff8565b6101e7610424366004612628565b6001600160a01b03918216600090815260016020908152604080832093909416825291909152205490565b6006546001600160a01b031661029e565b6102be61046e3660046125db565b61106c565b61029e7f000000000000000000000000000000000000000000000000000000000000000081565b6102be6104a83660046125db565b6112ce565b6000600260085414156105075760405162461bcd60e51b815260206004820152601f60248201527f5265656e7472616e637947756172643a207265656e7472616e742063616c6c0060448201526064015b60405180910390fd5b600260085560006105166115a2565b9050600061052484836116a1565b905061052f816116ea565b600061053b828461173d565b90506105473383611770565b6040516370a0823160e01b81523060048201527f0000000000000000000000000000000000000000000000000000000000000000906000906001600160a01b038316906370a0823190602401602060405180830381865afa1580156105b0573d6000803e3d6000fd5b505050506040513d601f19601f820116820180604052508101906105d49190612656565b90506105de6118f5565b6040517f69328dec0000000000000000000000000000000000000000000000000000000081526001600160a01b037f0000000000000000000000000000000000000000000000000000000000000000811660048301526024820186905230604483015291909116906369328dec906064016020604051808303816000875af115801561066e573d6000803e3d6000fd5b505050506040513d601f19601f820116820180604052508101906106929190612656565b506040516370a0823160e01b815230600482015260009082906001600160a01b038516906370a0823190602401602060405180830381865afa1580156106dc573d6000803e3d6000fd5b505050506040513d601f19601f820116820180604052508101906107009190612656565b0390506107176001600160a01b03841633836119fd565b604080518681526020810186905233917f5c9b0a8fe13a826ca676f5ad4f98c747b5086beb79ab58589b8211b62fa32fb9910160405180910390a26001600855979650505050505050565b6060600380546107719061266f565b80601f016020809104026020016040519081016040528092919081815260200182805461079d9061266f565b80156107ea5780601f106107bf576101008083540402835291602001916107ea565b820191906000526020600020905b8154815290600101906020018083116107cd57829003601f168201915b5050505050905090565b6000610801338484611a46565b50600192915050565b6000610817848484611b9e565b6001600160a01b0384166000908152600160209081526040808320338452909152902054828110156108b15760405162461bcd60e51b815260206004820152602860248201527f45524332303a207472616e7366657220616d6f756e742065786365656473206160448201527f6c6c6f77616e636500000000000000000000000000000000000000000000000060648201526084016104fe565b6108be8533858403611a46565b60019150505b9392505050565b3360008181526001602090815260408083206001600160a01b038716845290915281205490916108019185906109029086906126c0565b611a46565b6006546001600160a01b031633146109615760405162461bcd60e51b815260206004820152601f60248201527f4f776e61626c652f63616c6c65722d6e6f742d70656e64696e674f776e65720060448201526064016104fe565b600654610976906001600160a01b0316611dae565b6006805473ffffffffffffffffffffffffffffffffffffffff19169055565b336109a86005546001600160a01b031690565b6001600160a01b0316146109fe5760405162461bcd60e51b815260206004820152601860248201527f4f776e61626c652f63616c6c65722d6e6f742d6f776e6572000000000000000060448201526064016104fe565b610a086000611dae565b565b60026008541415610a5d5760405162461bcd60e51b815260206004820152601f60248201527f5265656e7472616e637947756172643a207265656e7472616e742063616c6c0060448201526064016104fe565b60026008556000610a6c6115a2565b90506000610a7a84836116a1565b9050610a85816116ea565b6000610a91828461173d565b9050610ac86001600160a01b037f000000000000000000000000000000000000000000000000000000000000000016333084611e0d565b610ad06118f5565b6040517f617ba0370000000000000000000000000000000000000000000000000000000081526001600160a01b037f0000000000000000000000000000000000000000000000000000000000000000811660048301526024820184905230604483015260bc6064830152919091169063617ba03790608401600060405180830381600087803b158015610b6257600080fd5b505af1158015610b76573d6000803e3d6000fd5b50505050610b848483611e5e565b60408051838152602081018390526001600160a01b0386169133917fdef5cc95ad9b1c65c586d0fce815ec764b575719636edf58ff2553ae6f110452910160405180910390a350506001600855505050565b6060600480546107719061266f565b33610bf86007546001600160a01b031690565b6001600160a01b03161480610c26575033610c1b6005546001600160a01b031690565b6001600160a01b0316145b610c815760405162461bcd60e51b815260206004820152602660248201527f4d616e61676561626c652f63616c6c65722d6e6f742d6d616e616765722d6f7260448201526516b7bbb732b960d11b60648201526084016104fe565b610c8a83611f3d565b610c9e6001600160a01b03841683836119fd565b826001600160a01b0316826001600160a01b0316336001600160a01b03167f29fcb7bb954d37295343e742bab21760748bdba4e026e4469a8100183996913884604051610ced91815260200190565b60405180910390a4505050565b3360009081526001602090815260408083206001600160a01b038616845290915281205482811015610d945760405162461bcd60e51b815260206004820152602560248201527f45524332303a2064656372656173656420616c6c6f77616e63652062656c6f7760448201527f207a65726f00000000000000000000000000000000000000000000000000000060648201526084016104fe565b610da13385858403611a46565b5060019392505050565b6000610801338484611b9e565b33610dcb6007546001600160a01b031690565b6001600160a01b03161480610df9575033610dee6005546001600160a01b031690565b6001600160a01b0316145b610e545760405162461bcd60e51b815260206004820152602660248201527f4d616e61676561626c652f63616c6c65722d6e6f742d6d616e616765722d6f7260448201526516b7bbb732b960d11b60648201526084016104fe565b610e5d83611f3d565b610e716001600160a01b0384168383611fbf565b826001600160a01b0316826001600160a01b0316336001600160a01b03167fb950f35bebfc57c18eb18b27fa6295af1f3f33aaf918012ecb50ab2238ef4dae84604051610ced91815260200190565b6001600160a01b038116600090815260208190526040812054610eea90610ee56115a2565b61173d565b92915050565b33610f036007546001600160a01b031690565b6001600160a01b03161480610f31575033610f266005546001600160a01b031690565b6001600160a01b0316145b610f8c5760405162461bcd60e51b815260206004820152602660248201527f4d616e61676561626c652f63616c6c65722d6e6f742d6d616e616765722d6f7260448201526516b7bbb732b960d11b60648201526084016104fe565b610f9583611f3d565b610fa96001600160a01b0384168383612071565b826001600160a01b0316826001600160a01b0316336001600160a01b03167fbde560dd72188a103801403edfa1655a8453dc173e65955668846925d687afe784604051610ced91815260200190565b60003361100d6005546001600160a01b031690565b6001600160a01b0316146110635760405162461bcd60e51b815260206004820152601860248201527f4f776e61626c652f63616c6c65722d6e6f742d6f776e6572000000000000000060448201526064016104fe565b610eea82612198565b3361107f6007546001600160a01b031690565b6001600160a01b031614806110ad5750336110a26005546001600160a01b031690565b6001600160a01b0316145b6111085760405162461bcd60e51b815260206004820152602660248201527f4d616e61676561626c652f63616c6c65722d6e6f742d6d616e616765722d6f7260448201526516b7bbb732b960d11b60648201526084016104fe565b6001600160a01b03811661115e5760405162461bcd60e51b815260206004820152601f60248201527f41617665563359532f70617965652d6e6f742d7a65726f2d616464726573730060448201526064016104fe565b604080516001808252818301909252600091602080830190803683370190505090507f0000000000000000000000000000000000000000000000000000000000000000816000815181106111b4576111b46126ee565b6001600160a01b0392831660209182029290920101526040517fbb492bf500000000000000000000000000000000000000000000000000000000815260009182917f00000000000000000000000000000000000000000000000000000000000000009091169063bb492bf5906112309086908890600401612748565b6000604051808303816000875af115801561124f573d6000803e3d6000fd5b505050506040513d6000823e601f3d908101601f19168201604052611277919081019061283c565b91509150836001600160a01b0316336001600160a01b03167f16b67bee17bd6fd679caacc21ffa680d8cf251cbf879eb3b6ef84716100c15ff84846040516112c09291906128f7565b60405180910390a350505050565b336112e16005546001600160a01b031690565b6001600160a01b0316146113375760405162461bcd60e51b815260206004820152601860248201527f4f776e61626c652f63616c6c65722d6e6f742d6f776e6572000000000000000060448201526064016104fe565b6001600160a01b0381166113b35760405162461bcd60e51b815260206004820152602560248201527f4f776e61626c652f70656e64696e674f776e65722d6e6f742d7a65726f2d616460448201527f647265737300000000000000000000000000000000000000000000000000000060648201526084016104fe565b6006805473ffffffffffffffffffffffffffffffffffffffff19166001600160a01b0383169081179091556040517f239a2ddded15777fa246aed5f7e1a9bc69a39d4eb4a397034d1d85766cca7d4c90600090a250565b8015806114845750604051636eb1769f60e11b81523060048201526001600160a01b03838116602483015284169063dd62ed3e90604401602060405180830381865afa15801561145e573d6000803e3d6000fd5b505050506040513d601f19601f820116820180604052508101906114829190612656565b155b6114f65760405162461bcd60e51b815260206004820152603660248201527f5361666545524332303a20617070726f76652066726f6d206e6f6e2d7a65726f60448201527f20746f206e6f6e2d7a65726f20616c6c6f77616e63650000000000000000000060648201526084016104fe565b6040516001600160a01b03831660248201526044810182905261158690849063095ea7b360e01b906064015b60408051601f198184030181529190526020810180517bffffffffffffffffffffffffffffffffffffffffffffffffffffffff167fffffffff0000000000000000000000000000000000000000000000000000000090931692909217909152612284565b505050565b606061159a8484600085612369565b949350505050565b6000806115ae60025490565b90508015611679576040516370a0823160e01b815230600482015281907f00000000000000000000000000000000000000000000000000000000000000006001600160a01b0316906370a0823190602401602060405180830381865afa15801561161c573d6000803e3d6000fd5b505050506040513d601f19601f820116820180604052508101906116409190612656565b61166a907f000000000000000000000000000000000000000000000000000000000000000061294e565b611674919061298b565b61169b565b7f00000000000000000000000000000000000000000000000000000000000000005b91505090565b600082156116e357816116d47f00000000000000000000000000000000000000000000000000000000000000008561294e565b6116de919061298b565b6108c4565b5090919050565b6000811161173a5760405162461bcd60e51b815260206004820152601760248201527f41617665563359532f7368617265732d67742d7a65726f00000000000000000060448201526064016104fe565b50565b600082156116e3577f00000000000000000000000000000000000000000000000000000000000000006116d4838561294e565b6001600160a01b0382166117ec5760405162461bcd60e51b815260206004820152602160248201527f45524332303a206275726e2066726f6d20746865207a65726f2061646472657360448201527f730000000000000000000000000000000000000000000000000000000000000060648201526084016104fe565b6001600160a01b0382166000908152602081905260409020548181101561187b5760405162461bcd60e51b815260206004820152602260248201527f45524332303a206275726e20616d6f756e7420657863656564732062616c616e60448201527f636500000000000000000000000000000000000000000000000000000000000060648201526084016104fe565b6001600160a01b03831660009081526020819052604081208383039055600280548492906118aa9084906129ad565b90915550506040518281526000906001600160a01b038516907fddf252ad1be2c89b69c2b068fc378daa952ba7f163c4a11628f55a4df523b3ef9060200160405180910390a3505050565b60007f00000000000000000000000000000000000000000000000000000000000000006001600160a01b031663365ccbbf6040518163ffffffff1660e01b8152600401600060405180830381865afa158015611955573d6000803e3d6000fd5b505050506040513d6000823e601f3d908101601f1916820160405261197d91908101906129c4565b60008151811061198f5761198f6126ee565b60200260200101516001600160a01b031663026b1d5f6040518163ffffffff1660e01b8152600401602060405180830381865afa1580156119d4573d6000803e3d6000fd5b505050506040513d601f19601f820116820180604052508101906119f891906129f9565b905090565b6040516001600160a01b0383166024820152604481018290526115869084907fa9059cbb0000000000000000000000000000000000000000000000000000000090606401611522565b6001600160a01b038316611ac15760405162461bcd60e51b8152602060048201526024808201527f45524332303a20617070726f76652066726f6d20746865207a65726f2061646460448201527f726573730000000000000000000000000000000000000000000000000000000060648201526084016104fe565b6001600160a01b038216611b3d5760405162461bcd60e51b815260206004820152602260248201527f45524332303a20617070726f766520746f20746865207a65726f20616464726560448201527f737300000000000000000000000000000000000000000000000000000000000060648201526084016104fe565b6001600160a01b0383811660008181526001602090815260408083209487168084529482529182902085905590518481527f8c5be1e5ebec7d5bd14f71427d1e84f3dd0314c0f7b2291e5b200ac8c7c3b925910160405180910390a3505050565b6001600160a01b038316611c1a5760405162461bcd60e51b815260206004820152602560248201527f45524332303a207472616e736665722066726f6d20746865207a65726f20616460448201527f647265737300000000000000000000000000000000000000000000000000000060648201526084016104fe565b6001600160a01b038216611c965760405162461bcd60e51b815260206004820152602360248201527f45524332303a207472616e7366657220746f20746865207a65726f206164647260448201527f657373000000000000000000000000000000000000000000000000000000000060648201526084016104fe565b6001600160a01b03831660009081526020819052604090205481811015611d255760405162461bcd60e51b815260206004820152602660248201527f45524332303a207472616e7366657220616d6f756e742065786365656473206260448201527f616c616e6365000000000000000000000000000000000000000000000000000060648201526084016104fe565b6001600160a01b03808516600090815260208190526040808220858503905591851681529081208054849290611d5c9084906126c0565b92505081905550826001600160a01b0316846001600160a01b03167fddf252ad1be2c89b69c2b068fc378daa952ba7f163c4a11628f55a4df523b3ef846040516112c091815260200190565b50505050565b600580546001600160a01b0383811673ffffffffffffffffffffffffffffffffffffffff19831681179093556040519116919082907f8be0079c531659141344cd1fd0a4f28419497f9722a3daafe3b4186f6b6457e090600090a35050565b6040516001600160a01b0380851660248301528316604482015260648101829052611da89085907f23b872dd0000000000000000000000000000000000000000000000000000000090608401611522565b6001600160a01b038216611eb45760405162461bcd60e51b815260206004820152601f60248201527f45524332303a206d696e7420746f20746865207a65726f20616464726573730060448201526064016104fe565b8060026000828254611ec691906126c0565b90915550506001600160a01b03821660009081526020819052604081208054839290611ef39084906126c0565b90915550506040518181526001600160a01b038316906000907fddf252ad1be2c89b69c2b068fc378daa952ba7f163c4a11628f55a4df523b3ef9060200160405180910390a35050565b7f00000000000000000000000000000000000000000000000000000000000000006001600160a01b0316816001600160a01b0316141561173a5760405162461bcd60e51b815260206004820152601d60248201527f41617665563359532f666f726269642d61546f6b656e2d6368616e676500000060448201526064016104fe565b604051636eb1769f60e11b81523060048201526001600160a01b038381166024830152600091839186169063dd62ed3e90604401602060405180830381865afa158015612010573d6000803e3d6000fd5b505050506040513d601f19601f820116820180604052508101906120349190612656565b61203e91906126c0565b6040516001600160a01b038516602482015260448101829052909150611da890859063095ea7b360e01b90606401611522565b604051636eb1769f60e11b81523060048201526001600160a01b0383811660248301526000919085169063dd62ed3e90604401602060405180830381865afa1580156120c1573d6000803e3d6000fd5b505050506040513d601f19601f820116820180604052508101906120e59190612656565b90508181101561215d5760405162461bcd60e51b815260206004820152602960248201527f5361666545524332303a2064656372656173656420616c6c6f77616e6365206260448201527f656c6f77207a65726f000000000000000000000000000000000000000000000060648201526084016104fe565b6040516001600160a01b0384166024820152828203604482018190529061219190869063095ea7b360e01b90606401611522565b5050505050565b6007546000906001600160a01b039081169083168114156122215760405162461bcd60e51b815260206004820152602360248201527f4d616e61676561626c652f6578697374696e672d6d616e616765722d6164647260448201527f657373000000000000000000000000000000000000000000000000000000000060648201526084016104fe565b6007805473ffffffffffffffffffffffffffffffffffffffff19166001600160a01b0385811691821790925560405190918316907f9cb45c728de594dab506a1f1a8554e24c8eeaf983618d5ec5dd7bc6f3c49feee90600090a350600192915050565b60006122d9826040518060400160405280602081526020017f5361666545524332303a206c6f772d6c6576656c2063616c6c206661696c6564815250856001600160a01b031661158b9092919063ffffffff16565b80519091501561158657808060200190518101906122f79190612a16565b6115865760405162461bcd60e51b815260206004820152602a60248201527f5361666545524332303a204552433230206f7065726174696f6e20646964206e60448201527f6f7420737563636565640000000000000000000000000000000000000000000060648201526084016104fe565b6060824710156123e15760405162461bcd60e51b815260206004820152602660248201527f416464726573733a20696e73756666696369656e742062616c616e636520666f60448201527f722063616c6c000000000000000000000000000000000000000000000000000060648201526084016104fe565b843b61242f5760405162461bcd60e51b815260206004820152601d60248201527f416464726573733a2063616c6c20746f206e6f6e2d636f6e747261637400000060448201526064016104fe565b600080866001600160a01b0316858760405161244b9190612a38565b60006040518083038185875af1925050503d8060008114612488576040519150601f19603f3d011682016040523d82523d6000602084013e61248d565b606091505b509150915061249d8282866124a8565b979650505050505050565b606083156124b75750816108c4565b8251156124c75782518084602001fd5b8160405162461bcd60e51b81526004016104fe9190612526565b6000602082840312156124f357600080fd5b5035919050565b60005b838110156125155781810151838201526020016124fd565b83811115611da85750506000910152565b60208152600082518060208401526125458160408501602087016124fa565b601f01601f19169190910160400192915050565b6001600160a01b038116811461173a57600080fd5b6000806040838503121561258157600080fd5b823561258c81612559565b946020939093013593505050565b6000806000606084860312156125af57600080fd5b83356125ba81612559565b925060208401356125ca81612559565b929592945050506040919091013590565b6000602082840312156125ed57600080fd5b81356108c481612559565b6000806040838503121561260b57600080fd5b82359150602083013561261d81612559565b809150509250929050565b6000806040838503121561263b57600080fd5b823561264681612559565b9150602083013561261d81612559565b60006020828403121561266857600080fd5b5051919050565b600181811c9082168061268357607f821691505b602082108114156126a457634e487b7160e01b600052602260045260246000fd5b50919050565b634e487b7160e01b600052601160045260246000fd5b600082198211156126d3576126d36126aa565b500190565b634e487b7160e01b600052604160045260246000fd5b634e487b7160e01b600052603260045260246000fd5b600081518084526020808501945080840160005b8381101561273d5781516001600160a01b031687529582019590820190600101612718565b509495945050505050565b60408152600061275b6040830185612704565b90506001600160a01b03831660208301529392505050565b604051601f8201601f1916810167ffffffffffffffff8111828210171561279c5761279c6126d8565b604052919050565b600067ffffffffffffffff8211156127be576127be6126d8565b5060051b60200190565b600082601f8301126127d957600080fd5b815160206127ee6127e9836127a4565b612773565b82815260059290921b8401810191818101908684111561280d57600080fd5b8286015b8481101561283157805161282481612559565b8352918301918301612811565b509695505050505050565b6000806040838503121561284f57600080fd5b825167ffffffffffffffff8082111561286757600080fd5b612873868387016127c8565b935060209150818501518181111561288a57600080fd5b85019050601f8101861361289d57600080fd5b80516128ab6127e9826127a4565b81815260059190911b820183019083810190888311156128ca57600080fd5b928401925b828410156128e8578351825292840192908401906128cf565b80955050505050509250929050565b60408152600061290a6040830185612704565b82810360208481019190915284518083528582019282019060005b8181101561294157845183529383019391830191600101612925565b5090979650505050505050565b6000817fffffffffffffffffffffffffffffffffffffffffffffffffffffffffffffffff0483118215151615612986576129866126aa565b500290565b6000826129a857634e487b7160e01b600052601260045260246000fd5b500490565b6000828210156129bf576129bf6126aa565b500390565b6000602082840312156129d657600080fd5b815167ffffffffffffffff8111156129ed57600080fd5b61159a848285016127c8565b600060208284031215612a0b57600080fd5b81516108c481612559565b600060208284031215612a2857600080fd5b815180151581146108c457600080fd5b60008251612a4a8184602087016124fa565b919091019291505056fea2646970667358221220328f05403450328797fa48cd5c5df7ce0b2f6162077bb7de0ea8d9765af8856e64736f6c634300080a0033",
  "devdoc": {
    "details": "This contract inherits from the ERC20 implementation to keep track of users deposits.",
    "events": {
      "AaveV3YieldSourceInitialized(address,address,address,string,string,uint8,address)": {
        "params": {
          "aToken": "Aave aToken address",
          "decimals": "Number of decimals the shares (inherited ERC20) will have. Same as underlying asset to ensure sane exchange rates for shares.",
          "name": "Token name for the underlying ERC20 shares",
          "owner": "Owner of this contract",
          "poolAddressesProviderRegistry": "Aave poolAddressesProviderRegistry address",
          "rewardsController": "Aave rewardsController address",
          "symbol": "Token symbol for the underlying ERC20 shares"
        }
      },
      "Claimed(address,address,address[],uint256[])": {
        "params": {
          "claimedAmounts": "List that contains the claimed amount per reward token",
          "from": "Address who claimed the rewards",
          "rewardsList": "List of addresses of the reward tokens",
          "to": "Address that received the rewards"
        }
      },
      "DecreasedERC20Allowance(address,address,uint256,address)": {
        "params": {
          "amount": "Amount of `token` to decrease allowance by",
          "from": "Address of the caller",
          "spender": "Address of the spender",
          "token": "Address of the ERC20 token to decrease allowance for"
        }
      },
      "IncreasedERC20Allowance(address,address,uint256,address)": {
        "params": {
          "amount": "Amount of `token` to increase allowance by",
          "from": "Address of the caller",
          "spender": "Address of the spender",
          "token": "Address of the ERC20 token to increase allowance for"
        }
      },
      "RedeemedToken(address,uint256,uint256)": {
        "params": {
          "amount": "Amount of tokens redeemed",
          "from": "Address who redeemed the tokens",
          "shares": "Amount of shares burnt"
        }
      },
      "SuppliedTokenTo(address,uint256,uint256,address)": {
        "params": {
          "amount": "Amount of tokens supplied",
          "from": "Address that supplied the tokens",
          "shares": "Amount of shares minted to the user",
          "to": "Address that received the shares"
        }
      },
      "TransferredERC20(address,address,uint256,address)": {
        "params": {
          "amount": "Amount of `token` transferred",
          "from": "Address of the caller",
          "to": "Address of the recipient",
          "token": "Address of the ERC20 token transferred"
        }
      }
    },
    "kind": "dev",
    "methods": {
      "allowance(address,address)": {
        "details": "See {IERC20-allowance}."
      },
      "approve(address,uint256)": {
        "details": "See {IERC20-approve}. Requirements: - `spender` cannot be the zero address."
      },
      "balanceOf(address)": {
        "details": "See {IERC20-balanceOf}."
      },
      "balanceOfToken(address)": {
        "params": {
          "_user": "Address of the user to get balance of token for"
        },
        "returns": {
          "_0": "The underlying balance of asset tokens."
        }
      },
      "claimOwnership()": {
        "details": "This function is only callable by the `_pendingOwner`."
      },
      "claimRewards(address)": {
        "details": "Only callable by the owner or manager.",
        "params": {
          "_to": "Address where the claimed rewards will be sent"
        }
      },
      "constructor": {
        "params": {
          "_aToken": "Aave aToken address",
          "_name": "Token name for the underlying ERC20 shares",
          "_owner": "Owner of this contract",
          "_poolAddressesProviderRegistry": "Aave poolAddressesProviderRegistry address",
          "_rewardsController": "Aave rewardsController address",
          "_symbol": "Token symbol for the underlying ERC20 shares",
          "decimals_": "Number of decimals the shares (inherited ERC20) will have. Same as underlying asset to ensure sane exchange rates for shares."
        }
      },
      "decimals()": {
        "details": "This value should be equal to the decimals of the token used to deposit into the pool.",
        "returns": {
          "_0": "The number of decimals."
        }
      },
      "decreaseAllowance(address,uint256)": {
        "details": "Atomically decreases the allowance granted to `spender` by the caller. This is an alternative to {approve} that can be used as a mitigation for problems described in {IERC20-approve}. Emits an {Approval} event indicating the updated allowance. Requirements: - `spender` cannot be the zero address. - `spender` must have allowance for the caller of at least `subtractedValue`."
      },
      "decreaseERC20Allowance(address,address,uint256)": {
        "details": "This function is only callable by the owner or asset manager.Current allowance should be computed off-chain to avoid any underflow.",
        "params": {
          "_amount": "Amount of tokens to decrease allowance by",
          "_spender": "Address of the spender of the tokens",
          "_token": "Address of the ERC20 token to decrease allowance for"
        }
      },
      "depositToken()": {
        "returns": {
          "_0": "The ERC20 asset token address."
        }
      },
      "increaseAllowance(address,uint256)": {
        "details": "Atomically increases the allowance granted to `spender` by the caller. This is an alternative to {approve} that can be used as a mitigation for problems described in {IERC20-approve}. Emits an {Approval} event indicating the updated allowance. Requirements: - `spender` cannot be the zero address."
      },
      "increaseERC20Allowance(address,address,uint256)": {
        "details": "This function is only callable by the owner or asset manager.Allows another contract or address to withdraw funds from the yield source.Current allowance should be computed off-chain to avoid any overflow.",
        "params": {
          "_amount": "Amount of tokens to increase allowance by",
          "_spender": "Address of the spender of the tokens",
          "_token": "Address of the ERC20 token to increase allowance for"
        }
      },
      "manager()": {
        "returns": {
          "_0": "Current `_manager` address."
        }
      },
      "name()": {
        "details": "Returns the name of the token."
      },
      "pendingOwner()": {
        "returns": {
          "_0": "Current `_pendingOwner` address."
        }
      },
      "redeemToken(uint256)": {
        "details": "Shares corresponding to the number of tokens withdrawn are burnt from the user's balance.Asset tokens are withdrawn from Aave, then transferred from the yield source to the user's wallet.",
        "params": {
          "_redeemAmount": "The amount of asset tokens to be redeemed"
        },
        "returns": {
          "_0": "The actual amount of asset tokens that were redeemed."
        }
      },
      "renounceOwnership()": {
        "details": "Leaves the contract without owner. It will not be possible to call `onlyOwner` functions anymore. Can only be called by the current owner. NOTE: Renouncing ownership will leave the contract without an owner, thereby removing any functionality that is only available to the owner."
      },
      "setManager(address)": {
        "details": "Throws if called by any account other than the owner.",
        "params": {
          "_newManager": "New _manager address."
        },
        "returns": {
          "_0": "Boolean to indicate if the operation was successful or not."
        }
      },
      "supplyTokenTo(uint256,address)": {
        "details": "Shares corresponding to the number of tokens supplied are minted to the user's balance.Asset tokens are supplied to the yield source, then deposited into Aave.",
        "params": {
          "_depositAmount": "The amount of asset tokens to be supplied",
          "_to": "The user whose balance will receive the tokens"
        }
      },
      "symbol()": {
        "details": "Returns the symbol of the token, usually a shorter version of the name."
      },
      "totalSupply()": {
        "details": "See {IERC20-totalSupply}."
      },
      "transfer(address,uint256)": {
        "details": "See {IERC20-transfer}. Requirements: - `recipient` cannot be the zero address. - the caller must have a balance of at least `amount`."
      },
      "transferERC20(address,address,uint256)": {
        "details": "This function is only callable by the owner or asset manager.",
        "params": {
          "_amount": "Amount of tokens to transfer",
          "_to": "Address of the recipient of the tokens",
          "_token": "Address of the ERC20 token to transfer"
        }
      },
      "transferFrom(address,address,uint256)": {
        "details": "See {IERC20-transferFrom}. Emits an {Approval} event indicating the updated allowance. This is not required by the EIP. See the note at the beginning of {ERC20}. Requirements: - `sender` and `recipient` cannot be the zero address. - `sender` must have a balance of at least `amount`. - the caller must have allowance for ``sender``'s tokens of at least `amount`."
      },
      "transferOwnership(address)": {
        "params": {
          "_newOwner": "Address to transfer ownership to."
        }
      }
    },
    "stateVariables": {
      "ADDRESSES_PROVIDER_ID": {
        "details": "Aave genesis market PoolAddressesProvider's ID.This variable could evolve in the future if we decide to support other markets."
      },
      "REFERRAL_CODE": {
        "details": "PoolTogether's Aave Referral Code"
      }
    },
    "title": "Aave V3 Yield Source contract, implementing PoolTogether's generic yield source interface.",
    "version": 1
  },
  "userdoc": {
    "events": {
      "AaveV3YieldSourceInitialized(address,address,address,string,string,uint8,address)": {
        "notice": "Emitted when the yield source is initialized."
      },
      "Claimed(address,address,address[],uint256[])": {
        "notice": "Emitted when Aave rewards have been claimed."
      },
      "DecreasedERC20Allowance(address,address,uint256,address)": {
        "notice": "Emitted when decreasing allowance of ERC20 tokens other than yield source's aToken."
      },
      "IncreasedERC20Allowance(address,address,uint256,address)": {
        "notice": "Emitted when increasing allowance of ERC20 tokens other than yield source's aToken."
      },
      "RedeemedToken(address,uint256,uint256)": {
        "notice": "Emitted when asset tokens are redeemed from the yield source."
      },
      "SuppliedTokenTo(address,uint256,uint256,address)": {
        "notice": "Emitted when asset tokens are supplied to the yield source."
      },
      "TransferredERC20(address,address,uint256,address)": {
        "notice": "Emitted when ERC20 tokens other than yield source's aToken are withdrawn from the yield source."
      }
    },
    "kind": "user",
    "methods": {
      "aToken()": {
        "notice": "Yield-bearing Aave aToken address."
      },
      "balanceOfToken(address)": {
        "notice": "Returns user total balance (in asset tokens). This includes their deposit and interest."
      },
      "claimOwnership()": {
        "notice": "Allows the `_pendingOwner` address to finalize the transfer."
      },
      "claimRewards(address)": {
        "notice": "Claims the accrued rewards for the aToken, accumulating any pending rewards."
      },
      "constructor": {
        "notice": "Initializes the yield source with Aave aToken."
      },
      "decimals()": {
        "notice": "Returns the Yield Source ERC20 token decimals."
      },
      "decreaseERC20Allowance(address,address,uint256)": {
        "notice": "Decrease allowance of ERC20 tokens other than the aTokens held by this contract."
      },
      "depositToken()": {
        "notice": "Returns the ERC20 asset token used for deposits."
      },
      "increaseERC20Allowance(address,address,uint256)": {
        "notice": "Increase allowance of ERC20 tokens other than the aTokens held by this contract."
      },
      "manager()": {
        "notice": "Gets current `_manager`."
      },
      "owner()": {
        "notice": "Returns the address of the current owner."
      },
      "pendingOwner()": {
        "notice": "Gets current `_pendingOwner`."
      },
      "poolAddressesProviderRegistry()": {
        "notice": "Aave poolAddressesProviderRegistry address."
      },
      "redeemToken(uint256)": {
        "notice": "Redeems asset tokens from the yield source."
      },
      "renounceOwnership()": {
        "notice": "Renounce ownership of the contract."
      },
      "rewardsController()": {
        "notice": "Aave RewardsController address."
      },
      "setManager(address)": {
        "notice": "Set or change of manager."
      },
      "supplyTokenTo(uint256,address)": {
        "notice": "Supplies asset tokens to the yield source."
      },
      "transferERC20(address,address,uint256)": {
        "notice": "Transfer ERC20 tokens other than the aTokens held by this contract to the recipient address."
      },
      "transferOwnership(address)": {
        "notice": "Allows current owner to set the `_pendingOwner` address."
      }
    },
    "notice": "Yield Source for a PoolTogether prize pool that generates yield by depositing into Aave V3.",
    "version": 1
  },
  "storageLayout": {
    "storage": [
      {
        "astId": 2510,
        "contract": "@pooltogether/aave-v3-yield-source/contracts/AaveV3YieldSource.sol:AaveV3YieldSource",
        "label": "_balances",
        "offset": 0,
        "slot": "0",
        "type": "t_mapping(t_address,t_uint256)"
      },
      {
        "astId": 2516,
        "contract": "@pooltogether/aave-v3-yield-source/contracts/AaveV3YieldSource.sol:AaveV3YieldSource",
        "label": "_allowances",
        "offset": 0,
        "slot": "1",
        "type": "t_mapping(t_address,t_mapping(t_address,t_uint256))"
      },
      {
        "astId": 2518,
        "contract": "@pooltogether/aave-v3-yield-source/contracts/AaveV3YieldSource.sol:AaveV3YieldSource",
        "label": "_totalSupply",
        "offset": 0,
        "slot": "2",
        "type": "t_uint256"
      },
      {
        "astId": 2520,
        "contract": "@pooltogether/aave-v3-yield-source/contracts/AaveV3YieldSource.sol:AaveV3YieldSource",
        "label": "_name",
        "offset": 0,
        "slot": "3",
        "type": "t_string_storage"
      },
      {
        "astId": 2522,
        "contract": "@pooltogether/aave-v3-yield-source/contracts/AaveV3YieldSource.sol:AaveV3YieldSource",
        "label": "_symbol",
        "offset": 0,
        "slot": "4",
        "type": "t_string_storage"
      },
      {
        "astId": 6979,
        "contract": "@pooltogether/aave-v3-yield-source/contracts/AaveV3YieldSource.sol:AaveV3YieldSource",
        "label": "_owner",
        "offset": 0,
        "slot": "5",
        "type": "t_address"
      },
      {
        "astId": 6981,
        "contract": "@pooltogether/aave-v3-yield-source/contracts/AaveV3YieldSource.sol:AaveV3YieldSource",
        "label": "_pendingOwner",
        "offset": 0,
        "slot": "6",
        "type": "t_address"
      },
      {
        "astId": 6877,
        "contract": "@pooltogether/aave-v3-yield-source/contracts/AaveV3YieldSource.sol:AaveV3YieldSource",
        "label": "_manager",
        "offset": 0,
        "slot": "7",
        "type": "t_address"
      },
      {
        "astId": 2465,
        "contract": "@pooltogether/aave-v3-yield-source/contracts/AaveV3YieldSource.sol:AaveV3YieldSource",
        "label": "_status",
        "offset": 0,
        "slot": "8",
        "type": "t_uint256"
      }
    ],
    "types": {
      "t_address": {
        "encoding": "inplace",
        "label": "address",
        "numberOfBytes": "20"
      },
      "t_mapping(t_address,t_mapping(t_address,t_uint256))": {
        "encoding": "mapping",
        "key": "t_address",
        "label": "mapping(address => mapping(address => uint256))",
        "numberOfBytes": "32",
        "value": "t_mapping(t_address,t_uint256)"
      },
      "t_mapping(t_address,t_uint256)": {
        "encoding": "mapping",
        "key": "t_address",
        "label": "mapping(address => uint256)",
        "numberOfBytes": "32",
        "value": "t_uint256"
      },
      "t_string_storage": {
        "encoding": "bytes",
        "label": "string",
        "numberOfBytes": "32"
      },
      "t_uint256": {
        "encoding": "inplace",
        "label": "uint256",
        "numberOfBytes": "32"
      }
    }
  }
}