{
  "address": "0x574834c934B3784aa8430A5B45724aAa2FcF2c7f",
  "abi": [
    {
      "inputs": [
        {
          "internalType": "address",
          "name": "_owner",
          "type": "address"
        },
        {
          "internalType": "contract IERC20",
          "name": "_token",
          "type": "address"
        }
      ],
      "stateMutability": "nonpayable",
      "type": "constructor"
    },
    {
      "anonymous": false,
      "inputs": [
        {
          "indexed": false,
          "internalType": "uint256",
          "name": "reserveAccumulated",
          "type": "uint256"
        },
        {
          "indexed": false,
          "internalType": "uint256",
          "name": "withdrawAccumulated",
          "type": "uint256"
        }
      ],
      "name": "Checkpoint",
      "type": "event"
    },
    {
      "anonymous": false,
      "inputs": [
        {
          "indexed": true,
          "internalType": "contract IERC20",
          "name": "token",
          "type": "address"
        }
      ],
      "name": "Deployed",
      "type": "event"
    },
    {
      "anonymous": false,
      "inputs": [
        {
          "indexed": true,
          "internalType": "address",
          "name": "previousManager",
          "type": "address"
        },
        {
          "indexed": true,
          "internalType": "address",
          "name": "newManager",
          "type": "address"
        }
      ],
      "name": "ManagerTransferred",
      "type": "event"
    },
    {
      "anonymous": false,
      "inputs": [
        {
          "indexed": true,
          "internalType": "address",
          "name": "pendingOwner",
          "type": "address"
        }
      ],
      "name": "OwnershipOffered",
      "type": "event"
    },
    {
      "anonymous": false,
      "inputs": [
        {
          "indexed": true,
          "internalType": "address",
          "name": "previousOwner",
          "type": "address"
        },
        {
          "indexed": true,
          "internalType": "address",
          "name": "newOwner",
          "type": "address"
        }
      ],
      "name": "OwnershipTransferred",
      "type": "event"
    },
    {
      "anonymous": false,
      "inputs": [
        {
          "indexed": true,
          "internalType": "address",
          "name": "recipient",
          "type": "address"
        },
        {
          "indexed": false,
          "internalType": "uint256",
          "name": "amount",
          "type": "uint256"
        }
      ],
      "name": "Withdrawn",
      "type": "event"
    },
    {
      "inputs": [],
      "name": "checkpoint",
      "outputs": [],
      "stateMutability": "nonpayable",
      "type": "function"
    },
    {
      "inputs": [],
      "name": "claimOwnership",
      "outputs": [],
      "stateMutability": "nonpayable",
      "type": "function"
    },
    {
      "inputs": [
        {
          "internalType": "uint32",
          "name": "_startTimestamp",
          "type": "uint32"
        },
        {
          "internalType": "uint32",
          "name": "_endTimestamp",
          "type": "uint32"
        }
      ],
      "name": "getReserveAccumulatedBetween",
      "outputs": [
        {
          "internalType": "uint224",
          "name": "",
          "type": "uint224"
        }
      ],
      "stateMutability": "view",
      "type": "function"
    },
    {
      "inputs": [],
      "name": "getToken",
      "outputs": [
        {
          "internalType": "contract IERC20",
          "name": "",
          "type": "address"
        }
      ],
      "stateMutability": "view",
      "type": "function"
    },
    {
      "inputs": [],
      "name": "manager",
      "outputs": [
        {
          "internalType": "address",
          "name": "",
          "type": "address"
        }
      ],
      "stateMutability": "view",
      "type": "function"
    },
    {
      "inputs": [],
      "name": "owner",
      "outputs": [
        {
          "internalType": "address",
          "name": "",
          "type": "address"
        }
      ],
      "stateMutability": "view",
      "type": "function"
    },
    {
      "inputs": [],
      "name": "pendingOwner",
      "outputs": [
        {
          "internalType": "address",
          "name": "",
          "type": "address"
        }
      ],
      "stateMutability": "view",
      "type": "function"
    },
    {
      "inputs": [],
      "name": "renounceOwnership",
      "outputs": [],
      "stateMutability": "nonpayable",
      "type": "function"
    },
    {
      "inputs": [
        {
          "internalType": "address",
          "name": "_newManager",
          "type": "address"
        }
      ],
      "name": "setManager",
      "outputs": [
        {
          "internalType": "bool",
          "name": "",
          "type": "bool"
        }
      ],
      "stateMutability": "nonpayable",
      "type": "function"
    },
    {
      "inputs": [],
      "name": "token",
      "outputs": [
        {
          "internalType": "contract IERC20",
          "name": "",
          "type": "address"
        }
      ],
      "stateMutability": "view",
      "type": "function"
    },
    {
      "inputs": [
        {
          "internalType": "address",
          "name": "_newOwner",
          "type": "address"
        }
      ],
      "name": "transferOwnership",
      "outputs": [],
      "stateMutability": "nonpayable",
      "type": "function"
    },
    {
      "inputs": [],
      "name": "withdrawAccumulator",
      "outputs": [
        {
          "internalType": "uint224",
          "name": "",
          "type": "uint224"
        }
      ],
      "stateMutability": "view",
      "type": "function"
    },
    {
      "inputs": [
        {
          "internalType": "address",
          "name": "_recipient",
          "type": "address"
        },
        {
          "internalType": "uint256",
          "name": "_amount",
          "type": "uint256"
        }
      ],
      "name": "withdrawTo",
      "outputs": [],
      "stateMutability": "nonpayable",
      "type": "function"
    }
  ],
  "transactionHash": "0xabc492e1119bc6a34e8fa1c3bc315ddbcba49cefc8508f929608e59dec83002a",
  "args": [
    "0x4D40eb12430A57965cEe3015348d490C6156dF20",
    "0x62BB4fc73094c83B5e952C2180B23fA7054954c4"
  ],
  "numDeployments": 1,
  "solcInputHash": "81bc9ae0cb2caeb2744ac5c81556a380",
  "bytecode": "0x60a06040523480156200001157600080fd5b50604051620016ee380380620016ee8339810160408190526200003491620000df565b8162000040816200008f565b506001600160601b0319606082901b166080526040516001600160a01b038216907ff40fcec21964ffb566044d083b4073f29f7f7929110ea19e1b3ebe375d89055e90600090a2505062000137565b600080546001600160a01b038381166001600160a01b0319831681178455604051919092169283917f8be0079c531659141344cd1fd0a4f28419497f9722a3daafe3b4186f6b6457e09190a35050565b60008060408385031215620000f357600080fd5b825162000100816200011e565b602084015190925062000113816200011e565b809150509250929050565b6001600160a01b03811681146200013457600080fd5b50565b60805160601c6115846200016a6000396000818160fb015281816101fc01528181610327015261078601526115846000f3fe608060405234801561001057600080fd5b50600436106100df5760003560e01c80638da5cb5b1161008c578063d0ebdbe711610066578063d0ebdbe7146101b0578063e30c3978146101d3578063f2fde38b146101e4578063fc0c546a146101f757600080fd5b80638da5cb5b14610184578063af6a940014610195578063c2c4c5c1146101a857600080fd5b8063481c6a75116100bd578063481c6a75146101635780634e71e0c814610174578063715018a61461017c57600080fd5b8063205c2878146100e457806321df0da7146100f95780632d00ddda14610138575b600080fd5b6100f76100f23660046112ef565b61021e565b005b7f00000000000000000000000000000000000000000000000000000000000000005b6040516001600160a01b0390911681526020015b60405180910390f35b60035461014b906001600160e01b031681565b6040516001600160e01b03909116815260200161012f565b6002546001600160a01b031661011b565b6100f76103a5565b6100f7610433565b6000546001600160a01b031661011b565b61014b6101a3366004611354565b6104a8565b6100f7610576565b6101c36101be3660046112d4565b61057e565b604051901515815260200161012f565b6001546001600160a01b031661011b565b6100f76101f23660046112d4565b6105fa565b61011b7f000000000000000000000000000000000000000000000000000000000000000081565b336102316002546001600160a01b031690565b6001600160a01b0316148061025f5750336102546000546001600160a01b031690565b6001600160a01b0316145b6102d65760405162461bcd60e51b815260206004820152602660248201527f4d616e61676561626c652f63616c6c65722d6e6f742d6d616e616765722d6f7260448201527f2d6f776e6572000000000000000000000000000000000000000000000000000060648201526084015b60405180910390fd5b6102de610736565b600380548291906000906102fc9084906001600160e01b03166113f4565b92506101000a8154816001600160e01b0302191690836001600160e01b0316021790555061035e82827f00000000000000000000000000000000000000000000000000000000000000006001600160a01b03166109fd9092919063ffffffff16565b816001600160a01b03167f7084f5476618d8e60b11ef0d7d3f06914655adb8793e28ff7f018d4c76d505d58260405161039991815260200190565b60405180910390a25050565b6001546001600160a01b031633146103ff5760405162461bcd60e51b815260206004820152601f60248201527f4f776e61626c652f63616c6c65722d6e6f742d70656e64696e674f776e65720060448201526064016102cd565b600154610414906001600160a01b0316610a6d565b6001805473ffffffffffffffffffffffffffffffffffffffff19169055565b336104466000546001600160a01b031690565b6001600160a01b03161461049c5760405162461bcd60e51b815260206004820152601860248201527f4f776e61626c652f63616c6c65722d6e6f742d6f776e6572000000000000000060448201526064016102cd565b6104a66000610a6d565b565b60008163ffffffff168363ffffffff16106105055760405162461bcd60e51b815260206004820152601b60248201527f526573657276652f73746172742d6c6573732d7468656e2d656e64000000000060448201526064016102cd565b60045462ffffff630100000082048116911660008061052383610aca565b9150915060008061053385610b40565b915091506000610547848387868b8f610bb3565b90506000610559858488878c8f610bb3565b90506105658282611489565b985050505050505050505b92915050565b6104a6610736565b6000336105936000546001600160a01b031690565b6001600160a01b0316146105e95760405162461bcd60e51b815260206004820152601860248201527f4f776e61626c652f63616c6c65722d6e6f742d6f776e6572000000000000000060448201526064016102cd565b6105f282610c5a565b90505b919050565b3361060d6000546001600160a01b031690565b6001600160a01b0316146106635760405162461bcd60e51b815260206004820152601860248201527f4f776e61626c652f63616c6c65722d6e6f742d6f776e6572000000000000000060448201526064016102cd565b6001600160a01b0381166106df5760405162461bcd60e51b815260206004820152602560248201527f4f776e61626c652f70656e64696e674f776e65722d6e6f742d7a65726f2d616460448201527f647265737300000000000000000000000000000000000000000000000000000060648201526084016102cd565b6001805473ffffffffffffffffffffffffffffffffffffffff19166001600160a01b0383169081179091556040517f239a2ddded15777fa246aed5f7e1a9bc69a39d4eb4a397034d1d85766cca7d4c90600090a250565b600480546040517f70a08231000000000000000000000000000000000000000000000000000000008152309281019290925262ffffff630100000082048116929116906000906001600160a01b037f000000000000000000000000000000000000000000000000000000000000000016906370a082319060240160206040518083038186803b1580156107c857600080fd5b505afa1580156107dc573d6000803e3d6000fd5b505050506040513d601f19601f82011682018060405250810190610800919061133b565b6003549091506001600160e01b031660008061081b85610aca565b9150915080600001516001600160e01b0316836001600160e01b031685610842919061143d565b11156109f55742600061085585876113f4565b90508163ffffffff16836020015163ffffffff161461094a576040518060400160405280826001600160e01b031681526020018363ffffffff1681525060058862ffffff1662ffffff81106108ac576108ac611538565b825160209093015163ffffffff16600160e01b026001600160e01b03909316929092179101556108e262ffffff80891690610d46565b600480547fffffffffffffffffffffffffffffffffffffffffffffffffffffffffff0000001662ffffff92831617905588811610156109455761092688600161141f565b600460036101000a81548162ffffff021916908362ffffff1602179055505b6109af565b6040518060400160405280826001600160e01b031681526020018363ffffffff1681525060058562ffffff1662ffffff811061098857610988611538565b825160209093015163ffffffff16600160e01b026001600160e01b03909316929092179101555b604080516001600160e01b038084168252871660208201527f21d81d5d656869e8ce3ba8d65526a2f0dbbcd3d36f5f9999eb7c84360e45eced910160405180910390a150505b505050505050565b604080516001600160a01b038416602482015260448082018490528251808303909101815260649091019091526020810180516001600160e01b03167fa9059cbb00000000000000000000000000000000000000000000000000000000179052610a68908490610d63565b505050565b600080546001600160a01b0383811673ffffffffffffffffffffffffffffffffffffffff19831681178455604051919092169283917f8be0079c531659141344cd1fd0a4f28419497f9722a3daafe3b4186f6b6457e09190a35050565b6040805180820190915260008082526020820181905290610af162ffffff80851690610e48565b915060058262ffffff1662ffffff8110610b0d57610b0d611538565b604080518082019091529101546001600160e01b0381168252600160e01b900463ffffffff166020820152919391925050565b60408051808201909152600080825260208201528190600562ffffff808416908110610b6e57610b6e611538565b604080518082019091529101546001600160e01b0381168252600160e01b900463ffffffff1660208201819052909150610bae5760009150600582610b0d565b915091565b60004262ffffff8416610bca576000915050610c50565b8263ffffffff16876020015163ffffffff161115610bec576000915050610c50565b8263ffffffff16886020015163ffffffff1611610c0c5750508551610c50565b600080610c1e60058989888a88610e70565b915091508463ffffffff16816020015163ffffffff161415610c4557519250610c50915050565b50519150610c509050565b9695505050505050565b6002546000906001600160a01b03908116908316811415610ce35760405162461bcd60e51b815260206004820152602360248201527f4d616e61676561626c652f6578697374696e672d6d616e616765722d6164647260448201527f657373000000000000000000000000000000000000000000000000000000000060648201526084016102cd565b6002805473ffffffffffffffffffffffffffffffffffffffff19166001600160a01b0385811691821790925560405190918316907f9cb45c728de594dab506a1f1a8554e24c8eeaf983618d5ec5dd7bc6f3c49feee90600090a350600192915050565b6000610d5c610d5684600161143d565b8361103d565b9392505050565b6000610db8826040518060400160405280602081526020017f5361666545524332303a206c6f772d6c6576656c2063616c6c206661696c6564815250856001600160a01b03166110499092919063ffffffff16565b805190915015610a685780806020019051810190610dd69190611319565b610a685760405162461bcd60e51b815260206004820152602a60248201527f5361666545524332303a204552433230206f7065726174696f6e20646964206e60448201527f6f7420737563636565640000000000000000000000000000000000000000000060648201526084016102cd565b600081610e5757506000610570565b610d5c6001610e66848661143d565b610d5691906114b1565b6040805180820190915260008082526020820152604080518082019091526000808252602082015260008662ffffff1690506000818962ffffff1610610ebb578862ffffff16610ed6565b6001610ecc62ffffff88168461143d565b610ed691906114b1565b905060005b6002610ee7838561143d565b610ef19190611475565b90508a610f03828962ffffff1661103d565b62ffffff1662ffffff8110610f1a57610f1a611538565b604080518082019091529101546001600160e01b0381168252600160e01b900463ffffffff166020820181905290955080610f6257610f5a82600161143d565b935050610edb565b8b610f72838a62ffffff16610d46565b62ffffff1662ffffff8110610f8957610f89611538565b604080518082019091529101546001600160e01b038116825263ffffffff600160e01b90910481166020830152909550600090610fce90838116908c908b9061106016565b9050808015610ff75750610ff78660200151898c63ffffffff166110609092919063ffffffff16565b1561100357505061102f565b8061101a576110136001846114b1565b9350611028565b61102583600161143d565b94505b5050610edb565b505050965096945050505050565b6000610d5c82846114f8565b60606110588484600085611131565b949350505050565b60008163ffffffff168463ffffffff161115801561108a57508163ffffffff168363ffffffff1611155b156110a6578263ffffffff168463ffffffff1611159050610d5c565b60008263ffffffff168563ffffffff16116110d5576110d063ffffffff8616640100000000611455565b6110dd565b8463ffffffff165b64ffffffffff16905060008363ffffffff168563ffffffff16116111155761111063ffffffff8616640100000000611455565b61111d565b8463ffffffff165b64ffffffffff169091111595945050505050565b6060824710156111a95760405162461bcd60e51b815260206004820152602660248201527f416464726573733a20696e73756666696369656e742062616c616e636520666f60448201527f722063616c6c000000000000000000000000000000000000000000000000000060648201526084016102cd565b843b6111f75760405162461bcd60e51b815260206004820152601d60248201527f416464726573733a2063616c6c20746f206e6f6e2d636f6e747261637400000060448201526064016102cd565b600080866001600160a01b031685876040516112139190611387565b60006040518083038185875af1925050503d8060008114611250576040519150601f19603f3d011682016040523d82523d6000602084013e611255565b606091505b5091509150611265828286611270565b979650505050505050565b6060831561127f575081610d5c565b82511561128f5782518084602001fd5b8160405162461bcd60e51b81526004016102cd91906113a3565b80356001600160a01b03811681146105f557600080fd5b803563ffffffff811681146105f557600080fd5b6000602082840312156112e657600080fd5b610d5c826112a9565b6000806040838503121561130257600080fd5b61130b836112a9565b946020939093013593505050565b60006020828403121561132b57600080fd5b81518015158114610d5c57600080fd5b60006020828403121561134d57600080fd5b5051919050565b6000806040838503121561136757600080fd5b611370836112c0565b915061137e602084016112c0565b90509250929050565b600082516113998184602087016114c8565b9190910192915050565b60208152600082518060208401526113c28160408501602087016114c8565b601f017fffffffffffffffffffffffffffffffffffffffffffffffffffffffffffffffe0169190910160400192915050565b60006001600160e01b038083168185168083038211156114165761141661150c565b01949350505050565b600062ffffff8083168185168083038211156114165761141661150c565b600082198211156114505761145061150c565b500190565b600064ffffffffff8083168185168083038211156114165761141661150c565b60008261148457611484611522565b500490565b60006001600160e01b03838116908316818110156114a9576114a961150c565b039392505050565b6000828210156114c3576114c361150c565b500390565b60005b838110156114e35781810151838201526020016114cb565b838111156114f2576000848401525b50505050565b60008261150757611507611522565b500690565b634e487b7160e01b600052601160045260246000fd5b634e487b7160e01b600052601260045260246000fd5b634e487b7160e01b600052603260045260246000fdfea2646970667358221220fb1d2232b0180ad60e1f03df899e1e110fc9f605baab86f2f9e2a9739d34fd5b64736f6c63430008060033",
  "devdoc": {
    "author": "PoolTogether Inc Team",
    "details": "By calculating the total held tokens in a specific time range, contracts that require knowledge  of captured interest during a draw period, can easily call into the Reserve and deterministically determine the newly aqcuired tokens for that time range. ",
    "kind": "dev",
    "methods": {
      "checkpoint()": {
        "details": "Calculates total desposited tokens since last checkpoint and creates new accumulator checkpoint."
      },
      "claimOwnership()": {
        "details": "This function is only callable by the `_pendingOwner`."
      },
      "constructor": {
        "params": {
          "_owner": "Owner address",
          "_token": "ERC20 address"
        }
      },
      "getReserveAccumulatedBetween(uint32,uint32)": {
        "details": "Search the ring buffer for two checkpoint observations and diffs accumulator amount.",
        "params": {
          "endTimestamp": "Transfer amount",
          "startTimestamp": "Account address"
        }
      },
      "getToken()": {
        "returns": {
          "_0": "IERC20"
        }
      },
      "manager()": {
        "returns": {
          "_0": "Current `_manager` address."
        }
      },
      "pendingOwner()": {
        "returns": {
          "_0": "Current `_pendingOwner` address."
        }
      },
      "renounceOwnership()": {
        "details": "Leaves the contract without owner. It will not be possible to call `onlyOwner` functions anymore. Can only be called by the current owner. NOTE: Renouncing ownership will leave the contract without an owner, thereby removing any functionality that is only available to the owner."
      },
      "setManager(address)": {
        "details": "Throws if called by any account other than the owner.",
        "params": {
          "_newManager": "New _manager address."
        },
        "returns": {
          "_0": "Boolean to indicate if the operation was successful or not."
        }
      },
      "transferOwnership(address)": {
        "params": {
          "_newOwner": "Address to transfer ownership to."
        }
      },
      "withdrawTo(address,uint256)": {
        "details": "Creates checkpoint before token transfer. Increments withdrawAccumulator with amount.",
        "params": {
          "amount": "Transfer amount",
          "recipient": "Account address"
        }
      }
    },
    "title": "PoolTogether V4 Reserve",
    "version": 1
  },
  "userdoc": {
    "events": {
      "Checkpoint(uint256,uint256)": {
        "notice": "Emit when checkpoint is created."
      },
      "Withdrawn(address,uint256)": {
        "notice": "Emit when the withdrawTo function has executed."
      }
    },
    "kind": "user",
    "methods": {
      "checkpoint()": {
        "notice": "Create observation checkpoint in ring bufferr."
      },
      "claimOwnership()": {
        "notice": "Allows the `_pendingOwner` address to finalize the transfer."
      },
      "constructor": {
        "notice": "Constructs Ticket with passed parameters."
      },
      "getReserveAccumulatedBetween(uint32,uint32)": {
        "notice": "Calculate token accumulation beween timestamp range."
      },
      "getToken()": {
        "notice": "Read global token value."
      },
      "manager()": {
        "notice": "Gets current `_manager`."
      },
      "owner()": {
        "notice": "Returns the address of the current owner."
      },
      "pendingOwner()": {
        "notice": "Gets current `_pendingOwner`."
      },
      "renounceOwnership()": {
        "notice": "Renounce ownership of the contract."
      },
      "setManager(address)": {
        "notice": "Set or change of manager."
      },
      "token()": {
        "notice": "ERC20 token"
      },
      "transferOwnership(address)": {
        "notice": "Allows current owner to set the `_pendingOwner` address."
      },
      "withdrawAccumulator()": {
        "notice": "Total withdraw amount from reserve"
      },
      "withdrawTo(address,uint256)": {
        "notice": "Transfer Reserve token balance to recipient address."
      }
    },
    "notice": "The Reserve contract provides historical lookups of a token balance increase during a target timerange. As the Reserve contract transfers OUT tokens, the withdraw accumulator is increased. When tokens are transfered IN new checkpoint *can* be created if checkpoint() is called after transfering tokens. By using the reserve and withdraw accumulators to create a new checkpoint, any contract or account can lookup the balance increase of the reserve for a target timerange.   ",
    "version": 1
  },
  "storageLayout": {
    "storage": [
      {
        "astId": 5205,
        "contract": "@pooltogether/v4-core/contracts/Reserve.sol:Reserve",
        "label": "_owner",
        "offset": 0,
        "slot": "0",
        "type": "t_address"
      },
      {
        "astId": 5207,
        "contract": "@pooltogether/v4-core/contracts/Reserve.sol:Reserve",
        "label": "_pendingOwner",
        "offset": 0,
        "slot": "1",
        "type": "t_address"
      },
      {
        "astId": 5103,
        "contract": "@pooltogether/v4-core/contracts/Reserve.sol:Reserve",
        "label": "_manager",
        "offset": 0,
        "slot": "2",
        "type": "t_address"
      },
      {
        "astId": 9193,
        "contract": "@pooltogether/v4-core/contracts/Reserve.sol:Reserve",
        "label": "withdrawAccumulator",
        "offset": 0,
        "slot": "3",
        "type": "t_uint224"
      },
      {
        "astId": 9195,
        "contract": "@pooltogether/v4-core/contracts/Reserve.sol:Reserve",
        "label": "_gap",
        "offset": 28,
        "slot": "3",
        "type": "t_uint32"
      },
      {
        "astId": 9197,
        "contract": "@pooltogether/v4-core/contracts/Reserve.sol:Reserve",
        "label": "nextIndex",
        "offset": 0,
        "slot": "4",
        "type": "t_uint24"
      },
      {
        "astId": 9199,
        "contract": "@pooltogether/v4-core/contracts/Reserve.sol:Reserve",
        "label": "cardinality",
        "offset": 3,
        "slot": "4",
        "type": "t_uint24"
      },
      {
        "astId": 9208,
        "contract": "@pooltogether/v4-core/contracts/Reserve.sol:Reserve",
        "label": "reserveAccumulators",
        "offset": 0,
        "slot": "5",
        "type": "t_array(t_struct(Observation)12066_storage)16777215_storage"
      }
    ],
    "types": {
      "t_address": {
        "encoding": "inplace",
        "label": "address",
        "numberOfBytes": "20"
      },
      "t_array(t_struct(Observation)12066_storage)16777215_storage": {
        "base": "t_struct(Observation)12066_storage",
        "encoding": "inplace",
        "label": "struct ObservationLib.Observation[16777215]",
        "numberOfBytes": "536870880"
      },
      "t_struct(Observation)12066_storage": {
        "encoding": "inplace",
        "label": "struct ObservationLib.Observation",
        "members": [
          {
            "astId": 12063,
            "contract": "@pooltogether/v4-core/contracts/Reserve.sol:Reserve",
            "label": "amount",
            "offset": 0,
            "slot": "0",
            "type": "t_uint224"
          },
          {
            "astId": 12065,
            "contract": "@pooltogether/v4-core/contracts/Reserve.sol:Reserve",
            "label": "timestamp",
            "offset": 28,
            "slot": "0",
            "type": "t_uint32"
          }
        ],
        "numberOfBytes": "32"
      },
      "t_uint224": {
        "encoding": "inplace",
        "label": "uint224",
        "numberOfBytes": "28"
      },
      "t_uint24": {
        "encoding": "inplace",
        "label": "uint24",
        "numberOfBytes": "3"
      },
      "t_uint32": {
        "encoding": "inplace",
        "label": "uint32",
        "numberOfBytes": "4"
      }
    }
  }
}