{
  "address": "0x1470c87e2db5247A36C60DE3D65D7C972C62EA0f",
  "abi": [
    {
      "inputs": [
        {
          "internalType": "contract ITicket",
          "name": "_ticket",
          "type": "address"
        }
      ],
      "stateMutability": "nonpayable",
      "type": "constructor"
    },
    {
      "anonymous": false,
      "inputs": [
        {
          "indexed": true,
          "internalType": "uint256",
          "name": "promotionId",
          "type": "uint256"
        }
      ],
      "name": "PromotionCreated",
      "type": "event"
    },
    {
      "anonymous": false,
      "inputs": [
        {
          "indexed": true,
          "internalType": "uint256",
          "name": "promotionId",
          "type": "uint256"
        },
        {
          "indexed": true,
          "internalType": "address",
          "name": "recipient",
          "type": "address"
        },
        {
          "indexed": false,
          "internalType": "uint256",
          "name": "amount",
          "type": "uint256"
        }
      ],
      "name": "PromotionDestroyed",
      "type": "event"
    },
    {
      "anonymous": false,
      "inputs": [
        {
          "indexed": true,
          "internalType": "uint256",
          "name": "promotionId",
          "type": "uint256"
        },
        {
          "indexed": true,
          "internalType": "address",
          "name": "recipient",
          "type": "address"
        },
        {
          "indexed": false,
          "internalType": "uint256",
          "name": "amount",
          "type": "uint256"
        },
        {
          "indexed": false,
          "internalType": "uint8",
          "name": "epochNumber",
          "type": "uint8"
        }
      ],
      "name": "PromotionEnded",
      "type": "event"
    },
    {
      "anonymous": false,
      "inputs": [
        {
          "indexed": true,
          "internalType": "uint256",
          "name": "promotionId",
          "type": "uint256"
        },
        {
          "indexed": false,
          "internalType": "uint256",
          "name": "numberOfEpochs",
          "type": "uint256"
        }
      ],
      "name": "PromotionExtended",
      "type": "event"
    },
    {
      "anonymous": false,
      "inputs": [
        {
          "indexed": true,
          "internalType": "uint256",
          "name": "promotionId",
          "type": "uint256"
        },
        {
          "indexed": false,
          "internalType": "uint8[]",
          "name": "epochIds",
          "type": "uint8[]"
        },
        {
          "indexed": true,
          "internalType": "address",
          "name": "user",
          "type": "address"
        },
        {
          "indexed": false,
          "internalType": "uint256",
          "name": "amount",
          "type": "uint256"
        }
      ],
      "name": "RewardsClaimed",
      "type": "event"
    },
    {
      "inputs": [],
      "name": "GRACE_PERIOD",
      "outputs": [
        {
          "internalType": "uint32",
          "name": "",
          "type": "uint32"
        }
      ],
      "stateMutability": "view",
      "type": "function"
    },
    {
      "inputs": [
        {
          "internalType": "address",
          "name": "_user",
          "type": "address"
        },
        {
          "internalType": "uint256",
          "name": "_promotionId",
          "type": "uint256"
        },
        {
          "internalType": "uint8[]",
          "name": "_epochIds",
          "type": "uint8[]"
        }
      ],
      "name": "claimRewards",
      "outputs": [
        {
          "internalType": "uint256",
          "name": "",
          "type": "uint256"
        }
      ],
      "stateMutability": "nonpayable",
      "type": "function"
    },
    {
      "inputs": [
        {
          "internalType": "contract IERC20",
          "name": "_token",
          "type": "address"
        },
        {
          "internalType": "uint64",
          "name": "_startTimestamp",
          "type": "uint64"
        },
        {
          "internalType": "uint256",
          "name": "_tokensPerEpoch",
          "type": "uint256"
        },
        {
          "internalType": "uint48",
          "name": "_epochDuration",
          "type": "uint48"
        },
        {
          "internalType": "uint8",
          "name": "_numberOfEpochs",
          "type": "uint8"
        }
      ],
      "name": "createPromotion",
      "outputs": [
        {
          "internalType": "uint256",
          "name": "",
          "type": "uint256"
        }
      ],
      "stateMutability": "nonpayable",
      "type": "function"
    },
    {
      "inputs": [
        {
          "internalType": "uint256",
          "name": "_promotionId",
          "type": "uint256"
        },
        {
          "internalType": "address",
          "name": "_to",
          "type": "address"
        }
      ],
      "name": "destroyPromotion",
      "outputs": [
        {
          "internalType": "bool",
          "name": "",
          "type": "bool"
        }
      ],
      "stateMutability": "nonpayable",
      "type": "function"
    },
    {
      "inputs": [
        {
          "internalType": "uint256",
          "name": "_promotionId",
          "type": "uint256"
        },
        {
          "internalType": "address",
          "name": "_to",
          "type": "address"
        }
      ],
      "name": "endPromotion",
      "outputs": [
        {
          "internalType": "bool",
          "name": "",
          "type": "bool"
        }
      ],
      "stateMutability": "nonpayable",
      "type": "function"
    },
    {
      "inputs": [
        {
          "internalType": "uint256",
          "name": "_promotionId",
          "type": "uint256"
        },
        {
          "internalType": "uint8",
          "name": "_numberOfEpochs",
          "type": "uint8"
        }
      ],
      "name": "extendPromotion",
      "outputs": [
        {
          "internalType": "bool",
          "name": "",
          "type": "bool"
        }
      ],
      "stateMutability": "nonpayable",
      "type": "function"
    },
    {
      "inputs": [
        {
          "internalType": "uint256",
          "name": "_promotionId",
          "type": "uint256"
        }
      ],
      "name": "getCurrentEpochId",
      "outputs": [
        {
          "internalType": "uint256",
          "name": "",
          "type": "uint256"
        }
      ],
      "stateMutability": "view",
      "type": "function"
    },
    {
      "inputs": [
        {
          "internalType": "uint256",
          "name": "_promotionId",
          "type": "uint256"
        }
      ],
      "name": "getPromotion",
      "outputs": [
        {
          "components": [
            {
              "internalType": "address",
              "name": "creator",
              "type": "address"
            },
            {
              "internalType": "uint64",
              "name": "startTimestamp",
              "type": "uint64"
            },
            {
              "internalType": "uint8",
              "name": "numberOfEpochs",
              "type": "uint8"
            },
            {
              "internalType": "uint48",
              "name": "epochDuration",
              "type": "uint48"
            },
            {
              "internalType": "uint48",
              "name": "createdAt",
              "type": "uint48"
            },
            {
              "internalType": "contract IERC20",
              "name": "token",
              "type": "address"
            },
            {
              "internalType": "uint256",
              "name": "tokensPerEpoch",
              "type": "uint256"
            },
            {
              "internalType": "uint256",
              "name": "rewardsUnclaimed",
              "type": "uint256"
            }
          ],
          "internalType": "struct ITwabRewards.Promotion",
          "name": "",
          "type": "tuple"
        }
      ],
      "stateMutability": "view",
      "type": "function"
    },
    {
      "inputs": [
        {
          "internalType": "uint256",
          "name": "_promotionId",
          "type": "uint256"
        }
      ],
      "name": "getRemainingRewards",
      "outputs": [
        {
          "internalType": "uint256",
          "name": "",
          "type": "uint256"
        }
      ],
      "stateMutability": "view",
      "type": "function"
    },
    {
      "inputs": [
        {
          "internalType": "address",
          "name": "_user",
          "type": "address"
        },
        {
          "internalType": "uint256",
          "name": "_promotionId",
          "type": "uint256"
        },
        {
          "internalType": "uint8[]",
          "name": "_epochIds",
          "type": "uint8[]"
        }
      ],
      "name": "getRewardsAmount",
      "outputs": [
        {
          "internalType": "uint256[]",
          "name": "",
          "type": "uint256[]"
        }
      ],
      "stateMutability": "view",
      "type": "function"
    },
    {
      "inputs": [],
      "name": "ticket",
      "outputs": [
        {
          "internalType": "contract ITicket",
          "name": "",
          "type": "address"
        }
      ],
      "stateMutability": "view",
      "type": "function"
    }
  ],
  "transactionHash": "0x08853956f59ae17e45a9497f0948b1c11a570274d405819dd5d3ccc4a7d8d0c8",
  "args": [
    "0x62BB4fc73094c83B5e952C2180B23fA7054954c4"
  ],
  "numDeployments": 1,
  "solcInputHash": "45c8f80dfd4edb590489bcbaf8232d24",
  "bytecode": "0x60a06040523480156200001157600080fd5b5060405162002179380380620021798339810160408190526200003491620001c3565b6200003f8162000055565b60601b6001600160601b03191660805262000241565b6001600160a01b038116620000b15760405162461bcd60e51b815260206004820181905260248201527f54776162526577617264732f7469636b65742d6e6f742d7a65726f2d6164647260448201526064015b60405180910390fd5b60405163f77c479160e01b602082015260009081906001600160a01b0384169060240160408051601f1981840301815290829052620000f091620001ea565b600060405180830381855afa9150503d80600081146200012d576040519150601f19603f3d011682016040523d82523d6000602084013e62000132565b606091505b509150915081801562000146575060008151115b801562000170575080806020019051810190620001649190620001c3565b6001600160a01b031615155b620001be5760405162461bcd60e51b815260206004820152601a60248201527f54776162526577617264732f696e76616c69642d7469636b65740000000000006044820152606401620000a8565b505050565b600060208284031215620001d657600080fd5b8151620001e38162000228565b9392505050565b6000825160005b818110156200020d5760208186018101518583015201620001f1565b818111156200021d576000828501525b509190910192915050565b6001600160a01b03811681146200023e57600080fd5b50565b60805160601c611f0b6200026e600039600081816101820152818161127001526113c80152611f0b6000f3fe608060405234801561001057600080fd5b50600436106100c95760003560e01c806366cfae5e11610081578063b2456c3a1161005b578063b2456c3a146101cf578063c1a287e2146101e2578063f824d0fb1461020157600080fd5b806366cfae5e1461015c5780636cc25db71461017d578063a4958845146101bc57600080fd5b8063120468a0116100b2578063120468a01461011657806314fdecca1461012957806320555db11461014957600080fd5b8063096fe668146100ce5780630b011a16146100f6575b600080fd5b6100e16100dc366004611ada565b610214565b60405190151581526020015b60405180910390f35b610109610104366004611889565b610386565b6040516100ed9190611b82565b6100e1610124366004611aaa565b6104db565b61013c610137366004611a78565b610641565b6040516100ed9190611c75565b6100e1610157366004611aaa565b610691565b61016f61016a3660046119fc565b610861565b6040519081526020016100ed565b6101a47f000000000000000000000000000000000000000000000000000000000000000081565b6040516001600160a01b0390911681526020016100ed565b61016f6101ca366004611a78565b610c98565b61016f6101dd366004611889565b610cab565b6101ec624f1a0081565b60405163ffffffff90911681526020016100ed565b61016f61020f366004611a78565b610e56565b600061021f82610e69565b600061022a84610ebf565b905061023581610fff565b60408101516102458160ff611dfe565b60ff168460ff16111561029f5760405162461bcd60e51b815260206004820152601d60248201527f54776162526577617264732f65706f6368732d6f7665722d6c696d697400000060448201526064015b60405180910390fd5b6102a98482611d51565b600086815260208190526040812080547fffffff00ffffffffffffffffffffffffffffffffffffffffffffffffffffffff16600160e01b60ff9485160217905560c084015190916102fc91908716611d98565b90508060008088815260200190815260200160002060030160008282546103239190611d0d565b909155505060a0830151610342906001600160a01b0316333084611076565b60405160ff8616815286907fa9527ed49c1c2ab5449cfef5b611076ce228a0a0de4534874963b83abb6e7b469060200160405180910390a250600195945050505050565b6060600061039385610ebf565b90508260008167ffffffffffffffff8111156103b1576103b1611eaa565b6040519080825280602002602001820160405280156103da578160200160208202803683370190505b50905060005b828110156104cf5760008881526002602090815260408083206001600160a01b038d1684529091529020546104439088888481811061042157610421611e94565b90506020020160208101906104369190611b06565b60ff161c60019081161490565b1561046d57600082828151811061045c5761045c611e94565b6020026020010181815250506104bd565b61049e898589898581811061048457610484611e94565b90506020020160208101906104999190611b06565b61112d565b8282815181106104b0576104b0611e94565b6020026020010181815250505b806104c781611e4d565b9150506103e0565b50979650505050505050565b60006001600160a01b0382166105335760405162461bcd60e51b815260206004820152601f60248201527f54776162526577617264732f70617965652d6e6f742d7a65726f2d61646472006044820152606401610296565b600061053e84610ebf565b9050610549816114a8565b61055281610fff565b600061055d82611501565b600086815260208190526040812080547fffffff00ffffffffffffffffffffffffffffffffffffffffffffffffffffffff16600160e01b60ff8516021790559091506105a88361154d565b90508060008088815260200190815260200160002060030160008282546105cf9190611de7565b909155505060a08301516105ed906001600160a01b031686836115b1565b6040805182815260ff841660208201526001600160a01b0387169188917f98f89153fa6ee40b2edcd2e1ce4a5a9edfb2f74818016fc24e6cfe7b6fcd12a9910160405180910390a350600195945050505050565b6040805161010081018252600080825260208201819052918101829052606081018290526080810182905260a0810182905260c0810182905260e081019190915261068b82610ebf565b92915050565b60006001600160a01b0382166106e95760405162461bcd60e51b815260206004820152601f60248201527f54776162526577617264732f70617965652d6e6f742d7a65726f2d61646472006044820152606401610296565b60006106f484610ebf565b90506106ff816114a8565b60408101516060820151602083015160009260ff1690910265ffffffffffff160167ffffffffffffffff16608083015190915065ffffffffffff166000624f1a0082841061074d578361074f565b825b6107599190611d0d565b9050804210156107ab5760405162461bcd60e51b815260206004820152601f60248201527f54776162526577617264732f67726163652d706572696f642d616374697665006044820152606401610296565b60e0840151600088815260208190526040812080547fffffff000000000000000000000000000000000000000000000000000000000016815560018101829055600281018290556003015560a085015161080f906001600160a01b031688836115b1565b866001600160a01b0316887f6f804f2ef186cd4b2a6740c084b86f557a497a1fcf3a6b073068a55c51187b6f8360405161084b91815260200190565b60405180910390a3506001979650505050505050565b60008084116108b25760405162461bcd60e51b815260206004820152601b60248201527f54776162526577617264732f746f6b656e732d6e6f742d7a65726f00000000006044820152606401610296565b60008365ffffffffffff161161090a5760405162461bcd60e51b815260206004820152601d60248201527f54776162526577617264732f6475726174696f6e2d6e6f742d7a65726f0000006044820152606401610296565b61091382610e69565b600060015460016109249190611d0d565b60018190559050600061093a60ff851687611d98565b9050604051806101000160405280336001600160a01b031681526020018867ffffffffffffffff1681526020018560ff1681526020018665ffffffffffff1681526020014265ffffffffffff168152602001896001600160a01b031681526020018781526020018281525060008084815260200190815260200160002060008201518160000160006101000a8154816001600160a01b0302191690836001600160a01b0316021790555060208201518160000160146101000a81548167ffffffffffffffff021916908367ffffffffffffffff160217905550604082015181600001601c6101000a81548160ff021916908360ff16021790555060608201518160010160006101000a81548165ffffffffffff021916908365ffffffffffff16021790555060808201518160010160066101000a81548165ffffffffffff021916908365ffffffffffff16021790555060a082015181600101600c6101000a8154816001600160a01b0302191690836001600160a01b0316021790555060c0820151816002015560e082015181600301559050506000886001600160a01b03166370a08231306040518263ffffffff1660e01b8152600401610b0b91906001600160a01b0391909116815260200190565b60206040518083038186803b158015610b2357600080fd5b505afa158015610b37573d6000803e3d6000fd5b505050506040513d601f19601f82011682018060405250810190610b5b9190611a91565b9050610b726001600160a01b038a16333085611076565b6040517f70a082310000000000000000000000000000000000000000000000000000000081523060048201526000906001600160a01b038b16906370a082319060240160206040518083038186803b158015610bcd57600080fd5b505afa158015610be1573d6000803e3d6000fd5b505050506040513d601f19601f82011682018060405250810190610c059190611a91565b905080610c128484611d0d565b14610c5f5760405162461bcd60e51b815260206004820152601d60248201527f54776162526577617264732f70726f6d6f2d616d6f756e742d646966660000006044820152606401610296565b60405184907faedc1797e973574eb0e43205c473287ca44eb1c9d0f677dbb0ec8cfc72bb68f390600090a2509198975050505050505050565b600061068b610ca683610ebf565b61154d565b600080610cb785610ebf565b60008681526002602090815260408083206001600160a01b038b1684529091528120549192509084825b81811015610da3576000888883818110610cfd57610cfd611e94565b9050602002016020810190610d129190611b06565b9050600160ff821685901c81161415610d6d5760405162461bcd60e51b815260206004820152601b60248201527f54776162526577617264732f726577617264732d636c61696d656400000000006044820152606401610296565b610d788b878361112d565b610d829086611d0d565b9450600160ff82161b84179350508080610d9b90611e4d565b915050610ce1565b5060008881526002602090815260408083206001600160a01b038d16845282528083208590558a83529082905281206003018054859290610de5908490611de7565b909155505060a0840151610e03906001600160a01b03168a856115b1565b886001600160a01b0316887f446a5bb69110f4fa9a5802e85237a4281d1d27dbe989b22da4a75d9deae8c778898987604051610e4193929190611bf4565b60405180910390a35090979650505050505050565b600061068b610e6483610ebf565b611501565b60008160ff1611610ebc5760405162461bcd60e51b815260206004820152601b60248201527f54776162526577617264732f65706f6368732d6e6f742d7a65726f00000000006044820152606401610296565b50565b6040805161010081018252600080825260208201819052918101829052606081018290526080810182905260a0810182905260c0810182905260e08101919091526000828152602081815260409182902082516101008101845281546001600160a01b0380821680845274010000000000000000000000000000000000000000830467ffffffffffffffff1695840195909552600160e01b90910460ff1694820194909452600182015465ffffffffffff8082166060840152660100000000000082041660808301526c01000000000000000000000000900490931660a0840152600281015460c08401526003015460e083015261068b5760405162461bcd60e51b815260206004820152601d60248201527f54776162526577617264732f696e76616c69642d70726f6d6f74696f6e0000006044820152606401610296565b604081015160608201516020830151429260ff1690910265ffffffffffff160167ffffffffffffffff1611610ebc5760405162461bcd60e51b815260206004820152601e60248201527f54776162526577617264732f70726f6d6f74696f6e2d696e61637469766500006044820152606401610296565b6040516001600160a01b03808516602483015283166044820152606481018290526111279085907f23b872dd00000000000000000000000000000000000000000000000000000000906084015b60408051601f198184030181529190526020810180517bffffffffffffffffffffffffffffffffffffffffffffffffffffffff167fffffffff00000000000000000000000000000000000000000000000000000000909316929092179091526115ff565b50505050565b606082015160009065ffffffffffff168161114b60ff851683611db7565b856020015161115a9190611d25565b905060006111688383611d25565b90508067ffffffffffffffff164210156111c45760405162461bcd60e51b815260206004820152601a60248201527f54776162526577617264732f65706f63682d6e6f742d6f7665720000000000006044820152606401610296565b856040015160ff168560ff161061121d5760405162461bcd60e51b815260206004820152601c60248201527f54776162526577617264732f696e76616c69642d65706f63682d6964000000006044820152606401610296565b6040517f98b16f360000000000000000000000000000000000000000000000000000000081526001600160a01b03888116600483015267ffffffffffffffff8085166024840152831660448301526000917f0000000000000000000000000000000000000000000000000000000000000000909116906398b16f369060640160206040518083038186803b1580156112b457600080fd5b505afa1580156112c8573d6000803e3d6000fd5b505050506040513d601f19601f820116820180604052508101906112ec9190611a91565b905080156114985760408051600180825281830190925260009160208083019080368337019050509050838160008151811061132a5761132a611e94565b67ffffffffffffffff9290921660209283029190910190910152604080516001808252818301909252600091816020016020820280368337019050509050838160008151811061137c5761137c611e94565b67ffffffffffffffff909216602092830291909101909101526040517f8e6d536a0000000000000000000000000000000000000000000000000000000081526000906001600160a01b037f00000000000000000000000000000000000000000000000000000000000000001690638e6d536a906113ff9086908690600401611bc6565b60006040518083038186803b15801561141757600080fd5b505afa15801561142b573d6000803e3d6000fd5b505050506040513d6000823e601f3d908101601f191682016040526114539190810190611915565b60008151811061146557611465611e94565b6020026020010151905080848b60c001516114809190611d98565b61148a9190611d76565b9750505050505050506114a1565b60009450505050505b9392505050565b80516001600160a01b03163314610ebc5760405162461bcd60e51b815260206004820152601e60248201527f54776162526577617264732f6f6e6c792d70726f6d6f2d63726561746f7200006044820152606401610296565b600080826020015167ffffffffffffffff1642111561068b57826060015165ffffffffffff16836020015167ffffffffffffffff1642038161154557611545611e7e565b049392505050565b60408101516060820151602083015160009260ff1690910265ffffffffffff160167ffffffffffffffff1642111561158757506000919050565b61159082611501565b826040015160ff166115a29190611de7565b8260c0015161068b9190611d98565b6040516001600160a01b0383166024820152604481018290526115fa9084907fa9059cbb00000000000000000000000000000000000000000000000000000000906064016110c3565b505050565b6000611654826040518060400160405280602081526020017f5361666545524332303a206c6f772d6c6576656c2063616c6c206661696c6564815250856001600160a01b03166116e49092919063ffffffff16565b8051909150156115fa578080602001905181019061167291906119da565b6115fa5760405162461bcd60e51b815260206004820152602a60248201527f5361666545524332303a204552433230206f7065726174696f6e20646964206e60448201527f6f742073756363656564000000000000000000000000000000000000000000006064820152608401610296565b60606116f384846000856116fb565b949350505050565b6060824710156117735760405162461bcd60e51b815260206004820152602660248201527f416464726573733a20696e73756666696369656e742062616c616e636520666f60448201527f722063616c6c00000000000000000000000000000000000000000000000000006064820152608401610296565b843b6117c15760405162461bcd60e51b815260206004820152601d60248201527f416464726573733a2063616c6c20746f206e6f6e2d636f6e74726163740000006044820152606401610296565b600080866001600160a01b031685876040516117dd9190611b66565b60006040518083038185875af1925050503d806000811461181a576040519150601f19603f3d011682016040523d82523d6000602084013e61181f565b606091505b509150915061182f82828661183a565b979650505050505050565b606083156118495750816114a1565b8251156118595782518084602001fd5b8160405162461bcd60e51b81526004016102969190611c42565b803560ff8116811461188457600080fd5b919050565b6000806000806060858703121561189f57600080fd5b84356118aa81611ec0565b935060208501359250604085013567ffffffffffffffff808211156118ce57600080fd5b818701915087601f8301126118e257600080fd5b8135818111156118f157600080fd5b8860208260051b850101111561190657600080fd5b95989497505060200194505050565b6000602080838503121561192857600080fd5b825167ffffffffffffffff8082111561194057600080fd5b818501915085601f83011261195457600080fd5b81518181111561196657611966611eaa565b8060051b604051601f19603f8301168101818110858211171561198b5761198b611eaa565b604052828152858101935084860182860187018a10156119aa57600080fd5b600095505b838610156119cd5780518552600195909501949386019386016119af565b5098975050505050505050565b6000602082840312156119ec57600080fd5b815180151581146114a157600080fd5b600080600080600060a08688031215611a1457600080fd5b8535611a1f81611ec0565b9450602086013567ffffffffffffffff81168114611a3c57600080fd5b935060408601359250606086013565ffffffffffff81168114611a5e57600080fd5b9150611a6c60808701611873565b90509295509295909350565b600060208284031215611a8a57600080fd5b5035919050565b600060208284031215611aa357600080fd5b5051919050565b60008060408385031215611abd57600080fd5b823591506020830135611acf81611ec0565b809150509250929050565b60008060408385031215611aed57600080fd5b82359150611afd60208401611873565b90509250929050565b600060208284031215611b1857600080fd5b6114a182611873565b600081518084526020808501945080840160005b83811015611b5b57815167ffffffffffffffff1687529582019590820190600101611b35565b509495945050505050565b60008251611b78818460208701611e21565b9190910192915050565b6020808252825182820181905260009190848201906040850190845b81811015611bba57835183529284019291840191600101611b9e565b50909695505050505050565b604081526000611bd96040830185611b21565b8281036020840152611beb8185611b21565b95945050505050565b6040808252810183905260008460608301825b86811015611c2f5760ff611c1a84611873565b16825260209283019290910190600101611c07565b5060209390930193909352509392505050565b6020815260008251806020840152611c61816040850160208701611e21565b601f01601f19169190910160400192915050565b6000610100820190506001600160a01b03835116825267ffffffffffffffff602084015116602083015260ff604084015116604083015265ffffffffffff60608401511660608301526080830151611cd7608084018265ffffffffffff169052565b5060a0830151611cf260a08401826001600160a01b03169052565b5060c083015160c083015260e083015160e083015292915050565b60008219821115611d2057611d20611e68565b500190565b600067ffffffffffffffff808316818516808303821115611d4857611d48611e68565b01949350505050565b600060ff821660ff84168060ff03821115611d6e57611d6e611e68565b019392505050565b600082611d9357634e487b7160e01b600052601260045260246000fd5b500490565b6000816000190483118215151615611db257611db2611e68565b500290565b600067ffffffffffffffff80831681851681830481118215151615611dde57611dde611e68565b02949350505050565b600082821015611df957611df9611e68565b500390565b600060ff821660ff841680821015611e1857611e18611e68565b90039392505050565b60005b83811015611e3c578181015183820152602001611e24565b838111156111275750506000910152565b6000600019821415611e6157611e61611e68565b5060010190565b634e487b7160e01b600052601160045260246000fd5b634e487b7160e01b600052601260045260246000fd5b634e487b7160e01b600052603260045260246000fd5b634e487b7160e01b600052604160045260246000fd5b6001600160a01b0381168114610ebc57600080fdfea2646970667358221220dd0f863bf7c0712f99be832d8b4c5e86b92c1a355b98000d1091ee80eb17e48764736f6c63430008060033",
  "devdoc": {
    "author": "PoolTogether Inc Team",
    "details": "This contract supports only one prize pool ticket.This contract does not support the use of fee on transfer tokens.",
    "events": {
      "PromotionCreated(uint256)": {
        "params": {
          "promotionId": "Id of the newly created promotion"
        }
      },
      "PromotionDestroyed(uint256,address,uint256)": {
        "params": {
          "amount": "Amount of tokens transferred to the recipient",
          "promotionId": "Id of the promotion being destroyed",
          "recipient": "Address of the recipient that will receive the unclaimed rewards"
        }
      },
      "PromotionEnded(uint256,address,uint256,uint8)": {
        "params": {
          "amount": "Amount of tokens transferred to the recipient",
          "epochNumber": "Epoch number at which the promotion ended",
          "promotionId": "Id of the promotion being ended",
          "recipient": "Address of the recipient that will receive the remaining rewards"
        }
      },
      "PromotionExtended(uint256,uint256)": {
        "params": {
          "numberOfEpochs": "Number of epochs the promotion has been extended by",
          "promotionId": "Id of the promotion being extended"
        }
      },
      "RewardsClaimed(uint256,uint8[],address,uint256)": {
        "params": {
          "amount": "Amount of tokens transferred to the recipient address",
          "epochIds": "Ids of the epochs being claimed",
          "promotionId": "Id of the promotion for which epoch rewards were claimed",
          "user": "Address of the user for which the rewards were claimed"
        }
      }
    },
    "kind": "dev",
    "methods": {
      "claimRewards(address,uint256,uint8[])": {
        "details": "Rewards can be claimed on behalf of a user.Rewards can only be claimed for a past epoch.",
        "params": {
          "_epochIds": "Epoch ids to claim rewards for",
          "_promotionId": "Id of the promotion to claim rewards for",
          "_user": "Address of the user to claim rewards for"
        },
        "returns": {
          "_0": "Total amount of rewards claimed"
        }
      },
      "constructor": {
        "params": {
          "_ticket": "Prize Pool ticket address for which the promotions will be created"
        }
      },
      "createPromotion(address,uint64,uint256,uint48,uint8)": {
        "details": "For sake of simplicity, `msg.sender` will be the creator of the promotion.`_latestPromotionId` starts at 0 and is incremented by 1 for each new promotion. So the first promotion will have id 1, the second 2, etc.The transaction will revert if the amount of reward tokens provided is not equal to `_tokensPerEpoch * _numberOfEpochs`. This scenario could happen if the token supplied is a fee on transfer one.",
        "params": {
          "_epochDuration": "Duration of one epoch in seconds",
          "_numberOfEpochs": "Number of epochs the promotion will last for",
          "_startTimestamp": "Timestamp at which the promotion starts",
          "_token": "Address of the token to be distributed",
          "_tokensPerEpoch": "Number of tokens to be distributed per epoch"
        },
        "returns": {
          "_0": "Id of the newly created promotion"
        }
      },
      "destroyPromotion(uint256,address)": {
        "details": "Will send back all the tokens that have not been claimed yet by users.This function will revert if the promotion is still active.This function will revert if the grace period is not over yet.",
        "params": {
          "_promotionId": "Promotion id to destroy",
          "_to": "Address that will receive the remaining tokens if there are any left"
        },
        "returns": {
          "_0": "True if operation was successful"
        }
      },
      "endPromotion(uint256,address)": {
        "details": "Will only send back tokens from the epochs that have not completed.",
        "params": {
          "_promotionId": "Promotion id to end",
          "_to": "Address that will receive the remaining tokens if there are any left"
        },
        "returns": {
          "_0": "true if operation was successful"
        }
      },
      "extendPromotion(uint256,uint8)": {
        "params": {
          "_numberOfEpochs": "Number of epochs to add",
          "_promotionId": "Id of the promotion to extend"
        },
        "returns": {
          "_0": "True if the operation was successful"
        }
      },
      "getCurrentEpochId(uint256)": {
        "details": "Epoch ids and their boolean values are tightly packed and stored in a uint256, so epoch id starts at 0.",
        "params": {
          "_promotionId": "Id of the promotion to get current epoch for"
        },
        "returns": {
          "_0": "Current epoch id of the promotion"
        }
      },
      "getPromotion(uint256)": {
        "params": {
          "_promotionId": "Id of the promotion to get settings for"
        },
        "returns": {
          "_0": "Promotion settings"
        }
      },
      "getRemainingRewards(uint256)": {
        "params": {
          "_promotionId": "Id of the promotion to get the total amount of tokens left to be rewarded for"
        },
        "returns": {
          "_0": "Amount of tokens left to be rewarded"
        }
      },
      "getRewardsAmount(address,uint256,uint8[])": {
        "details": "Rewards amount can only be retrieved for epochs that are over.Will revert if `_epochId` is over the total number of epochs or if epoch is not over.Will return 0 if the user average balance of tickets is 0.Will be 0 if user has already claimed rewards for the epoch.",
        "params": {
          "_epochIds": "Epoch ids to get reward amount for",
          "_promotionId": "Id of the promotion from which the epoch is",
          "_user": "Address of the user to get amount of rewards for"
        },
        "returns": {
          "_0": "Amount of tokens per epoch to be rewarded"
        }
      }
    },
    "stateVariables": {
      "_claimedEpochs": {
        "details": "_claimedEpochs[promotionId][user] => claimedEpochsWe pack epochs claimed by a user into a uint256. So we can't store more than 256 epochs."
      },
      "_latestPromotionId": {
        "details": "Starts at 0 and is incremented by 1 for each new promotion. So the first promotion will have id 1, the second 2, etc."
      }
    },
    "title": "PoolTogether V4 TwabRewards",
    "version": 1
  },
  "userdoc": {
    "events": {
      "PromotionCreated(uint256)": {
        "notice": "Emitted when a promotion is created."
      },
      "PromotionDestroyed(uint256,address,uint256)": {
        "notice": "Emitted when a promotion is destroyed."
      },
      "PromotionEnded(uint256,address,uint256,uint8)": {
        "notice": "Emitted when a promotion is ended."
      },
      "PromotionExtended(uint256,uint256)": {
        "notice": "Emitted when a promotion is extended."
      },
      "RewardsClaimed(uint256,uint8[],address,uint256)": {
        "notice": "Emitted when rewards have been claimed."
      }
    },
    "kind": "user",
    "methods": {
      "GRACE_PERIOD()": {
        "notice": "Period during which the promotion owner can't destroy a promotion."
      },
      "claimRewards(address,uint256,uint8[])": {
        "notice": "Claim rewards for a given promotion and epoch."
      },
      "constructor": {
        "notice": "Constructor of the contract."
      },
      "createPromotion(address,uint64,uint256,uint48,uint8)": {
        "notice": "Creates a new promotion."
      },
      "destroyPromotion(uint256,address)": {
        "notice": "Delete an inactive promotion and send promotion tokens back to the creator."
      },
      "endPromotion(uint256,address)": {
        "notice": "End currently active promotion and send promotion tokens back to the creator."
      },
      "extendPromotion(uint256,uint8)": {
        "notice": "Extend promotion by adding more epochs."
      },
      "getCurrentEpochId(uint256)": {
        "notice": "Get the current epoch id of a promotion."
      },
      "getPromotion(uint256)": {
        "notice": "Get settings for a specific promotion."
      },
      "getRemainingRewards(uint256)": {
        "notice": "Get the total amount of tokens left to be rewarded."
      },
      "getRewardsAmount(address,uint256,uint8[])": {
        "notice": "Get amount of tokens to be rewarded for a given epoch."
      },
      "ticket()": {
        "notice": "Prize pool ticket for which the promotions are created."
      }
    },
    "notice": "Contract to distribute rewards to depositors in a pool. This contract supports the creation of several promotions that can run simultaneously. In order to calculate user rewards, we use the TWAB (Time-Weighted Average Balance) from the Ticket contract. This way, users simply need to hold their tickets to be eligible to claim rewards. Rewards are calculated based on the average amount of tickets they hold during the epoch duration.",
    "version": 1
  },
  "storageLayout": {
    "storage": [
      {
        "astId": 12394,
        "contract": "contracts/TwabRewards.sol:TwabRewards",
        "label": "_promotions",
        "offset": 0,
        "slot": "0",
        "type": "t_mapping(t_uint256,t_struct(Promotion)13793_storage)"
      },
      {
        "astId": 12397,
        "contract": "contracts/TwabRewards.sol:TwabRewards",
        "label": "_latestPromotionId",
        "offset": 0,
        "slot": "1",
        "type": "t_uint256"
      },
      {
        "astId": 12404,
        "contract": "contracts/TwabRewards.sol:TwabRewards",
        "label": "_claimedEpochs",
        "offset": 0,
        "slot": "2",
        "type": "t_mapping(t_uint256,t_mapping(t_address,t_uint256))"
      }
    ],
    "types": {
      "t_address": {
        "encoding": "inplace",
        "label": "address",
        "numberOfBytes": "20"
      },
      "t_contract(IERC20)663": {
        "encoding": "inplace",
        "label": "contract IERC20",
        "numberOfBytes": "20"
      },
      "t_mapping(t_address,t_uint256)": {
        "encoding": "mapping",
        "key": "t_address",
        "label": "mapping(address => uint256)",
        "numberOfBytes": "32",
        "value": "t_uint256"
      },
      "t_mapping(t_uint256,t_mapping(t_address,t_uint256))": {
        "encoding": "mapping",
        "key": "t_uint256",
        "label": "mapping(uint256 => mapping(address => uint256))",
        "numberOfBytes": "32",
        "value": "t_mapping(t_address,t_uint256)"
      },
      "t_mapping(t_uint256,t_struct(Promotion)13793_storage)": {
        "encoding": "mapping",
        "key": "t_uint256",
        "label": "mapping(uint256 => struct ITwabRewards.Promotion)",
        "numberOfBytes": "32",
        "value": "t_struct(Promotion)13793_storage"
      },
      "t_struct(Promotion)13793_storage": {
        "encoding": "inplace",
        "label": "struct ITwabRewards.Promotion",
        "members": [
          {
            "astId": 13777,
            "contract": "contracts/TwabRewards.sol:TwabRewards",
            "label": "creator",
            "offset": 0,
            "slot": "0",
            "type": "t_address"
          },
          {
            "astId": 13779,
            "contract": "contracts/TwabRewards.sol:TwabRewards",
            "label": "startTimestamp",
            "offset": 20,
            "slot": "0",
            "type": "t_uint64"
          },
          {
            "astId": 13781,
            "contract": "contracts/TwabRewards.sol:TwabRewards",
            "label": "numberOfEpochs",
            "offset": 28,
            "slot": "0",
            "type": "t_uint8"
          },
          {
            "astId": 13783,
            "contract": "contracts/TwabRewards.sol:TwabRewards",
            "label": "epochDuration",
            "offset": 0,
            "slot": "1",
            "type": "t_uint48"
          },
          {
            "astId": 13785,
            "contract": "contracts/TwabRewards.sol:TwabRewards",
            "label": "createdAt",
            "offset": 6,
            "slot": "1",
            "type": "t_uint48"
          },
          {
            "astId": 13788,
            "contract": "contracts/TwabRewards.sol:TwabRewards",
            "label": "token",
            "offset": 12,
            "slot": "1",
            "type": "t_contract(IERC20)663"
          },
          {
            "astId": 13790,
            "contract": "contracts/TwabRewards.sol:TwabRewards",
            "label": "tokensPerEpoch",
            "offset": 0,
            "slot": "2",
            "type": "t_uint256"
          },
          {
            "astId": 13792,
            "contract": "contracts/TwabRewards.sol:TwabRewards",
            "label": "rewardsUnclaimed",
            "offset": 0,
            "slot": "3",
            "type": "t_uint256"
          }
        ],
        "numberOfBytes": "128"
      },
      "t_uint256": {
        "encoding": "inplace",
        "label": "uint256",
        "numberOfBytes": "32"
      },
      "t_uint48": {
        "encoding": "inplace",
        "label": "uint48",
        "numberOfBytes": "6"
      },
      "t_uint64": {
        "encoding": "inplace",
        "label": "uint64",
        "numberOfBytes": "8"
      },
      "t_uint8": {
        "encoding": "inplace",
        "label": "uint8",
        "numberOfBytes": "1"
      }
    }
  }
}