{
  "address": "0x1B20994C3894EcC862e26A9F4EC626A8489DD051",
  "abi": [
    {
      "inputs": [
        {
          "internalType": "address",
          "name": "_owner",
          "type": "address"
        },
        {
          "internalType": "address",
          "name": "_destination",
          "type": "address"
        },
        {
          "internalType": "contract IStrategy",
          "name": "_strategy",
          "type": "address"
        },
        {
          "internalType": "contract IReserve",
          "name": "_reserve",
          "type": "address"
        }
      ],
      "stateMutability": "nonpayable",
      "type": "constructor"
    },
    {
      "anonymous": false,
      "inputs": [
        {
          "indexed": true,
          "internalType": "address",
          "name": "destination",
          "type": "address"
        },
        {
          "indexed": true,
          "internalType": "contract IReserve",
          "name": "reserve",
          "type": "address"
        },
        {
          "indexed": true,
          "internalType": "contract IStrategy",
          "name": "strategy",
          "type": "address"
        }
      ],
      "name": "Deployed",
      "type": "event"
    },
    {
      "anonymous": false,
      "inputs": [
        {
          "indexed": false,
          "internalType": "address",
          "name": "destination",
          "type": "address"
        }
      ],
      "name": "DestinationSet",
      "type": "event"
    },
    {
      "anonymous": false,
      "inputs": [
        {
          "indexed": true,
          "internalType": "address",
          "name": "destination",
          "type": "address"
        },
        {
          "indexed": false,
          "internalType": "uint256",
          "name": "amount",
          "type": "uint256"
        }
      ],
      "name": "Flushed",
      "type": "event"
    },
    {
      "anonymous": false,
      "inputs": [
        {
          "indexed": true,
          "internalType": "address",
          "name": "previousManager",
          "type": "address"
        },
        {
          "indexed": true,
          "internalType": "address",
          "name": "newManager",
          "type": "address"
        }
      ],
      "name": "ManagerTransferred",
      "type": "event"
    },
    {
      "anonymous": false,
      "inputs": [
        {
          "indexed": true,
          "internalType": "address",
          "name": "pendingOwner",
          "type": "address"
        }
      ],
      "name": "OwnershipOffered",
      "type": "event"
    },
    {
      "anonymous": false,
      "inputs": [
        {
          "indexed": true,
          "internalType": "address",
          "name": "previousOwner",
          "type": "address"
        },
        {
          "indexed": true,
          "internalType": "address",
          "name": "newOwner",
          "type": "address"
        }
      ],
      "name": "OwnershipTransferred",
      "type": "event"
    },
    {
      "anonymous": false,
      "inputs": [
        {
          "indexed": false,
          "internalType": "contract IReserve",
          "name": "reserve",
          "type": "address"
        }
      ],
      "name": "ReserveSet",
      "type": "event"
    },
    {
      "anonymous": false,
      "inputs": [
        {
          "indexed": false,
          "internalType": "contract IStrategy",
          "name": "strategy",
          "type": "address"
        }
      ],
      "name": "StrategySet",
      "type": "event"
    },
    {
      "inputs": [],
      "name": "claimOwnership",
      "outputs": [],
      "stateMutability": "nonpayable",
      "type": "function"
    },
    {
      "inputs": [],
      "name": "flush",
      "outputs": [
        {
          "internalType": "bool",
          "name": "",
          "type": "bool"
        }
      ],
      "stateMutability": "nonpayable",
      "type": "function"
    },
    {
      "inputs": [],
      "name": "getDestination",
      "outputs": [
        {
          "internalType": "address",
          "name": "",
          "type": "address"
        }
      ],
      "stateMutability": "view",
      "type": "function"
    },
    {
      "inputs": [],
      "name": "getReserve",
      "outputs": [
        {
          "internalType": "contract IReserve",
          "name": "",
          "type": "address"
        }
      ],
      "stateMutability": "view",
      "type": "function"
    },
    {
      "inputs": [],
      "name": "getStrategy",
      "outputs": [
        {
          "internalType": "contract IStrategy",
          "name": "",
          "type": "address"
        }
      ],
      "stateMutability": "view",
      "type": "function"
    },
    {
      "inputs": [],
      "name": "manager",
      "outputs": [
        {
          "internalType": "address",
          "name": "",
          "type": "address"
        }
      ],
      "stateMutability": "view",
      "type": "function"
    },
    {
      "inputs": [],
      "name": "owner",
      "outputs": [
        {
          "internalType": "address",
          "name": "",
          "type": "address"
        }
      ],
      "stateMutability": "view",
      "type": "function"
    },
    {
      "inputs": [],
      "name": "pendingOwner",
      "outputs": [
        {
          "internalType": "address",
          "name": "",
          "type": "address"
        }
      ],
      "stateMutability": "view",
      "type": "function"
    },
    {
      "inputs": [],
      "name": "renounceOwnership",
      "outputs": [],
      "stateMutability": "nonpayable",
      "type": "function"
    },
    {
      "inputs": [
        {
          "internalType": "address",
          "name": "_destination",
          "type": "address"
        }
      ],
      "name": "setDestination",
      "outputs": [
        {
          "internalType": "address",
          "name": "",
          "type": "address"
        }
      ],
      "stateMutability": "nonpayable",
      "type": "function"
    },
    {
      "inputs": [
        {
          "internalType": "address",
          "name": "_newManager",
          "type": "address"
        }
      ],
      "name": "setManager",
      "outputs": [
        {
          "internalType": "bool",
          "name": "",
          "type": "bool"
        }
      ],
      "stateMutability": "nonpayable",
      "type": "function"
    },
    {
      "inputs": [
        {
          "internalType": "contract IReserve",
          "name": "_reserve",
          "type": "address"
        }
      ],
      "name": "setReserve",
      "outputs": [
        {
          "internalType": "contract IReserve",
          "name": "",
          "type": "address"
        }
      ],
      "stateMutability": "nonpayable",
      "type": "function"
    },
    {
      "inputs": [
        {
          "internalType": "contract IStrategy",
          "name": "_strategy",
          "type": "address"
        }
      ],
      "name": "setStrategy",
      "outputs": [
        {
          "internalType": "contract IStrategy",
          "name": "",
          "type": "address"
        }
      ],
      "stateMutability": "nonpayable",
      "type": "function"
    },
    {
      "inputs": [
        {
          "internalType": "address",
          "name": "_newOwner",
          "type": "address"
        }
      ],
      "name": "transferOwnership",
      "outputs": [],
      "stateMutability": "nonpayable",
      "type": "function"
    }
  ],
  "transactionHash": "0x0a814241dfb79c1682accb7e947c0c5629dd1a5b30cd699ae9d27a7f3ea9ed12",
  "args": [
    "0x21E8fFC0108B0cbA465E26cA0a0EA3955475e9b2",
    "0x83332F908f403ce795D90f677cE3f382FE73f3D1",
    "0xA30cB2A488dc616F060a54Ee7971d0bD832547Ec",
    "0xf04E5B81e69Cdc3c08BC5Da64ca053AD46a3d029"
  ],
  "solcInputHash": "8de2730cf5e263103c2ac52c02e7eaa7",
  "bytecode": "0x60806040523480156200001157600080fd5b50604051620010cf380380620010cf833981016040819052620000349162000283565b836200004081620000b6565b506200004c8362000106565b62000057816200018f565b620000628262000209565b816001600160a01b0316816001600160a01b0316846001600160a01b03167fc95935a66d15e0da5e412aca0ad27ae891d20b2fb91cf3994b6a3bf2b817808260405160405180910390a45050505062000304565b600080546001600160a01b038381166001600160a01b0319831681178455604051919092169283917f8be0079c531659141344cd1fd0a4f28419497f9722a3daafe3b4186f6b6457e09190a35050565b6001600160a01b0381166200016d5760405162461bcd60e51b815260206004820152602260248201527f466c7573682f64657374696e6174696f6e2d6e6f742d7a65726f2d6164647265604482015261737360f01b60648201526084015b60405180910390fd5b600380546001600160a01b0319166001600160a01b0392909216919091179055565b6001600160a01b038116620001e75760405162461bcd60e51b815260206004820152601e60248201527f466c7573682f726573657276652d6e6f742d7a65726f2d616464726573730000604482015260640162000164565b600480546001600160a01b0319166001600160a01b0392909216919091179055565b6001600160a01b038116620002615760405162461bcd60e51b815260206004820152601f60248201527f466c7573682f73747261746567792d6e6f742d7a65726f2d6164647265737300604482015260640162000164565b600580546001600160a01b0319166001600160a01b0392909216919091179055565b600080600080608085870312156200029a57600080fd5b8451620002a781620002eb565b6020860151909450620002ba81620002eb565b6040860151909350620002cd81620002eb565b6060860151909250620002e081620002eb565b939692955090935050565b6001600160a01b03811681146200030157600080fd5b50565b610dbb80620003146000396000f3fe608060405234801561001057600080fd5b50600436106100ea5760003560e01c80636b9f96ea1161008c5780639cecc80a116100665780639cecc80a146101ad578063d0ebdbe7146101c0578063e30c3978146101d3578063f2fde38b146101e457600080fd5b80636b9f96ea1461017c578063715018a6146101945780638da5cb5b1461019c57600080fd5b806333a100ca116100c857806333a100ca1461013d578063481c6a75146101505780634e71e0c81461016157806359bf5d391461016b57600080fd5b806307da0603146100ef5780630a0a05e61461011957806316ad95421461012c575b600080fd5b6005546001600160a01b03165b6040516001600160a01b0390911681526020015b60405180910390f35b6100fc610127366004610d13565b6101f7565b6003546001600160a01b03166100fc565b6100fc61014b366004610d13565b6102b1565b6002546001600160a01b03166100fc565b61016961035e565b005b6004546001600160a01b03166100fc565b6101846103ec565b6040519015158152602001610110565b61016961073d565b6000546001600160a01b03166100fc565b6100fc6101bb366004610d13565b6107b2565b6101846101ce366004610d13565b61085f565b6001546001600160a01b03166100fc565b6101696101f2366004610d13565b6108d9565b60003361020c6000546001600160a01b031690565b6001600160a01b0316146102675760405162461bcd60e51b815260206004820152601860248201527f4f776e61626c652f63616c6c65722d6e6f742d6f776e6572000000000000000060448201526064015b60405180910390fd5b61027082610a15565b6040516001600160a01b03831681527f02b0c42ff9b0e5574a8fb272d0d3912de57184ca7a14f102643fb371a89bc213906020015b60405180910390a15090565b6000336102c66000546001600160a01b031690565b6001600160a01b03161461031c5760405162461bcd60e51b815260206004820152601860248201527f4f776e61626c652f63616c6c65722d6e6f742d6f776e65720000000000000000604482015260640161025e565b61032582610ac0565b6040516001600160a01b03831681527fe70d79dad95c835bdd87e9cf4665651c9e5abb3b756e4fd2bf45f29c95c3aa40906020016102a5565b6001546001600160a01b031633146103b85760405162461bcd60e51b815260206004820152601f60248201527f4f776e61626c652f63616c6c65722d6e6f742d70656e64696e674f776e657200604482015260640161025e565b6001546103cd906001600160a01b0316610b45565b6001805473ffffffffffffffffffffffffffffffffffffffff19169055565b6000336104016002546001600160a01b031690565b6001600160a01b0316148061042f5750336104246000546001600160a01b031690565b6001600160a01b0316145b6104a15760405162461bcd60e51b815260206004820152602660248201527f4d616e61676561626c652f63616c6c65722d6e6f742d6d616e616765722d6f7260448201527f2d6f776e65720000000000000000000000000000000000000000000000000000606482015260840161025e565b600560009054906101000a90046001600160a01b03166001600160a01b031663e4fc6b6d6040518163ffffffff1660e01b8152600401602060405180830381600087803b1580156104f157600080fd5b505af1158015610505573d6000803e3d6000fd5b505050506040513d601f19601f820116820180604052508101906105299190610d54565b5060048054604080517f21df0da700000000000000000000000000000000000000000000000000000000815290516001600160a01b039092169260009284926321df0da79281810192602092909190829003018186803b15801561058c57600080fd5b505afa1580156105a0573d6000803e3d6000fd5b505050506040513d601f19601f820116820180604052508101906105c49190610d37565b6040517f70a082310000000000000000000000000000000000000000000000000000000081526001600160a01b0384811660048301529192506000918316906370a082319060240160206040518083038186803b15801561062457600080fd5b505afa158015610638573d6000803e3d6000fd5b505050506040513d601f19601f8201168201806040525081019061065c9190610d54565b90508015610733576003546040517f205c28780000000000000000000000000000000000000000000000000000000081526001600160a01b0391821660048201819052602482018490529185169063205c287890604401600060405180830381600087803b1580156106cd57600080fd5b505af11580156106e1573d6000803e3d6000fd5b50505050806001600160a01b03167f43a46ac5237b9605f9ffdc5ca9e3ada3bea496bd00815441705ff59446129fb18360405161072091815260200190565b60405180910390a2600194505050505090565b6000935050505090565b336107506000546001600160a01b031690565b6001600160a01b0316146107a65760405162461bcd60e51b815260206004820152601860248201527f4f776e61626c652f63616c6c65722d6e6f742d6f776e65720000000000000000604482015260640161025e565b6107b06000610b45565b565b6000336107c76000546001600160a01b031690565b6001600160a01b03161461081d5760405162461bcd60e51b815260206004820152601860248201527f4f776e61626c652f63616c6c65722d6e6f742d6f776e65720000000000000000604482015260640161025e565b61082682610ba2565b6040516001600160a01b03831681527ffbebf27e430f83725e26527d071ece14a3542fb0ab947b63747e1739708378b5906020016102a5565b6000336108746000546001600160a01b031690565b6001600160a01b0316146108ca5760405162461bcd60e51b815260206004820152601860248201527f4f776e61626c652f63616c6c65722d6e6f742d6f776e65720000000000000000604482015260640161025e565b6108d382610c27565b92915050565b336108ec6000546001600160a01b031690565b6001600160a01b0316146109425760405162461bcd60e51b815260206004820152601860248201527f4f776e61626c652f63616c6c65722d6e6f742d6f776e65720000000000000000604482015260640161025e565b6001600160a01b0381166109be5760405162461bcd60e51b815260206004820152602560248201527f4f776e61626c652f70656e64696e674f776e65722d6e6f742d7a65726f2d616460448201527f6472657373000000000000000000000000000000000000000000000000000000606482015260840161025e565b6001805473ffffffffffffffffffffffffffffffffffffffff19166001600160a01b0383169081179091556040517f239a2ddded15777fa246aed5f7e1a9bc69a39d4eb4a397034d1d85766cca7d4c90600090a250565b6001600160a01b038116610a915760405162461bcd60e51b815260206004820152602260248201527f466c7573682f64657374696e6174696f6e2d6e6f742d7a65726f2d616464726560448201527f7373000000000000000000000000000000000000000000000000000000000000606482015260840161025e565b6003805473ffffffffffffffffffffffffffffffffffffffff19166001600160a01b0392909216919091179055565b6001600160a01b038116610b165760405162461bcd60e51b815260206004820152601f60248201527f466c7573682f73747261746567792d6e6f742d7a65726f2d6164647265737300604482015260640161025e565b6005805473ffffffffffffffffffffffffffffffffffffffff19166001600160a01b0392909216919091179055565b600080546001600160a01b0383811673ffffffffffffffffffffffffffffffffffffffff19831681178455604051919092169283917f8be0079c531659141344cd1fd0a4f28419497f9722a3daafe3b4186f6b6457e09190a35050565b6001600160a01b038116610bf85760405162461bcd60e51b815260206004820152601e60248201527f466c7573682f726573657276652d6e6f742d7a65726f2d616464726573730000604482015260640161025e565b6004805473ffffffffffffffffffffffffffffffffffffffff19166001600160a01b0392909216919091179055565b6002546000906001600160a01b03908116908316811415610cb05760405162461bcd60e51b815260206004820152602360248201527f4d616e61676561626c652f6578697374696e672d6d616e616765722d6164647260448201527f6573730000000000000000000000000000000000000000000000000000000000606482015260840161025e565b6002805473ffffffffffffffffffffffffffffffffffffffff19166001600160a01b0385811691821790925560405190918316907f9cb45c728de594dab506a1f1a8554e24c8eeaf983618d5ec5dd7bc6f3c49feee90600090a350600192915050565b600060208284031215610d2557600080fd5b8135610d3081610d6d565b9392505050565b600060208284031215610d4957600080fd5b8151610d3081610d6d565b600060208284031215610d6657600080fd5b5051919050565b6001600160a01b0381168114610d8257600080fd5b5056fea26469706673582212208cd9231ef7f813332c1ff4cae2043f8c9081c2b70281327d9df0479148f2549c64736f6c63430008060033",
  "devdoc": {
    "author": "PoolTogether Inc Team",
    "events": {
      "Deployed(address,address,address)": {
        "params": {
          "destination": "Destination address",
          "reserve": "Strategy address",
          "strategy": "Reserve address"
        }
      }
    },
    "kind": "dev",
    "methods": {
      "claimOwnership()": {
        "details": "This function is only callable by the `_pendingOwner`."
      },
      "constructor": {
        "params": {
          "_destination": "Destination address",
          "_owner": "Prize Flush owner address",
          "_reserve": "Reserve address",
          "_strategy": "Strategy address"
        }
      },
      "flush()": {
        "details": "Captures interest, checkpoint data and transfers tokens to final destination.",
        "returns": {
          "_0": "True if operation is successful."
        }
      },
      "manager()": {
        "returns": {
          "_0": "Current `_manager` address."
        }
      },
      "pendingOwner()": {
        "returns": {
          "_0": "Current `_pendingOwner` address."
        }
      },
      "renounceOwnership()": {
        "details": "Leaves the contract without owner. It will not be possible to call `onlyOwner` functions anymore. Can only be called by the current owner. NOTE: Renouncing ownership will leave the contract without an owner, thereby removing any functionality that is only available to the owner."
      },
      "setManager(address)": {
        "details": "Throws if called by any account other than the owner.",
        "params": {
          "_newManager": "New _manager address."
        },
        "returns": {
          "_0": "Boolean to indicate if the operation was successful or not."
        }
      },
      "transferOwnership(address)": {
        "params": {
          "_newOwner": "Address to transfer ownership to."
        }
      }
    },
    "stateVariables": {
      "destination": {
        "details": "Should be set to the PrizeDistributor address."
      }
    },
    "title": "PoolTogether V4 PrizeFlush",
    "version": 1
  },
  "userdoc": {
    "events": {
      "Deployed(address,address,address)": {
        "notice": "Emitted when contract has been deployed."
      },
      "DestinationSet(address)": {
        "notice": "Emit when destination is set."
      },
      "Flushed(address,uint256)": {
        "notice": "Emit when the flush function has executed."
      },
      "ReserveSet(address)": {
        "notice": "Emit when reserve is set."
      },
      "StrategySet(address)": {
        "notice": "Emit when strategy is set."
      }
    },
    "kind": "user",
    "methods": {
      "claimOwnership()": {
        "notice": "Allows the `_pendingOwner` address to finalize the transfer."
      },
      "constructor": {
        "notice": "Deploy Prize Flush."
      },
      "flush()": {
        "notice": "Migrate interest from PrizePool to PrizeDistributor in a single transaction."
      },
      "getDestination()": {
        "notice": "Read global destination variable."
      },
      "getReserve()": {
        "notice": "Read global reserve variable."
      },
      "getStrategy()": {
        "notice": "Read global strategy variable."
      },
      "manager()": {
        "notice": "Gets current `_manager`."
      },
      "owner()": {
        "notice": "Returns the address of the current owner."
      },
      "pendingOwner()": {
        "notice": "Gets current `_pendingOwner`."
      },
      "renounceOwnership()": {
        "notice": "Renounce ownership of the contract."
      },
      "setDestination(address)": {
        "notice": "Set global destination variable."
      },
      "setManager(address)": {
        "notice": "Set or change of manager."
      },
      "setReserve(address)": {
        "notice": "Set global reserve variable."
      },
      "setStrategy(address)": {
        "notice": "Set global strategy variable."
      },
      "transferOwnership(address)": {
        "notice": "Allows current owner to set the `_pendingOwner` address."
      }
    },
    "notice": "The PrizeFlush contract helps capture interest from the PrizePool and move collected funds to a designated PrizeDistributor contract. When deployed, the destination, reserve and strategy addresses are set and used as static parameters during every \"flush\" execution. The parameters can be reset by the Owner if necessary.",
    "version": 1
  },
  "storageLayout": {
    "storage": [
      {
        "astId": 4755,
        "contract": "@pooltogether/v4-periphery/contracts/PrizeFlush.sol:PrizeFlush",
        "label": "_owner",
        "offset": 0,
        "slot": "0",
        "type": "t_address"
      },
      {
        "astId": 4757,
        "contract": "@pooltogether/v4-periphery/contracts/PrizeFlush.sol:PrizeFlush",
        "label": "_pendingOwner",
        "offset": 0,
        "slot": "1",
        "type": "t_address"
      },
      {
        "astId": 4653,
        "contract": "@pooltogether/v4-periphery/contracts/PrizeFlush.sol:PrizeFlush",
        "label": "_manager",
        "offset": 0,
        "slot": "2",
        "type": "t_address"
      },
      {
        "astId": 14822,
        "contract": "@pooltogether/v4-periphery/contracts/PrizeFlush.sol:PrizeFlush",
        "label": "destination",
        "offset": 0,
        "slot": "3",
        "type": "t_address"
      },
      {
        "astId": 14826,
        "contract": "@pooltogether/v4-periphery/contracts/PrizeFlush.sol:PrizeFlush",
        "label": "reserve",
        "offset": 0,
        "slot": "4",
        "type": "t_contract(IReserve)10737"
      },
      {
        "astId": 14830,
        "contract": "@pooltogether/v4-periphery/contracts/PrizeFlush.sol:PrizeFlush",
        "label": "strategy",
        "offset": 0,
        "slot": "5",
        "type": "t_contract(IStrategy)10751"
      }
    ],
    "types": {
      "t_address": {
        "encoding": "inplace",
        "label": "address",
        "numberOfBytes": "20"
      },
      "t_contract(IReserve)10737": {
        "encoding": "inplace",
        "label": "contract IReserve",
        "numberOfBytes": "20"
      },
      "t_contract(IStrategy)10751": {
        "encoding": "inplace",
        "label": "contract IStrategy",
        "numberOfBytes": "20"
      }
    }
  }
}