{
  "address": "0xAd9f8F45b8c11B34516bEF114f7e4EdbEF7012e8",
  "abi": [
    {
      "inputs": [
        {
          "internalType": "address",
          "name": "_owner",
          "type": "address"
        }
      ],
      "stateMutability": "nonpayable",
      "type": "constructor"
    },
    {
      "anonymous": false,
      "inputs": [
        {
          "indexed": true,
          "internalType": "address",
          "name": "previousManager",
          "type": "address"
        },
        {
          "indexed": true,
          "internalType": "address",
          "name": "newManager",
          "type": "address"
        }
      ],
      "name": "ManagerTransferred",
      "type": "event"
    },
    {
      "anonymous": false,
      "inputs": [
        {
          "indexed": true,
          "internalType": "address",
          "name": "pendingOwner",
          "type": "address"
        }
      ],
      "name": "OwnershipOffered",
      "type": "event"
    },
    {
      "anonymous": false,
      "inputs": [
        {
          "indexed": true,
          "internalType": "address",
          "name": "previousOwner",
          "type": "address"
        },
        {
          "indexed": true,
          "internalType": "address",
          "name": "newOwner",
          "type": "address"
        }
      ],
      "name": "OwnershipTransferred",
      "type": "event"
    },
    {
      "anonymous": false,
      "inputs": [
        {
          "indexed": true,
          "internalType": "uint32",
          "name": "drawId",
          "type": "uint32"
        },
        {
          "components": [
            {
              "internalType": "uint8",
              "name": "bitRangeSize",
              "type": "uint8"
            },
            {
              "internalType": "uint32",
              "name": "drawId",
              "type": "uint32"
            },
            {
              "internalType": "uint32",
              "name": "maxPicksPerUser",
              "type": "uint32"
            },
            {
              "internalType": "uint32",
              "name": "expiryDuration",
              "type": "uint32"
            },
            {
              "internalType": "uint32",
              "name": "endTimestampOffset",
              "type": "uint32"
            },
            {
              "internalType": "uint256",
              "name": "prize",
              "type": "uint256"
            },
            {
              "internalType": "uint32[16]",
              "name": "tiers",
              "type": "uint32[16]"
            }
          ],
          "indexed": false,
          "internalType": "struct IPrizeTierHistory.PrizeTier",
          "name": "prizeTier",
          "type": "tuple"
        }
      ],
      "name": "PrizeTierPushed",
      "type": "event"
    },
    {
      "anonymous": false,
      "inputs": [
        {
          "indexed": true,
          "internalType": "uint32",
          "name": "drawId",
          "type": "uint32"
        },
        {
          "components": [
            {
              "internalType": "uint8",
              "name": "bitRangeSize",
              "type": "uint8"
            },
            {
              "internalType": "uint32",
              "name": "drawId",
              "type": "uint32"
            },
            {
              "internalType": "uint32",
              "name": "maxPicksPerUser",
              "type": "uint32"
            },
            {
              "internalType": "uint32",
              "name": "expiryDuration",
              "type": "uint32"
            },
            {
              "internalType": "uint32",
              "name": "endTimestampOffset",
              "type": "uint32"
            },
            {
              "internalType": "uint256",
              "name": "prize",
              "type": "uint256"
            },
            {
              "internalType": "uint32[16]",
              "name": "tiers",
              "type": "uint32[16]"
            }
          ],
          "indexed": false,
          "internalType": "struct IPrizeTierHistory.PrizeTier",
          "name": "prizeTier",
          "type": "tuple"
        }
      ],
      "name": "PrizeTierSet",
      "type": "event"
    },
    {
      "inputs": [],
      "name": "claimOwnership",
      "outputs": [],
      "stateMutability": "nonpayable",
      "type": "function"
    },
    {
      "inputs": [],
      "name": "count",
      "outputs": [
        {
          "internalType": "uint256",
          "name": "",
          "type": "uint256"
        }
      ],
      "stateMutability": "view",
      "type": "function"
    },
    {
      "inputs": [],
      "name": "getNewestDrawId",
      "outputs": [
        {
          "internalType": "uint32",
          "name": "",
          "type": "uint32"
        }
      ],
      "stateMutability": "view",
      "type": "function"
    },
    {
      "inputs": [],
      "name": "getOldestDrawId",
      "outputs": [
        {
          "internalType": "uint32",
          "name": "",
          "type": "uint32"
        }
      ],
      "stateMutability": "view",
      "type": "function"
    },
    {
      "inputs": [
        {
          "internalType": "uint32",
          "name": "_drawId",
          "type": "uint32"
        }
      ],
      "name": "getPrizeTier",
      "outputs": [
        {
          "components": [
            {
              "internalType": "uint8",
              "name": "bitRangeSize",
              "type": "uint8"
            },
            {
              "internalType": "uint32",
              "name": "drawId",
              "type": "uint32"
            },
            {
              "internalType": "uint32",
              "name": "maxPicksPerUser",
              "type": "uint32"
            },
            {
              "internalType": "uint32",
              "name": "expiryDuration",
              "type": "uint32"
            },
            {
              "internalType": "uint32",
              "name": "endTimestampOffset",
              "type": "uint32"
            },
            {
              "internalType": "uint256",
              "name": "prize",
              "type": "uint256"
            },
            {
              "internalType": "uint32[16]",
              "name": "tiers",
              "type": "uint32[16]"
            }
          ],
          "internalType": "struct IPrizeTierHistory.PrizeTier",
          "name": "",
          "type": "tuple"
        }
      ],
      "stateMutability": "view",
      "type": "function"
    },
    {
      "inputs": [
        {
          "internalType": "uint256",
          "name": "index",
          "type": "uint256"
        }
      ],
      "name": "getPrizeTierAtIndex",
      "outputs": [
        {
          "components": [
            {
              "internalType": "uint8",
              "name": "bitRangeSize",
              "type": "uint8"
            },
            {
              "internalType": "uint32",
              "name": "drawId",
              "type": "uint32"
            },
            {
              "internalType": "uint32",
              "name": "maxPicksPerUser",
              "type": "uint32"
            },
            {
              "internalType": "uint32",
              "name": "expiryDuration",
              "type": "uint32"
            },
            {
              "internalType": "uint32",
              "name": "endTimestampOffset",
              "type": "uint32"
            },
            {
              "internalType": "uint256",
              "name": "prize",
              "type": "uint256"
            },
            {
              "internalType": "uint32[16]",
              "name": "tiers",
              "type": "uint32[16]"
            }
          ],
          "internalType": "struct IPrizeTierHistory.PrizeTier",
          "name": "",
          "type": "tuple"
        }
      ],
      "stateMutability": "view",
      "type": "function"
    },
    {
      "inputs": [
        {
          "internalType": "uint32[]",
          "name": "_drawIds",
          "type": "uint32[]"
        }
      ],
      "name": "getPrizeTierList",
      "outputs": [
        {
          "components": [
            {
              "internalType": "uint8",
              "name": "bitRangeSize",
              "type": "uint8"
            },
            {
              "internalType": "uint32",
              "name": "drawId",
              "type": "uint32"
            },
            {
              "internalType": "uint32",
              "name": "maxPicksPerUser",
              "type": "uint32"
            },
            {
              "internalType": "uint32",
              "name": "expiryDuration",
              "type": "uint32"
            },
            {
              "internalType": "uint32",
              "name": "endTimestampOffset",
              "type": "uint32"
            },
            {
              "internalType": "uint256",
              "name": "prize",
              "type": "uint256"
            },
            {
              "internalType": "uint32[16]",
              "name": "tiers",
              "type": "uint32[16]"
            }
          ],
          "internalType": "struct IPrizeTierHistory.PrizeTier[]",
          "name": "",
          "type": "tuple[]"
        }
      ],
      "stateMutability": "view",
      "type": "function"
    },
    {
      "inputs": [],
      "name": "manager",
      "outputs": [
        {
          "internalType": "address",
          "name": "",
          "type": "address"
        }
      ],
      "stateMutability": "view",
      "type": "function"
    },
    {
      "inputs": [],
      "name": "owner",
      "outputs": [
        {
          "internalType": "address",
          "name": "",
          "type": "address"
        }
      ],
      "stateMutability": "view",
      "type": "function"
    },
    {
      "inputs": [],
      "name": "pendingOwner",
      "outputs": [
        {
          "internalType": "address",
          "name": "",
          "type": "address"
        }
      ],
      "stateMutability": "view",
      "type": "function"
    },
    {
      "inputs": [
        {
          "components": [
            {
              "internalType": "uint8",
              "name": "bitRangeSize",
              "type": "uint8"
            },
            {
              "internalType": "uint32",
              "name": "drawId",
              "type": "uint32"
            },
            {
              "internalType": "uint32",
              "name": "maxPicksPerUser",
              "type": "uint32"
            },
            {
              "internalType": "uint32",
              "name": "expiryDuration",
              "type": "uint32"
            },
            {
              "internalType": "uint32",
              "name": "endTimestampOffset",
              "type": "uint32"
            },
            {
              "internalType": "uint256",
              "name": "prize",
              "type": "uint256"
            },
            {
              "internalType": "uint32[16]",
              "name": "tiers",
              "type": "uint32[16]"
            }
          ],
          "internalType": "struct IPrizeTierHistory.PrizeTier",
          "name": "_prizeTier",
          "type": "tuple"
        }
      ],
      "name": "popAndPush",
      "outputs": [
        {
          "internalType": "uint32",
          "name": "",
          "type": "uint32"
        }
      ],
      "stateMutability": "nonpayable",
      "type": "function"
    },
    {
      "inputs": [
        {
          "components": [
            {
              "internalType": "uint8",
              "name": "bitRangeSize",
              "type": "uint8"
            },
            {
              "internalType": "uint32",
              "name": "drawId",
              "type": "uint32"
            },
            {
              "internalType": "uint32",
              "name": "maxPicksPerUser",
              "type": "uint32"
            },
            {
              "internalType": "uint32",
              "name": "expiryDuration",
              "type": "uint32"
            },
            {
              "internalType": "uint32",
              "name": "endTimestampOffset",
              "type": "uint32"
            },
            {
              "internalType": "uint256",
              "name": "prize",
              "type": "uint256"
            },
            {
              "internalType": "uint32[16]",
              "name": "tiers",
              "type": "uint32[16]"
            }
          ],
          "internalType": "struct IPrizeTierHistory.PrizeTier",
          "name": "_nextPrizeTier",
          "type": "tuple"
        }
      ],
      "name": "push",
      "outputs": [
        {
          "internalType": "uint32",
          "name": "",
          "type": "uint32"
        }
      ],
      "stateMutability": "nonpayable",
      "type": "function"
    },
    {
      "inputs": [],
      "name": "renounceOwnership",
      "outputs": [],
      "stateMutability": "nonpayable",
      "type": "function"
    },
    {
      "inputs": [
        {
          "components": [
            {
              "internalType": "uint8",
              "name": "bitRangeSize",
              "type": "uint8"
            },
            {
              "internalType": "uint32",
              "name": "drawId",
              "type": "uint32"
            },
            {
              "internalType": "uint32",
              "name": "maxPicksPerUser",
              "type": "uint32"
            },
            {
              "internalType": "uint32",
              "name": "expiryDuration",
              "type": "uint32"
            },
            {
              "internalType": "uint32",
              "name": "endTimestampOffset",
              "type": "uint32"
            },
            {
              "internalType": "uint256",
              "name": "prize",
              "type": "uint256"
            },
            {
              "internalType": "uint32[16]",
              "name": "tiers",
              "type": "uint32[16]"
            }
          ],
          "internalType": "struct IPrizeTierHistory.PrizeTier",
          "name": "_prizeTier",
          "type": "tuple"
        }
      ],
      "name": "replace",
      "outputs": [
        {
          "internalType": "uint256",
          "name": "",
          "type": "uint256"
        }
      ],
      "stateMutability": "nonpayable",
      "type": "function"
    },
    {
      "inputs": [
        {
          "internalType": "address",
          "name": "_newManager",
          "type": "address"
        }
      ],
      "name": "setManager",
      "outputs": [
        {
          "internalType": "bool",
          "name": "",
          "type": "bool"
        }
      ],
      "stateMutability": "nonpayable",
      "type": "function"
    },
    {
      "inputs": [
        {
          "internalType": "address",
          "name": "_newOwner",
          "type": "address"
        }
      ],
      "name": "transferOwnership",
      "outputs": [],
      "stateMutability": "nonpayable",
      "type": "function"
    }
  ],
  "transactionHash": "0x7c8b5b9380589de7220c54bd68f821cd149705e4cc05ed6583078c28c9cad466",
  "args": [
    "0x21E8fFC0108B0cbA465E26cA0a0EA3955475e9b2"
  ],
  "solcInputHash": "8de2730cf5e263103c2ac52c02e7eaa7",
  "bytecode": "0x60806040523480156200001157600080fd5b5060405162001ed838038062001ed8833981016040819052620000349162000098565b80620000408162000048565b5050620000ca565b600080546001600160a01b038381166001600160a01b0319831681178455604051919092169283917f8be0079c531659141344cd1fd0a4f28419497f9722a3daafe3b4186f6b6457e09190a35050565b600060208284031215620000ab57600080fd5b81516001600160a01b0381168114620000c357600080fd5b9392505050565b611dfe80620000da6000396000f3fe608060405234801561001057600080fd5b50600436106101005760003560e01c8063715018a611610097578063e30c397811610066578063e30c397814610212578063e4dd269014610223578063f114376514610236578063f2fde38b1461024957600080fd5b8063715018a6146101c35780638da5cb5b146101cb578063d0ebdbe7146101dc578063d365027d146101ff57600080fd5b8063481c6a75116100d3578063481c6a75146101545780634aac253d146101795780634e602cd8146101995780634e71e0c8146101b957600080fd5b806306661abd146101055780633659f5431461011c57806339dd7f0814610144578063472b619c1461014c575b600080fd5b6003545b6040519081526020015b60405180910390f35b61012f61012a366004611905565b61025c565b60405163ffffffff9091168152602001610113565b61012f61067f565b61012f6106b6565b6002546001600160a01b03165b6040516001600160a01b039091168152602001610113565b61018c610187366004611937565b6106da565b6040516101139190611ad3565b6101ac6101a7366004611890565b61076d565b60405161011391906119d1565b6101c1610838565b005b6101c16108c6565b6000546001600160a01b0316610161565b6101ef6101ea366004611867565b61093b565b6040519015158152602001610113565b61010961020d366004611905565b6109af565b6001546001600160a01b0316610161565b61018c61023136600461191e565b610cd7565b61012f610244366004611905565b610de1565b6101c1610257366004611867565b6110bf565b6000336102716002546001600160a01b031690565b6001600160a01b0316148061029f5750336102946000546001600160a01b031690565b6001600160a01b0316145b6103165760405162461bcd60e51b815260206004820152602660248201527f4d616e61676561626c652f63616c6c65722d6e6f742d6d616e616765722d6f7260448201527f2d6f776e6572000000000000000000000000000000000000000000000000000060648201526084015b60405180910390fd5b60006003805480602002602001604051908101604052809291908181526020016000905b8282101561043257600084815260208082206040805160e08101825260048702909201805460ff8116845263ffffffff610100820481169585019590955265010000000000810485168484015269010000000000000000008104851660608501526d010000000000000000000000000090049093166080830152600183015460a08301528051610200810191829052919360c0850192916002850191601091908390855b82829054906101000a900463ffffffff1663ffffffff16815260200190600401906020826003010492830192600103820291508084116103de5790505050505050815250508152602001906001019061033a565b5050505090506000815111156105e957600380546000919061045690600190611b1c565b8154811061046657610466611beb565b60009182526020918290206040805160e0810182526004909302909101805460ff8116845263ffffffff610100820481169585019590955265010000000000810485168484015269010000000000000000008104851660608501526d010000000000000000000000000090049093166080830152600183015460a08301528051610200810190915290919060c08301906002830160108282826020028201916000905b82829054906101000a900463ffffffff1663ffffffff16815260200190600401906020826003010492830192600103820291508084116105095790505050505050815250509050806020015163ffffffff1684602001602081019061056e9190611937565b63ffffffff16116105e75760405162461bcd60e51b815260206004820152602a60248201527f5072697a6554696572486973746f72792f6e6f6e2d73657175656e7469616c2d60448201527f7072697a652d7469657200000000000000000000000000000000000000000000606482015260840161030d565b505b6003805460018101825560009190915283906004027fc2575a0e9e593c00f959f8c92f12db2869c3395a3b0502d05e2516446f71f85b0161062a8282611c24565b5061063d90506040840160208501611937565b63ffffffff167efa6c2cd74e788568ac0c75b649897ed491b894d237486258b420d7e77490bf846040516106719190611a14565b60405180910390a250919050565b6000600360008154811061069557610695611beb565b6000918252602090912060049091020154610100900463ffffffff16919050565b60038054600091906106ca90600190611b1c565b8154811061069557610695611beb565b6106e2611805565b60008263ffffffff161161075e5760405162461bcd60e51b815260206004820152602160248201527f5072697a6554696572486973746f72792f647261772d69642d6e6f742d7a657260448201527f6f00000000000000000000000000000000000000000000000000000000000000606482015260840161030d565b610767826111fb565b92915050565b606060008267ffffffffffffffff81111561078a5761078a611c01565b6040519080825280602002602001820160405280156107c357816020015b6107b0611805565b8152602001906001900390816107a85790505b50905060005b83811015610830576108008585838181106107e6576107e6611beb565b90506020020160208101906107fb9190611937565b6111fb565b82828151811061081257610812611beb565b6020026020010181905250808061082890611b9c565b9150506107c9565b509392505050565b6001546001600160a01b031633146108925760405162461bcd60e51b815260206004820152601f60248201527f4f776e61626c652f63616c6c65722d6e6f742d70656e64696e674f776e657200604482015260640161030d565b6001546108a7906001600160a01b03166114a4565b6001805473ffffffffffffffffffffffffffffffffffffffff19169055565b336108d96000546001600160a01b031690565b6001600160a01b03161461092f5760405162461bcd60e51b815260206004820152601860248201527f4f776e61626c652f63616c6c65722d6e6f742d6f776e65720000000000000000604482015260640161030d565b61093960006114a4565b565b6000336109506000546001600160a01b031690565b6001600160a01b0316146109a65760405162461bcd60e51b815260206004820152601860248201527f4f776e61626c652f63616c6c65722d6e6f742d6f776e65720000000000000000604482015260640161030d565b61076782611501565b6000336109c46000546001600160a01b031690565b6001600160a01b031614610a1a5760405162461bcd60e51b815260206004820152601860248201527f4f776e61626c652f63616c6c65722d6e6f742d6f776e65720000000000000000604482015260640161030d565b60035480610a6a5760405162461bcd60e51b815260206004820152601f60248201527f5072697a6554696572486973746f72792f6e6f2d7072697a652d746965727300604482015260640161030d565b600080610a78600184611b1c565b9050600060038381548110610a8f57610a8f611beb565b906000526020600020906004020160000160019054906101000a900463ffffffff169050600060038381548110610ac857610ac8611beb565b60009182526020918290206004909102015463ffffffff61010090910481169250831690610afc9060408a01908a01611937565b63ffffffff161015610b765760405162461bcd60e51b815260206004820152602560248201527f5072697a6554696572486973746f72792f647261772d69642d6f75742d6f662d60448201527f72616e6765000000000000000000000000000000000000000000000000000000606482015260840161030d565b6000610b94610b8b60408a0160208b01611937565b868660036115ed565b9050610ba66040890160208a01611937565b63ffffffff1660038281548110610bbf57610bbf611beb565b6000918252602090912060049091020154610100900463ffffffff1614610c4e5760405162461bcd60e51b815260206004820152602360248201527f5072697a6554696572486973746f72792f647261772d69642d6d7573742d6d6160448201527f7463680000000000000000000000000000000000000000000000000000000000606482015260840161030d565b8760038281548110610c6257610c62611beb565b90600052602060002090600402018181610c7c9190611c24565b50610c8f90506040890160208a01611937565b63ffffffff167fec70f602a8e5c0eab140e799c5b7bb34035bd73c6eb882fad555c7c8860817e789604051610cc49190611a14565b60405180910390a2505050505050919050565b610cdf611805565b60038281548110610cf257610cf2611beb565b60009182526020918290206040805160e0810182526004909302909101805460ff8116845263ffffffff610100820481169585019590955265010000000000810485168484015269010000000000000000008104851660608501526d010000000000000000000000000090049093166080830152600183015460a08301528051610200810190915290919060c08301906002830160108282826020028201916000905b82829054906101000a900463ffffffff1663ffffffff1681526020019060040190602082600301049283019260010382029150808411610d955790505050505050815250509050919050565b600033610df66000546001600160a01b031690565b6001600160a01b031614610e4c5760405162461bcd60e51b815260206004820152601860248201527f4f776e61626c652f63616c6c65722d6e6f742d6f776e65720000000000000000604482015260640161030d565b600354610e9b5760405162461bcd60e51b815260206004820152601e60248201527f5072697a6554696572486973746f72792f686973746f72792d656d7074790000604482015260640161030d565b6003805460009190610eaf90600190611b1c565b81548110610ebf57610ebf611beb565b60009182526020918290206040805160e0810182526004909302909101805460ff8116845263ffffffff610100820481169585019590955265010000000000810485168484015269010000000000000000008104851660608501526d010000000000000000000000000090049093166080830152600183015460a08301528051610200810190915290919060c08301906002830160108282826020028201916000905b82829054906101000a900463ffffffff1663ffffffff1681526020019060040190602082600301049283019260010382029150808411610f625790505050505050815250509050806020015163ffffffff16836020016020810190610fc79190611937565b63ffffffff16101561101b5760405162461bcd60e51b815260206004820181905260248201527f5072697a6554696572486973746f72792f696e76616c69642d647261772d6964604482015260640161030d565b6003805484919061102e90600190611b1c565b8154811061103e5761103e611beb565b906000526020600020906004020181816110589190611c24565b5061106b90506040840160208501611937565b63ffffffff167fec70f602a8e5c0eab140e799c5b7bb34035bd73c6eb882fad555c7c8860817e7846040516110a09190611a14565b60405180910390a26110b86040840160208501611937565b9392505050565b336110d26000546001600160a01b031690565b6001600160a01b0316146111285760405162461bcd60e51b815260206004820152601860248201527f4f776e61626c652f63616c6c65722d6e6f742d6f776e65720000000000000000604482015260640161030d565b6001600160a01b0381166111a45760405162461bcd60e51b815260206004820152602560248201527f4f776e61626c652f70656e64696e674f776e65722d6e6f742d7a65726f2d616460448201527f6472657373000000000000000000000000000000000000000000000000000000606482015260840161030d565b6001805473ffffffffffffffffffffffffffffffffffffffff19166001600160a01b0383169081179091556040517f239a2ddded15777fa246aed5f7e1a9bc69a39d4eb4a397034d1d85766cca7d4c90600090a250565b611203611805565b600354806112535760405162461bcd60e51b815260206004820152601f60248201527f5072697a6554696572486973746f72792f6e6f2d7072697a652d746965727300604482015260640161030d565b600080611261600184611b1c565b905060006003838154811061127857611278611beb565b906000526020600020906004020160000160019054906101000a900463ffffffff1690506000600383815481106112b1576112b1611beb565b600091825260209091206004909102015463ffffffff61010090910481169150828116908816101561134b5760405162461bcd60e51b815260206004820152602560248201527f5072697a6554696572486973746f72792f647261772d69642d6f75742d6f662d60448201527f72616e6765000000000000000000000000000000000000000000000000000000606482015260840161030d565b8063ffffffff168763ffffffff1610611465576003838154811061137157611371611beb565b60009182526020918290206040805160e0810182526004909302909101805460ff8116845263ffffffff610100820481169585019590955265010000000000810485168484015269010000000000000000008104851660608501526d010000000000000000000000000090049093166080830152600183015460a08301528051610200810190915290919060c08301906002830160108282826020028201916000905b82829054906101000a900463ffffffff1663ffffffff168152602001906004019060208260030104928301926001038202915080841161141457905050505050508152505095505050505050919050565b8163ffffffff168763ffffffff16141561148c576003848154811061137157611371611beb565b61149987858560036116ee565b979650505050505050565b600080546001600160a01b0383811673ffffffffffffffffffffffffffffffffffffffff19831681178455604051919092169283917f8be0079c531659141344cd1fd0a4f28419497f9722a3daafe3b4186f6b6457e09190a35050565b6002546000906001600160a01b0390811690831681141561158a5760405162461bcd60e51b815260206004820152602360248201527f4d616e61676561626c652f6578697374696e672d6d616e616765722d6164647260448201527f6573730000000000000000000000000000000000000000000000000000000000606482015260840161030d565b6002805473ffffffffffffffffffffffffffffffffffffffff19166001600160a01b0385811691821790925560405190918316907f9cb45c728de594dab506a1f1a8554e24c8eeaf983618d5ec5dd7bc6f3c49feee90600090a350600192915050565b60008084845b600060026116018484611b1c565b61160b9190611afa565b6116159084611ae2565b9050600086828154811061162b5761162b611beb565b600091825260209091206004909102015463ffffffff610100909104811691508a1681141561165c575092506116e2565b8963ffffffff168163ffffffff1610156116825761167b826001611ae2565b93506116a4565b8963ffffffff168163ffffffff1611156116a4576116a1600183611b1c565b92505b828414156116db578963ffffffff168163ffffffff16106116d3576116ca600183611b1c565b945050506116e2565b5092506116e2565b50506115f3565b50909695505050505050565b6116f6611805565b81611703868686866115ed565b8154811061171357611713611beb565b60009182526020918290206040805160e0810182526004909302909101805460ff8116845263ffffffff610100820481169585019590955265010000000000810485168484015269010000000000000000008104851660608501526d010000000000000000000000000090049093166080830152600183015460a08301528051610200810190915290919060c08301906002830160108282826020028201916000905b82829054906101000a900463ffffffff1663ffffffff16815260200190600401906020826003010492830192600103820291508084116117b65790505050505050815250509050949350505050565b6040805160e081018252600080825260208201819052918101829052606081018290526080810182905260a081019190915260c08101611843611848565b905290565b6040518061020001604052806010906020820280368337509192915050565b60006020828403121561187957600080fd5b81356001600160a01b03811681146110b857600080fd5b600080602083850312156118a357600080fd5b823567ffffffffffffffff808211156118bb57600080fd5b818501915085601f8301126118cf57600080fd5b8135818111156118de57600080fd5b8660208260051b85010111156118f357600080fd5b60209290920196919550909350505050565b60006102c0828403121561191857600080fd5b50919050565b60006020828403121561193057600080fd5b5035919050565b60006020828403121561194957600080fd5b81356110b881611da4565b60ff815116825260208082015163ffffffff8082168386015280604085015116604086015280606085015116606086015280608085015116608086015260a084015160a086015260c0840151915060c0850160005b60108110156119c85783518316825292840192908401906001016119a9565b50505050505050565b6020808252825182820181905260009190848201906040850190845b818110156116e257611a00838551611954565b928401926102c092909201916001016119ed565b6102c081018235611a2481611db9565b60ff168252602083810135611a3881611da4565b63ffffffff90811684830152604085013590611a5382611da4565b9081166040850152606085013590611a6a82611da4565b9081166060850152608085013590611a8182611da4565b808216608086015260a086013560a086015260c08501915060c0860160005b6010811015611ac8578135611ab481611da4565b831684529284019290840190600101611aa0565b505050505092915050565b6102c081016107678284611954565b60008219821115611af557611af5611bd5565b500190565b600082611b1757634e487b7160e01b600052601260045260246000fd5b500490565b600082821015611b2e57611b2e611bd5565b500390565b81816000805b6010811015611b94578335611b4d81611da4565b835463ffffffff600385901b81811b801990931693909116901b1617835560209390930192600490910190601c821115611b8c57600091506001830192505b600101611b39565b505050505050565b60007fffffffffffffffffffffffffffffffffffffffffffffffffffffffffffffffff821415611bce57611bce611bd5565b5060010190565b634e487b7160e01b600052601160045260246000fd5b634e487b7160e01b600052603260045260246000fd5b634e487b7160e01b600052604160045260246000fd5b6000813561076781611da4565b8135611c2f81611db9565b60ff811690508154817fffffffffffffffffffffffffffffffffffffffffffffffffffffffffffffff0082161783556020840135611c6c81611da4565b64ffffffff008160081b16837fffffffffffffffffffffffffffffffffffffffffffffffffffffff00000000008416171784555050506040820135611cb081611da4565b81547fffffffffffffffffffffffffffffffffffffffffffffff00000000ffffffffff16602882901b68ffffffff00000000001617825550611d35611cf760608401611c17565b82547fffffffffffffffffffffffffffffffffffffff00000000ffffffffffffffffff1660489190911b6cffffffff00000000000000000016178255565b611d86611d4460808401611c17565b82547fffffffffffffffffffffffffffffff00000000ffffffffffffffffffffffffff1660689190911b70ffffffff0000000000000000000000000016178255565b60a08201356001820155611da060c0830160028301611b33565b5050565b63ffffffff81168114611db657600080fd5b50565b60ff81168114611db657600080fdfea264697066735822122086f35831e6bca9a487d943a55c009058f4fe4429eae8675ad617b169a6a16f1664736f6c63430008060033",
  "devdoc": {
    "author": "PoolTogether Inc Team",
    "kind": "dev",
    "methods": {
      "claimOwnership()": {
        "details": "This function is only callable by the `_pendingOwner`."
      },
      "count()": {
        "returns": {
          "_0": "The number of prize tiers that have been pushed"
        }
      },
      "getOldestDrawId()": {
        "returns": {
          "_0": "Draw ID of first PrizeTier record"
        }
      },
      "manager()": {
        "returns": {
          "_0": "Current `_manager` address."
        }
      },
      "pendingOwner()": {
        "returns": {
          "_0": "Current `_pendingOwner` address."
        }
      },
      "renounceOwnership()": {
        "details": "Leaves the contract without owner. It will not be possible to call `onlyOwner` functions anymore. Can only be called by the current owner. NOTE: Renouncing ownership will leave the contract without an owner, thereby removing any functionality that is only available to the owner."
      },
      "setManager(address)": {
        "details": "Throws if called by any account other than the owner.",
        "params": {
          "_newManager": "New _manager address."
        },
        "returns": {
          "_0": "Boolean to indicate if the operation was successful or not."
        }
      },
      "transferOwnership(address)": {
        "params": {
          "_newOwner": "Address to transfer ownership to."
        }
      }
    },
    "title": "PoolTogether V4 IPrizeTierHistory",
    "version": 1
  },
  "userdoc": {
    "events": {
      "PrizeTierPushed(uint32,(uint8,uint32,uint32,uint32,uint32,uint256,uint32[16]))": {
        "notice": "Emit when new PrizeTier is added to history"
      },
      "PrizeTierSet(uint32,(uint8,uint32,uint32,uint32,uint32,uint256,uint32[16]))": {
        "notice": "Emit when existing PrizeTier is updated in history"
      }
    },
    "kind": "user",
    "methods": {
      "claimOwnership()": {
        "notice": "Allows the `_pendingOwner` address to finalize the transfer."
      },
      "count()": {
        "notice": "Returns the number of Prize Tier structs pushed"
      },
      "getOldestDrawId()": {
        "notice": "Read first Draw ID used to initialize history"
      },
      "manager()": {
        "notice": "Gets current `_manager`."
      },
      "owner()": {
        "notice": "Returns the address of the current owner."
      },
      "pendingOwner()": {
        "notice": "Gets current `_pendingOwner`."
      },
      "renounceOwnership()": {
        "notice": "Renounce ownership of the contract."
      },
      "setManager(address)": {
        "notice": "Set or change of manager."
      },
      "transferOwnership(address)": {
        "notice": "Allows current owner to set the `_pendingOwner` address."
      }
    },
    "notice": "IPrizeTierHistory is the base contract for PrizeTierHistory",
    "version": 1
  },
  "storageLayout": {
    "storage": [
      {
        "astId": 4755,
        "contract": "@pooltogether/v4-periphery/contracts/PrizeTierHistory.sol:PrizeTierHistory",
        "label": "_owner",
        "offset": 0,
        "slot": "0",
        "type": "t_address"
      },
      {
        "astId": 4757,
        "contract": "@pooltogether/v4-periphery/contracts/PrizeTierHistory.sol:PrizeTierHistory",
        "label": "_pendingOwner",
        "offset": 0,
        "slot": "1",
        "type": "t_address"
      },
      {
        "astId": 4653,
        "contract": "@pooltogether/v4-periphery/contracts/PrizeTierHistory.sol:PrizeTierHistory",
        "label": "_manager",
        "offset": 0,
        "slot": "2",
        "type": "t_address"
      },
      {
        "astId": 15127,
        "contract": "@pooltogether/v4-periphery/contracts/PrizeTierHistory.sol:PrizeTierHistory",
        "label": "history",
        "offset": 0,
        "slot": "3",
        "type": "t_array(t_struct(PrizeTier)15771_storage)dyn_storage"
      }
    ],
    "types": {
      "t_address": {
        "encoding": "inplace",
        "label": "address",
        "numberOfBytes": "20"
      },
      "t_array(t_struct(PrizeTier)15771_storage)dyn_storage": {
        "base": "t_struct(PrizeTier)15771_storage",
        "encoding": "dynamic_array",
        "label": "struct IPrizeTierHistory.PrizeTier[]",
        "numberOfBytes": "32"
      },
      "t_array(t_uint32)16_storage": {
        "base": "t_uint32",
        "encoding": "inplace",
        "label": "uint32[16]",
        "numberOfBytes": "64"
      },
      "t_struct(PrizeTier)15771_storage": {
        "encoding": "inplace",
        "label": "struct IPrizeTierHistory.PrizeTier",
        "members": [
          {
            "astId": 15756,
            "contract": "@pooltogether/v4-periphery/contracts/PrizeTierHistory.sol:PrizeTierHistory",
            "label": "bitRangeSize",
            "offset": 0,
            "slot": "0",
            "type": "t_uint8"
          },
          {
            "astId": 15758,
            "contract": "@pooltogether/v4-periphery/contracts/PrizeTierHistory.sol:PrizeTierHistory",
            "label": "drawId",
            "offset": 1,
            "slot": "0",
            "type": "t_uint32"
          },
          {
            "astId": 15760,
            "contract": "@pooltogether/v4-periphery/contracts/PrizeTierHistory.sol:PrizeTierHistory",
            "label": "maxPicksPerUser",
            "offset": 5,
            "slot": "0",
            "type": "t_uint32"
          },
          {
            "astId": 15762,
            "contract": "@pooltogether/v4-periphery/contracts/PrizeTierHistory.sol:PrizeTierHistory",
            "label": "expiryDuration",
            "offset": 9,
            "slot": "0",
            "type": "t_uint32"
          },
          {
            "astId": 15764,
            "contract": "@pooltogether/v4-periphery/contracts/PrizeTierHistory.sol:PrizeTierHistory",
            "label": "endTimestampOffset",
            "offset": 13,
            "slot": "0",
            "type": "t_uint32"
          },
          {
            "astId": 15766,
            "contract": "@pooltogether/v4-periphery/contracts/PrizeTierHistory.sol:PrizeTierHistory",
            "label": "prize",
            "offset": 0,
            "slot": "1",
            "type": "t_uint256"
          },
          {
            "astId": 15770,
            "contract": "@pooltogether/v4-periphery/contracts/PrizeTierHistory.sol:PrizeTierHistory",
            "label": "tiers",
            "offset": 0,
            "slot": "2",
            "type": "t_array(t_uint32)16_storage"
          }
        ],
        "numberOfBytes": "128"
      },
      "t_uint256": {
        "encoding": "inplace",
        "label": "uint256",
        "numberOfBytes": "32"
      },
      "t_uint32": {
        "encoding": "inplace",
        "label": "uint32",
        "numberOfBytes": "4"
      },
      "t_uint8": {
        "encoding": "inplace",
        "label": "uint8",
        "numberOfBytes": "1"
      }
    }
  }
}