{
  "address": "0xd2d3900D19BC0976E43399D7C57D35AcC8938140",
  "abi": [
    {
      "inputs": [
        {
          "internalType": "address",
          "name": "_owner",
          "type": "address"
        }
      ],
      "stateMutability": "nonpayable",
      "type": "constructor"
    },
    {
      "anonymous": false,
      "inputs": [
        {
          "indexed": true,
          "internalType": "address",
          "name": "previousManager",
          "type": "address"
        },
        {
          "indexed": true,
          "internalType": "address",
          "name": "newManager",
          "type": "address"
        }
      ],
      "name": "ManagerTransferred",
      "type": "event"
    },
    {
      "anonymous": false,
      "inputs": [
        {
          "indexed": true,
          "internalType": "address",
          "name": "pendingOwner",
          "type": "address"
        }
      ],
      "name": "OwnershipOffered",
      "type": "event"
    },
    {
      "anonymous": false,
      "inputs": [
        {
          "indexed": true,
          "internalType": "address",
          "name": "previousOwner",
          "type": "address"
        },
        {
          "indexed": true,
          "internalType": "address",
          "name": "newOwner",
          "type": "address"
        }
      ],
      "name": "OwnershipTransferred",
      "type": "event"
    },
    {
      "anonymous": false,
      "inputs": [
        {
          "indexed": true,
          "internalType": "uint32",
          "name": "drawId",
          "type": "uint32"
        },
        {
          "components": [
            {
              "internalType": "uint8",
              "name": "bitRangeSize",
              "type": "uint8"
            },
            {
              "internalType": "uint32",
              "name": "drawId",
              "type": "uint32"
            },
            {
              "internalType": "uint32",
              "name": "maxPicksPerUser",
              "type": "uint32"
            },
            {
              "internalType": "uint32",
              "name": "expiryDuration",
              "type": "uint32"
            },
            {
              "internalType": "uint32",
              "name": "endTimestampOffset",
              "type": "uint32"
            },
            {
              "internalType": "uint32",
              "name": "dpr",
              "type": "uint32"
            },
            {
              "internalType": "uint256",
              "name": "prize",
              "type": "uint256"
            },
            {
              "internalType": "uint32[16]",
              "name": "tiers",
              "type": "uint32[16]"
            }
          ],
          "indexed": false,
          "internalType": "struct IPrizeTierHistoryV2.PrizeTierV2",
          "name": "prizeTier",
          "type": "tuple"
        }
      ],
      "name": "PrizeTierPushed",
      "type": "event"
    },
    {
      "anonymous": false,
      "inputs": [
        {
          "indexed": true,
          "internalType": "uint32",
          "name": "drawId",
          "type": "uint32"
        },
        {
          "components": [
            {
              "internalType": "uint8",
              "name": "bitRangeSize",
              "type": "uint8"
            },
            {
              "internalType": "uint32",
              "name": "drawId",
              "type": "uint32"
            },
            {
              "internalType": "uint32",
              "name": "maxPicksPerUser",
              "type": "uint32"
            },
            {
              "internalType": "uint32",
              "name": "expiryDuration",
              "type": "uint32"
            },
            {
              "internalType": "uint32",
              "name": "endTimestampOffset",
              "type": "uint32"
            },
            {
              "internalType": "uint32",
              "name": "dpr",
              "type": "uint32"
            },
            {
              "internalType": "uint256",
              "name": "prize",
              "type": "uint256"
            },
            {
              "internalType": "uint32[16]",
              "name": "tiers",
              "type": "uint32[16]"
            }
          ],
          "indexed": false,
          "internalType": "struct IPrizeTierHistoryV2.PrizeTierV2",
          "name": "prizeTier",
          "type": "tuple"
        }
      ],
      "name": "PrizeTierSet",
      "type": "event"
    },
    {
      "inputs": [],
      "name": "claimOwnership",
      "outputs": [],
      "stateMutability": "nonpayable",
      "type": "function"
    },
    {
      "inputs": [],
      "name": "count",
      "outputs": [
        {
          "internalType": "uint256",
          "name": "",
          "type": "uint256"
        }
      ],
      "stateMutability": "view",
      "type": "function"
    },
    {
      "inputs": [],
      "name": "getNewestDrawId",
      "outputs": [
        {
          "internalType": "uint32",
          "name": "",
          "type": "uint32"
        }
      ],
      "stateMutability": "view",
      "type": "function"
    },
    {
      "inputs": [],
      "name": "getOldestDrawId",
      "outputs": [
        {
          "internalType": "uint32",
          "name": "",
          "type": "uint32"
        }
      ],
      "stateMutability": "view",
      "type": "function"
    },
    {
      "inputs": [
        {
          "internalType": "uint32",
          "name": "drawId",
          "type": "uint32"
        }
      ],
      "name": "getPrizeTier",
      "outputs": [
        {
          "components": [
            {
              "internalType": "uint8",
              "name": "bitRangeSize",
              "type": "uint8"
            },
            {
              "internalType": "uint32",
              "name": "drawId",
              "type": "uint32"
            },
            {
              "internalType": "uint32",
              "name": "maxPicksPerUser",
              "type": "uint32"
            },
            {
              "internalType": "uint32",
              "name": "expiryDuration",
              "type": "uint32"
            },
            {
              "internalType": "uint32",
              "name": "endTimestampOffset",
              "type": "uint32"
            },
            {
              "internalType": "uint32",
              "name": "dpr",
              "type": "uint32"
            },
            {
              "internalType": "uint256",
              "name": "prize",
              "type": "uint256"
            },
            {
              "internalType": "uint32[16]",
              "name": "tiers",
              "type": "uint32[16]"
            }
          ],
          "internalType": "struct IPrizeTierHistoryV2.PrizeTierV2",
          "name": "",
          "type": "tuple"
        }
      ],
      "stateMutability": "view",
      "type": "function"
    },
    {
      "inputs": [
        {
          "internalType": "uint256",
          "name": "index",
          "type": "uint256"
        }
      ],
      "name": "getPrizeTierAtIndex",
      "outputs": [
        {
          "components": [
            {
              "internalType": "uint8",
              "name": "bitRangeSize",
              "type": "uint8"
            },
            {
              "internalType": "uint32",
              "name": "drawId",
              "type": "uint32"
            },
            {
              "internalType": "uint32",
              "name": "maxPicksPerUser",
              "type": "uint32"
            },
            {
              "internalType": "uint32",
              "name": "expiryDuration",
              "type": "uint32"
            },
            {
              "internalType": "uint32",
              "name": "endTimestampOffset",
              "type": "uint32"
            },
            {
              "internalType": "uint32",
              "name": "dpr",
              "type": "uint32"
            },
            {
              "internalType": "uint256",
              "name": "prize",
              "type": "uint256"
            },
            {
              "internalType": "uint32[16]",
              "name": "tiers",
              "type": "uint32[16]"
            }
          ],
          "internalType": "struct IPrizeTierHistoryV2.PrizeTierV2",
          "name": "",
          "type": "tuple"
        }
      ],
      "stateMutability": "view",
      "type": "function"
    },
    {
      "inputs": [
        {
          "internalType": "uint32[]",
          "name": "_drawIds",
          "type": "uint32[]"
        }
      ],
      "name": "getPrizeTierList",
      "outputs": [
        {
          "components": [
            {
              "internalType": "uint8",
              "name": "bitRangeSize",
              "type": "uint8"
            },
            {
              "internalType": "uint32",
              "name": "drawId",
              "type": "uint32"
            },
            {
              "internalType": "uint32",
              "name": "maxPicksPerUser",
              "type": "uint32"
            },
            {
              "internalType": "uint32",
              "name": "expiryDuration",
              "type": "uint32"
            },
            {
              "internalType": "uint32",
              "name": "endTimestampOffset",
              "type": "uint32"
            },
            {
              "internalType": "uint32",
              "name": "dpr",
              "type": "uint32"
            },
            {
              "internalType": "uint256",
              "name": "prize",
              "type": "uint256"
            },
            {
              "internalType": "uint32[16]",
              "name": "tiers",
              "type": "uint32[16]"
            }
          ],
          "internalType": "struct IPrizeTierHistoryV2.PrizeTierV2[]",
          "name": "",
          "type": "tuple[]"
        }
      ],
      "stateMutability": "view",
      "type": "function"
    },
    {
      "inputs": [],
      "name": "manager",
      "outputs": [
        {
          "internalType": "address",
          "name": "",
          "type": "address"
        }
      ],
      "stateMutability": "view",
      "type": "function"
    },
    {
      "inputs": [],
      "name": "owner",
      "outputs": [
        {
          "internalType": "address",
          "name": "",
          "type": "address"
        }
      ],
      "stateMutability": "view",
      "type": "function"
    },
    {
      "inputs": [],
      "name": "pendingOwner",
      "outputs": [
        {
          "internalType": "address",
          "name": "",
          "type": "address"
        }
      ],
      "stateMutability": "view",
      "type": "function"
    },
    {
      "inputs": [
        {
          "components": [
            {
              "internalType": "uint8",
              "name": "bitRangeSize",
              "type": "uint8"
            },
            {
              "internalType": "uint32",
              "name": "drawId",
              "type": "uint32"
            },
            {
              "internalType": "uint32",
              "name": "maxPicksPerUser",
              "type": "uint32"
            },
            {
              "internalType": "uint32",
              "name": "expiryDuration",
              "type": "uint32"
            },
            {
              "internalType": "uint32",
              "name": "endTimestampOffset",
              "type": "uint32"
            },
            {
              "internalType": "uint32",
              "name": "dpr",
              "type": "uint32"
            },
            {
              "internalType": "uint256",
              "name": "prize",
              "type": "uint256"
            },
            {
              "internalType": "uint32[16]",
              "name": "tiers",
              "type": "uint32[16]"
            }
          ],
          "internalType": "struct IPrizeTierHistoryV2.PrizeTierV2",
          "name": "newPrizeTier",
          "type": "tuple"
        }
      ],
      "name": "popAndPush",
      "outputs": [
        {
          "internalType": "uint32",
          "name": "",
          "type": "uint32"
        }
      ],
      "stateMutability": "nonpayable",
      "type": "function"
    },
    {
      "inputs": [
        {
          "components": [
            {
              "internalType": "uint8",
              "name": "bitRangeSize",
              "type": "uint8"
            },
            {
              "internalType": "uint32",
              "name": "drawId",
              "type": "uint32"
            },
            {
              "internalType": "uint32",
              "name": "maxPicksPerUser",
              "type": "uint32"
            },
            {
              "internalType": "uint32",
              "name": "expiryDuration",
              "type": "uint32"
            },
            {
              "internalType": "uint32",
              "name": "endTimestampOffset",
              "type": "uint32"
            },
            {
              "internalType": "uint32",
              "name": "dpr",
              "type": "uint32"
            },
            {
              "internalType": "uint256",
              "name": "prize",
              "type": "uint256"
            },
            {
              "internalType": "uint32[16]",
              "name": "tiers",
              "type": "uint32[16]"
            }
          ],
          "internalType": "struct IPrizeTierHistoryV2.PrizeTierV2",
          "name": "nextPrizeTier",
          "type": "tuple"
        }
      ],
      "name": "push",
      "outputs": [],
      "stateMutability": "nonpayable",
      "type": "function"
    },
    {
      "inputs": [],
      "name": "renounceOwnership",
      "outputs": [],
      "stateMutability": "nonpayable",
      "type": "function"
    },
    {
      "inputs": [
        {
          "components": [
            {
              "internalType": "uint8",
              "name": "bitRangeSize",
              "type": "uint8"
            },
            {
              "internalType": "uint32",
              "name": "drawId",
              "type": "uint32"
            },
            {
              "internalType": "uint32",
              "name": "maxPicksPerUser",
              "type": "uint32"
            },
            {
              "internalType": "uint32",
              "name": "expiryDuration",
              "type": "uint32"
            },
            {
              "internalType": "uint32",
              "name": "endTimestampOffset",
              "type": "uint32"
            },
            {
              "internalType": "uint32",
              "name": "dpr",
              "type": "uint32"
            },
            {
              "internalType": "uint256",
              "name": "prize",
              "type": "uint256"
            },
            {
              "internalType": "uint32[16]",
              "name": "tiers",
              "type": "uint32[16]"
            }
          ],
          "internalType": "struct IPrizeTierHistoryV2.PrizeTierV2",
          "name": "newPrizeTier",
          "type": "tuple"
        }
      ],
      "name": "replace",
      "outputs": [],
      "stateMutability": "nonpayable",
      "type": "function"
    },
    {
      "inputs": [
        {
          "internalType": "address",
          "name": "_newManager",
          "type": "address"
        }
      ],
      "name": "setManager",
      "outputs": [
        {
          "internalType": "bool",
          "name": "",
          "type": "bool"
        }
      ],
      "stateMutability": "nonpayable",
      "type": "function"
    },
    {
      "inputs": [
        {
          "internalType": "address",
          "name": "_newOwner",
          "type": "address"
        }
      ],
      "name": "transferOwnership",
      "outputs": [],
      "stateMutability": "nonpayable",
      "type": "function"
    }
  ],
  "transactionHash": "0xdfadf1cf27e791206661f1aef758e593ec1b7f6a26d3c31f79f37acc170a27a2",
  "args": [
    "0x4D40eb12430A57965cEe3015348d490C6156dF20"
  ],
  "numDeployments": 1,
  "solcInputHash": "a9dded9862432deeaefea7f9198918bf",
  "bytecode": "0x60806040523480156200001157600080fd5b5060405162001ff738038062001ff7833981016040819052620000349162000098565b80620000408162000048565b5050620000ca565b600080546001600160a01b038381166001600160a01b0319831681178455604051919092169283917f8be0079c531659141344cd1fd0a4f28419497f9722a3daafe3b4186f6b6457e09190a35050565b600060208284031215620000ab57600080fd5b81516001600160a01b0381168114620000c357600080fd5b9392505050565b611f1d80620000da6000396000f3fe608060405234801561001057600080fd5b50600436106101005760003560e01c80638da5cb5b11610097578063e30c397811610066578063e30c397814610211578063e4dd269014610222578063f2fde38b14610235578063f647648b1461024857600080fd5b80638da5cb5b146101b75780639582f2e5146101c8578063affd29d7146101db578063d0ebdbe7146101ee57600080fd5b80634aac253d116100d35780634aac253d146101655780634e602cd8146101855780634e71e0c8146101a5578063715018a6146101af57600080fd5b806306661abd1461010557806339dd7f081461011b578063472b619c14610138578063481c6a7514610140575b600080fd5b6003546040519081526020015b60405180910390f35b61012361025b565b60405163ffffffff9091168152602001610112565b61012361029c565b6002546001600160a01b03165b6040516001600160a01b039091168152602001610112565b610178610173366004611999565b6102c0565b6040516101129190611b6d565b610198610193366004611833565b61043d565b6040516101129190611a78565b6101ad610617565b005b6101ad6106a5565b6000546001600160a01b031661014d565b6101236101d63660046118a8565b61071a565b6101ad6101e93660046118a8565b61089b565b6102016101fc366004611803565b610910565b6040519015158152602001610112565b6001546001600160a01b031661014d565b610178610230366004611980565b610984565b6101ad610243366004611803565b610a63565b6101ad6102563660046118a8565b610b9f565b6000600360008154811061027157610271611ce1565b90600052602060002090600891828204019190066004029054906101000a900463ffffffff16905090565b60038054600091906102b090600190611bed565b8154811061027157610271611ce1565b6102c861165a565b60008263ffffffff16116103235760405162461bcd60e51b815260206004820152601460248201527f5054482f647261772d69642d6e6f742d7a65726f00000000000000000000000060448201526064015b60405180910390fd5b60046000610332600385610c69565b63ffffffff9081168252602080830193909352604091820160002082516101008082018552825460ff8116835290810484169582019590955265010000000000850483168185015269010000000000000000008504831660608201526d01000000000000000000000000008504831660808201527101000000000000000000000000000000000090940490911660a0840152600181015460c0840152815161020081019092529060e08301906002830160108282826020028201916000905b82829054906101000a900463ffffffff1663ffffffff16815260200190600401906020826003010492830192600103820291508084116103f15790505050505050815250509050919050565b60608160008167ffffffffffffffff81111561045b5761045b611cf7565b60405190808252806020026020018201604052801561049457816020015b61048161165a565b8152602001906001900390816104795790505b50905060005b8281101561060c57600460006104d88888858181106104bb576104bb611ce1565b90506020020160208101906104d09190611999565b600390610c69565b63ffffffff9081168252602080830193909352604091820160002082516101008082018552825460ff8116835290810484169582019590955265010000000000850483168185015269010000000000000000008504831660608201526d01000000000000000000000000008504831660808201527101000000000000000000000000000000000090940490911660a0840152600181015460c0840152815161020081019092529060e08301906002830160108282826020028201916000905b82829054906101000a900463ffffffff1663ffffffff16815260200190600401906020826003010492830192600103820291508084116105975790505050505050815250508282815181106105ee576105ee611ce1565b6020026020010181905250808061060490611c92565b91505061049a565b509150505b92915050565b6001546001600160a01b031633146106715760405162461bcd60e51b815260206004820152601f60248201527f4f776e61626c652f63616c6c65722d6e6f742d70656e64696e674f776e657200604482015260640161031a565b600154610686906001600160a01b0316610ee7565b6001805473ffffffffffffffffffffffffffffffffffffffff19169055565b336106b86000546001600160a01b031690565b6001600160a01b03161461070e5760405162461bcd60e51b815260206004820152601860248201527f4f776e61626c652f63616c6c65722d6e6f742d6f776e65720000000000000000604482015260640161031a565b6107186000610ee7565b565b60003361072f6000546001600160a01b031690565b6001600160a01b0316146107855760405162461bcd60e51b815260206004820152601860248201527f4f776e61626c652f63616c6c65722d6e6f742d6f776e65720000000000000000604482015260640161031a565b600354806107d55760405162461bcd60e51b815260206004820152601160248201527f5054482f686973746f72792d656d707479000000000000000000000000000000604482015260640161031a565b6107e56040840160208501611999565b63ffffffff1660036107f8600184611bed565b8154811061080857610808611ce1565b6000918252602090912060088204015460079091166004026101000a900463ffffffff16146108795760405162461bcd60e51b815260206004820152601360248201527f5054482f696e76616c69642d647261772d696400000000000000000000000000604482015260640161031a565b61088283610f44565b6108926040840160208501611999565b9150505b919050565b336108ae6000546001600160a01b031690565b6001600160a01b0316146109045760405162461bcd60e51b815260206004820152601860248201527f4f776e61626c652f63616c6c65722d6e6f742d6f776e65720000000000000000604482015260640161031a565b61090d81610f44565b50565b6000336109256000546001600160a01b031690565b6001600160a01b03161461097b5760405162461bcd60e51b815260206004820152601860248201527f4f776e61626c652f63616c6c65722d6e6f742d6f776e65720000000000000000604482015260640161031a565b610611826111af565b61098c61165a565b63ffffffff82811660009081526004602081815260409283902083516101008082018652825460ff8116835290810487168285015265010000000000810487168287015269010000000000000000008104871660608301526d0100000000000000000000000000810487166080830152710100000000000000000000000000000000009004861660a0820152600182015460c0820152845161020081019586905260028301805490971681529095919460e08701949193601092849186018084116103f15790505050505050815250509050919050565b33610a766000546001600160a01b031690565b6001600160a01b031614610acc5760405162461bcd60e51b815260206004820152601860248201527f4f776e61626c652f63616c6c65722d6e6f742d6f776e65720000000000000000604482015260640161031a565b6001600160a01b038116610b485760405162461bcd60e51b815260206004820152602560248201527f4f776e61626c652f70656e64696e674f776e65722d6e6f742d7a65726f2d616460448201527f6472657373000000000000000000000000000000000000000000000000000000606482015260840161031a565b6001805473ffffffffffffffffffffffffffffffffffffffff19166001600160a01b0383169081179091556040517f239a2ddded15777fa246aed5f7e1a9bc69a39d4eb4a397034d1d85766cca7d4c90600090a250565b33610bb26002546001600160a01b031690565b6001600160a01b03161480610be0575033610bd56000546001600160a01b031690565b6001600160a01b0316145b610c525760405162461bcd60e51b815260206004820152602660248201527f4d616e61676561626c652f63616c6c65722d6e6f742d6d616e616765722d6f7260448201527f2d6f776e65720000000000000000000000000000000000000000000000000000606482015260840161031a565b61090d610c64368390038301836118c1565b61129b565b60008060008060018680549050610c809190611bed565b9050600086600081548110610c9757610c97611ce1565b90600052602060002090600891828204019190066004029054906101000a900463ffffffff1690506000878363ffffffff1681548110610cd957610cd9611ce1565b90600052602060002090600891828204019190066004029054906101000a900463ffffffff1690508163ffffffff168763ffffffff161015610d825760405162461bcd60e51b8152602060048201526024808201527f42696e6172795365617263684c69622f647261772d69642d6f75742d6f662d7260448201527f616e676500000000000000000000000000000000000000000000000000000000606482015260840161031a565b8063ffffffff168763ffffffff1610610da2578295505050505050610611565b8163ffffffff168763ffffffff161415610dc3578395505050505050610611565b6000610dcf8585611c04565b90506000610dde600283611bbc565b610de89087611b94565b905060008a8263ffffffff1681548110610e0457610e04611ce1565b6000918252602090912060088204015460079091166004026101000a900463ffffffff90811691508a16811415610e3f57509550610edb9050565b60018363ffffffff1611610ea9578963ffffffff168b8763ffffffff1681548110610e6c57610e6c611ce1565b6000918252602090912060088204015460079091166004026101000a900463ffffffff1611610e9d57859750610ea1565b8697505b505050610edb565b8963ffffffff168163ffffffff161015610ec557819650610ed3565b610ed0600183611c04565b95505b505050610dc3565b50929695505050505050565b600080546001600160a01b0383811673ffffffffffffffffffffffffffffffffffffffff19831681178455604051919092169283917f8be0079c531659141344cd1fd0a4f28419497f9722a3daafe3b4186f6b6457e09190a35050565b60035480610f945760405162461bcd60e51b815260206004820152601260248201527f5054482f6e6f2d7072697a652d74696572730000000000000000000000000000604482015260640161031a565b60006003600081548110610faa57610faa611ce1565b600091825260209182902060088204015460079091166004026101000a900463ffffffff1691508190610fe39060408601908601611999565b63ffffffff1610156110375760405162461bcd60e51b815260206004820152601860248201527f5054482f647261772d69642d6f75742d6f662d72616e67650000000000000000604482015260640161031a565b600061104c6104d06040860160208701611999565b905061105e6040850160208601611999565b63ffffffff1660038263ffffffff168154811061107d5761107d611ce1565b6000918252602090912060088204015460079091166004026101000a900463ffffffff16146110ee5760405162461bcd60e51b815260206004820152601660248201527f5054482f647261772d69642d6d7573742d6d6174636800000000000000000000604482015260640161031a565b61110661110160c0860160a08701611999565b61155d565b604080516102008181019092526111389160e087019060109083908390808284376000920191909152506115b7915050565b63ffffffff8116600090815260046020526040902084906111598282611d1a565b5061116c90506040850160208601611999565b63ffffffff167fa0eb7963c02069b39b750ce86e5ab95413c02de626f5a4cff9086b926e5885ea856040516111a19190611ac7565b60405180910390a250505050565b6002546000906001600160a01b039081169083168114156112385760405162461bcd60e51b815260206004820152602360248201527f4d616e61676561626c652f6578697374696e672d6d616e616765722d6164647260448201527f6573730000000000000000000000000000000000000000000000000000000000606482015260840161031a565b6002805473ffffffffffffffffffffffffffffffffffffffff19166001600160a01b0385811691821790925560405190918316907f9cb45c728de594dab506a1f1a8554e24c8eeaf983618d5ec5dd7bc6f3c49feee90600090a350600192915050565b60035463ffffffff81161561135857600060036112b9600184611c04565b63ffffffff16815481106112cf576112cf611ce1565b90600052602060002090600891828204019190066004029054906101000a900463ffffffff1690508063ffffffff16836020015163ffffffff16116113565760405162461bcd60e51b815260206004820152601560248201527f5054482f6e6f6e2d73657175656e7469616c2d69640000000000000000000000604482015260640161031a565b505b6113658260a0015161155d565b6113728260e001516115b7565b60208083018051600380546001818101909255600881047fc2575a0e9e593c00f959f8c92f12db2869c3395a3b0502d05e2516446f71f85b01805463ffffffff94851660046007909416840261010090810a91820291870219909216179091558684166000908152919095526040908190208751815495519289015160608a015160808b015160a08c0151881671010000000000000000000000000000000000027fffffffffffffffffffffff00000000ffffffffffffffffffffffffffffffffff9189166d010000000000000000000000000002919091167fffffffffffffffffffffff0000000000000000ffffffffffffffffffffffffff9289166901000000000000000000026cffffffff00000000000000000019948a166501000000000002949094167fffffffffffffffffffffffffffffffffffffff0000000000000000ffffffffff97909916909a0264ffffffffff1990991660ff9094169390931797909717939093169490941791909117939093169390931717815560c08401519181019190915560e083015183919061151390600283019060106116a5565b50905050816020015163ffffffff167fdcc043d3adb61bc31dc39f6e2a280ab1b929eea403cc3f1f19a8905f245472a0836040516115519190611b6d565b60405180910390a25050565b633b9aca008163ffffffff16111561090d5760405162461bcd60e51b815260206004820152600f60248201527f5054482f6470722d67742d313030250000000000000000000000000000000000604482015260640161031a565b60006010815b81811015611600578381601081106115d7576115d7611ce1565b60200201516115ec9063ffffffff1684611b7c565b9250806115f881611c92565b9150506115bd565b50633b9aca008211156116555760405162461bcd60e51b815260206004820152601160248201527f5054482f74696572732d67742d31303025000000000000000000000000000000604482015260640161031a565b505050565b6040805161010081018252600080825260208201819052918101829052606081018290526080810182905260a0810182905260c081019190915260e081016116a0611741565b905290565b6002830191839082156117315791602002820160005b838211156116ff57835183826101000a81548163ffffffff021916908363ffffffff16021790555092602001926004016020816003010492830192600103026116bb565b801561172f5782816101000a81549063ffffffff02191690556004016020816003010492830192600103026116ff565b505b5061173d929150611760565b5090565b6040518061020001604052806010906020820280368337509192915050565b5b8082111561173d5760008155600101611761565b600082601f83011261178657600080fd5b60405161020080820182811067ffffffffffffffff821117156117ab576117ab611cf7565b60405281848281018710156117bf57600080fd5b600092505b60108310156117ed5780356117d881611ec6565b825260019290920191602091820191016117c4565b509195945050505050565b803561089681611ec6565b60006020828403121561181557600080fd5b81356001600160a01b038116811461182c57600080fd5b9392505050565b6000806020838503121561184657600080fd5b823567ffffffffffffffff8082111561185e57600080fd5b818501915085601f83011261187257600080fd5b81358181111561188157600080fd5b8660208260051b850101111561189657600080fd5b60209290920196919550909350505050565b60006102e082840312156118bb57600080fd5b50919050565b60006102e082840312156118d457600080fd5b604051610100810181811067ffffffffffffffff821117156118f8576118f8611cf7565b604052823561190681611ed8565b8152611914602084016117f8565b6020820152611925604084016117f8565b6040820152611936606084016117f8565b6060820152611947608084016117f8565b608082015261195860a084016117f8565b60a082015260c083013560c08201526119748460e08501611775565b60e08201529392505050565b60006020828403121561199257600080fd5b5035919050565b6000602082840312156119ab57600080fd5b813561182c81611ec6565b8060005b60108110156119e95781356119ce81611ec6565b63ffffffff16845260209384019391909101906001016119ba565b50505050565b60ff815116825260208082015163ffffffff808216838601528060408501511660408601528060608501511660608601528060808501511660808601528060a08501511660a086015260c084015160c086015260e0840151915060e0850160005b6010811015611a6f578351831682529284019290840190600101611a50565b50505050505050565b6020808252825182820181905260009190848201906040850190845b81811015611abb57611aa78385516119ef565b928401926102e09290920191600101611a94565b50909695505050505050565b6102e081018235611ad781611ed8565b60ff1682526020830135611aea81611ec6565b63ffffffff9081166020840152604084013590611b0682611ec6565b166040830152611b18606084016117f8565b63ffffffff166060830152611b2f608084016117f8565b63ffffffff166080830152611b4660a084016117f8565b63ffffffff811660a08401525060c083013560c083015261061160e0830160e085016119b6565b6102e0810161061182846119ef565b60008219821115611b8f57611b8f611ccb565b500190565b600063ffffffff808316818516808303821115611bb357611bb3611ccb565b01949350505050565b600063ffffffff80841680611be157634e487b7160e01b600052601260045260246000fd5b92169190910492915050565b600082821015611bff57611bff611ccb565b500390565b600063ffffffff83811690831681811015611c2157611c21611ccb565b039392505050565b81816000805b6010811015611c8a578335611c4381611ec6565b835463ffffffff600385901b81811b801990931693909116901b1617835560209390930192600490910190601c821115611c8257600091506001830192505b600101611c2f565b505050505050565b60007fffffffffffffffffffffffffffffffffffffffffffffffffffffffffffffffff821415611cc457611cc4611ccb565b5060010190565b634e487b7160e01b600052601160045260246000fd5b634e487b7160e01b600052603260045260246000fd5b634e487b7160e01b600052604160045260246000fd5b6000813561061181611ec6565b8135611d2581611ed8565b60ff811690508154817fffffffffffffffffffffffffffffffffffffffffffffffffffffffffffffff0082161783556020840135611d6281611ec6565b64ffffffff008160081b168364ffffffffff19841617178455505050611dc7611d8d60408401611d0d565b82547fffffffffffffffffffffffffffffffffffffffffffffff00000000ffffffffff1660289190911b68ffffffff000000000016178255565b611e02611dd660608401611d0d565b82546cffffffff000000000000000000191660489190911b6cffffffff00000000000000000016178255565b611e53611e1160808401611d0d565b82547fffffffffffffffffffffffffffffff00000000ffffffffffffffffffffffffff1660689190911b70ffffffff0000000000000000000000000016178255565b611ea8611e6260a08401611d0d565b82547fffffffffffffffffffffff00000000ffffffffffffffffffffffffffffffffff1660889190911b74ffffffff000000000000000000000000000000000016178255565b60c08201356001820155611ec260e0830160028301611c29565b5050565b63ffffffff8116811461090d57600080fd5b60ff8116811461090d57600080fdfea2646970667358221220093be3bc5cfa020384498da995ba382d230ba1f4ee2b1ed87e4d636b22123ff964736f6c63430008060033",
  "devdoc": {
    "author": "PoolTogether Inc Team",
    "details": "If the history param has single PrizeTierV2 struct with a \"drawId\" of 1 all subsequent Draws will use that PrizeTierV2 struct for PrizeDitribution calculations. The BinarySearchLib will find a PrizeTierV2 using a \"atOrBefore\" range search when supplied drawId input parameter.",
    "kind": "dev",
    "methods": {
      "claimOwnership()": {
        "details": "This function is only callable by the `_pendingOwner`."
      },
      "constructor": {
        "params": {
          "_owner": "Address of the contract owner"
        }
      },
      "count()": {
        "returns": {
          "_0": "The number of prize tiers that have been pushed"
        }
      },
      "getNewestDrawId()": {
        "returns": {
          "_0": "Draw ID of the last recorded PrizeTier record"
        }
      },
      "getOldestDrawId()": {
        "returns": {
          "_0": "Draw ID of first PrizeTierV2 record"
        }
      },
      "getPrizeTier(uint32)": {
        "params": {
          "drawId": "Draw ID"
        },
        "returns": {
          "_0": "prizeTier"
        }
      },
      "getPrizeTierAtIndex(uint256)": {
        "params": {
          "index": "Index at which to get the prize tier"
        },
        "returns": {
          "_0": "PrizeTier at `index`"
        }
      },
      "manager()": {
        "returns": {
          "_0": "Current `_manager` address."
        }
      },
      "pendingOwner()": {
        "returns": {
          "_0": "Current `_pendingOwner` address."
        }
      },
      "popAndPush((uint8,uint32,uint32,uint32,uint32,uint32,uint256,uint32[16]))": {
        "details": "Callable only by the owner.",
        "params": {
          "newPrizeTier": "Updated PrizeTierV2 struct"
        },
        "returns": {
          "_0": "Draw ID of the PrizeTierV2 that was pushed"
        }
      },
      "push((uint8,uint32,uint32,uint32,uint32,uint32,uint256,uint32[16]))": {
        "details": "Callable only by the owner or manager.`drawId` must be greater than the latest one stored in `history`.",
        "params": {
          "nextPrizeTier": "Next PrizeTierV2 struct"
        }
      },
      "renounceOwnership()": {
        "details": "Leaves the contract without owner. It will not be possible to call `onlyOwner` functions anymore. Can only be called by the current owner. NOTE: Renouncing ownership will leave the contract without an owner, thereby removing any functionality that is only available to the owner."
      },
      "replace((uint8,uint32,uint32,uint32,uint32,uint32,uint256,uint32[16]))": {
        "details": "Callable only by the owner.",
        "params": {
          "newPrizeTier": "PrizeTierV2 parameters"
        }
      },
      "setManager(address)": {
        "details": "Throws if called by any account other than the owner.",
        "params": {
          "_newManager": "New _manager address."
        },
        "returns": {
          "_0": "Boolean to indicate if the operation was successful or not."
        }
      },
      "transferOwnership(address)": {
        "params": {
          "_newOwner": "Address to transfer ownership to."
        }
      }
    },
    "stateVariables": {
      "CEILING": {
        "details": "It's fixed point 9 because 1e9 is the largest \"1\" that fits into 2**32"
      },
      "history": {
        "details": "The history, with sequentially ordered ids, can be searched using binary search. The binary search will find index of a drawId (atOrBefore) using a specific drawId (at). When a new Draw ID is added to the history, a corresponding mapping of the ID is updated in the prizeTiers mapping."
      },
      "prizeTiers": {
        "details": "The prizeTiers mapping links a Draw ID to a PrizeTierV2 struct. The prizeTiers mapping is updated when a new Draw ID is added to the history."
      }
    },
    "title": "PoolTogether V4 PrizeTierHistoryV2",
    "version": 1
  },
  "userdoc": {
    "events": {
      "PrizeTierPushed(uint32,(uint8,uint32,uint32,uint32,uint32,uint32,uint256,uint32[16]))": {
        "notice": "Emit when new PrizeTierV2 is added to history"
      },
      "PrizeTierSet(uint32,(uint8,uint32,uint32,uint32,uint32,uint32,uint256,uint32[16]))": {
        "notice": "Emitted when existing PrizeTierV2 is updated in history"
      }
    },
    "kind": "user",
    "methods": {
      "claimOwnership()": {
        "notice": "Allows the `_pendingOwner` address to finalize the transfer."
      },
      "constructor": {
        "notice": "PrizeTierHistoryV2 constructor"
      },
      "count()": {
        "notice": "Returns the number of Prize Tier structs pushed"
      },
      "getNewestDrawId()": {
        "notice": "Read last Draw ID stored in the history."
      },
      "getOldestDrawId()": {
        "notice": "Read first Draw ID used to initialize history"
      },
      "getPrizeTier(uint32)": {
        "notice": "Read PrizeTierHistory struct from history array."
      },
      "getPrizeTierAtIndex(uint256)": {
        "notice": "Get prize tier at the specified `index`."
      },
      "manager()": {
        "notice": "Gets current `_manager`."
      },
      "owner()": {
        "notice": "Returns the address of the current owner."
      },
      "pendingOwner()": {
        "notice": "Gets current `_pendingOwner`."
      },
      "popAndPush((uint8,uint32,uint32,uint32,uint32,uint32,uint256,uint32[16]))": {
        "notice": "Pop the latest prize tier stored in the `prizeTiers` array and replace it with the new prize tier."
      },
      "push((uint8,uint32,uint32,uint32,uint32,uint32,uint256,uint32[16]))": {
        "notice": "Push PrizeTierV2 struct onto `prizeTiers` array."
      },
      "renounceOwnership()": {
        "notice": "Renounce ownership of the contract."
      },
      "replace((uint8,uint32,uint32,uint32,uint32,uint32,uint256,uint32[16]))": {
        "notice": "Replace PrizeTierV2 struct in `prizeTiers` array."
      },
      "setManager(address)": {
        "notice": "Set or change of manager."
      },
      "transferOwnership(address)": {
        "notice": "Allows current owner to set the `_pendingOwner` address."
      }
    },
    "notice": "The PrizeTierHistoryV2 smart contract stores a history of PrizeTierV2 structs linked to a range of valid Draw IDs.",
    "version": 1
  },
  "storageLayout": {
    "storage": [
      {
        "astId": 4677,
        "contract": "contracts/PrizeTierHistoryV2.sol:PrizeTierHistoryV2",
        "label": "_owner",
        "offset": 0,
        "slot": "0",
        "type": "t_address"
      },
      {
        "astId": 4679,
        "contract": "contracts/PrizeTierHistoryV2.sol:PrizeTierHistoryV2",
        "label": "_pendingOwner",
        "offset": 0,
        "slot": "1",
        "type": "t_address"
      },
      {
        "astId": 4575,
        "contract": "contracts/PrizeTierHistoryV2.sol:PrizeTierHistoryV2",
        "label": "_manager",
        "offset": 0,
        "slot": "2",
        "type": "t_address"
      },
      {
        "astId": 14509,
        "contract": "contracts/PrizeTierHistoryV2.sol:PrizeTierHistoryV2",
        "label": "history",
        "offset": 0,
        "slot": "3",
        "type": "t_array(t_uint32)dyn_storage"
      },
      {
        "astId": 14515,
        "contract": "contracts/PrizeTierHistoryV2.sol:PrizeTierHistoryV2",
        "label": "prizeTiers",
        "offset": 0,
        "slot": "4",
        "type": "t_mapping(t_uint32,t_struct(PrizeTierV2)16369_storage)"
      }
    ],
    "types": {
      "t_address": {
        "encoding": "inplace",
        "label": "address",
        "numberOfBytes": "20"
      },
      "t_array(t_uint32)16_storage": {
        "base": "t_uint32",
        "encoding": "inplace",
        "label": "uint32[16]",
        "numberOfBytes": "64"
      },
      "t_array(t_uint32)dyn_storage": {
        "base": "t_uint32",
        "encoding": "dynamic_array",
        "label": "uint32[]",
        "numberOfBytes": "32"
      },
      "t_mapping(t_uint32,t_struct(PrizeTierV2)16369_storage)": {
        "encoding": "mapping",
        "key": "t_uint32",
        "label": "mapping(uint32 => struct IPrizeTierHistoryV2.PrizeTierV2)",
        "numberOfBytes": "32",
        "value": "t_struct(PrizeTierV2)16369_storage"
      },
      "t_struct(PrizeTierV2)16369_storage": {
        "encoding": "inplace",
        "label": "struct IPrizeTierHistoryV2.PrizeTierV2",
        "members": [
          {
            "astId": 16352,
            "contract": "contracts/PrizeTierHistoryV2.sol:PrizeTierHistoryV2",
            "label": "bitRangeSize",
            "offset": 0,
            "slot": "0",
            "type": "t_uint8"
          },
          {
            "astId": 16354,
            "contract": "contracts/PrizeTierHistoryV2.sol:PrizeTierHistoryV2",
            "label": "drawId",
            "offset": 1,
            "slot": "0",
            "type": "t_uint32"
          },
          {
            "astId": 16356,
            "contract": "contracts/PrizeTierHistoryV2.sol:PrizeTierHistoryV2",
            "label": "maxPicksPerUser",
            "offset": 5,
            "slot": "0",
            "type": "t_uint32"
          },
          {
            "astId": 16358,
            "contract": "contracts/PrizeTierHistoryV2.sol:PrizeTierHistoryV2",
            "label": "expiryDuration",
            "offset": 9,
            "slot": "0",
            "type": "t_uint32"
          },
          {
            "astId": 16360,
            "contract": "contracts/PrizeTierHistoryV2.sol:PrizeTierHistoryV2",
            "label": "endTimestampOffset",
            "offset": 13,
            "slot": "0",
            "type": "t_uint32"
          },
          {
            "astId": 16362,
            "contract": "contracts/PrizeTierHistoryV2.sol:PrizeTierHistoryV2",
            "label": "dpr",
            "offset": 17,
            "slot": "0",
            "type": "t_uint32"
          },
          {
            "astId": 16364,
            "contract": "contracts/PrizeTierHistoryV2.sol:PrizeTierHistoryV2",
            "label": "prize",
            "offset": 0,
            "slot": "1",
            "type": "t_uint256"
          },
          {
            "astId": 16368,
            "contract": "contracts/PrizeTierHistoryV2.sol:PrizeTierHistoryV2",
            "label": "tiers",
            "offset": 0,
            "slot": "2",
            "type": "t_array(t_uint32)16_storage"
          }
        ],
        "numberOfBytes": "128"
      },
      "t_uint256": {
        "encoding": "inplace",
        "label": "uint256",
        "numberOfBytes": "32"
      },
      "t_uint32": {
        "encoding": "inplace",
        "label": "uint32",
        "numberOfBytes": "4"
      },
      "t_uint8": {
        "encoding": "inplace",
        "label": "uint8",
        "numberOfBytes": "1"
      }
    }
  }
}