{
  "address": "0xCfC11bc4676f8DC6BAB1C46f0D34a466493987D2",
  "abi": [
    {
      "inputs": [
        {
          "internalType": "address",
          "name": "_owner",
          "type": "address"
        },
        {
          "internalType": "contract VRFCoordinatorV2Interface",
          "name": "_vrfCoordinator",
          "type": "address"
        },
        {
          "internalType": "uint64",
          "name": "_subscriptionId",
          "type": "uint64"
        },
        {
          "internalType": "bytes32",
          "name": "_keyHash",
          "type": "bytes32"
        }
      ],
      "stateMutability": "nonpayable",
      "type": "constructor"
    },
    {
      "inputs": [
        {
          "internalType": "address",
          "name": "have",
          "type": "address"
        },
        {
          "internalType": "address",
          "name": "want",
          "type": "address"
        }
      ],
      "name": "OnlyCoordinatorCanFulfill",
      "type": "error"
    },
    {
      "anonymous": false,
      "inputs": [
        {
          "indexed": false,
          "internalType": "bytes32",
          "name": "keyHash",
          "type": "bytes32"
        }
      ],
      "name": "KeyHashSet",
      "type": "event"
    },
    {
      "anonymous": false,
      "inputs": [
        {
          "indexed": true,
          "internalType": "address",
          "name": "previousManager",
          "type": "address"
        },
        {
          "indexed": true,
          "internalType": "address",
          "name": "newManager",
          "type": "address"
        }
      ],
      "name": "ManagerTransferred",
      "type": "event"
    },
    {
      "anonymous": false,
      "inputs": [
        {
          "indexed": true,
          "internalType": "address",
          "name": "pendingOwner",
          "type": "address"
        }
      ],
      "name": "OwnershipOffered",
      "type": "event"
    },
    {
      "anonymous": false,
      "inputs": [
        {
          "indexed": true,
          "internalType": "address",
          "name": "previousOwner",
          "type": "address"
        },
        {
          "indexed": true,
          "internalType": "address",
          "name": "newOwner",
          "type": "address"
        }
      ],
      "name": "OwnershipTransferred",
      "type": "event"
    },
    {
      "anonymous": false,
      "inputs": [
        {
          "indexed": true,
          "internalType": "uint32",
          "name": "requestId",
          "type": "uint32"
        },
        {
          "indexed": false,
          "internalType": "uint256",
          "name": "randomNumber",
          "type": "uint256"
        }
      ],
      "name": "RandomNumberCompleted",
      "type": "event"
    },
    {
      "anonymous": false,
      "inputs": [
        {
          "indexed": true,
          "internalType": "uint32",
          "name": "requestId",
          "type": "uint32"
        },
        {
          "indexed": true,
          "internalType": "address",
          "name": "sender",
          "type": "address"
        }
      ],
      "name": "RandomNumberRequested",
      "type": "event"
    },
    {
      "anonymous": false,
      "inputs": [
        {
          "indexed": false,
          "internalType": "uint64",
          "name": "subscriptionId",
          "type": "uint64"
        }
      ],
      "name": "SubscriptionIdSet",
      "type": "event"
    },
    {
      "anonymous": false,
      "inputs": [
        {
          "indexed": true,
          "internalType": "contract VRFCoordinatorV2Interface",
          "name": "vrfCoordinator",
          "type": "address"
        }
      ],
      "name": "VrfCoordinatorSet",
      "type": "event"
    },
    {
      "inputs": [],
      "name": "claimOwnership",
      "outputs": [],
      "stateMutability": "nonpayable",
      "type": "function"
    },
    {
      "inputs": [],
      "name": "getKeyHash",
      "outputs": [
        {
          "internalType": "bytes32",
          "name": "",
          "type": "bytes32"
        }
      ],
      "stateMutability": "view",
      "type": "function"
    },
    {
      "inputs": [],
      "name": "getLastRequestId",
      "outputs": [
        {
          "internalType": "uint32",
          "name": "requestId",
          "type": "uint32"
        }
      ],
      "stateMutability": "view",
      "type": "function"
    },
    {
      "inputs": [],
      "name": "getRequestFee",
      "outputs": [
        {
          "internalType": "address",
          "name": "feeToken",
          "type": "address"
        },
        {
          "internalType": "uint256",
          "name": "requestFee",
          "type": "uint256"
        }
      ],
      "stateMutability": "pure",
      "type": "function"
    },
    {
      "inputs": [],
      "name": "getSubscriptionId",
      "outputs": [
        {
          "internalType": "uint64",
          "name": "",
          "type": "uint64"
        }
      ],
      "stateMutability": "view",
      "type": "function"
    },
    {
      "inputs": [],
      "name": "getVrfCoordinator",
      "outputs": [
        {
          "internalType": "contract VRFCoordinatorV2Interface",
          "name": "",
          "type": "address"
        }
      ],
      "stateMutability": "view",
      "type": "function"
    },
    {
      "inputs": [
        {
          "internalType": "uint32",
          "name": "_internalRequestId",
          "type": "uint32"
        }
      ],
      "name": "isRequestComplete",
      "outputs": [
        {
          "internalType": "bool",
          "name": "isCompleted",
          "type": "bool"
        }
      ],
      "stateMutability": "view",
      "type": "function"
    },
    {
      "inputs": [],
      "name": "manager",
      "outputs": [
        {
          "internalType": "address",
          "name": "",
          "type": "address"
        }
      ],
      "stateMutability": "view",
      "type": "function"
    },
    {
      "inputs": [],
      "name": "owner",
      "outputs": [
        {
          "internalType": "address",
          "name": "",
          "type": "address"
        }
      ],
      "stateMutability": "view",
      "type": "function"
    },
    {
      "inputs": [],
      "name": "pendingOwner",
      "outputs": [
        {
          "internalType": "address",
          "name": "",
          "type": "address"
        }
      ],
      "stateMutability": "view",
      "type": "function"
    },
    {
      "inputs": [
        {
          "internalType": "uint32",
          "name": "_internalRequestId",
          "type": "uint32"
        }
      ],
      "name": "randomNumber",
      "outputs": [
        {
          "internalType": "uint256",
          "name": "randomNum",
          "type": "uint256"
        }
      ],
      "stateMutability": "view",
      "type": "function"
    },
    {
      "inputs": [
        {
          "internalType": "uint256",
          "name": "requestId",
          "type": "uint256"
        },
        {
          "internalType": "uint256[]",
          "name": "randomWords",
          "type": "uint256[]"
        }
      ],
      "name": "rawFulfillRandomWords",
      "outputs": [],
      "stateMutability": "nonpayable",
      "type": "function"
    },
    {
      "inputs": [],
      "name": "renounceOwnership",
      "outputs": [],
      "stateMutability": "nonpayable",
      "type": "function"
    },
    {
      "inputs": [],
      "name": "requestRandomNumber",
      "outputs": [
        {
          "internalType": "uint32",
          "name": "requestId",
          "type": "uint32"
        },
        {
          "internalType": "uint32",
          "name": "lockBlock",
          "type": "uint32"
        }
      ],
      "stateMutability": "nonpayable",
      "type": "function"
    },
    {
      "inputs": [
        {
          "internalType": "bytes32",
          "name": "_keyHash",
          "type": "bytes32"
        }
      ],
      "name": "setKeyhash",
      "outputs": [],
      "stateMutability": "nonpayable",
      "type": "function"
    },
    {
      "inputs": [
        {
          "internalType": "address",
          "name": "_newManager",
          "type": "address"
        }
      ],
      "name": "setManager",
      "outputs": [
        {
          "internalType": "bool",
          "name": "",
          "type": "bool"
        }
      ],
      "stateMutability": "nonpayable",
      "type": "function"
    },
    {
      "inputs": [
        {
          "internalType": "uint64",
          "name": "_subscriptionId",
          "type": "uint64"
        }
      ],
      "name": "setSubscriptionId",
      "outputs": [],
      "stateMutability": "nonpayable",
      "type": "function"
    },
    {
      "inputs": [
        {
          "internalType": "address",
          "name": "_newOwner",
          "type": "address"
        }
      ],
      "name": "transferOwnership",
      "outputs": [],
      "stateMutability": "nonpayable",
      "type": "function"
    }
  ],
  "transactionHash": "0x65e1cb973a59902052de969083821efc06e354639ad5ef0be7309cb962c89b61",
  "args": [
    "0x4D40eb12430A57965cEe3015348d490C6156dF20",
    "0xd5D517aBE5cF79B7e95eC98dB0f0277788aFF634",
    97,
    "0x89630569c9567e43c4fe7b1633258df9f2531b62f2352fa721cf3162ee4ecb46"
  ],
  "numDeployments": 1,
  "solcInputHash": "81bc9ae0cb2caeb2744ac5c81556a380",
  "bytecode": "0x60a06040523480156200001157600080fd5b506040516200127e3803806200127e8339810160408190526200003491620002b1565b6001600160601b0319606084901b166080528362000052816200007e565b506200005e83620000ce565b620000698262000174565b62000074816200022c565b505050506200032f565b600080546001600160a01b038381166001600160a01b0319831681178455604051919092169283917f8be0079c531659141344cd1fd0a4f28419497f9722a3daafe3b4186f6b6457e09190a35050565b6001600160a01b0381166200012a5760405162461bcd60e51b815260206004820152601e60248201527f524e47436861696e4c696e6b2f7672662d6e6f742d7a65726f2d61646472000060448201526064015b60405180910390fd5b600380546001600160a01b0319166001600160a01b0383169081179091556040517f4cc41e06d3d0588be9be0e1469ba1934c4bd1cb8f4f70adf2aa31f4b92134b2790600090a250565b6000816001600160401b031611620001cf5760405162461bcd60e51b815260206004820152601a60248201527f524e47436861696e4c696e6b2f73756249642d67742d7a65726f000000000000604482015260640162000121565b600380546001600160c01b0316600160c01b6001600160401b038416908102919091179091556040519081527f68de96e24c66c14c012b5bd342251abc26a6003eaa438002bfe530f28ca63fed906020015b60405180910390a150565b806200027b5760405162461bcd60e51b815260206004820152601e60248201527f524e47436861696e4c696e6b2f6b6579486173682d6e6f742d656d7074790000604482015260640162000121565b60048190556040518181527fd013f86c8346660ebf421351882cd1b3c2f91883092df1800264c656b0db0cc69060200162000221565b60008060008060808587031215620002c857600080fd5b8451620002d58162000316565b6020860151909450620002e88162000316565b60408601519093506001600160401b03811681146200030657600080fd5b6060959095015193969295505050565b6001600160a01b03811681146200032c57600080fd5b50565b60805160601c610f296200035560003960008181610320015261037b0152610f296000f3fe608060405234801561001057600080fd5b50600436106101365760003560e01c8063715018a6116100b2578063d0ebdbe711610081578063e30c397811610066578063e30c3978146102de578063ea7b4f77146102ef578063f2fde38b1461030257600080fd5b8063d0ebdbe71461029e578063de3d9fb7146102b157600080fd5b8063715018a61461023a5780638678a7b2146102425780638da5cb5b146102675780639d2a5f981461027857600080fd5b8063331bf12511610109578063481c6a75116100ee578063481c6a751461020e5780634e71e0c81461021f5780636309b7731461022757600080fd5b8063331bf125146101c45780633a19b9bc146101d657600080fd5b80630cb4a29d1461013b5780630d37b5371461016557806319c2b4c3146101795780631fe543e3146101af575b600080fd5b6003546001600160a01b03165b6040516001600160a01b0390911681526020015b60405180910390f35b60408051600080825260208201520161015c565b60035474010000000000000000000000000000000000000000900463ffffffff1660405163ffffffff909116815260200161015c565b6101c26101bd366004610d56565b610315565b005b6004545b60405190815260200161015c565b6101fe6101e4366004610e45565b63ffffffff16600090815260056020526040902054151590565b604051901515815260200161015c565b6002546001600160a01b0316610148565b6101c26103bb565b6101c2610235366004610d24565b610449565b6101c26104be565b61024a610533565b6040805163ffffffff93841681529290911660208301520161015c565b6000546001600160a01b0316610148565b6101c8610286366004610e45565b63ffffffff1660009081526005602052604090205490565b6101fe6102ac366004610cf4565b610763565b600354600160c01b900467ffffffffffffffff1660405167ffffffffffffffff909116815260200161015c565b6001546001600160a01b0316610148565b6101c26102fd366004610e6b565b6107dd565b6101c2610310366004610cf4565b61084f565b336001600160a01b037f000000000000000000000000000000000000000000000000000000000000000016146103ad576040517f1cf993f40000000000000000000000000000000000000000000000000000000081523360048201526001600160a01b037f00000000000000000000000000000000000000000000000000000000000000001660248201526044015b60405180910390fd5b6103b7828261098b565b5050565b6001546001600160a01b031633146104155760405162461bcd60e51b815260206004820152601f60248201527f4f776e61626c652f63616c6c65722d6e6f742d70656e64696e674f776e65720060448201526064016103a4565b60015461042a906001600160a01b0316610a60565b6001805473ffffffffffffffffffffffffffffffffffffffff19169055565b3361045c6000546001600160a01b031690565b6001600160a01b0316146104b25760405162461bcd60e51b815260206004820152601860248201527f4f776e61626c652f63616c6c65722d6e6f742d6f776e6572000000000000000060448201526064016103a4565b6104bb81610abd565b50565b336104d16000546001600160a01b031690565b6001600160a01b0316146105275760405162461bcd60e51b815260206004820152601860248201527f4f776e61626c652f63616c6c65722d6e6f742d6f776e6572000000000000000060448201526064016103a4565b6105316000610a60565b565b600080336105496002546001600160a01b031690565b6001600160a01b03161461059f5760405162461bcd60e51b815260206004820152601d60248201527f4d616e61676561626c652f63616c6c65722d6e6f742d6d616e6167657200000060448201526064016103a4565b60038054600480546040517f5d3b1d3000000000000000000000000000000000000000000000000000000000815291820152600160c01b820467ffffffffffffffff1660248201526044810192909252620f42406064830152600160848301526000916001600160a01b0390911690635d3b1d309060a401602060405180830381600087803b15801561063157600080fd5b505af1158015610645573d6000803e3d6000fd5b505050506040513d601f19601f820116820180604052508101906106699190610d3d565b600380549192507401000000000000000000000000000000000000000090910463ffffffff1690601461069b83610e95565b82546101009290920a63ffffffff818102199093169183160217909155600354600084815260076020908152604080832080547401000000000000000000000000000000000000000090950486167fffffffffffffffffffffffffffffffffffffffffffffffffffffffff0000000095861681179091558084526006909252808320805490941643958616179093559151919650919450859250339183917fcf635b20f2defc1e71326dc4f0b616fa676e29a5bae87da19fcaddc550b33f039190a350509091565b6000336107786000546001600160a01b031690565b6001600160a01b0316146107ce5760405162461bcd60e51b815260206004820152601860248201527f4f776e61626c652f63616c6c65722d6e6f742d6f776e6572000000000000000060448201526064016103a4565b6107d782610b46565b92915050565b336107f06000546001600160a01b031690565b6001600160a01b0316146108465760405162461bcd60e51b815260206004820152601860248201527f4f776e61626c652f63616c6c65722d6e6f742d6f776e6572000000000000000060448201526064016103a4565b6104bb81610c32565b336108626000546001600160a01b031690565b6001600160a01b0316146108b85760405162461bcd60e51b815260206004820152601860248201527f4f776e61626c652f63616c6c65722d6e6f742d6f776e6572000000000000000060448201526064016103a4565b6001600160a01b0381166109345760405162461bcd60e51b815260206004820152602560248201527f4f776e61626c652f70656e64696e674f776e65722d6e6f742d7a65726f2d616460448201527f647265737300000000000000000000000000000000000000000000000000000060648201526084016103a4565b6001805473ffffffffffffffffffffffffffffffffffffffff19166001600160a01b0383169081179091556040517f239a2ddded15777fa246aed5f7e1a9bc69a39d4eb4a397034d1d85766cca7d4c90600090a250565b60008281526007602052604090205463ffffffff16806109ed5760405162461bcd60e51b815260206004820181905260248201527f524e47436861696e4c696e6b2f7265717565737449642d696e636f727265637460448201526064016103a4565b600082600081518110610a0257610a02610ec7565b60209081029190910181015163ffffffff841660008181526005845260409081902083905551828152919350917f629394f18de7accce1179c28c39be59503a57cbcf45980a2772743b041b36271910160405180910390a250505050565b600080546001600160a01b0383811673ffffffffffffffffffffffffffffffffffffffff19831681178455604051919092169283917f8be0079c531659141344cd1fd0a4f28419497f9722a3daafe3b4186f6b6457e09190a35050565b80610b0a5760405162461bcd60e51b815260206004820152601e60248201527f524e47436861696e4c696e6b2f6b6579486173682d6e6f742d656d707479000060448201526064016103a4565b60048190556040518181527fd013f86c8346660ebf421351882cd1b3c2f91883092df1800264c656b0db0cc6906020015b60405180910390a150565b6002546000906001600160a01b03908116908316811415610bcf5760405162461bcd60e51b815260206004820152602360248201527f4d616e61676561626c652f6578697374696e672d6d616e616765722d6164647260448201527f657373000000000000000000000000000000000000000000000000000000000060648201526084016103a4565b6002805473ffffffffffffffffffffffffffffffffffffffff19166001600160a01b0385811691821790925560405190918316907f9cb45c728de594dab506a1f1a8554e24c8eeaf983618d5ec5dd7bc6f3c49feee90600090a350600192915050565b60008167ffffffffffffffff1611610c8c5760405162461bcd60e51b815260206004820152601a60248201527f524e47436861696e4c696e6b2f73756249642d67742d7a65726f00000000000060448201526064016103a4565b6003805477ffffffffffffffffffffffffffffffffffffffffffffffff16600160c01b67ffffffffffffffff8416908102919091179091556040519081527f68de96e24c66c14c012b5bd342251abc26a6003eaa438002bfe530f28ca63fed90602001610b3b565b600060208284031215610d0657600080fd5b81356001600160a01b0381168114610d1d57600080fd5b9392505050565b600060208284031215610d3657600080fd5b5035919050565b600060208284031215610d4f57600080fd5b5051919050565b60008060408385031215610d6957600080fd5b8235915060208084013567ffffffffffffffff80821115610d8957600080fd5b818601915086601f830112610d9d57600080fd5b813581811115610daf57610daf610edd565b8060051b6040517fffffffffffffffffffffffffffffffffffffffffffffffffffffffffffffffe0603f83011681018181108582111715610df257610df2610edd565b604052828152858101935084860182860187018b1015610e1157600080fd5b600095505b83861015610e34578035855260019590950194938601938601610e16565b508096505050505050509250929050565b600060208284031215610e5757600080fd5b813563ffffffff81168114610d1d57600080fd5b600060208284031215610e7d57600080fd5b813567ffffffffffffffff81168114610d1d57600080fd5b600063ffffffff80831681811415610ebd57634e487b7160e01b600052601160045260246000fd5b6001019392505050565b634e487b7160e01b600052603260045260246000fd5b634e487b7160e01b600052604160045260246000fdfea26469706673582212205e31f6977d0789e2ea185a5db4cf5698eb3198898cf06f04f5d767120890540b64736f6c63430008060033",
  "devdoc": {
    "events": {
      "KeyHashSet(bytes32)": {
        "params": {
          "keyHash": "Chainlink VRF keyHash"
        }
      },
      "SubscriptionIdSet(uint64)": {
        "params": {
          "subscriptionId": "Chainlink VRF subscription id"
        }
      },
      "VrfCoordinatorSet(address)": {
        "params": {
          "vrfCoordinator": "Address of the VRF Coordinator"
        }
      }
    },
    "kind": "dev",
    "methods": {
      "claimOwnership()": {
        "details": "This function is only callable by the `_pendingOwner`."
      },
      "constructor": {
        "params": {
          "_keyHash": "Hash of the public key used to verify the VRF proof",
          "_owner": "Owner of the contract",
          "_subscriptionId": "Chainlink VRF subscription id",
          "_vrfCoordinator": "Address of the VRF Coordinator"
        }
      },
      "getKeyHash()": {
        "returns": {
          "_0": "bytes32 Chainlink VRF keyHash"
        }
      },
      "getLastRequestId()": {
        "returns": {
          "requestId": "The last request id used in the last request"
        }
      },
      "getRequestFee()": {
        "returns": {
          "feeToken": "The address of the token that is used to pay fees",
          "requestFee": "The fee required to be paid to make a request"
        }
      },
      "getSubscriptionId()": {
        "returns": {
          "_0": "uint64 Chainlink VRF subscription id"
        }
      },
      "getVrfCoordinator()": {
        "returns": {
          "_0": "address Chainlink VRF coordinator address"
        }
      },
      "isRequestComplete(uint32)": {
        "details": "For time-delayed requests, this function is used to check/confirm completion",
        "params": {
          "requestId": "The ID of the request used to get the results of the RNG service"
        },
        "returns": {
          "isCompleted": "True if the request has completed and a random number is available, false otherwise"
        }
      },
      "manager()": {
        "returns": {
          "_0": "Current `_manager` address."
        }
      },
      "pendingOwner()": {
        "returns": {
          "_0": "Current `_pendingOwner` address."
        }
      },
      "randomNumber(uint32)": {
        "params": {
          "requestId": "The ID of the request used to get the results of the RNG service"
        },
        "returns": {
          "randomNum": "The random number"
        }
      },
      "renounceOwnership()": {
        "details": "Leaves the contract without owner. It will not be possible to call `onlyOwner` functions anymore. Can only be called by the current owner. NOTE: Renouncing ownership will leave the contract without an owner, thereby removing any functionality that is only available to the owner."
      },
      "requestRandomNumber()": {
        "details": "Some services will complete the request immediately, others may have a time-delaySome services require payment in the form of a token, such as $LINK for Chainlink VRF",
        "returns": {
          "lockBlock": "The block number at which the RNG service will start generating time-delayed randomness. The calling contract should \"lock\" all activity until the result is available via the `requestId`",
          "requestId": "The ID of the request used to get the results of the RNG service"
        }
      },
      "setKeyhash(bytes32)": {
        "details": "This function is only callable by the owner.",
        "params": {
          "keyHash": "Chainlink VRF keyHash"
        }
      },
      "setManager(address)": {
        "details": "Throws if called by any account other than the owner.",
        "params": {
          "_newManager": "New _manager address."
        },
        "returns": {
          "_0": "Boolean to indicate if the operation was successful or not."
        }
      },
      "setSubscriptionId(uint64)": {
        "details": "This function is only callable by the owner.",
        "params": {
          "subscriptionId": "Chainlink VRF subscription id"
        }
      },
      "transferOwnership(address)": {
        "params": {
          "_newOwner": "Address to transfer ownership to."
        }
      }
    },
    "stateVariables": {
      "chainlinkRequestIds": {
        "details": "A mapping from Chainlink request ids to internal request ids"
      },
      "keyHash": {
        "details": "Hash of the public key used to verify the VRF proof"
      },
      "randomNumbers": {
        "details": "A list of random numbers from past requests mapped by request id"
      },
      "requestCounter": {
        "details": "A counter for the number of requests made used for request ids"
      },
      "requestLockBlock": {
        "details": "A list of blocks to be locked at based on past requests mapped by request id"
      },
      "subscriptionId": {
        "details": "Chainlink VRF subscription id"
      },
      "vrfCoordinator": {
        "details": "Reference to the VRFCoordinatorV2 deployed contract"
      }
    },
    "version": 1
  },
  "userdoc": {
    "events": {
      "KeyHashSet(bytes32)": {
        "notice": "Emitted when the Chainlink VRF keyHash is set"
      },
      "RandomNumberCompleted(uint32,uint256)": {
        "notice": "Emitted when an existing request for a random number has been completed"
      },
      "RandomNumberRequested(uint32,address)": {
        "notice": "Emitted when a new request for a random number has been submitted"
      },
      "SubscriptionIdSet(uint64)": {
        "notice": "Emitted when the Chainlink VRF subscription id is set"
      },
      "VrfCoordinatorSet(address)": {
        "notice": "Emitted when the Chainlink VRF Coordinator address is set"
      }
    },
    "kind": "user",
    "methods": {
      "claimOwnership()": {
        "notice": "Allows the `_pendingOwner` address to finalize the transfer."
      },
      "constructor": {
        "notice": "Constructor of the contract"
      },
      "getKeyHash()": {
        "notice": "Get Chainlink VRF keyHash associated with this contract."
      },
      "getLastRequestId()": {
        "notice": "Gets the last request id used by the RNG service"
      },
      "getRequestFee()": {
        "notice": "Gets the Fee for making a Request against an RNG service"
      },
      "getSubscriptionId()": {
        "notice": "Get Chainlink VRF subscription id associated with this contract."
      },
      "getVrfCoordinator()": {
        "notice": "Get Chainlink VRF coordinator contract address associated with this contract."
      },
      "isRequestComplete(uint32)": {
        "notice": "Checks if the request for randomness from the 3rd-party service has completed"
      },
      "manager()": {
        "notice": "Gets current `_manager`."
      },
      "owner()": {
        "notice": "Returns the address of the current owner."
      },
      "pendingOwner()": {
        "notice": "Gets current `_pendingOwner`."
      },
      "randomNumber(uint32)": {
        "notice": "Gets the random number produced by the 3rd-party service"
      },
      "renounceOwnership()": {
        "notice": "Renounce ownership of the contract."
      },
      "requestRandomNumber()": {
        "notice": "Sends a request for a random number to the 3rd-party service"
      },
      "setKeyhash(bytes32)": {
        "notice": "Set Chainlink VRF keyHash."
      },
      "setManager(address)": {
        "notice": "Set or change of manager."
      },
      "setSubscriptionId(uint64)": {
        "notice": "Set Chainlink VRF subscription id associated with this contract."
      },
      "transferOwnership(address)": {
        "notice": "Allows current owner to set the `_pendingOwner` address."
      }
    },
    "version": 1
  },
  "storageLayout": {
    "storage": [
      {
        "astId": 5205,
        "contract": "@pooltogether/pooltogether-rng-contracts/contracts/RNGChainlinkV2.sol:RNGChainlinkV2",
        "label": "_owner",
        "offset": 0,
        "slot": "0",
        "type": "t_address"
      },
      {
        "astId": 5207,
        "contract": "@pooltogether/pooltogether-rng-contracts/contracts/RNGChainlinkV2.sol:RNGChainlinkV2",
        "label": "_pendingOwner",
        "offset": 0,
        "slot": "1",
        "type": "t_address"
      },
      {
        "astId": 5103,
        "contract": "@pooltogether/pooltogether-rng-contracts/contracts/RNGChainlinkV2.sol:RNGChainlinkV2",
        "label": "_manager",
        "offset": 0,
        "slot": "2",
        "type": "t_address"
      },
      {
        "astId": 5371,
        "contract": "@pooltogether/pooltogether-rng-contracts/contracts/RNGChainlinkV2.sol:RNGChainlinkV2",
        "label": "vrfCoordinator",
        "offset": 0,
        "slot": "3",
        "type": "t_contract(VRFCoordinatorV2Interface)146"
      },
      {
        "astId": 5374,
        "contract": "@pooltogether/pooltogether-rng-contracts/contracts/RNGChainlinkV2.sol:RNGChainlinkV2",
        "label": "requestCounter",
        "offset": 20,
        "slot": "3",
        "type": "t_uint32"
      },
      {
        "astId": 5377,
        "contract": "@pooltogether/pooltogether-rng-contracts/contracts/RNGChainlinkV2.sol:RNGChainlinkV2",
        "label": "subscriptionId",
        "offset": 24,
        "slot": "3",
        "type": "t_uint64"
      },
      {
        "astId": 5380,
        "contract": "@pooltogether/pooltogether-rng-contracts/contracts/RNGChainlinkV2.sol:RNGChainlinkV2",
        "label": "keyHash",
        "offset": 0,
        "slot": "4",
        "type": "t_bytes32"
      },
      {
        "astId": 5385,
        "contract": "@pooltogether/pooltogether-rng-contracts/contracts/RNGChainlinkV2.sol:RNGChainlinkV2",
        "label": "randomNumbers",
        "offset": 0,
        "slot": "5",
        "type": "t_mapping(t_uint32,t_uint256)"
      },
      {
        "astId": 5390,
        "contract": "@pooltogether/pooltogether-rng-contracts/contracts/RNGChainlinkV2.sol:RNGChainlinkV2",
        "label": "requestLockBlock",
        "offset": 0,
        "slot": "6",
        "type": "t_mapping(t_uint32,t_uint32)"
      },
      {
        "astId": 5395,
        "contract": "@pooltogether/pooltogether-rng-contracts/contracts/RNGChainlinkV2.sol:RNGChainlinkV2",
        "label": "chainlinkRequestIds",
        "offset": 0,
        "slot": "7",
        "type": "t_mapping(t_uint256,t_uint32)"
      }
    ],
    "types": {
      "t_address": {
        "encoding": "inplace",
        "label": "address",
        "numberOfBytes": "20"
      },
      "t_bytes32": {
        "encoding": "inplace",
        "label": "bytes32",
        "numberOfBytes": "32"
      },
      "t_contract(VRFCoordinatorV2Interface)146": {
        "encoding": "inplace",
        "label": "contract VRFCoordinatorV2Interface",
        "numberOfBytes": "20"
      },
      "t_mapping(t_uint256,t_uint32)": {
        "encoding": "mapping",
        "key": "t_uint256",
        "label": "mapping(uint256 => uint32)",
        "numberOfBytes": "32",
        "value": "t_uint32"
      },
      "t_mapping(t_uint32,t_uint256)": {
        "encoding": "mapping",
        "key": "t_uint32",
        "label": "mapping(uint32 => uint256)",
        "numberOfBytes": "32",
        "value": "t_uint256"
      },
      "t_mapping(t_uint32,t_uint32)": {
        "encoding": "mapping",
        "key": "t_uint32",
        "label": "mapping(uint32 => uint32)",
        "numberOfBytes": "32",
        "value": "t_uint32"
      },
      "t_uint256": {
        "encoding": "inplace",
        "label": "uint256",
        "numberOfBytes": "32"
      },
      "t_uint32": {
        "encoding": "inplace",
        "label": "uint32",
        "numberOfBytes": "4"
      },
      "t_uint64": {
        "encoding": "inplace",
        "label": "uint64",
        "numberOfBytes": "8"
      }
    }
  }
}