{
  "address": "0x93f1eC3b47895c2cAE13b85bEc46cfF4c6B1220F",
  "abi": [
    {
      "inputs": [
        {
          "internalType": "address",
          "name": "_owner",
          "type": "address"
        },
        {
          "internalType": "contract IDrawCalculator",
          "name": "_calculator",
          "type": "address"
        },
        {
          "internalType": "uint32",
          "name": "_timelockDuration",
          "type": "uint32"
        }
      ],
      "stateMutability": "nonpayable",
      "type": "constructor"
    },
    {
      "anonymous": false,
      "inputs": [
        {
          "indexed": true,
          "internalType": "contract IDrawCalculator",
          "name": "drawCalculator",
          "type": "address"
        },
        {
          "indexed": false,
          "internalType": "uint32",
          "name": "timelockDuration",
          "type": "uint32"
        }
      ],
      "name": "Deployed",
      "type": "event"
    },
    {
      "anonymous": false,
      "inputs": [
        {
          "indexed": true,
          "internalType": "uint32",
          "name": "drawId",
          "type": "uint32"
        },
        {
          "indexed": false,
          "internalType": "uint32",
          "name": "timestamp",
          "type": "uint32"
        }
      ],
      "name": "LockedDraw",
      "type": "event"
    },
    {
      "anonymous": false,
      "inputs": [
        {
          "indexed": true,
          "internalType": "address",
          "name": "previousManager",
          "type": "address"
        },
        {
          "indexed": true,
          "internalType": "address",
          "name": "newManager",
          "type": "address"
        }
      ],
      "name": "ManagerTransferred",
      "type": "event"
    },
    {
      "anonymous": false,
      "inputs": [
        {
          "indexed": true,
          "internalType": "address",
          "name": "pendingOwner",
          "type": "address"
        }
      ],
      "name": "OwnershipOffered",
      "type": "event"
    },
    {
      "anonymous": false,
      "inputs": [
        {
          "indexed": true,
          "internalType": "address",
          "name": "previousOwner",
          "type": "address"
        },
        {
          "indexed": true,
          "internalType": "address",
          "name": "newOwner",
          "type": "address"
        }
      ],
      "name": "OwnershipTransferred",
      "type": "event"
    },
    {
      "anonymous": false,
      "inputs": [
        {
          "indexed": false,
          "internalType": "uint32",
          "name": "duration",
          "type": "uint32"
        }
      ],
      "name": "TimelockDurationSet",
      "type": "event"
    },
    {
      "anonymous": false,
      "inputs": [
        {
          "components": [
            {
              "internalType": "uint128",
              "name": "timestamp",
              "type": "uint128"
            },
            {
              "internalType": "uint32",
              "name": "drawId",
              "type": "uint32"
            }
          ],
          "indexed": false,
          "internalType": "struct IDrawCalculatorTimelock.Timelock",
          "name": "timelock",
          "type": "tuple"
        }
      ],
      "name": "TimelockSet",
      "type": "event"
    },
    {
      "inputs": [
        {
          "internalType": "address",
          "name": "user",
          "type": "address"
        },
        {
          "internalType": "uint32[]",
          "name": "drawIds",
          "type": "uint32[]"
        },
        {
          "internalType": "bytes",
          "name": "data",
          "type": "bytes"
        }
      ],
      "name": "calculate",
      "outputs": [
        {
          "internalType": "uint256[]",
          "name": "",
          "type": "uint256[]"
        },
        {
          "internalType": "bytes",
          "name": "",
          "type": "bytes"
        }
      ],
      "stateMutability": "view",
      "type": "function"
    },
    {
      "inputs": [],
      "name": "claimOwnership",
      "outputs": [],
      "stateMutability": "nonpayable",
      "type": "function"
    },
    {
      "inputs": [],
      "name": "getDrawCalculator",
      "outputs": [
        {
          "internalType": "contract IDrawCalculator",
          "name": "",
          "type": "address"
        }
      ],
      "stateMutability": "view",
      "type": "function"
    },
    {
      "inputs": [],
      "name": "getTimelock",
      "outputs": [
        {
          "components": [
            {
              "internalType": "uint128",
              "name": "timestamp",
              "type": "uint128"
            },
            {
              "internalType": "uint32",
              "name": "drawId",
              "type": "uint32"
            }
          ],
          "internalType": "struct IDrawCalculatorTimelock.Timelock",
          "name": "",
          "type": "tuple"
        }
      ],
      "stateMutability": "view",
      "type": "function"
    },
    {
      "inputs": [],
      "name": "getTimelockDuration",
      "outputs": [
        {
          "internalType": "uint32",
          "name": "",
          "type": "uint32"
        }
      ],
      "stateMutability": "view",
      "type": "function"
    },
    {
      "inputs": [],
      "name": "hasElapsed",
      "outputs": [
        {
          "internalType": "bool",
          "name": "",
          "type": "bool"
        }
      ],
      "stateMutability": "view",
      "type": "function"
    },
    {
      "inputs": [
        {
          "internalType": "uint32",
          "name": "_drawId",
          "type": "uint32"
        }
      ],
      "name": "lock",
      "outputs": [
        {
          "internalType": "bool",
          "name": "",
          "type": "bool"
        }
      ],
      "stateMutability": "nonpayable",
      "type": "function"
    },
    {
      "inputs": [],
      "name": "manager",
      "outputs": [
        {
          "internalType": "address",
          "name": "",
          "type": "address"
        }
      ],
      "stateMutability": "view",
      "type": "function"
    },
    {
      "inputs": [],
      "name": "owner",
      "outputs": [
        {
          "internalType": "address",
          "name": "",
          "type": "address"
        }
      ],
      "stateMutability": "view",
      "type": "function"
    },
    {
      "inputs": [],
      "name": "pendingOwner",
      "outputs": [
        {
          "internalType": "address",
          "name": "",
          "type": "address"
        }
      ],
      "stateMutability": "view",
      "type": "function"
    },
    {
      "inputs": [],
      "name": "renounceOwnership",
      "outputs": [],
      "stateMutability": "nonpayable",
      "type": "function"
    },
    {
      "inputs": [
        {
          "internalType": "address",
          "name": "_newManager",
          "type": "address"
        }
      ],
      "name": "setManager",
      "outputs": [
        {
          "internalType": "bool",
          "name": "",
          "type": "bool"
        }
      ],
      "stateMutability": "nonpayable",
      "type": "function"
    },
    {
      "inputs": [
        {
          "components": [
            {
              "internalType": "uint128",
              "name": "timestamp",
              "type": "uint128"
            },
            {
              "internalType": "uint32",
              "name": "drawId",
              "type": "uint32"
            }
          ],
          "internalType": "struct IDrawCalculatorTimelock.Timelock",
          "name": "_timelock",
          "type": "tuple"
        }
      ],
      "name": "setTimelock",
      "outputs": [],
      "stateMutability": "nonpayable",
      "type": "function"
    },
    {
      "inputs": [
        {
          "internalType": "uint32",
          "name": "_timelockDuration",
          "type": "uint32"
        }
      ],
      "name": "setTimelockDuration",
      "outputs": [],
      "stateMutability": "nonpayable",
      "type": "function"
    },
    {
      "inputs": [
        {
          "internalType": "address",
          "name": "_newOwner",
          "type": "address"
        }
      ],
      "name": "transferOwnership",
      "outputs": [],
      "stateMutability": "nonpayable",
      "type": "function"
    }
  ],
  "transactionHash": "0xc93ad9b4c38173687efcd9f30886cd7107cbf554c2414760ad4df5418feb608b",
  "args": [
    "0xE0F4217390221aF47855E094F6e112D43C8698fE",
    "0xF273EfaED59fED4F41cb9E693EefD9B1191f1522",
    1200
  ],
  "solcInputHash": "0617a234d0b660aa82c51becdcd2311f",
  "bytecode": "0x60a06040523480156200001157600080fd5b506040516200145638038062001456833981016040819052620000349162000155565b826200004081620000ab565b506001600160601b0319606083901b166080526200005e81620000fb565b60405163ffffffff821681526001600160a01b038316907f1ec0b5dbb0ca7039fc541ebde09f802f13f394dc70328f69521c9df64d56ba739060200160405180910390a2505050620001ca565b600080546001600160a01b038381166001600160a01b0319831681178455604051919092169283917f8be0079c531659141344cd1fd0a4f28419497f9722a3daafe3b4186f6b6457e09190a35050565b6002805463ffffffff60a01b1916600160a01b63ffffffff8416908102919091179091556040519081527f2607ecb03bc646643f6e6a7818db8d53cf9022e79f212f0275ab0e726ffb97de9060200160405180910390a150565b6000806000606084860312156200016b57600080fd5b83516200017881620001b1565b60208501519093506200018b81620001b1565b604085015190925063ffffffff81168114620001a657600080fd5b809150509250925092565b6001600160a01b0381168114620001c757600080fd5b50565b60805160601c611266620001f060003960008181610111015261057901526112666000f3fe608060405234801561001057600080fd5b50600436106100f55760003560e01c8063aaca392e11610097578063d3c45b8d11610066578063d3c45b8d1461023d578063e30c397814610250578063f2fde38b14610261578063fdf2f3121461027457600080fd5b8063aaca392e146101de578063c9f2e0d9146101ff578063d0ebdbe714610212578063d3a9c6121461023557600080fd5b80634e71e0c8116100d35780634e71e0c81461015f5780636221a54b14610167578063715018a6146101c55780638da5cb5b146101cd57600080fd5b80630dc9c0f1146100fa5780632d680cfa1461010f578063481c6a751461014e575b600080fd5b61010d610108366004610f88565b6102aa565b005b7f00000000000000000000000000000000000000000000000000000000000000005b6040516001600160a01b0390911681526020015b60405180910390f35b6002546001600160a01b0316610131565b61010d6103a8565b6040805180820182526000808252602091820152815180830183526003546fffffffffffffffffffffffffffffffff811680835263ffffffff600160801b909204821692840192835284519081529151169181019190915201610145565b61010d610436565b6000546001600160a01b0316610131565b6101f16101ec366004610e04565b6104ab565b604051610145929190611099565b61010d61020d366004610ffa565b610619565b610225610220366004610de2565b61068e565b6040519015158152602001610145565b61022561070a565b61022561024b366004610ffa565b61074f565b6001546001600160a01b0316610131565b61010d61026f366004610de2565b610941565b60025474010000000000000000000000000000000000000000900463ffffffff1660405163ffffffff9091168152602001610145565b336102bd6000546001600160a01b031690565b6001600160a01b0316146103185760405162461bcd60e51b815260206004820152601860248201527f4f776e61626c652f63616c6c65722d6e6f742d6f776e6572000000000000000060448201526064015b60405180910390fd5b805160038054602080850180516fffffffffffffffffffffffffffffffff90951673ffffffffffffffffffffffffffffffffffffffff199093168317600160801b63ffffffff9687160217909355604080519283529251909316928101929092527f42dd13ae53bb50ee7d7115673c106f053e02398f000e36d1e5969afc507e19ba91015b60405180910390a150565b6001546001600160a01b031633146104025760405162461bcd60e51b815260206004820152601f60248201527f4f776e61626c652f63616c6c65722d6e6f742d70656e64696e674f776e657200604482015260640161030f565b600154610417906001600160a01b0316610a7d565b6001805473ffffffffffffffffffffffffffffffffffffffff19169055565b336104496000546001600160a01b031690565b6001600160a01b03161461049f5760405162461bcd60e51b815260206004820152601860248201527f4f776e61626c652f63616c6c65722d6e6f742d6f776e65720000000000000000604482015260640161030f565b6104a96000610a7d565b565b604080518082019091526003546fffffffffffffffffffffffffffffffff81168252600160801b900463ffffffff166020820152606090819060005b8681101561054857816020015163ffffffff1688888381811061050c5761050c611204565b90506020020160208101906105219190610ffa565b63ffffffff1614156105365761053682610ada565b80610540816111b5565b9150506104e7565b506040517faaca392e0000000000000000000000000000000000000000000000000000000081526001600160a01b037f0000000000000000000000000000000000000000000000000000000000000000169063aaca392e906105b6908b908b908b908b908b90600401611015565b60006040518083038186803b1580156105ce57600080fd5b505afa1580156105e2573d6000803e3d6000fd5b505050506040513d6000823e601f3d908101601f1916820160405261060a9190810190610eb6565b92509250509550959350505050565b3361062c6000546001600160a01b031690565b6001600160a01b0316146106825760405162461bcd60e51b815260206004820152601860248201527f4f776e61626c652f63616c6c65722d6e6f742d6f776e65720000000000000000604482015260640161030f565b61068b81610b2f565b50565b6000336106a36000546001600160a01b031690565b6001600160a01b0316146106f95760405162461bcd60e51b815260206004820152601860248201527f4f776e61626c652f63616c6c65722d6e6f742d6f776e65720000000000000000604482015260640161030f565b61070282610bac565b90505b919050565b604080518082019091526003546fffffffffffffffffffffffffffffffff81168252600160801b900463ffffffff16602082015260009061074a90610c98565b905090565b6000336107646002546001600160a01b031690565b6001600160a01b031614806107925750336107876000546001600160a01b031690565b6001600160a01b0316145b6108045760405162461bcd60e51b815260206004820152602660248201527f4d616e61676561626c652f63616c6c65722d6e6f742d6d616e616765722d6f7260448201527f2d6f776e65720000000000000000000000000000000000000000000000000000606482015260840161030f565b604080518082019091526003546fffffffffffffffffffffffffffffffff81168252600160801b900463ffffffff1660208201819052610845906001611166565b63ffffffff168363ffffffff161461089f5760405162461bcd60e51b815260206004820152601660248201527f4f4d2f6e6f742d6472617769642d706c75732d6f6e6500000000000000000000604482015260640161030f565b6108a881610ada565b604080518082018252426fffffffffffffffffffffffffffffffff811680835263ffffffff87811660209485018190526003805473ffffffffffffffffffffffffffffffffffffffff1916909317600160801b82021790925593519382168452909290917fab01869b114234eaa7be033294249849011783dbd02cf5ffd427e5d6b4aa481b910160405180910390a25060019392505050565b336109546000546001600160a01b031690565b6001600160a01b0316146109aa5760405162461bcd60e51b815260206004820152601860248201527f4f776e61626c652f63616c6c65722d6e6f742d6f776e65720000000000000000604482015260640161030f565b6001600160a01b038116610a265760405162461bcd60e51b815260206004820152602560248201527f4f776e61626c652f70656e64696e674f776e65722d6e6f742d7a65726f2d616460448201527f6472657373000000000000000000000000000000000000000000000000000000606482015260840161030f565b6001805473ffffffffffffffffffffffffffffffffffffffff19166001600160a01b0383169081179091556040517f239a2ddded15777fa246aed5f7e1a9bc69a39d4eb4a397034d1d85766cca7d4c90600090a250565b600080546001600160a01b0383811673ffffffffffffffffffffffffffffffffffffffff19831681178455604051919092169283917f8be0079c531659141344cd1fd0a4f28419497f9722a3daafe3b4186f6b6457e09190a35050565b610ae381610c98565b61068b5760405162461bcd60e51b815260206004820152601760248201527f4f4d2f74696d656c6f636b2d6e6f742d65787069726564000000000000000000604482015260640161030f565b600280547fffffffffffffffff00000000ffffffffffffffffffffffffffffffffffffffff167401000000000000000000000000000000000000000063ffffffff8416908102919091179091556040519081527f2607ecb03bc646643f6e6a7818db8d53cf9022e79f212f0275ab0e726ffb97de9060200161039d565b6002546000906001600160a01b03908116908316811415610c355760405162461bcd60e51b815260206004820152602360248201527f4d616e61676561626c652f6578697374696e672d6d616e616765722d6164647260448201527f6573730000000000000000000000000000000000000000000000000000000000606482015260840161030f565b6002805473ffffffffffffffffffffffffffffffffffffffff19166001600160a01b0385811691821790925560405190918316907f9cb45c728de594dab506a1f1a8554e24c8eeaf983618d5ec5dd7bc6f3c49feee90600090a350600192915050565b80516000906fffffffffffffffffffffffffffffffff16610cbb57506001919050565b6002548251610ce89174010000000000000000000000000000000000000000900463ffffffff1690611132565b6fffffffffffffffffffffffffffffffff16421192915050565b80356001600160a01b038116811461070557600080fd5b60008083601f840112610d2b57600080fd5b50813567ffffffffffffffff811115610d4357600080fd5b602083019150836020828501011115610d5b57600080fd5b9250929050565b600082601f830112610d7357600080fd5b815167ffffffffffffffff811115610d8d57610d8d61121a565b610da06020601f19601f84011601611101565b818152846020838601011115610db557600080fd5b610dc6826020830160208701611185565b949350505050565b803563ffffffff8116811461070557600080fd5b600060208284031215610df457600080fd5b610dfd82610d02565b9392505050565b600080600080600060608688031215610e1c57600080fd5b610e2586610d02565b9450602086013567ffffffffffffffff80821115610e4257600080fd5b818801915088601f830112610e5657600080fd5b813581811115610e6557600080fd5b8960208260051b8501011115610e7a57600080fd5b602083019650809550506040880135915080821115610e9857600080fd5b50610ea588828901610d19565b969995985093965092949392505050565b60008060408385031215610ec957600080fd5b825167ffffffffffffffff80821115610ee157600080fd5b818501915085601f830112610ef557600080fd5b8151602082821115610f0957610f0961121a565b8160051b610f18828201611101565b8381528281019086840183880185018c1015610f3357600080fd5b600097505b85881015610f56578051835260019790970196918401918401610f38565b509289015192975091945050505080821115610f7157600080fd5b50610f7e85828601610d62565b9150509250929050565b600060408284031215610f9a57600080fd5b6040516040810181811067ffffffffffffffff82111715610fbd57610fbd61121a565b60405282356fffffffffffffffffffffffffffffffff81168114610fe057600080fd5b8152610fee60208401610dce565b60208201529392505050565b60006020828403121561100c57600080fd5b610dfd82610dce565b6001600160a01b038616815260606020808301829052908201859052600090869060808401835b888110156110655763ffffffff61105285610dce565b168252928201929082019060010161103c565b5084810360408601528581528587838301376000818701830152601f909501601f1916909401909301979650505050505050565b604080825283519082018190526000906020906060840190828701845b828110156110d2578151845292840192908401906001016110b6565b5050508381038285015284518082526110f081848401858901611185565b601f01601f19160101949350505050565b604051601f8201601f1916810167ffffffffffffffff8111828210171561112a5761112a61121a565b604052919050565b60006fffffffffffffffffffffffffffffffff80831681851680830382111561115d5761115d6111ee565b01949350505050565b600063ffffffff80831681851680830382111561115d5761115d6111ee565b60005b838110156111a0578181015183820152602001611188565b838111156111af576000848401525b50505050565b60007fffffffffffffffffffffffffffffffffffffffffffffffffffffffffffffffff8214156111e7576111e76111ee565b5060010190565b634e487b7160e01b600052601160045260246000fd5b634e487b7160e01b600052603260045260246000fd5b634e487b7160e01b600052604160045260246000fdfea2646970667358221220bcee392b7e4888cab8cc5d8caf60bd01a1070c2d840153447703f057259fcc9264736f6c63430008060033",
  "devdoc": {
    "author": "PoolTogether Inc Team",
    "events": {
      "Deployed(address,uint32)": {
        "params": {
          "drawCalculator": "DrawCalculator address bound to this timelock",
          "timelockDuration": "Initial timelock duration"
        }
      }
    },
    "kind": "dev",
    "methods": {
      "calculate(address,uint32[],bytes)": {
        "details": "Will enforce a \"cooldown\" period between when a Draw is pushed and when users can start to claim prizes.",
        "params": {
          "data": "Encoded pick indices",
          "drawIds": "Draw.drawId",
          "user": "User address"
        },
        "returns": {
          "_0": "Prizes awardable array"
        }
      },
      "claimOwnership()": {
        "details": "This function is only callable by the `_pendingOwner`."
      },
      "constructor": {
        "params": {
          "_calculator": "DrawCalculator address.",
          "_owner": "Address of the DrawCalculator owner.",
          "_timelockDuration": "Elapsed seconds before new Draw is available."
        }
      },
      "getDrawCalculator()": {
        "returns": {
          "_0": "IDrawCalculator"
        }
      },
      "getTimelock()": {
        "returns": {
          "_0": "Timelock"
        }
      },
      "getTimelockDuration()": {
        "returns": {
          "_0": "Seconds to pass before Draw is valid."
        }
      },
      "hasElapsed()": {
        "returns": {
          "_0": "True if timelockDuration, since last timelock has elapsed, false otherwise."
        }
      },
      "lock(uint32)": {
        "details": "Restricts new draws by forcing a push timelock.",
        "params": {
          "_drawId": "Draw id to lock."
        },
        "returns": {
          "_0": "True if operation was successful."
        }
      },
      "manager()": {
        "returns": {
          "_0": "Current `_manager` address."
        }
      },
      "pendingOwner()": {
        "returns": {
          "_0": "Current `_pendingOwner` address."
        }
      },
      "renounceOwnership()": {
        "details": "Leaves the contract without owner. It will not be possible to call `onlyOwner` functions anymore. Can only be called by the current owner. NOTE: Renouncing ownership will leave the contract without an owner, thereby removing any functionality that is only available to the owner."
      },
      "setManager(address)": {
        "details": "Throws if called by any account other than the owner.",
        "params": {
          "_newManager": "New _manager address."
        },
        "returns": {
          "_0": "Boolean to indicate if the operation was successful or not."
        }
      },
      "setTimelock((uint128,uint32))": {
        "params": {
          "_timelock": "Timelock struct to set."
        }
      },
      "setTimelockDuration(uint32)": {
        "details": "Set new Timelock duration and emit TimelockSet event.",
        "params": {
          "_timelockDuration": "Duration in seconds."
        }
      },
      "transferOwnership(address)": {
        "params": {
          "_newOwner": "Address to transfer ownership to."
        }
      }
    },
    "title": "PoolTogether V4 OracleTimelock",
    "version": 1
  },
  "userdoc": {
    "events": {
      "Deployed(address,uint32)": {
        "notice": "Deployed event when the constructor is called"
      },
      "LockedDraw(uint32,uint32)": {
        "notice": "Emitted when target draw id is locked."
      },
      "TimelockDurationSet(uint32)": {
        "notice": "Emitted event when the timelock duration is updated"
      },
      "TimelockSet((uint128,uint32))": {
        "notice": "Emitted event when the timelock struct is updated"
      }
    },
    "kind": "user",
    "methods": {
      "calculate(address,uint32[],bytes)": {
        "notice": "Routes claim/calculate requests between PrizeDistributor and DrawCalculator."
      },
      "claimOwnership()": {
        "notice": "Allows the `_pendingOwner` address to finalize the transfer."
      },
      "constructor": {
        "notice": "Initialize DrawCalculatorTimelockTrigger smart contract."
      },
      "getDrawCalculator()": {
        "notice": "Read internal DrawCalculator variable."
      },
      "getTimelock()": {
        "notice": "Read internal Timelock struct."
      },
      "getTimelockDuration()": {
        "notice": "Read internal timelockDuration variable."
      },
      "hasElapsed()": {
        "notice": "Returns bool for timelockDuration elapsing."
      },
      "lock(uint32)": {
        "notice": "Lock passed draw id for `timelockDuration` seconds."
      },
      "manager()": {
        "notice": "Gets current `_manager`."
      },
      "owner()": {
        "notice": "Returns the address of the current owner."
      },
      "pendingOwner()": {
        "notice": "Gets current `_pendingOwner`."
      },
      "renounceOwnership()": {
        "notice": "Renounce ownership of the contract."
      },
      "setManager(address)": {
        "notice": "Set or change of manager."
      },
      "setTimelock((uint128,uint32))": {
        "notice": "Set the Timelock struct. Only callable by the contract owner."
      },
      "setTimelockDuration(uint32)": {
        "notice": "Set new Timelock duration. Only callable by owner"
      },
      "transferOwnership(address)": {
        "notice": "Allows current owner to set the `_pendingOwner` address."
      }
    },
    "notice": "OracleTimelock(s) acts as an intermediary between multiple V4 smart contracts. The OracleTimelock is responsible for pushing Draws to a DrawBuffer and routing claim requests from a PrizeDistributor to a DrawCalculator. The primary objective is to include a \"cooldown\" period for all new Draws. Allowing the correction of a maliciously set Draw in the unfortunate event an Owner is compromised.",
    "version": 1
  },
  "storageLayout": {
    "storage": [
      {
        "astId": 2866,
        "contract": "@pooltogether/v4-timelocks/contracts/DrawCalculatorTimelock.sol:DrawCalculatorTimelock",
        "label": "_owner",
        "offset": 0,
        "slot": "0",
        "type": "t_address"
      },
      {
        "astId": 2868,
        "contract": "@pooltogether/v4-timelocks/contracts/DrawCalculatorTimelock.sol:DrawCalculatorTimelock",
        "label": "_pendingOwner",
        "offset": 0,
        "slot": "1",
        "type": "t_address"
      },
      {
        "astId": 2764,
        "contract": "@pooltogether/v4-timelocks/contracts/DrawCalculatorTimelock.sol:DrawCalculatorTimelock",
        "label": "_manager",
        "offset": 0,
        "slot": "2",
        "type": "t_address"
      },
      {
        "astId": 13011,
        "contract": "@pooltogether/v4-timelocks/contracts/DrawCalculatorTimelock.sol:DrawCalculatorTimelock",
        "label": "timelockDuration",
        "offset": 20,
        "slot": "2",
        "type": "t_uint32"
      },
      {
        "astId": 13015,
        "contract": "@pooltogether/v4-timelocks/contracts/DrawCalculatorTimelock.sol:DrawCalculatorTimelock",
        "label": "timelock",
        "offset": 0,
        "slot": "3",
        "type": "t_struct(Timelock)13522_storage"
      }
    ],
    "types": {
      "t_address": {
        "encoding": "inplace",
        "label": "address",
        "numberOfBytes": "20"
      },
      "t_struct(Timelock)13522_storage": {
        "encoding": "inplace",
        "label": "struct IDrawCalculatorTimelock.Timelock",
        "members": [
          {
            "astId": 13519,
            "contract": "@pooltogether/v4-timelocks/contracts/DrawCalculatorTimelock.sol:DrawCalculatorTimelock",
            "label": "timestamp",
            "offset": 0,
            "slot": "0",
            "type": "t_uint128"
          },
          {
            "astId": 13521,
            "contract": "@pooltogether/v4-timelocks/contracts/DrawCalculatorTimelock.sol:DrawCalculatorTimelock",
            "label": "drawId",
            "offset": 16,
            "slot": "0",
            "type": "t_uint32"
          }
        ],
        "numberOfBytes": "32"
      },
      "t_uint128": {
        "encoding": "inplace",
        "label": "uint128",
        "numberOfBytes": "16"
      },
      "t_uint32": {
        "encoding": "inplace",
        "label": "uint32",
        "numberOfBytes": "4"
      }
    }
  }
}