{
  "address": "0x3FaB224830C182972239F6a599A5A5bd64e43d6D",
  "abi": [
    {
      "inputs": [
        {
          "internalType": "address",
          "name": "_owner",
          "type": "address"
        },
        {
          "internalType": "uint8",
          "name": "_cardinality",
          "type": "uint8"
        }
      ],
      "stateMutability": "nonpayable",
      "type": "constructor"
    },
    {
      "anonymous": false,
      "inputs": [
        {
          "indexed": false,
          "internalType": "uint8",
          "name": "cardinality",
          "type": "uint8"
        }
      ],
      "name": "Deployed",
      "type": "event"
    },
    {
      "anonymous": false,
      "inputs": [
        {
          "indexed": true,
          "internalType": "address",
          "name": "previousManager",
          "type": "address"
        },
        {
          "indexed": true,
          "internalType": "address",
          "name": "newManager",
          "type": "address"
        }
      ],
      "name": "ManagerTransferred",
      "type": "event"
    },
    {
      "anonymous": false,
      "inputs": [
        {
          "indexed": true,
          "internalType": "address",
          "name": "pendingOwner",
          "type": "address"
        }
      ],
      "name": "OwnershipOffered",
      "type": "event"
    },
    {
      "anonymous": false,
      "inputs": [
        {
          "indexed": true,
          "internalType": "address",
          "name": "previousOwner",
          "type": "address"
        },
        {
          "indexed": true,
          "internalType": "address",
          "name": "newOwner",
          "type": "address"
        }
      ],
      "name": "OwnershipTransferred",
      "type": "event"
    },
    {
      "anonymous": false,
      "inputs": [
        {
          "indexed": true,
          "internalType": "uint32",
          "name": "drawId",
          "type": "uint32"
        },
        {
          "components": [
            {
              "internalType": "uint8",
              "name": "bitRangeSize",
              "type": "uint8"
            },
            {
              "internalType": "uint8",
              "name": "matchCardinality",
              "type": "uint8"
            },
            {
              "internalType": "uint32",
              "name": "startTimestampOffset",
              "type": "uint32"
            },
            {
              "internalType": "uint32",
              "name": "endTimestampOffset",
              "type": "uint32"
            },
            {
              "internalType": "uint32",
              "name": "maxPicksPerUser",
              "type": "uint32"
            },
            {
              "internalType": "uint136",
              "name": "numberOfPicks",
              "type": "uint136"
            },
            {
              "internalType": "uint32[16]",
              "name": "tiers",
              "type": "uint32[16]"
            },
            {
              "internalType": "uint256",
              "name": "prize",
              "type": "uint256"
            }
          ],
          "indexed": false,
          "internalType": "struct IPrizeDistributionBuffer.PrizeDistribution",
          "name": "prizeDistribution",
          "type": "tuple"
        }
      ],
      "name": "PrizeDistributionSet",
      "type": "event"
    },
    {
      "inputs": [],
      "name": "claimOwnership",
      "outputs": [],
      "stateMutability": "nonpayable",
      "type": "function"
    },
    {
      "inputs": [],
      "name": "getBufferCardinality",
      "outputs": [
        {
          "internalType": "uint32",
          "name": "",
          "type": "uint32"
        }
      ],
      "stateMutability": "view",
      "type": "function"
    },
    {
      "inputs": [],
      "name": "getNewestPrizeDistribution",
      "outputs": [
        {
          "components": [
            {
              "internalType": "uint8",
              "name": "bitRangeSize",
              "type": "uint8"
            },
            {
              "internalType": "uint8",
              "name": "matchCardinality",
              "type": "uint8"
            },
            {
              "internalType": "uint32",
              "name": "startTimestampOffset",
              "type": "uint32"
            },
            {
              "internalType": "uint32",
              "name": "endTimestampOffset",
              "type": "uint32"
            },
            {
              "internalType": "uint32",
              "name": "maxPicksPerUser",
              "type": "uint32"
            },
            {
              "internalType": "uint136",
              "name": "numberOfPicks",
              "type": "uint136"
            },
            {
              "internalType": "uint32[16]",
              "name": "tiers",
              "type": "uint32[16]"
            },
            {
              "internalType": "uint256",
              "name": "prize",
              "type": "uint256"
            }
          ],
          "internalType": "struct IPrizeDistributionBuffer.PrizeDistribution",
          "name": "prizeDistribution",
          "type": "tuple"
        },
        {
          "internalType": "uint32",
          "name": "drawId",
          "type": "uint32"
        }
      ],
      "stateMutability": "view",
      "type": "function"
    },
    {
      "inputs": [],
      "name": "getOldestPrizeDistribution",
      "outputs": [
        {
          "components": [
            {
              "internalType": "uint8",
              "name": "bitRangeSize",
              "type": "uint8"
            },
            {
              "internalType": "uint8",
              "name": "matchCardinality",
              "type": "uint8"
            },
            {
              "internalType": "uint32",
              "name": "startTimestampOffset",
              "type": "uint32"
            },
            {
              "internalType": "uint32",
              "name": "endTimestampOffset",
              "type": "uint32"
            },
            {
              "internalType": "uint32",
              "name": "maxPicksPerUser",
              "type": "uint32"
            },
            {
              "internalType": "uint136",
              "name": "numberOfPicks",
              "type": "uint136"
            },
            {
              "internalType": "uint32[16]",
              "name": "tiers",
              "type": "uint32[16]"
            },
            {
              "internalType": "uint256",
              "name": "prize",
              "type": "uint256"
            }
          ],
          "internalType": "struct IPrizeDistributionBuffer.PrizeDistribution",
          "name": "prizeDistribution",
          "type": "tuple"
        },
        {
          "internalType": "uint32",
          "name": "drawId",
          "type": "uint32"
        }
      ],
      "stateMutability": "view",
      "type": "function"
    },
    {
      "inputs": [
        {
          "internalType": "uint32",
          "name": "_drawId",
          "type": "uint32"
        }
      ],
      "name": "getPrizeDistribution",
      "outputs": [
        {
          "components": [
            {
              "internalType": "uint8",
              "name": "bitRangeSize",
              "type": "uint8"
            },
            {
              "internalType": "uint8",
              "name": "matchCardinality",
              "type": "uint8"
            },
            {
              "internalType": "uint32",
              "name": "startTimestampOffset",
              "type": "uint32"
            },
            {
              "internalType": "uint32",
              "name": "endTimestampOffset",
              "type": "uint32"
            },
            {
              "internalType": "uint32",
              "name": "maxPicksPerUser",
              "type": "uint32"
            },
            {
              "internalType": "uint136",
              "name": "numberOfPicks",
              "type": "uint136"
            },
            {
              "internalType": "uint32[16]",
              "name": "tiers",
              "type": "uint32[16]"
            },
            {
              "internalType": "uint256",
              "name": "prize",
              "type": "uint256"
            }
          ],
          "internalType": "struct IPrizeDistributionBuffer.PrizeDistribution",
          "name": "",
          "type": "tuple"
        }
      ],
      "stateMutability": "view",
      "type": "function"
    },
    {
      "inputs": [],
      "name": "getPrizeDistributionCount",
      "outputs": [
        {
          "internalType": "uint32",
          "name": "",
          "type": "uint32"
        }
      ],
      "stateMutability": "view",
      "type": "function"
    },
    {
      "inputs": [
        {
          "internalType": "uint32[]",
          "name": "_drawIds",
          "type": "uint32[]"
        }
      ],
      "name": "getPrizeDistributions",
      "outputs": [
        {
          "components": [
            {
              "internalType": "uint8",
              "name": "bitRangeSize",
              "type": "uint8"
            },
            {
              "internalType": "uint8",
              "name": "matchCardinality",
              "type": "uint8"
            },
            {
              "internalType": "uint32",
              "name": "startTimestampOffset",
              "type": "uint32"
            },
            {
              "internalType": "uint32",
              "name": "endTimestampOffset",
              "type": "uint32"
            },
            {
              "internalType": "uint32",
              "name": "maxPicksPerUser",
              "type": "uint32"
            },
            {
              "internalType": "uint136",
              "name": "numberOfPicks",
              "type": "uint136"
            },
            {
              "internalType": "uint32[16]",
              "name": "tiers",
              "type": "uint32[16]"
            },
            {
              "internalType": "uint256",
              "name": "prize",
              "type": "uint256"
            }
          ],
          "internalType": "struct IPrizeDistributionBuffer.PrizeDistribution[]",
          "name": "",
          "type": "tuple[]"
        }
      ],
      "stateMutability": "view",
      "type": "function"
    },
    {
      "inputs": [],
      "name": "manager",
      "outputs": [
        {
          "internalType": "address",
          "name": "",
          "type": "address"
        }
      ],
      "stateMutability": "view",
      "type": "function"
    },
    {
      "inputs": [],
      "name": "owner",
      "outputs": [
        {
          "internalType": "address",
          "name": "",
          "type": "address"
        }
      ],
      "stateMutability": "view",
      "type": "function"
    },
    {
      "inputs": [],
      "name": "pendingOwner",
      "outputs": [
        {
          "internalType": "address",
          "name": "",
          "type": "address"
        }
      ],
      "stateMutability": "view",
      "type": "function"
    },
    {
      "inputs": [
        {
          "internalType": "uint32",
          "name": "_drawId",
          "type": "uint32"
        },
        {
          "components": [
            {
              "internalType": "uint8",
              "name": "bitRangeSize",
              "type": "uint8"
            },
            {
              "internalType": "uint8",
              "name": "matchCardinality",
              "type": "uint8"
            },
            {
              "internalType": "uint32",
              "name": "startTimestampOffset",
              "type": "uint32"
            },
            {
              "internalType": "uint32",
              "name": "endTimestampOffset",
              "type": "uint32"
            },
            {
              "internalType": "uint32",
              "name": "maxPicksPerUser",
              "type": "uint32"
            },
            {
              "internalType": "uint136",
              "name": "numberOfPicks",
              "type": "uint136"
            },
            {
              "internalType": "uint32[16]",
              "name": "tiers",
              "type": "uint32[16]"
            },
            {
              "internalType": "uint256",
              "name": "prize",
              "type": "uint256"
            }
          ],
          "internalType": "struct IPrizeDistributionBuffer.PrizeDistribution",
          "name": "_prizeDistribution",
          "type": "tuple"
        }
      ],
      "name": "pushPrizeDistribution",
      "outputs": [
        {
          "internalType": "bool",
          "name": "",
          "type": "bool"
        }
      ],
      "stateMutability": "nonpayable",
      "type": "function"
    },
    {
      "inputs": [],
      "name": "renounceOwnership",
      "outputs": [],
      "stateMutability": "nonpayable",
      "type": "function"
    },
    {
      "inputs": [
        {
          "internalType": "address",
          "name": "_newManager",
          "type": "address"
        }
      ],
      "name": "setManager",
      "outputs": [
        {
          "internalType": "bool",
          "name": "",
          "type": "bool"
        }
      ],
      "stateMutability": "nonpayable",
      "type": "function"
    },
    {
      "inputs": [
        {
          "internalType": "uint32",
          "name": "_drawId",
          "type": "uint32"
        },
        {
          "components": [
            {
              "internalType": "uint8",
              "name": "bitRangeSize",
              "type": "uint8"
            },
            {
              "internalType": "uint8",
              "name": "matchCardinality",
              "type": "uint8"
            },
            {
              "internalType": "uint32",
              "name": "startTimestampOffset",
              "type": "uint32"
            },
            {
              "internalType": "uint32",
              "name": "endTimestampOffset",
              "type": "uint32"
            },
            {
              "internalType": "uint32",
              "name": "maxPicksPerUser",
              "type": "uint32"
            },
            {
              "internalType": "uint136",
              "name": "numberOfPicks",
              "type": "uint136"
            },
            {
              "internalType": "uint32[16]",
              "name": "tiers",
              "type": "uint32[16]"
            },
            {
              "internalType": "uint256",
              "name": "prize",
              "type": "uint256"
            }
          ],
          "internalType": "struct IPrizeDistributionBuffer.PrizeDistribution",
          "name": "_prizeDistribution",
          "type": "tuple"
        }
      ],
      "name": "setPrizeDistribution",
      "outputs": [
        {
          "internalType": "uint32",
          "name": "",
          "type": "uint32"
        }
      ],
      "stateMutability": "nonpayable",
      "type": "function"
    },
    {
      "inputs": [
        {
          "internalType": "address",
          "name": "_newOwner",
          "type": "address"
        }
      ],
      "name": "transferOwnership",
      "outputs": [],
      "stateMutability": "nonpayable",
      "type": "function"
    }
  ],
  "transactionHash": "0x7de90fe698f2788ca48b01e0c77795e0b314227fa26afeff26702c8a04edd240",
  "args": [
    "0xE0F4217390221aF47855E094F6e112D43C8698fE",
    8
  ],
  "solcInputHash": "0617a234d0b660aa82c51becdcd2311f",
  "bytecode": "0x60806040523480156200001157600080fd5b5060405162002003380380620020038339810160408190526200003491620000f2565b816200004081620000a2565b50610403805463ffffffff60401b191660ff8316680100000000000000008102919091179091556040519081527f7da7688769fade6088b3de366e63c95090bc5b0db6e9b43f043dee741d7544fe9060200160405180910390a1505062000141565b600080546001600160a01b038381166001600160a01b0319831681178455604051919092169283917f8be0079c531659141344cd1fd0a4f28419497f9722a3daafe3b4186f6b6457e09190a35050565b600080604083850312156200010657600080fd5b82516001600160a01b03811681146200011e57600080fd5b602084015190925060ff811681146200013657600080fd5b809150509250929050565b611eb280620001516000396000f3fe608060405234801561001057600080fd5b50600436106100f55760003560e01c8063654673f011610097578063d0ebdbe711610066578063d0ebdbe7146101f3578063d30a5daf14610206578063e30c397814610226578063f2fde38b1461023757600080fd5b8063654673f0146101ac578063715018a6146101bf5780638da5cb5b146101c7578063caeef7ec146101d857600080fd5b80633cd8e2d5116100d35780633cd8e2d51461013a578063481c6a751461015a5780634e71e0c81461017f578063606351301461018957600080fd5b806321e98ad9146100fa5780632439093a1461011c57806324c2144614610132575b600080fd5b61010261024a565b60405163ffffffff90911681526020015b60405180910390f35b6101246102d7565b604051610113929190611a7a565b610124610578565b61014d6101483660046117ec565b6106f4565b6040516101139190611a6b565b6002546001600160a01b03165b6040516001600160a01b039091168152602001610113565b610187610742565b005b61019c610197366004611809565b6107d5565b6040519015158152602001610113565b6101026101ba366004611809565b61089b565b6101876109ca565b6000546001600160a01b0316610167565b6104035468010000000000000000900463ffffffff16610102565b61019c61020136600461174e565b610a3f565b610219610214366004611777565b610ab8565b6040516101139190611967565b6001546001600160a01b0316610167565b61018761024536600461174e565b610bc0565b604080516060810182526104035463ffffffff80821680845264010000000083048216602085015268010000000000000000909204169282019290925260009161029657600091505090565b6020810151600363ffffffff821661010081106102b5576102b5611c1c565b6004020154610100900460ff16156102d1575060400151919050565b92915050565b6102df6116cd565b604080516060810182526104035463ffffffff80821683526401000000008204811660208401819052680100000000000000009092041692820192909252600091600390610100811061033457610334611c1c565b60408051610100808201835260049390930293909301805460ff8082168652938104909316602085015262010000830463ffffffff9081168584015266010000000000008404811660608601526a010000000000000000000084041660808501526e01000000000000000000000000000090920470ffffffffffffffffffffffffffffffffff1660a0840152805161020081019182905260c08401916001840190601090826000855b82829054906101000a900463ffffffff1663ffffffff16815260200190600401906020826003010492830192600103820291508084116103dd5750505092845250505060039190910154602090910152815190935063ffffffff166104455760009150509091565b825160ff16610566576040805161010080820183526003805460ff8082168552928104909216602084015262010000820463ffffffff9081168486015266010000000000008304811660608501526a010000000000000000000083041660808401526e01000000000000000000000000000090910470ffffffffffffffffffffffffffffffffff1660a083015282516102008101938490529192909160c0840191600490601090826000855b82829054906101000a900463ffffffff1663ffffffff16815260200190600401906020826003010492830192600103820291508084116104f15750505092845250505060039190910154602091820152820151825191945090610555906001611ab5565b61055f9190611b15565b9150509091565b60408101518151610555906001611ab5565b6105806116cd565b604080516060810182526104035463ffffffff808216808452640100000000830482166020850152680100000000000000009092048116938301939093526000926003916105d191849190610cfc16565b63ffffffff1661010081106105e8576105e8611c1c565b825160408051610100808201835260049490940294909401805460ff8082168752948104909416602086015262010000840463ffffffff9081168684015266010000000000008504811660608701526a010000000000000000000085041660808601526e01000000000000000000000000000090930470ffffffffffffffffffffffffffffffffff1660a0850152805161020081019182905292939192849160c0840191906001840190601090826000855b82829054906101000a900463ffffffff1663ffffffff168152602001906004019060208260030104928301926001038202915080841161069a57905050505050508152602001600382015481525050915092509250509091565b6106fc6116cd565b604080516060810182526104035463ffffffff80821683526401000000008204811660208401526801000000000000000090910416918101919091526102d19083610e2c565b6001546001600160a01b031633146107a15760405162461bcd60e51b815260206004820152601f60248201527f4f776e61626c652f63616c6c65722d6e6f742d70656e64696e674f776e65720060448201526064015b60405180910390fd5b6001546107b6906001600160a01b0316610f57565b6001805473ffffffffffffffffffffffffffffffffffffffff19169055565b6000336107ea6002546001600160a01b031690565b6001600160a01b0316148061081857503361080d6000546001600160a01b031690565b6001600160a01b0316145b61088a5760405162461bcd60e51b815260206004820152602660248201527f4d616e61676561626c652f63616c6c65722d6e6f742d6d616e616765722d6f7260448201527f2d6f776e657200000000000000000000000000000000000000000000000000006064820152608401610798565b6108948383610fb4565b9392505050565b6000336108b06000546001600160a01b031690565b6001600160a01b0316146109065760405162461bcd60e51b815260206004820152601860248201527f4f776e61626c652f63616c6c65722d6e6f742d6f776e657200000000000000006044820152606401610798565b604080516060810182526104035463ffffffff808216835264010000000082048116602084015268010000000000000000909104811692820192909252906000906109559083908790610cfc16565b90508360038263ffffffff16610100811061097257610972611c1c565b600402016109808282611c62565b9050508463ffffffff167f14c0e33e99cc3932964de1475a5b36ec7af54b8807f55acfd1e565c61b61ffc4856040516109b991906119b6565b60405180910390a250929392505050565b336109dd6000546001600160a01b031690565b6001600160a01b031614610a335760405162461bcd60e51b815260206004820152601860248201527f4f776e61626c652f63616c6c65722d6e6f742d6f776e657200000000000000006044820152606401610798565b610a3d6000610f57565b565b600033610a546000546001600160a01b031690565b6001600160a01b031614610aaa5760405162461bcd60e51b815260206004820152601860248201527f4f776e61626c652f63616c6c65722d6e6f742d6f776e657200000000000000006044820152606401610798565b6102d18261146c565b919050565b60408051606081810183526104035463ffffffff808216845264010000000082048116602085015268010000000000000000909104169282019290925260008367ffffffffffffffff811115610b1057610b10611c32565b604051908082528060200260200182016040528015610b4957816020015b610b366116cd565b815260200190600190039081610b2e5790505b50905060005b84811015610bb757610b8783878784818110610b6d57610b6d611c1c565b9050602002016020810190610b8291906117ec565b610e2c565b828281518110610b9957610b99611c1c565b60200260200101819052508080610baf90611ba3565b915050610b4f565b50949350505050565b33610bd36000546001600160a01b031690565b6001600160a01b031614610c295760405162461bcd60e51b815260206004820152601860248201527f4f776e61626c652f63616c6c65722d6e6f742d6f776e657200000000000000006044820152606401610798565b6001600160a01b038116610ca55760405162461bcd60e51b815260206004820152602560248201527f4f776e61626c652f70656e64696e674f776e65722d6e6f742d7a65726f2d616460448201527f64726573730000000000000000000000000000000000000000000000000000006064820152608401610798565b6001805473ffffffffffffffffffffffffffffffffffffffff19166001600160a01b0383169081179091556040517f239a2ddded15777fa246aed5f7e1a9bc69a39d4eb4a397034d1d85766cca7d4c90600090a250565b6000610d0783611558565b8015610d235750826000015163ffffffff168263ffffffff1611155b610d6f5760405162461bcd60e51b815260206004820152600f60248201527f4452422f6675747572652d6472617700000000000000000000000000000000006044820152606401610798565b8251600090610d7f908490611b15565b9050836040015163ffffffff168163ffffffff1610610de05760405162461bcd60e51b815260206004820152601060248201527f4452422f657870697265642d64726177000000000000000000000000000000006044820152606401610798565b6000610e00856020015163ffffffff16866040015163ffffffff16611580565b9050610e238163ffffffff168363ffffffff16876040015163ffffffff166115ae565b95945050505050565b610e346116cd565b6003610e408484610cfc565b63ffffffff166101008110610e5757610e57611c1c565b60408051610100808201835260049390930293909301805460ff8082168652938104909316602085015262010000830463ffffffff9081168584015266010000000000008404811660608601526a010000000000000000000084041660808501526e01000000000000000000000000000090920470ffffffffffffffffffffffffffffffffff1660a0840152805161020081019182905260c08401916001840190601090826000855b82829054906101000a900463ffffffff1663ffffffff1681526020019060040190602082600301049283019260010382029150808411610f0057905050505050508152602001600382015481525050905092915050565b600080546001600160a01b0383811673ffffffffffffffffffffffffffffffffffffffff19831681178455604051919092169283917f8be0079c531659141344cd1fd0a4f28419497f9722a3daafe3b4186f6b6457e09190a35050565b6000808363ffffffff161161100b5760405162461bcd60e51b815260206004820152601560248201527f4472617743616c632f647261772d69642d67742d3000000000000000000000006044820152606401610798565b600061101d604084016020850161186a565b60ff161161106d5760405162461bcd60e51b815260206004820152601e60248201527f4472617743616c632f6d6174636843617264696e616c6974792d67742d3000006044820152606401610798565b61107d604083016020840161186a565b61108c9060ff16610100611add565b61ffff1661109d602084018461186a565b60ff1611156110ee5760405162461bcd60e51b815260206004820152601f60248201527f4472617743616c632f62697452616e676553697a652d746f6f2d6c61726765006044820152606401610798565b60006110fd602084018461186a565b60ff161161114d5760405162461bcd60e51b815260206004820152601a60248201527f4472617743616c632f62697452616e676553697a652d67742d300000000000006044820152606401610798565b600061115f60a08401608085016117ec565b63ffffffff16116111b25760405162461bcd60e51b815260206004820152601d60248201527f4472617743616c632f6d61785069636b73506572557365722d67742d300000006044820152606401610798565b6000806010815b81811015611251578560c00181601081106111d6576111d6611c1c565b6020020160208101906111e991906117ec565b6111f99063ffffffff1685611a9d565b935060008660c001826010811061121257611212611c1c565b60200201602081019061122591906117ec565b63ffffffff16111561123f578261123b81611ba3565b9350505b8061124981611ba3565b9150506111b9565b50633b9aca008311156112a65760405162461bcd60e51b815260206004820152601660248201527f4472617743616c632f74696572732d67742d31303025000000000000000000006044820152606401610798565b816112b7604087016020880161186a565b60ff16101561132e5760405162461bcd60e51b815260206004820152602360248201527f4472617743616c632f6d6174636843617264696e616c6974792d6774652d746960448201527f65727300000000000000000000000000000000000000000000000000000000006064820152608401610798565b604080516060810182526104035463ffffffff80821683526401000000008204811660208401819052680100000000000000009092041692820192909252908690600390610100811061138357611383611c1c565b600402016113918282611c62565b5061139e905081886115c6565b80516104038054602084015160409485015163ffffffff90811668010000000000000000027fffffffffffffffffffffffffffffffffffffffff00000000ffffffffffffffff928216640100000000027fffffffffffffffffffffffffffffffffffffffffffffffff00000000000000009094169582169590951792909217169290921790559051908816907f14c0e33e99cc3932964de1475a5b36ec7af54b8807f55acfd1e565c61b61ffc4906114579089906119b6565b60405180910390a25060019695505050505050565b6002546000906001600160a01b039081169083168114156114f55760405162461bcd60e51b815260206004820152602360248201527f4d616e61676561626c652f6578697374696e672d6d616e616765722d6164647260448201527f65737300000000000000000000000000000000000000000000000000000000006064820152608401610798565b6002805473ffffffffffffffffffffffffffffffffffffffff19166001600160a01b0385811691821790925560405190918316907f9cb45c728de594dab506a1f1a8554e24c8eeaf983618d5ec5dd7bc6f3c49feee90600090a350600192915050565b6000816020015163ffffffff1660001480156115795750815163ffffffff16155b1592915050565b60008161158f575060006102d1565b610894600161159e8486611a9d565b6115a89190611afe565b836116b1565b60006115be8361159e8487611a9d565b949350505050565b60408051606081018252600080825260208201819052918101919091526115ec83611558565b158061160f57508251611600906001611ab5565b63ffffffff168263ffffffff16145b61165b5760405162461bcd60e51b815260206004820152601260248201527f4452422f6d7573742d62652d636f6e74696700000000000000000000000000006044820152606401610798565b60405180606001604052808363ffffffff168152602001611690856020015163ffffffff16866040015163ffffffff166116bd565b63ffffffff168152602001846040015163ffffffff16815250905092915050565b60006108948284611bdc565b60006108946115a8846001611a9d565b6040805161010081018252600080825260208201819052918101829052606081018290526080810182905260a081019190915260c0810161170c611719565b8152602001600081525090565b6040518061020001604052806010906020820280368337509192915050565b8035610ab381611e39565b8035610ab381611e5b565b60006020828403121561176057600080fd5b81356001600160a01b038116811461089457600080fd5b6000806020838503121561178a57600080fd5b823567ffffffffffffffff808211156117a257600080fd5b818501915085601f8301126117b657600080fd5b8135818111156117c557600080fd5b8660208260051b85010111156117da57600080fd5b60209290920196919550909350505050565b6000602082840312156117fe57600080fd5b813561089481611e5b565b60008082840361030081121561181e57600080fd5b833561182981611e5b565b92506102e07fffffffffffffffffffffffffffffffffffffffffffffffffffffffffffffffe08201121561185c57600080fd5b506020830190509250929050565b60006020828403121561187c57600080fd5b813561089481611e6d565b8060005b60108110156118ba57813561189f81611e5b565b63ffffffff168452602093840193919091019060010161188b565b50505050565b8060005b60108110156118ba57815163ffffffff168452602093840193909101906001016118c4565b60ff815116825260ff6020820151166020830152604081015163ffffffff8082166040850152806060840151166060850152806080840151166080850152505070ffffffffffffffffffffffffffffffffff60a08201511660a083015260c081015161195860c08401826118c0565b5060e001516102c09190910152565b6020808252825182820181905260009190848201906040850190845b818110156119aa576119968385516118e9565b928401926102e09290920191600101611983565b50909695505050505050565b6102e0810182356119c681611e6d565b60ff16825260208301356119d981611e6d565b60ff16602083015260408301356119ef81611e5b565b63ffffffff166040830152611a0660608401611743565b63ffffffff166060830152611a1d60808401611743565b63ffffffff166080830152611a3460a08401611738565b70ffffffffffffffffffffffffffffffffff1660a0830152611a5c60c0808401908501611887565b6102c092830135919092015290565b6102e081016102d182846118e9565b6103008101611a8982856118e9565b63ffffffff83166102e08301529392505050565b60008219821115611ab057611ab0611bf0565b500190565b600063ffffffff808316818516808303821115611ad457611ad4611bf0565b01949350505050565b600061ffff80841680611af257611af2611c06565b92169190910492915050565b600082821015611b1057611b10611bf0565b500390565b600063ffffffff83811690831681811015611b3257611b32611bf0565b039392505050565b81816000805b6010811015611b9b578335611b5481611e5b565b835463ffffffff600385901b81811b801990931693909116901b1617835560209390930192600490910190601c821115611b9357600091506001830192505b600101611b40565b505050505050565b60007fffffffffffffffffffffffffffffffffffffffffffffffffffffffffffffffff821415611bd557611bd5611bf0565b5060010190565b600082611beb57611beb611c06565b500690565b634e487b7160e01b600052601160045260246000fd5b634e487b7160e01b600052601260045260246000fd5b634e487b7160e01b600052603260045260246000fd5b634e487b7160e01b600052604160045260246000fd5b600081356102d181611e39565b600081356102d181611e5b565b8135611c6d81611e6d565b60ff811690508154817fffffffffffffffffffffffffffffffffffffffffffffffffffffffffffffff0082161783556020840135611caa81611e6d565b61ff008160081b16837fffffffffffffffffffffffffffffffffffffffffffffffffffffffffffff0000841617178455505050611d23611cec60408401611c55565b82547fffffffffffffffffffffffffffffffffffffffffffffffffffff00000000ffff1660109190911b65ffffffff000016178255565b611d6d611d3260608401611c55565b82547fffffffffffffffffffffffffffffffffffffffffffff00000000ffffffffffff1660309190911b69ffffffff00000000000016178255565b611dbb611d7c60808401611c55565b82547fffffffffffffffffffffffffffffffffffff00000000ffffffffffffffffffff1660509190911b6dffffffff0000000000000000000016178255565b611e1a611dca60a08401611c48565b82547fff0000000000000000000000000000000000ffffffffffffffffffffffffffff1660709190911b7effffffffffffffffffffffffffffffffff000000000000000000000000000016178255565b611e2a60c0830160018301611b3a565b6102c082013560038201555050565b70ffffffffffffffffffffffffffffffffff81168114611e5857600080fd5b50565b63ffffffff81168114611e5857600080fd5b60ff81168114611e5857600080fdfea2646970667358221220d361948d1e86bbd86f2fb4d49a629d31b8ef8defddffb342f46202eec1f1790a64736f6c63430008060033",
  "devdoc": {
    "author": "PoolTogether Inc Team",
    "events": {
      "Deployed(uint8)": {
        "params": {
          "cardinality": "The maximum number of records in the buffer before they begin to expire."
        }
      }
    },
    "kind": "dev",
    "methods": {
      "claimOwnership()": {
        "details": "This function is only callable by the `_pendingOwner`."
      },
      "constructor": {
        "params": {
          "_cardinality": "Cardinality of the `bufferMetadata`",
          "_owner": "Address of the PrizeDistributionBuffer owner"
        }
      },
      "getBufferCardinality()": {
        "returns": {
          "_0": "Ring buffer cardinality"
        }
      },
      "getNewestPrizeDistribution()": {
        "details": "Uses nextDrawIndex to calculate the most recently added PrizeDistribution.",
        "returns": {
          "drawId": "drawId",
          "prizeDistribution": "prizeDistribution"
        }
      },
      "getOldestPrizeDistribution()": {
        "details": "Finds the oldest Draw by buffer.nextIndex and buffer.lastDrawId",
        "returns": {
          "drawId": "drawId",
          "prizeDistribution": "prizeDistribution"
        }
      },
      "getPrizeDistribution(uint32)": {
        "params": {
          "drawId": "drawId"
        },
        "returns": {
          "_0": "prizeDistribution"
        }
      },
      "getPrizeDistributionCount()": {
        "details": "If no Draws have been pushed, it will return 0.If the ring buffer is full, it will return the cardinality.Otherwise, it will return the NewestPrizeDistribution index + 1.",
        "returns": {
          "_0": "Number of PrizeDistributions stored in the prize distributions ring buffer."
        }
      },
      "getPrizeDistributions(uint32[])": {
        "params": {
          "drawIds": "drawIds to get PrizeDistribution for"
        },
        "returns": {
          "_0": "prizeDistributionList"
        }
      },
      "manager()": {
        "returns": {
          "_0": "Current `_manager` address."
        }
      },
      "pendingOwner()": {
        "returns": {
          "_0": "Current `_pendingOwner` address."
        }
      },
      "pushPrizeDistribution(uint32,(uint8,uint8,uint32,uint32,uint32,uint136,uint32[16],uint256))": {
        "details": "Only callable by the owner or manager",
        "params": {
          "drawId": "Draw ID linked to PrizeDistribution parameters",
          "prizeDistribution": "PrizeDistribution parameters struct"
        }
      },
      "renounceOwnership()": {
        "details": "Leaves the contract without owner. It will not be possible to call `onlyOwner` functions anymore. Can only be called by the current owner. NOTE: Renouncing ownership will leave the contract without an owner, thereby removing any functionality that is only available to the owner."
      },
      "setManager(address)": {
        "details": "Throws if called by any account other than the owner.",
        "params": {
          "_newManager": "New _manager address."
        },
        "returns": {
          "_0": "Boolean to indicate if the operation was successful or not."
        }
      },
      "setPrizeDistribution(uint32,(uint8,uint8,uint32,uint32,uint32,uint136,uint32[16],uint256))": {
        "details": "Retroactively updates an existing PrizeDistribution and should be thought of as a \"safety\" fallback. If the manager is setting invalid PrizeDistribution parameters the Owner can update the invalid parameters with correct parameters.",
        "returns": {
          "_0": "drawId"
        }
      },
      "transferOwnership(address)": {
        "params": {
          "_newOwner": "Address to transfer ownership to."
        }
      }
    },
    "stateVariables": {
      "MAX_CARDINALITY": {
        "details": "even with daily draws, 256 will give us over 8 months of history."
      },
      "TIERS_CEILING": {
        "details": "It's fixed point 9 because 1e9 is the largest \"1\" that fits into 2**32"
      }
    },
    "title": "PoolTogether V4 PrizeDistributionBuffer",
    "version": 1
  },
  "userdoc": {
    "events": {
      "Deployed(uint8)": {
        "notice": "Emitted when the contract is deployed."
      },
      "PrizeDistributionSet(uint32,(uint8,uint8,uint32,uint32,uint32,uint136,uint32[16],uint256))": {
        "notice": "Emit when PrizeDistribution is set."
      }
    },
    "kind": "user",
    "methods": {
      "claimOwnership()": {
        "notice": "Allows the `_pendingOwner` address to finalize the transfer."
      },
      "constructor": {
        "notice": "Constructor for PrizeDistributionBuffer"
      },
      "getBufferCardinality()": {
        "notice": "Read a ring buffer cardinality"
      },
      "getNewestPrizeDistribution()": {
        "notice": "Read newest PrizeDistribution from prize distributions ring buffer."
      },
      "getOldestPrizeDistribution()": {
        "notice": "Read oldest PrizeDistribution from prize distributions ring buffer."
      },
      "getPrizeDistribution(uint32)": {
        "notice": "Gets the PrizeDistributionBuffer for a drawId"
      },
      "getPrizeDistributionCount()": {
        "notice": "Gets the number of PrizeDistributions stored in the prize distributions ring buffer."
      },
      "getPrizeDistributions(uint32[])": {
        "notice": "Gets PrizeDistribution list from array of drawIds"
      },
      "manager()": {
        "notice": "Gets current `_manager`."
      },
      "owner()": {
        "notice": "Returns the address of the current owner."
      },
      "pendingOwner()": {
        "notice": "Gets current `_pendingOwner`."
      },
      "pushPrizeDistribution(uint32,(uint8,uint8,uint32,uint32,uint32,uint136,uint32[16],uint256))": {
        "notice": "Adds new PrizeDistribution record to ring buffer storage."
      },
      "renounceOwnership()": {
        "notice": "Renounce ownership of the contract."
      },
      "setManager(address)": {
        "notice": "Set or change of manager."
      },
      "setPrizeDistribution(uint32,(uint8,uint8,uint32,uint32,uint32,uint136,uint32[16],uint256))": {
        "notice": "Sets existing PrizeDistribution with new PrizeDistribution parameters in ring buffer storage."
      },
      "transferOwnership(address)": {
        "notice": "Allows current owner to set the `_pendingOwner` address."
      }
    },
    "notice": "The PrizeDistributionBuffer contract provides historical lookups of PrizeDistribution struct parameters (linked with a Draw ID) via a circular ring buffer. Historical PrizeDistribution parameters can be accessed on-chain using a drawId to calculate ring buffer storage slot. The PrizeDistribution parameters can be created by manager/owner and existing PrizeDistribution parameters can only be updated the owner. When adding a new PrizeDistribution basic sanity checks will be used to validate the incoming parameters.",
    "version": 1
  },
  "storageLayout": {
    "storage": [
      {
        "astId": 2866,
        "contract": "@pooltogether/v4-core/contracts/PrizeDistributionBuffer.sol:PrizeDistributionBuffer",
        "label": "_owner",
        "offset": 0,
        "slot": "0",
        "type": "t_address"
      },
      {
        "astId": 2868,
        "contract": "@pooltogether/v4-core/contracts/PrizeDistributionBuffer.sol:PrizeDistributionBuffer",
        "label": "_pendingOwner",
        "offset": 0,
        "slot": "1",
        "type": "t_address"
      },
      {
        "astId": 2764,
        "contract": "@pooltogether/v4-core/contracts/PrizeDistributionBuffer.sol:PrizeDistributionBuffer",
        "label": "_manager",
        "offset": 0,
        "slot": "2",
        "type": "t_address"
      },
      {
        "astId": 5561,
        "contract": "@pooltogether/v4-core/contracts/PrizeDistributionBuffer.sol:PrizeDistributionBuffer",
        "label": "prizeDistributionRingBuffer",
        "offset": 0,
        "slot": "3",
        "type": "t_array(t_struct(PrizeDistribution)8210_storage)256_storage"
      },
      {
        "astId": 5565,
        "contract": "@pooltogether/v4-core/contracts/PrizeDistributionBuffer.sol:PrizeDistributionBuffer",
        "label": "bufferMetadata",
        "offset": 0,
        "slot": "1027",
        "type": "t_struct(Buffer)9012_storage"
      }
    ],
    "types": {
      "t_address": {
        "encoding": "inplace",
        "label": "address",
        "numberOfBytes": "20"
      },
      "t_array(t_struct(PrizeDistribution)8210_storage)256_storage": {
        "base": "t_struct(PrizeDistribution)8210_storage",
        "encoding": "inplace",
        "label": "struct IPrizeDistributionBuffer.PrizeDistribution[256]",
        "numberOfBytes": "32768"
      },
      "t_array(t_uint32)16_storage": {
        "base": "t_uint32",
        "encoding": "inplace",
        "label": "uint32[16]",
        "numberOfBytes": "64"
      },
      "t_struct(Buffer)9012_storage": {
        "encoding": "inplace",
        "label": "struct DrawRingBufferLib.Buffer",
        "members": [
          {
            "astId": 9007,
            "contract": "@pooltogether/v4-core/contracts/PrizeDistributionBuffer.sol:PrizeDistributionBuffer",
            "label": "lastDrawId",
            "offset": 0,
            "slot": "0",
            "type": "t_uint32"
          },
          {
            "astId": 9009,
            "contract": "@pooltogether/v4-core/contracts/PrizeDistributionBuffer.sol:PrizeDistributionBuffer",
            "label": "nextIndex",
            "offset": 4,
            "slot": "0",
            "type": "t_uint32"
          },
          {
            "astId": 9011,
            "contract": "@pooltogether/v4-core/contracts/PrizeDistributionBuffer.sol:PrizeDistributionBuffer",
            "label": "cardinality",
            "offset": 8,
            "slot": "0",
            "type": "t_uint32"
          }
        ],
        "numberOfBytes": "32"
      },
      "t_struct(PrizeDistribution)8210_storage": {
        "encoding": "inplace",
        "label": "struct IPrizeDistributionBuffer.PrizeDistribution",
        "members": [
          {
            "astId": 8193,
            "contract": "@pooltogether/v4-core/contracts/PrizeDistributionBuffer.sol:PrizeDistributionBuffer",
            "label": "bitRangeSize",
            "offset": 0,
            "slot": "0",
            "type": "t_uint8"
          },
          {
            "astId": 8195,
            "contract": "@pooltogether/v4-core/contracts/PrizeDistributionBuffer.sol:PrizeDistributionBuffer",
            "label": "matchCardinality",
            "offset": 1,
            "slot": "0",
            "type": "t_uint8"
          },
          {
            "astId": 8197,
            "contract": "@pooltogether/v4-core/contracts/PrizeDistributionBuffer.sol:PrizeDistributionBuffer",
            "label": "startTimestampOffset",
            "offset": 2,
            "slot": "0",
            "type": "t_uint32"
          },
          {
            "astId": 8199,
            "contract": "@pooltogether/v4-core/contracts/PrizeDistributionBuffer.sol:PrizeDistributionBuffer",
            "label": "endTimestampOffset",
            "offset": 6,
            "slot": "0",
            "type": "t_uint32"
          },
          {
            "astId": 8201,
            "contract": "@pooltogether/v4-core/contracts/PrizeDistributionBuffer.sol:PrizeDistributionBuffer",
            "label": "maxPicksPerUser",
            "offset": 10,
            "slot": "0",
            "type": "t_uint32"
          },
          {
            "astId": 8203,
            "contract": "@pooltogether/v4-core/contracts/PrizeDistributionBuffer.sol:PrizeDistributionBuffer",
            "label": "numberOfPicks",
            "offset": 14,
            "slot": "0",
            "type": "t_uint136"
          },
          {
            "astId": 8207,
            "contract": "@pooltogether/v4-core/contracts/PrizeDistributionBuffer.sol:PrizeDistributionBuffer",
            "label": "tiers",
            "offset": 0,
            "slot": "1",
            "type": "t_array(t_uint32)16_storage"
          },
          {
            "astId": 8209,
            "contract": "@pooltogether/v4-core/contracts/PrizeDistributionBuffer.sol:PrizeDistributionBuffer",
            "label": "prize",
            "offset": 0,
            "slot": "3",
            "type": "t_uint256"
          }
        ],
        "numberOfBytes": "128"
      },
      "t_uint136": {
        "encoding": "inplace",
        "label": "uint136",
        "numberOfBytes": "17"
      },
      "t_uint256": {
        "encoding": "inplace",
        "label": "uint256",
        "numberOfBytes": "32"
      },
      "t_uint32": {
        "encoding": "inplace",
        "label": "uint32",
        "numberOfBytes": "4"
      },
      "t_uint8": {
        "encoding": "inplace",
        "label": "uint8",
        "numberOfBytes": "1"
      }
    }
  }
}