{
  "address": "0xA76d751eF81E5bb5F7C5777D999f8F4a611151cB",
  "abi": [
    {
      "inputs": [
        {
          "internalType": "address",
          "name": "_owner",
          "type": "address"
        },
        {
          "internalType": "contract ITicket",
          "name": "_ticket",
          "type": "address"
        },
        {
          "internalType": "contract IDrawBuffer",
          "name": "_drawBuffer",
          "type": "address"
        },
        {
          "internalType": "contract IPrizeDistributionBuffer",
          "name": "_prizeDistributionBuffer",
          "type": "address"
        }
      ],
      "stateMutability": "nonpayable",
      "type": "constructor"
    },
    {
      "anonymous": false,
      "inputs": [
        {
          "indexed": true,
          "internalType": "contract ITicket",
          "name": "ticket",
          "type": "address"
        },
        {
          "indexed": true,
          "internalType": "contract IDrawBuffer",
          "name": "drawBuffer",
          "type": "address"
        },
        {
          "indexed": true,
          "internalType": "contract IPrizeDistributionBuffer",
          "name": "prizeDistributionBuffer",
          "type": "address"
        }
      ],
      "name": "Deployed",
      "type": "event"
    },
    {
      "anonymous": false,
      "inputs": [
        {
          "indexed": true,
          "internalType": "address",
          "name": "pendingOwner",
          "type": "address"
        }
      ],
      "name": "OwnershipOffered",
      "type": "event"
    },
    {
      "anonymous": false,
      "inputs": [
        {
          "indexed": true,
          "internalType": "address",
          "name": "previousOwner",
          "type": "address"
        },
        {
          "indexed": true,
          "internalType": "address",
          "name": "newOwner",
          "type": "address"
        }
      ],
      "name": "OwnershipTransferred",
      "type": "event"
    },
    {
      "anonymous": false,
      "inputs": [
        {
          "indexed": true,
          "internalType": "contract PrizeDistributor",
          "name": "prizeDistributor",
          "type": "address"
        }
      ],
      "name": "PrizeDistributorSet",
      "type": "event"
    },
    {
      "inputs": [],
      "name": "TIERS_LENGTH",
      "outputs": [
        {
          "internalType": "uint8",
          "name": "",
          "type": "uint8"
        }
      ],
      "stateMutability": "view",
      "type": "function"
    },
    {
      "inputs": [
        {
          "internalType": "address",
          "name": "_user",
          "type": "address"
        },
        {
          "internalType": "uint32[]",
          "name": "_drawIds",
          "type": "uint32[]"
        },
        {
          "internalType": "bytes",
          "name": "_pickIndicesForDraws",
          "type": "bytes"
        }
      ],
      "name": "calculate",
      "outputs": [
        {
          "internalType": "uint256[]",
          "name": "",
          "type": "uint256[]"
        },
        {
          "internalType": "bytes",
          "name": "",
          "type": "bytes"
        }
      ],
      "stateMutability": "view",
      "type": "function"
    },
    {
      "inputs": [],
      "name": "claimOwnership",
      "outputs": [],
      "stateMutability": "nonpayable",
      "type": "function"
    },
    {
      "inputs": [],
      "name": "drawBuffer",
      "outputs": [
        {
          "internalType": "contract IDrawBuffer",
          "name": "",
          "type": "address"
        }
      ],
      "stateMutability": "view",
      "type": "function"
    },
    {
      "inputs": [],
      "name": "getDrawBuffer",
      "outputs": [
        {
          "internalType": "contract IDrawBuffer",
          "name": "",
          "type": "address"
        }
      ],
      "stateMutability": "view",
      "type": "function"
    },
    {
      "inputs": [
        {
          "internalType": "address",
          "name": "_user",
          "type": "address"
        },
        {
          "internalType": "uint32[]",
          "name": "_drawIds",
          "type": "uint32[]"
        }
      ],
      "name": "getNormalizedBalancesForDrawIds",
      "outputs": [
        {
          "internalType": "uint256[]",
          "name": "",
          "type": "uint256[]"
        }
      ],
      "stateMutability": "view",
      "type": "function"
    },
    {
      "inputs": [],
      "name": "getPrizeDistributionBuffer",
      "outputs": [
        {
          "internalType": "contract IPrizeDistributionBuffer",
          "name": "",
          "type": "address"
        }
      ],
      "stateMutability": "view",
      "type": "function"
    },
    {
      "inputs": [],
      "name": "owner",
      "outputs": [
        {
          "internalType": "address",
          "name": "",
          "type": "address"
        }
      ],
      "stateMutability": "view",
      "type": "function"
    },
    {
      "inputs": [],
      "name": "pendingOwner",
      "outputs": [
        {
          "internalType": "address",
          "name": "",
          "type": "address"
        }
      ],
      "stateMutability": "view",
      "type": "function"
    },
    {
      "inputs": [],
      "name": "prizeDistributionBuffer",
      "outputs": [
        {
          "internalType": "contract IPrizeDistributionBuffer",
          "name": "",
          "type": "address"
        }
      ],
      "stateMutability": "view",
      "type": "function"
    },
    {
      "inputs": [],
      "name": "renounceOwnership",
      "outputs": [],
      "stateMutability": "nonpayable",
      "type": "function"
    },
    {
      "inputs": [],
      "name": "ticket",
      "outputs": [
        {
          "internalType": "contract ITicket",
          "name": "",
          "type": "address"
        }
      ],
      "stateMutability": "view",
      "type": "function"
    },
    {
      "inputs": [
        {
          "internalType": "address",
          "name": "_newOwner",
          "type": "address"
        }
      ],
      "name": "transferOwnership",
      "outputs": [],
      "stateMutability": "nonpayable",
      "type": "function"
    }
  ],
  "transactionHash": "0xcf5c7eef73a7ca4ce9d0ce6de323430140b3b80123dd8896d6694a247a0162b9",
  "args": [
    "0xE0F4217390221aF47855E094F6e112D43C8698fE",
    "0x2b25fA7Aa97c8cA866098dB2d3f2777E0728cE54",
    "0xFa3e81F18dA442706fF68149E3656A86Fbe5Ad4c",
    "0xb18d2BC0230B028eE96D1951bD85cB4b9045ec0B"
  ],
  "solcInputHash": "0617a234d0b660aa82c51becdcd2311f",
  "bytecode": "0x60e06040523480156200001157600080fd5b506040516200245c3803806200245c833981016040819052620000349162000205565b836200004081620001b5565b506001600160a01b0383166200009d5760405162461bcd60e51b815260206004820152601860248201527f4472617743616c632f7469636b65742d6e6f742d7a65726f000000000000000060448201526064015b60405180910390fd5b6001600160a01b038116620000f55760405162461bcd60e51b815260206004820152601560248201527f4472617743616c632f7064622d6e6f742d7a65726f0000000000000000000000604482015260640162000094565b6001600160a01b0382166200014d5760405162461bcd60e51b815260206004820152601460248201527f4472617743616c632f64682d6e6f742d7a65726f000000000000000000000000604482015260640162000094565b6001600160601b0319606084811b821660a05283811b821660805282901b1660c0526040516001600160a01b0382811691848216918616907fc95935a66d15e0da5e412aca0ad27ae891d20b2fb91cf3994b6a3bf2b817808290600090a45050505062000286565b600080546001600160a01b038381166001600160a01b0319831681178455604051919092169283917f8be0079c531659141344cd1fd0a4f28419497f9722a3daafe3b4186f6b6457e09190a35050565b600080600080608085870312156200021c57600080fd5b845162000229816200026d565b60208601519094506200023c816200026d565b60408601519093506200024f816200026d565b606086015190925062000262816200026d565b939692955090935050565b6001600160a01b03811681146200028357600080fd5b50565b60805160601c60a05160601c60c05160601c612166620002f66000396000818160e9015281816101db01528181610418015261061e01526000818161015d01528181610ac90152610b5c01526000818161012a0152818161020401528181610372015261058d01526121666000f3fe608060405234801561001057600080fd5b50600436106100df5760003560e01c80638da5cb5b1161008c578063ce343bb611610066578063ce343bb6146101ff578063e30c397814610226578063f2fde38b14610237578063f8d0ca4c1461024a57600080fd5b80638da5cb5b146101a7578063aaca392e146101b8578063bd97a252146101d957600080fd5b80636cc25db7116100bd5780636cc25db714610158578063715018a61461017f5780638045fbcf1461018757600080fd5b80630840bbdd146100e45780634019f2d6146101285780634e71e0c81461014e575b600080fd5b61010b7f000000000000000000000000000000000000000000000000000000000000000081565b6040516001600160a01b0390911681526020015b60405180910390f35b7f000000000000000000000000000000000000000000000000000000000000000061010b565b610156610264565b005b61010b7f000000000000000000000000000000000000000000000000000000000000000081565b6101566102f7565b61019a6101953660046116ed565b61036c565b60405161011f9190611ceb565b6000546001600160a01b031661010b565b6101cb6101c6366004611740565b6104d1565b60405161011f929190611cfe565b7f000000000000000000000000000000000000000000000000000000000000000061010b565b61010b7f000000000000000000000000000000000000000000000000000000000000000081565b6001546001600160a01b031661010b565b6101566102453660046116d2565b61073d565b610252601081565b60405160ff909116815260200161011f565b6001546001600160a01b031633146102c35760405162461bcd60e51b815260206004820152601f60248201527f4f776e61626c652f63616c6c65722d6e6f742d70656e64696e674f776e65720060448201526064015b60405180910390fd5b6001546102d8906001600160a01b0316610879565b6001805473ffffffffffffffffffffffffffffffffffffffff19169055565b3361030a6000546001600160a01b031690565b6001600160a01b0316146103605760405162461bcd60e51b815260206004820152601860248201527f4f776e61626c652f63616c6c65722d6e6f742d6f776e6572000000000000000060448201526064016102ba565b61036a6000610879565b565b606060007f00000000000000000000000000000000000000000000000000000000000000006001600160a01b031663d0bb78f385856040518363ffffffff1660e01b81526004016103be929190611d63565b60006040518083038186803b1580156103d657600080fd5b505afa1580156103ea573d6000803e3d6000fd5b505050506040513d6000823e601f3d908101601f19168201604052610412919081019061190b565b905060007f00000000000000000000000000000000000000000000000000000000000000006001600160a01b031663d30a5daf86866040518363ffffffff1660e01b8152600401610464929190611d63565b60006040518083038186803b15801561047c57600080fd5b505afa158015610490573d6000803e3d6000fd5b505050506040513d6000823e601f3d908101601f191682016040526104b89190810190611a06565b90506104c58683836108d6565b925050505b9392505050565b60608060006104e2848601866117eb565b8051909150861461055a5760405162461bcd60e51b8152602060048201526024808201527f4472617743616c632f696e76616c69642d7069636b2d696e64696365732d6c6560448201527f6e6774680000000000000000000000000000000000000000000000000000000060648201526084016102ba565b6040517fd0bb78f30000000000000000000000000000000000000000000000000000000081526000906001600160a01b037f0000000000000000000000000000000000000000000000000000000000000000169063d0bb78f3906105c4908b908b90600401611d63565b60006040518083038186803b1580156105dc57600080fd5b505afa1580156105f0573d6000803e3d6000fd5b505050506040513d6000823e601f3d908101601f19168201604052610618919081019061190b565b905060007f00000000000000000000000000000000000000000000000000000000000000006001600160a01b031663d30a5daf8a8a6040518363ffffffff1660e01b815260040161066a929190611d63565b60006040518083038186803b15801561068257600080fd5b505afa158015610696573d6000803e3d6000fd5b505050506040513d6000823e601f3d908101601f191682016040526106be9190810190611a06565b905060006106cd8b84846108d6565b6040517fffffffffffffffffffffffffffffffffffffffff00000000000000000000000060608e901b16602082015290915060009060340160405160208183030381529060405280519060200120905061072a8282868887610d28565b9650965050505050509550959350505050565b336107506000546001600160a01b031690565b6001600160a01b0316146107a65760405162461bcd60e51b815260206004820152601860248201527f4f776e61626c652f63616c6c65722d6e6f742d6f776e6572000000000000000060448201526064016102ba565b6001600160a01b0381166108225760405162461bcd60e51b815260206004820152602560248201527f4f776e61626c652f70656e64696e674f776e65722d6e6f742d7a65726f2d616460448201527f647265737300000000000000000000000000000000000000000000000000000060648201526084016102ba565b6001805473ffffffffffffffffffffffffffffffffffffffff19166001600160a01b0383169081179091556040517f239a2ddded15777fa246aed5f7e1a9bc69a39d4eb4a397034d1d85766cca7d4c90600090a250565b600080546001600160a01b0383811673ffffffffffffffffffffffffffffffffffffffff19831681178455604051919092169283917f8be0079c531659141344cd1fd0a4f28419497f9722a3daafe3b4186f6b6457e09190a35050565b60606000835167ffffffffffffffff8111156108f4576108f46120ef565b60405190808252806020026020018201604052801561091d578160200160208202803683370190505b5090506000845167ffffffffffffffff81111561093c5761093c6120ef565b604051908082528060200260200182016040528015610965578160200160208202803683370190505b50905060005b85518163ffffffff161015610a9557848163ffffffff1681518110610992576109926120d9565b60200260200101516040015163ffffffff16868263ffffffff16815181106109bc576109bc6120d9565b60200260200101516040015103838263ffffffff16815181106109e1576109e16120d9565b602002602001019067ffffffffffffffff16908167ffffffffffffffff1681525050848163ffffffff1681518110610a1b57610a1b6120d9565b60200260200101516060015163ffffffff16868263ffffffff1681518110610a4557610a456120d9565b60200260200101516040015103828263ffffffff1681518110610a6a57610a6a6120d9565b67ffffffffffffffff9092166020928302919091019091015280610a8d8161207f565b91505061096b565b506040517f68c7fd570000000000000000000000000000000000000000000000000000000081526000906001600160a01b037f000000000000000000000000000000000000000000000000000000000000000016906368c7fd5790610b02908a9087908790600401611c2d565b60006040518083038186803b158015610b1a57600080fd5b505afa158015610b2e573d6000803e3d6000fd5b505050506040513d6000823e601f3d908101601f19168201604052610b569190810190611b20565b905060007f00000000000000000000000000000000000000000000000000000000000000006001600160a01b0316638e6d536a85856040518363ffffffff1660e01b8152600401610ba8929190611dae565b60006040518083038186803b158015610bc057600080fd5b505afa158015610bd4573d6000803e3d6000fd5b505050506040513d6000823e601f3d908101601f19168201604052610bfc9190810190611b20565b90506000875167ffffffffffffffff811115610c1a57610c1a6120ef565b604051908082528060200260200182016040528015610c43578160200160208202803683370190505b50905060005b8851811015610d1b57828181518110610c6457610c646120d9565b602002602001015160001415610c99576000828281518110610c8857610c886120d9565b602002602001018181525050610d09565b828181518110610cab57610cab6120d9565b6020026020010151848281518110610cc557610cc56120d9565b6020026020010151670de0b6b3a7640000610ce09190611fcf565b610cea9190611eb2565b828281518110610cfc57610cfc6120d9565b6020026020010181815250505b80610d1381612064565b915050610c49565b5098975050505050505050565b6060806000875167ffffffffffffffff811115610d4757610d476120ef565b604051908082528060200260200182016040528015610d70578160200160208202803683370190505b5090506000885167ffffffffffffffff811115610d8f57610d8f6120ef565b604051908082528060200260200182016040528015610dc257816020015b6060815260200190600190039081610dad5790505b50905060005b87518163ffffffff161015610ef4576000610e21878363ffffffff1681518110610df457610df46120d9565b60200260200101518c8463ffffffff1681518110610e1457610e146120d9565b6020026020010151610f26565b9050610e9b898363ffffffff1681518110610e3e57610e3e6120d9565b6020026020010151600001518267ffffffffffffffff168c8b8663ffffffff1681518110610e6e57610e6e6120d9565b60200260200101518b8763ffffffff1681518110610e8e57610e8e6120d9565b6020026020010151610f67565b858463ffffffff1681518110610eb357610eb36120d9565b60200260200101858563ffffffff1681518110610ed257610ed26120d9565b6020908102919091010191909152525080610eec8161207f565b915050610dc8565b5080604051602001610f069190611c6b565b604051602081830303815290604052925081935050509550959350505050565b6000670de0b6b3a76400008360a0015170ffffffffffffffffffffffffffffffffff1683610f549190611fcf565b610f5e9190611eb2565b90505b92915050565b600060606000610f76846112eb565b85516040805160108082526102208201909252929350909160009160208201610200803683370190505090506000866080015163ffffffff168363ffffffff1611156110045760405162461bcd60e51b815260206004820152601f60248201527f4472617743616c632f657863656564732d6d61782d757365722d7069636b730060448201526064016102ba565b60005b8363ffffffff168163ffffffff16101561121c578a898263ffffffff1681518110611034576110346120d9565b602002602001015167ffffffffffffffff16106110935760405162461bcd60e51b815260206004820181905260248201527f4472617743616c632f696e73756666696369656e742d757365722d7069636b7360448201526064016102ba565b63ffffffff81161561114a57886110ab600183612005565b63ffffffff16815181106110c1576110c16120d9565b602002602001015167ffffffffffffffff16898263ffffffff16815181106110eb576110eb6120d9565b602002602001015167ffffffffffffffff161161114a5760405162461bcd60e51b815260206004820152601860248201527f4472617743616c632f7069636b732d617363656e64696e67000000000000000060448201526064016102ba565b60008a8a8363ffffffff1681518110611165576111656120d9565b602002602001015160405160200161119192919091825267ffffffffffffffff16602082015260400190565b6040516020818303038152906040528051906020012060001c905060006111b9828f896113cb565b9050601060ff82161015611207578360ff168160ff1611156111d9578093505b848160ff16815181106111ee576111ee6120d9565b60200260200101805180919061120390612064565b9052505b505080806112149061207f565b915050611007565b5060008061122a898461144f565b905060005b8360ff1681116112b857600085828151811061124d5761124d6120d9565b602002602001015111156112a65784818151811061126d5761126d6120d9565b6020026020010151828281518110611287576112876120d9565b60200260200101516112999190611fcf565b6112a39084611e75565b92505b806112b081612064565b91505061122f565b50633b9aca008960e00151836112ce9190611fcf565b6112d89190611eb2565b9d939c50929a5050505050505050505050565b60606000826020015160ff1667ffffffffffffffff81111561130f5761130f6120ef565b604051908082528060200260200182016040528015611338578160200160208202803683370190505b50905060006001846000015160026113509190611f23565b61135a9190611fee565b905060005b846020015160ff168160ff1610156113c2576000856000015160ff168260ff166113899190611fcf565b90508083901b848360ff16815181106113a4576113a46120d9565b602090810291909101015250806113ba816120a3565b91505061135f565b50909392505050565b80516000908190815b8160ff168160ff161015611444576000858260ff16815181106113f9576113f96120d9565b602002602001015190508087168189161461142357611418848461202a565b9450505050506104ca565b8361142d816120a3565b94505050808061143c906120a3565b9150506113d4565b506104c5828261202a565b6060600061145e836001611e8d565b60ff1667ffffffffffffffff811115611479576114796120ef565b6040519080825280602002602001820160405280156114a2578160200160208202803683370190505b50905060005b8360ff168160ff16116114f4576114c2858260ff166114fc565b828260ff16815181106114d7576114d76120d9565b6020908102919091010152806114ec816120a3565b9150506114a8565b509392505050565b6000808360c001518360108110611515576115156120d9565b602002015163ffffffff1690506000611532856000015185611547565b905061153e8183611eb2565b95945050505050565b60008061155860ff85166002611f17565b905060006115668483611f17565b90505b83156115a25761157a600185611fee565b6115849083611f17565b61158e9082611fee565b90508361159a8161204d565b945050611569565b949350505050565b80356001600160a01b03811681146115c157600080fd5b919050565b600082601f8301126115d757600080fd5b60405161020080820182811067ffffffffffffffff821117156115fc576115fc6120ef565b604052818482810187101561161057600080fd5b600092505b601083101561163e57805161162981612105565b82526001929092019160209182019101611615565b509195945050505050565b60008083601f84011261165b57600080fd5b50813567ffffffffffffffff81111561167357600080fd5b6020830191508360208260051b850101111561168e57600080fd5b9250929050565b805170ffffffffffffffffffffffffffffffffff811681146115c157600080fd5b80516115c181612105565b805160ff811681146115c157600080fd5b6000602082840312156116e457600080fd5b610f5e826115aa565b60008060006040848603121561170257600080fd5b61170b846115aa565b9250602084013567ffffffffffffffff81111561172757600080fd5b61173386828701611649565b9497909650939450505050565b60008060008060006060868803121561175857600080fd5b611761866115aa565b9450602086013567ffffffffffffffff8082111561177e57600080fd5b61178a89838a01611649565b909650945060408801359150808211156117a357600080fd5b818801915088601f8301126117b757600080fd5b8135818111156117c657600080fd5b8960208285010111156117d857600080fd5b9699959850939650602001949392505050565b600060208083850312156117fe57600080fd5b823567ffffffffffffffff8082111561181657600080fd5b818501915085601f83011261182a57600080fd5b813561183d61183882611e51565b611e20565b80828252858201915085850189878560051b880101111561185d57600080fd5b60005b848110156118fc5781358681111561187757600080fd5b8701603f81018c1361188857600080fd5b8881013561189861183882611e51565b808282528b82019150604084018f60408560051b87010111156118ba57600080fd5b600094505b838510156118e65780356118d28161211a565b835260019490940193918c01918c016118bf565b5087525050509287019290870190600101611860565b50909998505050505050505050565b6000602080838503121561191e57600080fd5b825167ffffffffffffffff81111561193557600080fd5b8301601f8101851361194657600080fd5b805161195461183882611e51565b8181528381019083850160a0808502860187018a101561197357600080fd5b60009550855b858110156119f75781838c03121561198f578687fd5b611997611dd3565b83518152888401516119a881612105565b818a01526040848101516119bb8161211a565b908201526060848101516119ce8161211a565b908201526080848101516119e181612105565b9082015285529387019391810191600101611979565b50919998505050505050505050565b60006020808385031215611a1957600080fd5b825167ffffffffffffffff811115611a3057600080fd5b8301601f81018513611a4157600080fd5b8051611a4f61183882611e51565b818152838101908385016102e0808502860187018a1015611a6f57600080fd5b60009550855b858110156119f75781838c031215611a8b578687fd5b611a93611dfc565b611a9c846116c1565b8152611aa98985016116c1565b898201526040611aba8186016116b6565b908201526060611acb8582016116b6565b908201526080611adc8582016116b6565b9082015260a0611aed858201611695565b9082015260c0611aff8d8683016115c6565b908201526102c084015160e082015285529387019391810191600101611a75565b60006020808385031215611b3357600080fd5b825167ffffffffffffffff811115611b4a57600080fd5b8301601f81018513611b5b57600080fd5b8051611b6961183882611e51565b80828252848201915084840188868560051b8701011115611b8957600080fd5b600094505b83851015611bac578051835260019490940193918501918501611b8e565b50979650505050505050565b600081518084526020808501945080840160005b83811015611be857815187529582019590820190600101611bcc565b509495945050505050565b600081518084526020808501945080840160005b83811015611be857815167ffffffffffffffff1687529582019590820190600101611c07565b6001600160a01b0384168152606060208201526000611c4f6060830185611bf3565b8281036040840152611c618185611bf3565b9695505050505050565b6000602080830181845280855180835260408601915060408160051b870101925083870160005b82811015611cde577fffffffffffffffffffffffffffffffffffffffffffffffffffffffffffffffc0888603018452611ccc858351611bb8565b94509285019290850190600101611c92565b5092979650505050505050565b602081526000610f5e6020830184611bb8565b604081526000611d116040830185611bb8565b602083820381850152845180835260005b81811015611d3d578681018301518482018401528201611d22565b81811115611d4e5760008383860101525b50601f01601f19169190910101949350505050565b60208082528181018390526000908460408401835b86811015611da3578235611d8b81612105565b63ffffffff1682529183019190830190600101611d78565b509695505050505050565b604081526000611dc16040830185611bf3565b828103602084015261153e8185611bf3565b60405160a0810167ffffffffffffffff81118282101715611df657611df66120ef565b60405290565b604051610100810167ffffffffffffffff81118282101715611df657611df66120ef565b604051601f8201601f1916810167ffffffffffffffff81118282101715611e4957611e496120ef565b604052919050565b600067ffffffffffffffff821115611e6b57611e6b6120ef565b5060051b60200190565b60008219821115611e8857611e886120c3565b500190565b600060ff821660ff84168060ff03821115611eaa57611eaa6120c3565b019392505050565b600082611ecf57634e487b7160e01b600052601260045260246000fd5b500490565b600181815b80851115611f0f578160001904821115611ef557611ef56120c3565b80851615611f0257918102915b93841c9390800290611ed9565b509250929050565b6000610f5e8383611f2e565b6000610f5e60ff8416835b600082611f3d57506001610f61565b81611f4a57506000610f61565b8160018114611f605760028114611f6a57611f86565b6001915050610f61565b60ff841115611f7b57611f7b6120c3565b50506001821b610f61565b5060208310610133831016604e8410600b8410161715611fa9575081810a610f61565b611fb38383611ed4565b8060001904821115611fc757611fc76120c3565b029392505050565b6000816000190483118215151615611fe957611fe96120c3565b500290565b600082821015612000576120006120c3565b500390565b600063ffffffff83811690831681811015612022576120226120c3565b039392505050565b600060ff821660ff841680821015612044576120446120c3565b90039392505050565b60008161205c5761205c6120c3565b506000190190565b6000600019821415612078576120786120c3565b5060010190565b600063ffffffff80831681811415612099576120996120c3565b6001019392505050565b600060ff821660ff8114156120ba576120ba6120c3565b60010192915050565b634e487b7160e01b600052601160045260246000fd5b634e487b7160e01b600052603260045260246000fd5b634e487b7160e01b600052604160045260246000fd5b63ffffffff8116811461211757600080fd5b50565b67ffffffffffffffff8116811461211757600080fdfea2646970667358221220d13545295ee7e940ff4a12b440b8dc97a5b089666313566839c05062b5e3278864736f6c63430008060033",
  "devdoc": {
    "author": "PoolTogether Inc Team",
    "kind": "dev",
    "methods": {
      "calculate(address,uint32[],bytes)": {
        "params": {
          "data": "The ABI encoded pick indices for all Draws. Expected to be winning picks. Pick indices must be less than the totalUserPicks.",
          "drawIds": "drawId array for which to calculate prize amounts for.",
          "user": "User for which to calculate prize amount."
        },
        "returns": {
          "_0": "List of awardable prize amounts ordered by drawId."
        }
      },
      "claimOwnership()": {
        "details": "This function is only callable by the `_pendingOwner`."
      },
      "constructor": {
        "params": {
          "_drawBuffer": "The address of the draw buffer to push draws to",
          "_owner": "Address of the DrawCalculator owner",
          "_prizeDistributionBuffer": "PrizeDistributionBuffer address",
          "_ticket": "Ticket associated with this DrawCalculator"
        }
      },
      "getDrawBuffer()": {
        "returns": {
          "_0": "IDrawBuffer"
        }
      },
      "getNormalizedBalancesForDrawIds(address,uint32[])": {
        "params": {
          "drawIds": "The drawsId to consider",
          "user": "The users address"
        },
        "returns": {
          "_0": "Array of balances"
        }
      },
      "getPrizeDistributionBuffer()": {
        "returns": {
          "_0": "IDrawBuffer"
        }
      },
      "pendingOwner()": {
        "returns": {
          "_0": "Current `_pendingOwner` address."
        }
      },
      "renounceOwnership()": {
        "details": "Leaves the contract without owner. It will not be possible to call `onlyOwner` functions anymore. Can only be called by the current owner. NOTE: Renouncing ownership will leave the contract without an owner, thereby removing any functionality that is only available to the owner."
      },
      "transferOwnership(address)": {
        "params": {
          "_newOwner": "Address to transfer ownership to."
        }
      }
    },
    "title": "PoolTogether V4 DrawCalculator",
    "version": 1
  },
  "userdoc": {
    "events": {
      "Deployed(address,address,address)": {
        "notice": "Emitted when the contract is initialized"
      },
      "PrizeDistributorSet(address)": {
        "notice": "Emitted when the prizeDistributor is set/updated"
      }
    },
    "kind": "user",
    "methods": {
      "TIERS_LENGTH()": {
        "notice": "The tiers array length"
      },
      "calculate(address,uint32[],bytes)": {
        "notice": "Calculates the prize amount for a user for Multiple Draws. Typically called by a PrizeDistributor."
      },
      "claimOwnership()": {
        "notice": "Allows the `_pendingOwner` address to finalize the transfer."
      },
      "constructor": {
        "notice": "Constructor for DrawCalculator"
      },
      "drawBuffer()": {
        "notice": "DrawBuffer address"
      },
      "getDrawBuffer()": {
        "notice": "Read global DrawBuffer variable."
      },
      "getNormalizedBalancesForDrawIds(address,uint32[])": {
        "notice": "Returns a users balances expressed as a fraction of the total supply over time."
      },
      "getPrizeDistributionBuffer()": {
        "notice": "Read global DrawBuffer variable."
      },
      "owner()": {
        "notice": "Returns the address of the current owner."
      },
      "pendingOwner()": {
        "notice": "Gets current `_pendingOwner`."
      },
      "prizeDistributionBuffer()": {
        "notice": "The stored history of draw settings.  Stored as ring buffer."
      },
      "renounceOwnership()": {
        "notice": "Renounce ownership of the contract."
      },
      "ticket()": {
        "notice": "Ticket associated with DrawCalculator"
      },
      "transferOwnership(address)": {
        "notice": "Allows current owner to set the `_pendingOwner` address."
      }
    },
    "notice": "The DrawCalculator calculates a user's prize by matching a winning random number against their picks. A users picks are generated deterministically based on their address and balance of tickets held. Prize payouts are divided into multiple tiers: grand prize, second place, etc... A user with a higher average weighted balance (during each draw period) will be given a large number of picks to choose from, and thus a higher chance to match the winning numbers.",
    "version": 1
  },
  "storageLayout": {
    "storage": [
      {
        "astId": 2866,
        "contract": "@pooltogether/v4-core/contracts/DrawCalculator.sol:DrawCalculator",
        "label": "_owner",
        "offset": 0,
        "slot": "0",
        "type": "t_address"
      },
      {
        "astId": 2868,
        "contract": "@pooltogether/v4-core/contracts/DrawCalculator.sol:DrawCalculator",
        "label": "_pendingOwner",
        "offset": 0,
        "slot": "1",
        "type": "t_address"
      }
    ],
    "types": {
      "t_address": {
        "encoding": "inplace",
        "label": "address",
        "numberOfBytes": "20"
      }
    }
  }
}