{
  "address": "0x4844e7f933Fdb0083c144eb0D9013e71D2003b84",
  "abi": [
    {
      "inputs": [
        {
          "internalType": "address",
          "name": "_owner",
          "type": "address"
        },
        {
          "internalType": "contract IERC20",
          "name": "_token",
          "type": "address"
        },
        {
          "internalType": "contract IDrawCalculator",
          "name": "_drawCalculator",
          "type": "address"
        }
      ],
      "stateMutability": "nonpayable",
      "type": "constructor"
    },
    {
      "anonymous": false,
      "inputs": [
        {
          "indexed": true,
          "internalType": "address",
          "name": "user",
          "type": "address"
        },
        {
          "indexed": true,
          "internalType": "uint32",
          "name": "drawId",
          "type": "uint32"
        },
        {
          "indexed": false,
          "internalType": "uint256",
          "name": "payout",
          "type": "uint256"
        }
      ],
      "name": "ClaimedDraw",
      "type": "event"
    },
    {
      "anonymous": false,
      "inputs": [
        {
          "indexed": true,
          "internalType": "contract IDrawCalculator",
          "name": "calculator",
          "type": "address"
        }
      ],
      "name": "DrawCalculatorSet",
      "type": "event"
    },
    {
      "anonymous": false,
      "inputs": [
        {
          "indexed": true,
          "internalType": "contract IERC20",
          "name": "token",
          "type": "address"
        },
        {
          "indexed": true,
          "internalType": "address",
          "name": "to",
          "type": "address"
        },
        {
          "indexed": false,
          "internalType": "uint256",
          "name": "amount",
          "type": "uint256"
        }
      ],
      "name": "ERC20Withdrawn",
      "type": "event"
    },
    {
      "anonymous": false,
      "inputs": [
        {
          "indexed": true,
          "internalType": "address",
          "name": "pendingOwner",
          "type": "address"
        }
      ],
      "name": "OwnershipOffered",
      "type": "event"
    },
    {
      "anonymous": false,
      "inputs": [
        {
          "indexed": true,
          "internalType": "address",
          "name": "previousOwner",
          "type": "address"
        },
        {
          "indexed": true,
          "internalType": "address",
          "name": "newOwner",
          "type": "address"
        }
      ],
      "name": "OwnershipTransferred",
      "type": "event"
    },
    {
      "anonymous": false,
      "inputs": [
        {
          "indexed": true,
          "internalType": "contract IERC20",
          "name": "token",
          "type": "address"
        }
      ],
      "name": "TokenSet",
      "type": "event"
    },
    {
      "inputs": [
        {
          "internalType": "address",
          "name": "_user",
          "type": "address"
        },
        {
          "internalType": "uint32[]",
          "name": "_drawIds",
          "type": "uint32[]"
        },
        {
          "internalType": "bytes",
          "name": "_data",
          "type": "bytes"
        }
      ],
      "name": "claim",
      "outputs": [
        {
          "internalType": "uint256",
          "name": "",
          "type": "uint256"
        }
      ],
      "stateMutability": "nonpayable",
      "type": "function"
    },
    {
      "inputs": [],
      "name": "claimOwnership",
      "outputs": [],
      "stateMutability": "nonpayable",
      "type": "function"
    },
    {
      "inputs": [],
      "name": "getDrawCalculator",
      "outputs": [
        {
          "internalType": "contract IDrawCalculator",
          "name": "",
          "type": "address"
        }
      ],
      "stateMutability": "view",
      "type": "function"
    },
    {
      "inputs": [
        {
          "internalType": "address",
          "name": "_user",
          "type": "address"
        },
        {
          "internalType": "uint32",
          "name": "_drawId",
          "type": "uint32"
        }
      ],
      "name": "getDrawPayoutBalanceOf",
      "outputs": [
        {
          "internalType": "uint256",
          "name": "",
          "type": "uint256"
        }
      ],
      "stateMutability": "view",
      "type": "function"
    },
    {
      "inputs": [],
      "name": "getToken",
      "outputs": [
        {
          "internalType": "contract IERC20",
          "name": "",
          "type": "address"
        }
      ],
      "stateMutability": "view",
      "type": "function"
    },
    {
      "inputs": [],
      "name": "owner",
      "outputs": [
        {
          "internalType": "address",
          "name": "",
          "type": "address"
        }
      ],
      "stateMutability": "view",
      "type": "function"
    },
    {
      "inputs": [],
      "name": "pendingOwner",
      "outputs": [
        {
          "internalType": "address",
          "name": "",
          "type": "address"
        }
      ],
      "stateMutability": "view",
      "type": "function"
    },
    {
      "inputs": [],
      "name": "renounceOwnership",
      "outputs": [],
      "stateMutability": "nonpayable",
      "type": "function"
    },
    {
      "inputs": [
        {
          "internalType": "contract IDrawCalculator",
          "name": "_newCalculator",
          "type": "address"
        }
      ],
      "name": "setDrawCalculator",
      "outputs": [
        {
          "internalType": "contract IDrawCalculator",
          "name": "",
          "type": "address"
        }
      ],
      "stateMutability": "nonpayable",
      "type": "function"
    },
    {
      "inputs": [
        {
          "internalType": "address",
          "name": "_newOwner",
          "type": "address"
        }
      ],
      "name": "transferOwnership",
      "outputs": [],
      "stateMutability": "nonpayable",
      "type": "function"
    },
    {
      "inputs": [
        {
          "internalType": "contract IERC20",
          "name": "_erc20Token",
          "type": "address"
        },
        {
          "internalType": "address",
          "name": "_to",
          "type": "address"
        },
        {
          "internalType": "uint256",
          "name": "_amount",
          "type": "uint256"
        }
      ],
      "name": "withdrawERC20",
      "outputs": [
        {
          "internalType": "bool",
          "name": "",
          "type": "bool"
        }
      ],
      "stateMutability": "nonpayable",
      "type": "function"
    }
  ],
  "transactionHash": "0xc109880395bbbdd43034ecb1b5a8c6981b9ee44e5b6cc0287c6f789ac248576a",
  "args": [
    "0xE0F4217390221aF47855E094F6e112D43C8698fE",
    "0x2b25fA7Aa97c8cA866098dB2d3f2777E0728cE54",
    "0xA76d751eF81E5bb5F7C5777D999f8F4a611151cB"
  ],
  "solcInputHash": "0617a234d0b660aa82c51becdcd2311f",
  "bytecode": "0x60a06040523480156200001157600080fd5b50604051620014da380380620014da8339810160408190526200003491620001f9565b82620000408162000107565b506200004c8162000157565b6001600160a01b038216620000b85760405162461bcd60e51b815260206004820152602760248201527f5072697a654469737472696275746f722f746f6b656e2d6e6f742d7a65726f2d6044820152666164647265737360c81b60648201526084015b60405180910390fd5b6001600160601b0319606083901b166080526040516001600160a01b038316907fa07c91c183e42229e705a9795a1c06d76528b673788b849597364528c96eefb790600090a250505062000266565b600080546001600160a01b038381166001600160a01b0319831681178455604051919092169283917f8be0079c531659141344cd1fd0a4f28419497f9722a3daafe3b4186f6b6457e09190a35050565b6001600160a01b038116620001af5760405162461bcd60e51b815260206004820152601e60248201527f5072697a654469737472696275746f722f63616c632d6e6f742d7a65726f00006044820152606401620000af565b600280546001600160a01b0319166001600160a01b0383169081179091556040517fff37eafdc3779d387d79dcf458fdc36536d857426f03a53204694f8fbb0d8a6b90600090a250565b6000806000606084860312156200020f57600080fd5b83516200021c816200024d565b60208501519093506200022f816200024d565b604085015190925062000242816200024d565b809150509250925092565b6001600160a01b03811681146200026357600080fd5b50565b60805160601c61124f6200028b6000396000818160d00152610a6d015261124f6000f3fe608060405234801561001057600080fd5b50600436106100c95760003560e01c8063715018a611610081578063bb7d4e2d1161005b578063bb7d4e2d14610198578063e30c3978146101ab578063f2fde38b146101bc57600080fd5b8063715018a61461015e5780638da5cb5b14610166578063b7f892d11461017757600080fd5b806344004cc1116100b257806344004cc11461011e578063454a8140146101415780634e71e0c81461015457600080fd5b806321df0da7146100ce5780632d680cfa1461010d575b600080fd5b7f00000000000000000000000000000000000000000000000000000000000000005b6040516001600160a01b0390911681526020015b60405180910390f35b6002546001600160a01b03166100f0565b61013161012c366004610fc7565b6101cf565b6040519015158152602001610104565b6100f061014f366004610dcd565b6103a3565b61015c61041f565b005b61015c6104ad565b6000546001600160a01b03166100f0565b61018a610185366004610e9e565b610522565b604051908152602001610104565b61018a6101a6366004610dea565b610551565b6001546001600160a01b03166100f0565b61015c6101ca366004610dcd565b610795565b6000336101e46000546001600160a01b031690565b6001600160a01b03161461023f5760405162461bcd60e51b815260206004820152601860248201527f4f776e61626c652f63616c6c65722d6e6f742d6f776e6572000000000000000060448201526064015b60405180910390fd5b6001600160a01b0383166102bb5760405162461bcd60e51b815260206004820152602b60248201527f5072697a654469737472696275746f722f726563697069656e742d6e6f742d7a60448201527f65726f2d616464726573730000000000000000000000000000000000000000006064820152608401610236565b6001600160a01b0384166103375760405162461bcd60e51b815260206004820152602760248201527f5072697a654469737472696275746f722f45524332302d6e6f742d7a65726f2d60448201527f61646472657373000000000000000000000000000000000000000000000000006064820152608401610236565b61034b6001600160a01b03851684846108d1565b826001600160a01b0316846001600160a01b03167fbfed55bdcd242e3dd0f60ddd7d1e87c67f61c34cd9527b3e6455d841b10253628460405161039091815260200190565b60405180910390a35060015b9392505050565b6000336103b86000546001600160a01b031690565b6001600160a01b03161461040e5760405162461bcd60e51b815260206004820152601860248201527f4f776e61626c652f63616c6c65722d6e6f742d6f776e657200000000000000006044820152606401610236565b61041782610956565b50805b919050565b6001546001600160a01b031633146104795760405162461bcd60e51b815260206004820152601f60248201527f4f776e61626c652f63616c6c65722d6e6f742d70656e64696e674f776e6572006044820152606401610236565b60015461048e906001600160a01b0316610a03565b6001805473ffffffffffffffffffffffffffffffffffffffff19169055565b336104c06000546001600160a01b031690565b6001600160a01b0316146105165760405162461bcd60e51b815260206004820152601860248201527f4f776e61626c652f63616c6c65722d6e6f742d6f776e657200000000000000006044820152606401610236565b6105206000610a03565b565b6001600160a01b038216600090815260036020908152604080832063ffffffff8516845290915281205461039c565b6002546040517faaca392e000000000000000000000000000000000000000000000000000000008152600091829182916001600160a01b03169063aaca392e906105a7908b908b908b908b908b9060040161103f565b60006040518083038186803b1580156105bf57600080fd5b505afa1580156105d3573d6000803e3d6000fd5b505050506040513d6000823e601f3d908101601f191682016040526105fb9190810190610ed3565b50905060005b815181101561077f57600088888381811061061e5761061e6111d5565b90506020020160208101906106339190611008565b90506000838381518110610649576106496111d5565b6020908102919091018101516001600160a01b038d16600090815260038352604080822063ffffffff871683529093529182205490925090818311156106c257610693828461113f565b6001600160a01b038e16600090815260036020908152604080832063ffffffff89168452909152902084905590505b600081116107125760405162461bcd60e51b815260206004820152601c60248201527f5072697a654469737472696275746f722f7a65726f2d7061796f7574000000006044820152606401610236565b61071c8188611127565b96508363ffffffff168d6001600160a01b03167fda18d31fbb73ed04b84307ef1bc6602e02c855af9f65b53ed10ba43e8d35b7dd8360405161076091815260200190565b60405180910390a350505050808061077790611186565b915050610601565b5061078a8883610a60565b509695505050505050565b336107a86000546001600160a01b031690565b6001600160a01b0316146107fe5760405162461bcd60e51b815260206004820152601860248201527f4f776e61626c652f63616c6c65722d6e6f742d6f776e657200000000000000006044820152606401610236565b6001600160a01b03811661087a5760405162461bcd60e51b815260206004820152602560248201527f4f776e61626c652f70656e64696e674f776e65722d6e6f742d7a65726f2d616460448201527f64726573730000000000000000000000000000000000000000000000000000006064820152608401610236565b6001805473ffffffffffffffffffffffffffffffffffffffff19166001600160a01b0383169081179091556040517f239a2ddded15777fa246aed5f7e1a9bc69a39d4eb4a397034d1d85766cca7d4c90600090a250565b604080516001600160a01b038416602482015260448082018490528251808303909101815260649091019091526020810180517bffffffffffffffffffffffffffffffffffffffffffffffffffffffff167fa9059cbb00000000000000000000000000000000000000000000000000000000179052610951908490610a98565b505050565b6001600160a01b0381166109ac5760405162461bcd60e51b815260206004820152601e60248201527f5072697a654469737472696275746f722f63616c632d6e6f742d7a65726f00006044820152606401610236565b6002805473ffffffffffffffffffffffffffffffffffffffff19166001600160a01b0383169081179091556040517fff37eafdc3779d387d79dcf458fdc36536d857426f03a53204694f8fbb0d8a6b90600090a250565b600080546001600160a01b0383811673ffffffffffffffffffffffffffffffffffffffff19831681178455604051919092169283917f8be0079c531659141344cd1fd0a4f28419497f9722a3daafe3b4186f6b6457e09190a35050565b610a946001600160a01b037f00000000000000000000000000000000000000000000000000000000000000001683836108d1565b5050565b6000610aed826040518060400160405280602081526020017f5361666545524332303a206c6f772d6c6576656c2063616c6c206661696c6564815250856001600160a01b0316610b7d9092919063ffffffff16565b8051909150156109515780806020019051810190610b0b9190610fa5565b6109515760405162461bcd60e51b815260206004820152602a60248201527f5361666545524332303a204552433230206f7065726174696f6e20646964206e60448201527f6f742073756363656564000000000000000000000000000000000000000000006064820152608401610236565b6060610b8c8484600085610b94565b949350505050565b606082471015610c0c5760405162461bcd60e51b815260206004820152602660248201527f416464726573733a20696e73756666696369656e742062616c616e636520666f60448201527f722063616c6c00000000000000000000000000000000000000000000000000006064820152608401610236565b843b610c5a5760405162461bcd60e51b815260206004820152601d60248201527f416464726573733a2063616c6c20746f206e6f6e2d636f6e74726163740000006044820152606401610236565b600080866001600160a01b03168587604051610c769190611023565b60006040518083038185875af1925050503d8060008114610cb3576040519150601f19603f3d011682016040523d82523d6000602084013e610cb8565b606091505b5091509150610cc8828286610cd3565b979650505050505050565b60608315610ce257508161039c565b825115610cf25782518084602001fd5b8160405162461bcd60e51b815260040161023691906110c3565b60008083601f840112610d1e57600080fd5b50813567ffffffffffffffff811115610d3657600080fd5b602083019150836020828501011115610d4e57600080fd5b9250929050565b600082601f830112610d6657600080fd5b815167ffffffffffffffff811115610d8057610d806111eb565b610d936020601f19601f840116016110f6565b818152846020838601011115610da857600080fd5b610b8c826020830160208701611156565b803563ffffffff8116811461041a57600080fd5b600060208284031215610ddf57600080fd5b813561039c81611201565b600080600080600060608688031215610e0257600080fd5b8535610e0d81611201565b9450602086013567ffffffffffffffff80821115610e2a57600080fd5b818801915088601f830112610e3e57600080fd5b813581811115610e4d57600080fd5b8960208260051b8501011115610e6257600080fd5b602083019650809550506040880135915080821115610e8057600080fd5b50610e8d88828901610d0c565b969995985093965092949392505050565b60008060408385031215610eb157600080fd5b8235610ebc81611201565b9150610eca60208401610db9565b90509250929050565b60008060408385031215610ee657600080fd5b825167ffffffffffffffff80821115610efe57600080fd5b818501915085601f830112610f1257600080fd5b8151602082821115610f2657610f266111eb565b8160051b610f358282016110f6565b8381528281019086840183880185018c1015610f5057600080fd5b600097505b85881015610f73578051835260019790970196918401918401610f55565b509289015192975091945050505080821115610f8e57600080fd5b50610f9b85828601610d55565b9150509250929050565b600060208284031215610fb757600080fd5b8151801515811461039c57600080fd5b600080600060608486031215610fdc57600080fd5b8335610fe781611201565b92506020840135610ff781611201565b929592945050506040919091013590565b60006020828403121561101a57600080fd5b61039c82610db9565b60008251611035818460208701611156565b9190910192915050565b6001600160a01b038616815260606020808301829052908201859052600090869060808401835b8881101561108f5763ffffffff61107c85610db9565b1682529282019290820190600101611066565b5084810360408601528581528587838301376000818701830152601f909501601f1916909401909301979650505050505050565b60208152600082518060208401526110e2816040850160208701611156565b601f01601f19169190910160400192915050565b604051601f8201601f1916810167ffffffffffffffff8111828210171561111f5761111f6111eb565b604052919050565b6000821982111561113a5761113a6111bf565b500190565b600082821015611151576111516111bf565b500390565b60005b83811015611171578181015183820152602001611159565b83811115611180576000848401525b50505050565b60007fffffffffffffffffffffffffffffffffffffffffffffffffffffffffffffffff8214156111b8576111b86111bf565b5060010190565b634e487b7160e01b600052601160045260246000fd5b634e487b7160e01b600052603260045260246000fd5b634e487b7160e01b600052604160045260246000fd5b6001600160a01b038116811461121657600080fd5b5056fea26469706673582212202863880da36c2aaf71d8799a49d55270c642f909747192f42ce4f2de0fc1888864736f6c63430008060033",
  "devdoc": {
    "author": "PoolTogether Inc Team",
    "kind": "dev",
    "methods": {
      "claim(address,uint32[],bytes)": {
        "details": "The claim function is public and any wallet may execute claim on behalf of another user. Prizes are always paid out to the designated user account and not the caller (msg.sender). Claiming prizes is not limited to a single transaction. Reclaiming can be executed subsequentially if an \"optimal\" prize was not included in previous claim pick indices. The payout difference for the new claim is calculated during the award process and transfered to user.",
        "params": {
          "data": "The data to pass to the draw calculator",
          "drawIds": "Draw IDs from global DrawBuffer reference",
          "user": "Address of user to claim awards for. Does NOT need to be msg.sender"
        },
        "returns": {
          "_0": "Total claim payout. May include calcuations from multiple draws."
        }
      },
      "claimOwnership()": {
        "details": "This function is only callable by the `_pendingOwner`."
      },
      "constructor": {
        "params": {
          "_drawCalculator": "DrawCalculator address",
          "_owner": "Owner address",
          "_token": "Token address"
        }
      },
      "getDrawCalculator()": {
        "returns": {
          "_0": "IDrawCalculator"
        }
      },
      "getDrawPayoutBalanceOf(address,uint32)": {
        "params": {
          "drawId": "Draw ID",
          "user": "User address"
        }
      },
      "getToken()": {
        "returns": {
          "_0": "IERC20"
        }
      },
      "pendingOwner()": {
        "returns": {
          "_0": "Current `_pendingOwner` address."
        }
      },
      "renounceOwnership()": {
        "details": "Leaves the contract without owner. It will not be possible to call `onlyOwner` functions anymore. Can only be called by the current owner. NOTE: Renouncing ownership will leave the contract without an owner, thereby removing any functionality that is only available to the owner."
      },
      "setDrawCalculator(address)": {
        "params": {
          "newCalculator": "DrawCalculator address"
        },
        "returns": {
          "_0": "New DrawCalculator address"
        }
      },
      "transferOwnership(address)": {
        "params": {
          "_newOwner": "Address to transfer ownership to."
        }
      },
      "withdrawERC20(address,address,uint256)": {
        "details": "Only callable by contract owner.",
        "params": {
          "amount": "Amount of tokens to transfer.",
          "to": "Recipient of the tokens.",
          "token": "ERC20 token to transfer."
        },
        "returns": {
          "_0": "true if operation is successful."
        }
      }
    },
    "title": "PoolTogether V4 PrizeDistributor",
    "version": 1
  },
  "userdoc": {
    "events": {
      "ClaimedDraw(address,uint32,uint256)": {
        "notice": "Emit when user has claimed token from the PrizeDistributor."
      },
      "DrawCalculatorSet(address)": {
        "notice": "Emit when DrawCalculator is set."
      },
      "ERC20Withdrawn(address,address,uint256)": {
        "notice": "Emit when ERC20 tokens are withdrawn."
      },
      "TokenSet(address)": {
        "notice": "Emit when Token is set."
      }
    },
    "kind": "user",
    "methods": {
      "claim(address,uint32[],bytes)": {
        "notice": "Claim prize payout(s) by submitting valud drawId(s) and winning pick indice(s). The user address is used as the \"seed\" phrase to generate random numbers."
      },
      "claimOwnership()": {
        "notice": "Allows the `_pendingOwner` address to finalize the transfer."
      },
      "constructor": {
        "notice": "Initialize PrizeDistributor smart contract."
      },
      "getDrawCalculator()": {
        "notice": "Read global DrawCalculator address."
      },
      "getDrawPayoutBalanceOf(address,uint32)": {
        "notice": "Get the amount that a user has already been paid out for a draw"
      },
      "getToken()": {
        "notice": "Read global Ticket address."
      },
      "owner()": {
        "notice": "Returns the address of the current owner."
      },
      "pendingOwner()": {
        "notice": "Gets current `_pendingOwner`."
      },
      "renounceOwnership()": {
        "notice": "Renounce ownership of the contract."
      },
      "setDrawCalculator(address)": {
        "notice": "Sets DrawCalculator reference contract."
      },
      "transferOwnership(address)": {
        "notice": "Allows current owner to set the `_pendingOwner` address."
      },
      "withdrawERC20(address,address,uint256)": {
        "notice": "Transfer ERC20 tokens out of contract to recipient address."
      }
    },
    "notice": "The PrizeDistributor contract holds Tickets (captured interest) and distributes tickets to users with winning draw claims. PrizeDistributor uses an external IDrawCalculator to validate a users draw claim, before awarding payouts. To prevent users  from reclaiming prizes, a payout history for each draw claim is mapped to user accounts. Reclaiming a draw can occur if an \"optimal\" prize was not included in previous claim pick indices and the new claims updated payout is greater then the previous prize distributor claim payout.",
    "version": 1
  },
  "storageLayout": {
    "storage": [
      {
        "astId": 2866,
        "contract": "@pooltogether/v4-core/contracts/PrizeDistributor.sol:PrizeDistributor",
        "label": "_owner",
        "offset": 0,
        "slot": "0",
        "type": "t_address"
      },
      {
        "astId": 2868,
        "contract": "@pooltogether/v4-core/contracts/PrizeDistributor.sol:PrizeDistributor",
        "label": "_pendingOwner",
        "offset": 0,
        "slot": "1",
        "type": "t_address"
      },
      {
        "astId": 6060,
        "contract": "@pooltogether/v4-core/contracts/PrizeDistributor.sol:PrizeDistributor",
        "label": "drawCalculator",
        "offset": 0,
        "slot": "2",
        "type": "t_contract(IDrawCalculator)8188"
      },
      {
        "astId": 6071,
        "contract": "@pooltogether/v4-core/contracts/PrizeDistributor.sol:PrizeDistributor",
        "label": "userDrawPayouts",
        "offset": 0,
        "slot": "3",
        "type": "t_mapping(t_address,t_mapping(t_uint256,t_uint256))"
      }
    ],
    "types": {
      "t_address": {
        "encoding": "inplace",
        "label": "address",
        "numberOfBytes": "20"
      },
      "t_contract(IDrawCalculator)8188": {
        "encoding": "inplace",
        "label": "contract IDrawCalculator",
        "numberOfBytes": "20"
      },
      "t_mapping(t_address,t_mapping(t_uint256,t_uint256))": {
        "encoding": "mapping",
        "key": "t_address",
        "label": "mapping(address => mapping(uint256 => uint256))",
        "numberOfBytes": "32",
        "value": "t_mapping(t_uint256,t_uint256)"
      },
      "t_mapping(t_uint256,t_uint256)": {
        "encoding": "mapping",
        "key": "t_uint256",
        "label": "mapping(uint256 => uint256)",
        "numberOfBytes": "32",
        "value": "t_uint256"
      },
      "t_uint256": {
        "encoding": "inplace",
        "label": "uint256",
        "numberOfBytes": "32"
      }
    }
  }
}