{
  "address": "0x3d90c497e6a3FC670fa435916ef4Af6D33aB10C0",
  "abi": [
    {
      "inputs": [
        {
          "internalType": "address",
          "name": "_owner",
          "type": "address"
        }
      ],
      "stateMutability": "nonpayable",
      "type": "constructor"
    },
    {
      "anonymous": false,
      "inputs": [
        {
          "indexed": true,
          "internalType": "address",
          "name": "previousManager",
          "type": "address"
        },
        {
          "indexed": true,
          "internalType": "address",
          "name": "newManager",
          "type": "address"
        }
      ],
      "name": "ManagerTransferred",
      "type": "event"
    },
    {
      "anonymous": false,
      "inputs": [
        {
          "indexed": true,
          "internalType": "address",
          "name": "pendingOwner",
          "type": "address"
        }
      ],
      "name": "OwnershipOffered",
      "type": "event"
    },
    {
      "anonymous": false,
      "inputs": [
        {
          "indexed": true,
          "internalType": "address",
          "name": "previousOwner",
          "type": "address"
        },
        {
          "indexed": true,
          "internalType": "address",
          "name": "newOwner",
          "type": "address"
        }
      ],
      "name": "OwnershipTransferred",
      "type": "event"
    },
    {
      "anonymous": false,
      "inputs": [
        {
          "indexed": true,
          "internalType": "uint32",
          "name": "drawId",
          "type": "uint32"
        },
        {
          "components": [
            {
              "internalType": "uint8",
              "name": "bitRangeSize",
              "type": "uint8"
            },
            {
              "internalType": "uint32",
              "name": "drawId",
              "type": "uint32"
            },
            {
              "internalType": "uint32",
              "name": "maxPicksPerUser",
              "type": "uint32"
            },
            {
              "internalType": "uint256",
              "name": "prize",
              "type": "uint256"
            },
            {
              "internalType": "uint32[16]",
              "name": "tiers",
              "type": "uint32[16]"
            },
            {
              "internalType": "uint32",
              "name": "validityDuration",
              "type": "uint32"
            }
          ],
          "indexed": false,
          "internalType": "struct IPrizeTierHistory.PrizeTier",
          "name": "prizeTier",
          "type": "tuple"
        }
      ],
      "name": "PrizeTierPushed",
      "type": "event"
    },
    {
      "anonymous": false,
      "inputs": [
        {
          "indexed": true,
          "internalType": "uint32",
          "name": "drawId",
          "type": "uint32"
        },
        {
          "components": [
            {
              "internalType": "uint8",
              "name": "bitRangeSize",
              "type": "uint8"
            },
            {
              "internalType": "uint32",
              "name": "drawId",
              "type": "uint32"
            },
            {
              "internalType": "uint32",
              "name": "maxPicksPerUser",
              "type": "uint32"
            },
            {
              "internalType": "uint256",
              "name": "prize",
              "type": "uint256"
            },
            {
              "internalType": "uint32[16]",
              "name": "tiers",
              "type": "uint32[16]"
            },
            {
              "internalType": "uint32",
              "name": "validityDuration",
              "type": "uint32"
            }
          ],
          "indexed": false,
          "internalType": "struct IPrizeTierHistory.PrizeTier",
          "name": "prizeTier",
          "type": "tuple"
        }
      ],
      "name": "PrizeTierSet",
      "type": "event"
    },
    {
      "inputs": [],
      "name": "claimOwnership",
      "outputs": [],
      "stateMutability": "nonpayable",
      "type": "function"
    },
    {
      "inputs": [],
      "name": "getNewestDrawId",
      "outputs": [
        {
          "internalType": "uint32",
          "name": "",
          "type": "uint32"
        }
      ],
      "stateMutability": "view",
      "type": "function"
    },
    {
      "inputs": [],
      "name": "getOldestDrawId",
      "outputs": [
        {
          "internalType": "uint32",
          "name": "",
          "type": "uint32"
        }
      ],
      "stateMutability": "view",
      "type": "function"
    },
    {
      "inputs": [
        {
          "internalType": "uint32",
          "name": "_drawId",
          "type": "uint32"
        }
      ],
      "name": "getPrizeTier",
      "outputs": [
        {
          "components": [
            {
              "internalType": "uint8",
              "name": "bitRangeSize",
              "type": "uint8"
            },
            {
              "internalType": "uint32",
              "name": "drawId",
              "type": "uint32"
            },
            {
              "internalType": "uint32",
              "name": "maxPicksPerUser",
              "type": "uint32"
            },
            {
              "internalType": "uint256",
              "name": "prize",
              "type": "uint256"
            },
            {
              "internalType": "uint32[16]",
              "name": "tiers",
              "type": "uint32[16]"
            },
            {
              "internalType": "uint32",
              "name": "validityDuration",
              "type": "uint32"
            }
          ],
          "internalType": "struct IPrizeTierHistory.PrizeTier",
          "name": "",
          "type": "tuple"
        }
      ],
      "stateMutability": "view",
      "type": "function"
    },
    {
      "inputs": [
        {
          "internalType": "uint32[]",
          "name": "_drawIds",
          "type": "uint32[]"
        }
      ],
      "name": "getPrizeTierList",
      "outputs": [
        {
          "components": [
            {
              "internalType": "uint8",
              "name": "bitRangeSize",
              "type": "uint8"
            },
            {
              "internalType": "uint32",
              "name": "drawId",
              "type": "uint32"
            },
            {
              "internalType": "uint32",
              "name": "maxPicksPerUser",
              "type": "uint32"
            },
            {
              "internalType": "uint256",
              "name": "prize",
              "type": "uint256"
            },
            {
              "internalType": "uint32[16]",
              "name": "tiers",
              "type": "uint32[16]"
            },
            {
              "internalType": "uint32",
              "name": "validityDuration",
              "type": "uint32"
            }
          ],
          "internalType": "struct IPrizeTierHistory.PrizeTier[]",
          "name": "",
          "type": "tuple[]"
        }
      ],
      "stateMutability": "view",
      "type": "function"
    },
    {
      "inputs": [],
      "name": "manager",
      "outputs": [
        {
          "internalType": "address",
          "name": "",
          "type": "address"
        }
      ],
      "stateMutability": "view",
      "type": "function"
    },
    {
      "inputs": [],
      "name": "owner",
      "outputs": [
        {
          "internalType": "address",
          "name": "",
          "type": "address"
        }
      ],
      "stateMutability": "view",
      "type": "function"
    },
    {
      "inputs": [],
      "name": "pendingOwner",
      "outputs": [
        {
          "internalType": "address",
          "name": "",
          "type": "address"
        }
      ],
      "stateMutability": "view",
      "type": "function"
    },
    {
      "inputs": [
        {
          "components": [
            {
              "internalType": "uint8",
              "name": "bitRangeSize",
              "type": "uint8"
            },
            {
              "internalType": "uint32",
              "name": "drawId",
              "type": "uint32"
            },
            {
              "internalType": "uint32",
              "name": "maxPicksPerUser",
              "type": "uint32"
            },
            {
              "internalType": "uint256",
              "name": "prize",
              "type": "uint256"
            },
            {
              "internalType": "uint32[16]",
              "name": "tiers",
              "type": "uint32[16]"
            },
            {
              "internalType": "uint32",
              "name": "validityDuration",
              "type": "uint32"
            }
          ],
          "internalType": "struct IPrizeTierHistory.PrizeTier",
          "name": "_prizeTier",
          "type": "tuple"
        }
      ],
      "name": "popAndPush",
      "outputs": [
        {
          "internalType": "uint32",
          "name": "",
          "type": "uint32"
        }
      ],
      "stateMutability": "nonpayable",
      "type": "function"
    },
    {
      "inputs": [
        {
          "components": [
            {
              "internalType": "uint8",
              "name": "bitRangeSize",
              "type": "uint8"
            },
            {
              "internalType": "uint32",
              "name": "drawId",
              "type": "uint32"
            },
            {
              "internalType": "uint32",
              "name": "maxPicksPerUser",
              "type": "uint32"
            },
            {
              "internalType": "uint256",
              "name": "prize",
              "type": "uint256"
            },
            {
              "internalType": "uint32[16]",
              "name": "tiers",
              "type": "uint32[16]"
            },
            {
              "internalType": "uint32",
              "name": "validityDuration",
              "type": "uint32"
            }
          ],
          "internalType": "struct IPrizeTierHistory.PrizeTier",
          "name": "_nextPrizeTier",
          "type": "tuple"
        }
      ],
      "name": "push",
      "outputs": [
        {
          "internalType": "uint32",
          "name": "",
          "type": "uint32"
        }
      ],
      "stateMutability": "nonpayable",
      "type": "function"
    },
    {
      "inputs": [],
      "name": "renounceOwnership",
      "outputs": [],
      "stateMutability": "nonpayable",
      "type": "function"
    },
    {
      "inputs": [
        {
          "internalType": "address",
          "name": "_newManager",
          "type": "address"
        }
      ],
      "name": "setManager",
      "outputs": [
        {
          "internalType": "bool",
          "name": "",
          "type": "bool"
        }
      ],
      "stateMutability": "nonpayable",
      "type": "function"
    },
    {
      "inputs": [
        {
          "internalType": "address",
          "name": "_newOwner",
          "type": "address"
        }
      ],
      "name": "transferOwnership",
      "outputs": [],
      "stateMutability": "nonpayable",
      "type": "function"
    }
  ],
  "transactionHash": "0x244c41a0d244af24e6fed39a243db21a7ba64a8a8b14004bdce73f88d2ccb635",
  "args": [
    "0xE0F4217390221aF47855E094F6e112D43C8698fE"
  ],
  "solcInputHash": "0617a234d0b660aa82c51becdcd2311f",
  "bytecode": "0x608060405234801561001057600080fd5b5060405161190338038061190383398101604081905261002f91610090565b8061003981610040565b50506100c0565b600080546001600160a01b038381166001600160a01b0319831681178455604051919092169283917f8be0079c531659141344cd1fd0a4f28419497f9722a3daafe3b4186f6b6457e09190a35050565b6000602082840312156100a257600080fd5b81516001600160a01b03811681146100b957600080fd5b9392505050565b611834806100cf6000396000f3fe608060405234801561001057600080fd5b50600436106100df5760003560e01c8063715018a61161008c578063e30c397811610066578063e30c3978146101b9578063e7a1c78f146101ca578063efd8d4ce146101dd578063f2fde38b146101f057600080fd5b8063715018a61461017d5780638da5cb5b14610185578063d0ebdbe71461019657600080fd5b80634aac253d116100bd5780634aac253d146101335780634e602cd8146101535780634e71e0c81461017357600080fd5b806339dd7f08146100e4578063472b619c14610106578063481c6a751461010e575b600080fd5b6100ec610203565b60405163ffffffff90911681526020015b60405180910390f35b6100ec61023a565b6002546001600160a01b03165b6040516001600160a01b0390911681526020016100fd565b6101466101413660046113c8565b61025e565b6040516100fd919061155c565b61016661016136600461133a565b6102f6565b6040516100fd9190611463565b61017b6103c1565b005b61017b61044f565b6000546001600160a01b031661011b565b6101a96101a4366004611311565b6104c4565b60405190151581526020016100fd565b6001546001600160a01b031661011b565b6100ec6101d83660046113af565b61053d565b6100ec6101eb3660046113af565b6107fd565b61017b6101fe366004611311565b610be5565b6000600360008154811061021957610219611674565b6000918252602090912060059091020154610100900463ffffffff16919050565b600380546000919061024e906001906115a5565b8154811061021957610219611674565b61026661129c565b60008263ffffffff16116102e75760405162461bcd60e51b815260206004820152602160248201527f5072697a6554696572486973746f72792f647261772d69642d6e6f742d7a657260448201527f6f0000000000000000000000000000000000000000000000000000000000000060648201526084015b60405180910390fd5b6102f082610d21565b92915050565b606060008267ffffffffffffffff8111156103135761031361168a565b60405190808252806020026020018201604052801561034c57816020015b61033961129c565b8152602001906001900390816103315790505b50905060005b838110156103b95761038985858381811061036f5761036f611674565b905060200201602081019061038491906113c8565b610d21565b82828151811061039b5761039b611674565b602002602001018190525080806103b190611625565b915050610352565b509392505050565b6001546001600160a01b0316331461041b5760405162461bcd60e51b815260206004820152601f60248201527f4f776e61626c652f63616c6c65722d6e6f742d70656e64696e674f776e65720060448201526064016102de565b600154610430906001600160a01b0316610f61565b6001805473ffffffffffffffffffffffffffffffffffffffff19169055565b336104626000546001600160a01b031690565b6001600160a01b0316146104b85760405162461bcd60e51b815260206004820152601860248201527f4f776e61626c652f63616c6c65722d6e6f742d6f776e6572000000000000000060448201526064016102de565b6104c26000610f61565b565b6000336104d96000546001600160a01b031690565b6001600160a01b03161461052f5760405162461bcd60e51b815260206004820152601860248201527f4f776e61626c652f63616c6c65722d6e6f742d6f776e6572000000000000000060448201526064016102de565b6102f082610fbe565b919050565b6000336105526000546001600160a01b031690565b6001600160a01b0316146105a85760405162461bcd60e51b815260206004820152601860248201527f4f776e61626c652f63616c6c65722d6e6f742d6f776e6572000000000000000060448201526064016102de565b6003546105f75760405162461bcd60e51b815260206004820152601e60248201527f5072697a6554696572486973746f72792f686973746f72792d656d707479000060448201526064016102de565b600380546000919061060b906001906115a5565b8154811061061b5761061b611674565b60009182526020918290206040805160c0810182526005909302909101805460ff8116845263ffffffff610100820481169585019590955265010000000000900490931682820152600183015460608301528051610200810190915290919060808301906002830160108282826020028201916000905b82829054906101000a900463ffffffff1663ffffffff1681526020019060040190602082600301049283019260010382029150808411610692575050509284525050506004919091015463ffffffff90811660209283015282820151929350919091169061070690604086019086016113c8565b63ffffffff16146107595760405162461bcd60e51b815260206004820181905260248201527f5072697a6554696572486973746f72792f696e76616c69642d647261772d696460448201526064016102de565b6003805484919061076c906001906115a5565b8154811061077c5761077c611674565b9060005260206000209060050201818161079691906116ad565b506107a9905060408401602085016113c8565b63ffffffff167f8be495e429428a96a841b456f251cb1da8cb635b10111c01651f41be7e59bf4e846040516107de91906114b2565b60405180910390a26107f660408401602085016113c8565b9392505050565b6000336108126002546001600160a01b031690565b6001600160a01b031614806108405750336108356000546001600160a01b031690565b6001600160a01b0316145b6108b25760405162461bcd60e51b815260206004820152602660248201527f4d616e61676561626c652f63616c6c65722d6e6f742d6d616e616765722d6f7260448201527f2d6f776e6572000000000000000000000000000000000000000000000000000060648201526084016102de565b60006003805480602002602001604051908101604052809291908181526020016000905b828210156109b457600084815260208082206040805160c08101825260058702909201805460ff8116845263ffffffff61010082048116958501959095526501000000000090049093168282015260018301546060830152805161020081019182905291936080850192916002850191601091908390855b82829054906101000a900463ffffffff1663ffffffff168152602001906004019060208260030104928301926001038202915080841161094e575050509284525050506004919091015463ffffffff1660209182015290825260019290920191016108d6565b505050509050600081511115610b4e5760038054600091906109d8906001906115a5565b815481106109e8576109e8611674565b60009182526020918290206040805160c0810182526005909302909101805460ff8116845263ffffffff610100820481169585019590955265010000000000900490931682820152600183015460608301528051610200810190915290919060808301906002830160108282826020028201916000905b82829054906101000a900463ffffffff1663ffffffff1681526020019060040190602082600301049283019260010382029150808411610a5f575050509284525050506004919091015463ffffffff908116602092830152828201519293509190911690610ad390604087019087016113c8565b63ffffffff1611610b4c5760405162461bcd60e51b815260206004820152602a60248201527f5072697a6554696572486973746f72792f6e6f6e2d73657175656e7469616c2d60448201527f7072697a652d746965720000000000000000000000000000000000000000000060648201526084016102de565b505b6003805460018101825560009190915283906005027fc2575a0e9e593c00f959f8c92f12db2869c3395a3b0502d05e2516446f71f85b01610b8f82826116ad565b50610ba2905060408401602085016113c8565b63ffffffff167f51453264608f9a319225daacfd282d6a1296496ebdaebd5498fda1da8ad53d5784604051610bd791906114b2565b60405180910390a250919050565b33610bf86000546001600160a01b031690565b6001600160a01b031614610c4e5760405162461bcd60e51b815260206004820152601860248201527f4f776e61626c652f63616c6c65722d6e6f742d6f776e6572000000000000000060448201526064016102de565b6001600160a01b038116610cca5760405162461bcd60e51b815260206004820152602560248201527f4f776e61626c652f70656e64696e674f776e65722d6e6f742d7a65726f2d616460448201527f647265737300000000000000000000000000000000000000000000000000000060648201526084016102de565b6001805473ffffffffffffffffffffffffffffffffffffffff19166001600160a01b0383169081179091556040517f239a2ddded15777fa246aed5f7e1a9bc69a39d4eb4a397034d1d85766cca7d4c90600090a250565b610d2961129c565b600354600080610d3a6001846115a5565b9050600060038381548110610d5157610d51611674565b906000526020600020906005020160000160019054906101000a900463ffffffff169050600060038381548110610d8a57610d8a611674565b600091825260209091206005909102015463ffffffff610100909104811691508281169088161015610e245760405162461bcd60e51b815260206004820152602560248201527f5072697a6554696572486973746f72792f647261772d69642d6f75742d6f662d60448201527f72616e676500000000000000000000000000000000000000000000000000000060648201526084016102de565b8063ffffffff168763ffffffff1610610f225760038381548110610e4a57610e4a611674565b60009182526020918290206040805160c0810182526005909302909101805460ff8116845263ffffffff610100820481169585019590955265010000000000900490931682820152600183015460608301528051610200810190915290919060808301906002830160108282826020028201916000905b82829054906101000a900463ffffffff1663ffffffff1681526020019060040190602082600301049283019260010382029150808411610ec1575050509284525050506004919091015463ffffffff16602090910152979650505050505050565b8163ffffffff168763ffffffff161415610f495760038481548110610e4a57610e4a611674565b610f5687858560036110aa565b979650505050505050565b600080546001600160a01b0383811673ffffffffffffffffffffffffffffffffffffffff19831681178455604051919092169283917f8be0079c531659141344cd1fd0a4f28419497f9722a3daafe3b4186f6b6457e09190a35050565b6002546000906001600160a01b039081169083168114156110475760405162461bcd60e51b815260206004820152602360248201527f4d616e61676561626c652f6578697374696e672d6d616e616765722d6164647260448201527f657373000000000000000000000000000000000000000000000000000000000060648201526084016102de565b6002805473ffffffffffffffffffffffffffffffffffffffff19166001600160a01b0385811691821790925560405190918316907f9cb45c728de594dab506a1f1a8554e24c8eeaf983618d5ec5dd7bc6f3c49feee90600090a350600192915050565b6110b261129c565b600060026110c086866115a5565b6110ca9190611583565b6110d4908661156b565b905060008382815481106110ea576110ea611674565b600091825260209091206005909102015463ffffffff6101009091048116915087168114156111fc5783828154811061112557611125611674565b60009182526020918290206040805160c0810182526005909302909101805460ff8116845263ffffffff610100820481169585019590955265010000000000900490931682820152600183015460608301528051610200810190915290919060808301906002830160108282826020028201916000905b82829054906101000a900463ffffffff1663ffffffff168152602001906004019060208260030104928301926001038202915080841161119c575050509284525050506004919091015463ffffffff166020909101529250611294915050565b8663ffffffff168163ffffffff1610156112225761121b82600161156b565b9550611244565b8663ffffffff168163ffffffff161115611244576112416001836115a5565b94505b8486141561128d578663ffffffff168163ffffffff161061127b578361126b6001846115a5565b8154811061112557611125611674565b83828154811061112557611125611674565b50506110b2565b949350505050565b6040518060c00160405280600060ff168152602001600063ffffffff168152602001600063ffffffff168152602001600081526020016112da6112e7565b8152600060209091015290565b6040518061020001604052806010906020820280368337509192915050565b8035610538816117da565b60006020828403121561132357600080fd5b81356001600160a01b03811681146107f657600080fd5b6000806020838503121561134d57600080fd5b823567ffffffffffffffff8082111561136557600080fd5b818501915085601f83011261137957600080fd5b81358181111561138857600080fd5b8660208260051b850101111561139d57600080fd5b60209290920196919550909350505050565b60006102a082840312156113c257600080fd5b50919050565b6000602082840312156113da57600080fd5b81356107f6816117da565b60ff815116825260208082015163ffffffff8082168386015280604085015116604086015260608401516060860152608084015191506080850160005b6010811015611441578351831682529284019290840190600101611422565b505050505060a081015161145e61028084018263ffffffff169052565b505050565b6020808252825182820181905260009190848201906040850190845b818110156114a6576114928385516113e5565b928401926102a0929092019160010161147f565b50909695505050505050565b6102a0810182356114c2816117ef565b60ff1682526020838101356114d6816117da565b63ffffffff908116848301526040850135906114f1826117da565b8082166040860152606086013560608601526080850191506080860160005b6010811015611538578135611524816117da565b831684529284019290840190600101611510565b505050505061028061154b818501611306565b63ffffffff16920191909152919050565b6102a081016102f082846113e5565b6000821982111561157e5761157e61165e565b500190565b6000826115a057634e487b7160e01b600052601260045260246000fd5b500490565b6000828210156115b7576115b761165e565b500390565b81816000805b601081101561161d5783356115d6816117da565b835463ffffffff600385901b81811b801990931693909116901b1617835560209390930192600490910190601c82111561161557600091506001830192505b6001016115c2565b505050505050565b60007fffffffffffffffffffffffffffffffffffffffffffffffffffffffffffffffff8214156116575761165761165e565b5060010190565b634e487b7160e01b600052601160045260246000fd5b634e487b7160e01b600052603260045260246000fd5b634e487b7160e01b600052604160045260246000fd5b600081356102f0816117da565b81356116b8816117ef565b60ff811690508154817fffffffffffffffffffffffffffffffffffffffffffffffffffffffffffffff00821617835560208401356116f5816117da565b64ffffffff008160081b16905080837fffffffffffffffffffffffffffffffffffffffffffffffffffffff00000000008416171784556040850135611739816117da565b68ffffffff00000000008160281b16847fffffffffffffffffffffffffffffffffffffffffffffff0000000000000000008516178317178555505050506060820135600182015561179060808301600283016115bc565b6117d66117a061028084016116a0565b6004830163ffffffff82167fffffffffffffffffffffffffffffffffffffffffffffffffffffffff000000008254161781555050565b5050565b63ffffffff811681146117ec57600080fd5b50565b60ff811681146117ec57600080fdfea2646970667358221220977b23b34a8b464863d4035715630e40577c15939c669315f05b3b3a7cd5374b64736f6c63430008060033",
  "devdoc": {
    "author": "PoolTogether Inc Team",
    "kind": "dev",
    "methods": {
      "claimOwnership()": {
        "details": "This function is only callable by the `_pendingOwner`."
      },
      "getOldestDrawId()": {
        "returns": {
          "_0": "Draw ID of first PrizeTier record"
        }
      },
      "manager()": {
        "returns": {
          "_0": "Current `_manager` address."
        }
      },
      "pendingOwner()": {
        "returns": {
          "_0": "Current `_pendingOwner` address."
        }
      },
      "renounceOwnership()": {
        "details": "Leaves the contract without owner. It will not be possible to call `onlyOwner` functions anymore. Can only be called by the current owner. NOTE: Renouncing ownership will leave the contract without an owner, thereby removing any functionality that is only available to the owner."
      },
      "setManager(address)": {
        "details": "Throws if called by any account other than the owner.",
        "params": {
          "_newManager": "New _manager address."
        },
        "returns": {
          "_0": "Boolean to indicate if the operation was successful or not."
        }
      },
      "transferOwnership(address)": {
        "params": {
          "_newOwner": "Address to transfer ownership to."
        }
      }
    },
    "title": "PoolTogether V4 IPrizeTierHistory",
    "version": 1
  },
  "userdoc": {
    "events": {
      "PrizeTierPushed(uint32,(uint8,uint32,uint32,uint256,uint32[16],uint32))": {
        "notice": "Emit when new PrizeTier is added to history"
      },
      "PrizeTierSet(uint32,(uint8,uint32,uint32,uint256,uint32[16],uint32))": {
        "notice": "Emit when existing PrizeTier is updated in history"
      }
    },
    "kind": "user",
    "methods": {
      "claimOwnership()": {
        "notice": "Allows the `_pendingOwner` address to finalize the transfer."
      },
      "getOldestDrawId()": {
        "notice": "Read first Draw ID used to initialize history"
      },
      "manager()": {
        "notice": "Gets current `_manager`."
      },
      "owner()": {
        "notice": "Returns the address of the current owner."
      },
      "pendingOwner()": {
        "notice": "Gets current `_pendingOwner`."
      },
      "renounceOwnership()": {
        "notice": "Renounce ownership of the contract."
      },
      "setManager(address)": {
        "notice": "Set or change of manager."
      },
      "transferOwnership(address)": {
        "notice": "Allows current owner to set the `_pendingOwner` address."
      }
    },
    "notice": "IPrizeTierHistory is the base contract for PrizeTierHistory",
    "version": 1
  },
  "storageLayout": {
    "storage": [
      {
        "astId": 2866,
        "contract": "@pooltogether/v4-periphery/contracts/PrizeTierHistory.sol:PrizeTierHistory",
        "label": "_owner",
        "offset": 0,
        "slot": "0",
        "type": "t_address"
      },
      {
        "astId": 2868,
        "contract": "@pooltogether/v4-periphery/contracts/PrizeTierHistory.sol:PrizeTierHistory",
        "label": "_pendingOwner",
        "offset": 0,
        "slot": "1",
        "type": "t_address"
      },
      {
        "astId": 2764,
        "contract": "@pooltogether/v4-periphery/contracts/PrizeTierHistory.sol:PrizeTierHistory",
        "label": "_manager",
        "offset": 0,
        "slot": "2",
        "type": "t_address"
      },
      {
        "astId": 12448,
        "contract": "@pooltogether/v4-periphery/contracts/PrizeTierHistory.sol:PrizeTierHistory",
        "label": "history",
        "offset": 0,
        "slot": "3",
        "type": "t_array(t_struct(PrizeTier)12929_storage)dyn_storage"
      }
    ],
    "types": {
      "t_address": {
        "encoding": "inplace",
        "label": "address",
        "numberOfBytes": "20"
      },
      "t_array(t_struct(PrizeTier)12929_storage)dyn_storage": {
        "base": "t_struct(PrizeTier)12929_storage",
        "encoding": "dynamic_array",
        "label": "struct IPrizeTierHistory.PrizeTier[]",
        "numberOfBytes": "32"
      },
      "t_array(t_uint32)16_storage": {
        "base": "t_uint32",
        "encoding": "inplace",
        "label": "uint32[16]",
        "numberOfBytes": "64"
      },
      "t_struct(PrizeTier)12929_storage": {
        "encoding": "inplace",
        "label": "struct IPrizeTierHistory.PrizeTier",
        "members": [
          {
            "astId": 12916,
            "contract": "@pooltogether/v4-periphery/contracts/PrizeTierHistory.sol:PrizeTierHistory",
            "label": "bitRangeSize",
            "offset": 0,
            "slot": "0",
            "type": "t_uint8"
          },
          {
            "astId": 12918,
            "contract": "@pooltogether/v4-periphery/contracts/PrizeTierHistory.sol:PrizeTierHistory",
            "label": "drawId",
            "offset": 1,
            "slot": "0",
            "type": "t_uint32"
          },
          {
            "astId": 12920,
            "contract": "@pooltogether/v4-periphery/contracts/PrizeTierHistory.sol:PrizeTierHistory",
            "label": "maxPicksPerUser",
            "offset": 5,
            "slot": "0",
            "type": "t_uint32"
          },
          {
            "astId": 12922,
            "contract": "@pooltogether/v4-periphery/contracts/PrizeTierHistory.sol:PrizeTierHistory",
            "label": "prize",
            "offset": 0,
            "slot": "1",
            "type": "t_uint256"
          },
          {
            "astId": 12926,
            "contract": "@pooltogether/v4-periphery/contracts/PrizeTierHistory.sol:PrizeTierHistory",
            "label": "tiers",
            "offset": 0,
            "slot": "2",
            "type": "t_array(t_uint32)16_storage"
          },
          {
            "astId": 12928,
            "contract": "@pooltogether/v4-periphery/contracts/PrizeTierHistory.sol:PrizeTierHistory",
            "label": "validityDuration",
            "offset": 0,
            "slot": "4",
            "type": "t_uint32"
          }
        ],
        "numberOfBytes": "160"
      },
      "t_uint256": {
        "encoding": "inplace",
        "label": "uint256",
        "numberOfBytes": "32"
      },
      "t_uint32": {
        "encoding": "inplace",
        "label": "uint32",
        "numberOfBytes": "4"
      },
      "t_uint8": {
        "encoding": "inplace",
        "label": "uint8",
        "numberOfBytes": "1"
      }
    }
  }
}