{
  "address": "0xf9EbE5E108146378e7534f878C9F9DcCb5a16E79",
  "abi": [
    {
      "inputs": [
        {
          "internalType": "address",
          "name": "_owner",
          "type": "address"
        },
        {
          "internalType": "contract IERC20",
          "name": "_token",
          "type": "address"
        }
      ],
      "stateMutability": "nonpayable",
      "type": "constructor"
    },
    {
      "anonymous": false,
      "inputs": [
        {
          "indexed": false,
          "internalType": "uint256",
          "name": "reserveAccumulated",
          "type": "uint256"
        },
        {
          "indexed": false,
          "internalType": "uint256",
          "name": "withdrawAccumulated",
          "type": "uint256"
        }
      ],
      "name": "Checkpoint",
      "type": "event"
    },
    {
      "anonymous": false,
      "inputs": [
        {
          "indexed": true,
          "internalType": "contract IERC20",
          "name": "token",
          "type": "address"
        }
      ],
      "name": "Deployed",
      "type": "event"
    },
    {
      "anonymous": false,
      "inputs": [
        {
          "indexed": true,
          "internalType": "address",
          "name": "previousManager",
          "type": "address"
        },
        {
          "indexed": true,
          "internalType": "address",
          "name": "newManager",
          "type": "address"
        }
      ],
      "name": "ManagerTransferred",
      "type": "event"
    },
    {
      "anonymous": false,
      "inputs": [
        {
          "indexed": true,
          "internalType": "address",
          "name": "pendingOwner",
          "type": "address"
        }
      ],
      "name": "OwnershipOffered",
      "type": "event"
    },
    {
      "anonymous": false,
      "inputs": [
        {
          "indexed": true,
          "internalType": "address",
          "name": "previousOwner",
          "type": "address"
        },
        {
          "indexed": true,
          "internalType": "address",
          "name": "newOwner",
          "type": "address"
        }
      ],
      "name": "OwnershipTransferred",
      "type": "event"
    },
    {
      "anonymous": false,
      "inputs": [
        {
          "indexed": true,
          "internalType": "address",
          "name": "recipient",
          "type": "address"
        },
        {
          "indexed": false,
          "internalType": "uint256",
          "name": "amount",
          "type": "uint256"
        }
      ],
      "name": "Withdrawn",
      "type": "event"
    },
    {
      "inputs": [],
      "name": "checkpoint",
      "outputs": [],
      "stateMutability": "nonpayable",
      "type": "function"
    },
    {
      "inputs": [],
      "name": "claimOwnership",
      "outputs": [],
      "stateMutability": "nonpayable",
      "type": "function"
    },
    {
      "inputs": [
        {
          "internalType": "uint32",
          "name": "_startTimestamp",
          "type": "uint32"
        },
        {
          "internalType": "uint32",
          "name": "_endTimestamp",
          "type": "uint32"
        }
      ],
      "name": "getReserveAccumulatedBetween",
      "outputs": [
        {
          "internalType": "uint224",
          "name": "",
          "type": "uint224"
        }
      ],
      "stateMutability": "view",
      "type": "function"
    },
    {
      "inputs": [],
      "name": "getToken",
      "outputs": [
        {
          "internalType": "contract IERC20",
          "name": "",
          "type": "address"
        }
      ],
      "stateMutability": "view",
      "type": "function"
    },
    {
      "inputs": [],
      "name": "manager",
      "outputs": [
        {
          "internalType": "address",
          "name": "",
          "type": "address"
        }
      ],
      "stateMutability": "view",
      "type": "function"
    },
    {
      "inputs": [],
      "name": "owner",
      "outputs": [
        {
          "internalType": "address",
          "name": "",
          "type": "address"
        }
      ],
      "stateMutability": "view",
      "type": "function"
    },
    {
      "inputs": [],
      "name": "pendingOwner",
      "outputs": [
        {
          "internalType": "address",
          "name": "",
          "type": "address"
        }
      ],
      "stateMutability": "view",
      "type": "function"
    },
    {
      "inputs": [],
      "name": "renounceOwnership",
      "outputs": [],
      "stateMutability": "nonpayable",
      "type": "function"
    },
    {
      "inputs": [
        {
          "internalType": "address",
          "name": "_newManager",
          "type": "address"
        }
      ],
      "name": "setManager",
      "outputs": [
        {
          "internalType": "bool",
          "name": "",
          "type": "bool"
        }
      ],
      "stateMutability": "nonpayable",
      "type": "function"
    },
    {
      "inputs": [],
      "name": "token",
      "outputs": [
        {
          "internalType": "contract IERC20",
          "name": "",
          "type": "address"
        }
      ],
      "stateMutability": "view",
      "type": "function"
    },
    {
      "inputs": [
        {
          "internalType": "address",
          "name": "_newOwner",
          "type": "address"
        }
      ],
      "name": "transferOwnership",
      "outputs": [],
      "stateMutability": "nonpayable",
      "type": "function"
    },
    {
      "inputs": [],
      "name": "withdrawAccumulator",
      "outputs": [
        {
          "internalType": "uint224",
          "name": "",
          "type": "uint224"
        }
      ],
      "stateMutability": "view",
      "type": "function"
    },
    {
      "inputs": [
        {
          "internalType": "address",
          "name": "_recipient",
          "type": "address"
        },
        {
          "internalType": "uint256",
          "name": "_amount",
          "type": "uint256"
        }
      ],
      "name": "withdrawTo",
      "outputs": [],
      "stateMutability": "nonpayable",
      "type": "function"
    }
  ],
  "transactionHash": "0x07d27366ad7fb550f876f2faa4119fc9e479f9b9f7dc5ca9a463c97533da72cb",
  "args": [
    "0xE0F4217390221aF47855E094F6e112D43C8698fE",
    "0x2b25fA7Aa97c8cA866098dB2d3f2777E0728cE54"
  ],
  "solcInputHash": "0617a234d0b660aa82c51becdcd2311f",
  "bytecode": "0x60a06040523480156200001157600080fd5b5060405162001698380380620016988339810160408190526200003491620000df565b8162000040816200008f565b506001600160601b0319606082901b166080526040516001600160a01b038216907ff40fcec21964ffb566044d083b4073f29f7f7929110ea19e1b3ebe375d89055e90600090a2505062000137565b600080546001600160a01b038381166001600160a01b0319831681178455604051919092169283917f8be0079c531659141344cd1fd0a4f28419497f9722a3daafe3b4186f6b6457e09190a35050565b60008060408385031215620000f357600080fd5b825162000100816200011e565b602084015190925062000113816200011e565b809150509250929050565b6001600160a01b03811681146200013457600080fd5b50565b60805160601c61152e6200016a6000396000818160fb015281816101fc0152818161032701526107df015261152e6000f3fe608060405234801561001057600080fd5b50600436106100df5760003560e01c80638da5cb5b1161008c578063d0ebdbe711610066578063d0ebdbe7146101b0578063e30c3978146101d3578063f2fde38b146101e4578063fc0c546a146101f757600080fd5b80638da5cb5b14610184578063af6a940014610195578063c2c4c5c1146101a857600080fd5b8063481c6a75116100bd578063481c6a75146101635780634e71e0c814610174578063715018a61461017c57600080fd5b8063205c2878146100e457806321df0da7146100f95780632d00ddda14610138575b600080fd5b6100f76100f236600461127c565b61021e565b005b7f00000000000000000000000000000000000000000000000000000000000000005b6040516001600160a01b0390911681526020015b60405180910390f35b60035461014b906001600160e01b031681565b6040516001600160e01b03909116815260200161012f565b6002546001600160a01b031661011b565b6100f76103a5565b6100f7610433565b6000546001600160a01b031661011b565b61014b6101a33660046112e1565b6104a8565b6100f76105e0565b6101c36101be366004611261565b6105e8565b604051901515815260200161012f565b6001546001600160a01b031661011b565b6100f76101f2366004611261565b610664565b61011b7f000000000000000000000000000000000000000000000000000000000000000081565b336102316002546001600160a01b031690565b6001600160a01b0316148061025f5750336102546000546001600160a01b031690565b6001600160a01b0316145b6102d65760405162461bcd60e51b815260206004820152602660248201527f4d616e61676561626c652f63616c6c65722d6e6f742d6d616e616765722d6f7260448201527f2d6f776e6572000000000000000000000000000000000000000000000000000060648201526084015b60405180910390fd5b6102de6107a0565b600380548291906000906102fc9084906001600160e01b0316611381565b92506101000a8154816001600160e01b0302191690836001600160e01b0316021790555061035e82827f00000000000000000000000000000000000000000000000000000000000000006001600160a01b0316610a239092919063ffffffff16565b816001600160a01b03167f7084f5476618d8e60b11ef0d7d3f06914655adb8793e28ff7f018d4c76d505d58260405161039991815260200190565b60405180910390a25050565b6001546001600160a01b031633146103ff5760405162461bcd60e51b815260206004820152601f60248201527f4f776e61626c652f63616c6c65722d6e6f742d70656e64696e674f776e65720060448201526064016102cd565b600154610414906001600160a01b0316610a93565b6001805473ffffffffffffffffffffffffffffffffffffffff19169055565b336104466000546001600160a01b031690565b6001600160a01b03161461049c5760405162461bcd60e51b815260206004820152601860248201527f4f776e61626c652f63616c6c65722d6e6f742d6f776e6572000000000000000060448201526064016102cd565b6104a66000610a93565b565b60008163ffffffff168363ffffffff16106105055760405162461bcd60e51b815260206004820152601b60248201527f526573657276652f73746172742d6c6573732d7468656e2d656e64000000000060448201526064016102cd565b630100000354604080518082019091526000808252602082015262ffffff90911690811561057f57600461053a600184611420565b62ffffff1662ffffff8110610551576105516114e2565b604080518082019091529101546001600160e01b0381168252600160e01b900463ffffffff16602082015290505b604080518082019091526004546001600160e01b0381168252600160e01b900463ffffffff16602082015260006105b88383868a610af0565b905060006105c88484878a610af0565b90506105d482826113f8565b98975050505050505050565b6104a66107a0565b6000336105fd6000546001600160a01b031690565b6001600160a01b0316146106535760405162461bcd60e51b815260206004820152601860248201527f4f776e61626c652f63616c6c65722d6e6f742d6f776e6572000000000000000060448201526064016102cd565b61065c82610ba0565b90505b919050565b336106776000546001600160a01b031690565b6001600160a01b0316146106cd5760405162461bcd60e51b815260206004820152601860248201527f4f776e61626c652f63616c6c65722d6e6f742d6f776e6572000000000000000060448201526064016102cd565b6001600160a01b0381166107495760405162461bcd60e51b815260206004820152602560248201527f4f776e61626c652f70656e64696e674f776e65722d6e6f742d7a65726f2d616460448201527f647265737300000000000000000000000000000000000000000000000000000060648201526084016102cd565b6001805473ffffffffffffffffffffffffffffffffffffffff19166001600160a01b0383169081179091556040517f239a2ddded15777fa246aed5f7e1a9bc69a39d4eb4a397034d1d85766cca7d4c90600090a250565b6301000003546040517f70a0823100000000000000000000000000000000000000000000000000000000815230600482015262ffffff909116906000907f00000000000000000000000000000000000000000000000000000000000000006001600160a01b0316906370a082319060240160206040518083038186803b15801561082957600080fd5b505afa15801561083d573d6000803e3d6000fd5b505050506040513d601f19601f8201168201806040525081019061086191906112c8565b6003549091506001600160e01b0316600061087b84610c8c565b905080600001516001600160e01b0316826001600160e01b0316846108a091906113ac565b1115610a1d574260006108b38486611381565b90508163ffffffff16836020015163ffffffff161461096a576040518060400160405280826001600160e01b031681526020018363ffffffff1681525060048762ffffff1662ffffff811061090a5761090a6114e2565b825160209093015163ffffffff16600160e01b026001600160e01b03909316929092179101556301000003805462ffffff169060006109488361147f565b91906101000a81548162ffffff021916908362ffffff160217905550506109d7565b604080518082019091526001600160e01b038216815263ffffffff831660208201526004610999600189611420565b62ffffff1662ffffff81106109b0576109b06114e2565b825160209093015163ffffffff16600160e01b026001600160e01b03909316929092179101555b604080516001600160e01b038084168252861660208201527f21d81d5d656869e8ce3ba8d65526a2f0dbbcd3d36f5f9999eb7c84360e45eced910160405180910390a150505b50505050565b604080516001600160a01b038416602482015260448082018490528251808303909101815260649091019091526020810180516001600160e01b03167fa9059cbb00000000000000000000000000000000000000000000000000000000179052610a8e908490610d00565b505050565b600080546001600160a01b0383811673ffffffffffffffffffffffffffffffffffffffff19831681178455604051919092169283917f8be0079c531659141344cd1fd0a4f28419497f9722a3daafe3b4186f6b6457e09190a35050565b60004262ffffff8416610b07576000915050610b98565b8263ffffffff16856020015163ffffffff161115610b29576000915050610b98565b8263ffffffff16866020015163ffffffff1611610b495750508351610b98565b600080610b666004610b5c600189611420565b6000888a88610de5565b915091508463ffffffff16816020015163ffffffff161415610b8d57519250610b98915050565b50519150610b989050565b949350505050565b6002546000906001600160a01b03908116908316811415610c295760405162461bcd60e51b815260206004820152602360248201527f4d616e61676561626c652f6578697374696e672d6d616e616765722d6164647260448201527f657373000000000000000000000000000000000000000000000000000000000060648201526084016102cd565b6002805473ffffffffffffffffffffffffffffffffffffffff19166001600160a01b0385811691821790925560405190918316907f9cb45c728de594dab506a1f1a8554e24c8eeaf983618d5ec5dd7bc6f3c49feee90600090a350600192915050565b604080518082019091526000808252602082015262ffffff82161561065f576004610cb8600184611420565b62ffffff1662ffffff8110610ccf57610ccf6114e2565b604080518082019091529101546001600160e01b0381168252600160e01b900463ffffffff16602082015292915050565b6000610d55826040518060400160405280602081526020017f5361666545524332303a206c6f772d6c6576656c2063616c6c206661696c6564815250856001600160a01b0316610fb29092919063ffffffff16565b805190915015610a8e5780806020019051810190610d7391906112a6565b610a8e5760405162461bcd60e51b815260206004820152602a60248201527f5361666545524332303a204552433230206f7065726174696f6e20646964206e60448201527f6f7420737563636565640000000000000000000000000000000000000000000060648201526084016102cd565b6040805180820190915260008082526020820152604080518082019091526000808252602082015260008662ffffff1690506000818962ffffff1610610e30578862ffffff16610e4b565b6001610e4162ffffff8816846113ac565b610e4b919061143c565b905060005b6002610e5c83856113ac565b610e6691906113e4565b90508a610e78828962ffffff16610fcb565b62ffffff1662ffffff8110610e8f57610e8f6114e2565b604080518082019091529101546001600160e01b0381168252600160e01b900463ffffffff166020820181905290955080610ed757610ecf8260016113ac565b935050610e50565b8b610ee7838a62ffffff16610fd7565b62ffffff1662ffffff8110610efe57610efe6114e2565b604080518082019091529101546001600160e01b038116825263ffffffff600160e01b90910481166020830152909550600090610f4390838116908c908b90610fed16565b9050808015610f6c5750610f6c8660200151898c63ffffffff16610fed9092919063ffffffff16565b15610f78575050610fa4565b80610f8f57610f8860018461143c565b9350610f9d565b610f9a8360016113ac565b94505b5050610e50565b505050965096945050505050565b6060610fc184846000856110be565b90505b9392505050565b6000610fc482846114a2565b6000610fc4610fe78460016113ac565b83610fcb565b60008163ffffffff168463ffffffff161115801561101757508163ffffffff168363ffffffff1611155b15611033578263ffffffff168463ffffffff1611159050610fc4565b60008263ffffffff168563ffffffff16116110625761105d63ffffffff86166401000000006113c4565b61106a565b8463ffffffff165b64ffffffffff16905060008363ffffffff168563ffffffff16116110a25761109d63ffffffff86166401000000006113c4565b6110aa565b8463ffffffff165b64ffffffffff169091111595945050505050565b6060824710156111365760405162461bcd60e51b815260206004820152602660248201527f416464726573733a20696e73756666696369656e742062616c616e636520666f60448201527f722063616c6c000000000000000000000000000000000000000000000000000060648201526084016102cd565b843b6111845760405162461bcd60e51b815260206004820152601d60248201527f416464726573733a2063616c6c20746f206e6f6e2d636f6e747261637400000060448201526064016102cd565b600080866001600160a01b031685876040516111a09190611314565b60006040518083038185875af1925050503d80600081146111dd576040519150601f19603f3d011682016040523d82523d6000602084013e6111e2565b606091505b50915091506111f28282866111fd565b979650505050505050565b6060831561120c575081610fc4565b82511561121c5782518084602001fd5b8160405162461bcd60e51b81526004016102cd9190611330565b80356001600160a01b038116811461065f57600080fd5b803563ffffffff8116811461065f57600080fd5b60006020828403121561127357600080fd5b610fc482611236565b6000806040838503121561128f57600080fd5b61129883611236565b946020939093013593505050565b6000602082840312156112b857600080fd5b81518015158114610fc457600080fd5b6000602082840312156112da57600080fd5b5051919050565b600080604083850312156112f457600080fd5b6112fd8361124d565b915061130b6020840161124d565b90509250929050565b60008251611326818460208701611453565b9190910192915050565b602081526000825180602084015261134f816040850160208701611453565b601f017fffffffffffffffffffffffffffffffffffffffffffffffffffffffffffffffe0169190910160400192915050565b60006001600160e01b038083168185168083038211156113a3576113a36114b6565b01949350505050565b600082198211156113bf576113bf6114b6565b500190565b600064ffffffffff8083168185168083038211156113a3576113a36114b6565b6000826113f3576113f36114cc565b500490565b60006001600160e01b0383811690831681811015611418576114186114b6565b039392505050565b600062ffffff83811690831681811015611418576114186114b6565b60008282101561144e5761144e6114b6565b500390565b60005b8381101561146e578181015183820152602001611456565b83811115610a1d5750506000910152565b600062ffffff80831681811415611498576114986114b6565b6001019392505050565b6000826114b1576114b16114cc565b500690565b634e487b7160e01b600052601160045260246000fd5b634e487b7160e01b600052601260045260246000fd5b634e487b7160e01b600052603260045260246000fdfea26469706673582212200339520d4c1807cac7eb0ceaa74d23b30b955f8dfcf93eaa6af4e7fde3a4f50964736f6c63430008060033",
  "devdoc": {
    "author": "PoolTogether Inc Team",
    "details": "By calculating the total held tokens in a speicific time range, contracts that require knowledge  of captured interest during a draw period, can easily call into the Reserve and determininstially determine the newly aqcuired tokens for that time range. ",
    "kind": "dev",
    "methods": {
      "checkpoint()": {
        "details": "Calculates total desposited tokens since last checkpoint and creates new accumulator checkpoint."
      },
      "claimOwnership()": {
        "details": "This function is only callable by the `_pendingOwner`."
      },
      "constructor": {
        "params": {
          "_owner": "Owner address",
          "_token": "ERC20 address"
        }
      },
      "getReserveAccumulatedBetween(uint32,uint32)": {
        "details": "Search the ring buffer for two checkpoint observations and diffs accumulator amount.",
        "params": {
          "endTimestamp": "Transfer amount",
          "startTimestamp": "Account address"
        }
      },
      "getToken()": {
        "returns": {
          "_0": "IERC20"
        }
      },
      "manager()": {
        "returns": {
          "_0": "Current `_manager` address."
        }
      },
      "pendingOwner()": {
        "returns": {
          "_0": "Current `_pendingOwner` address."
        }
      },
      "renounceOwnership()": {
        "details": "Leaves the contract without owner. It will not be possible to call `onlyOwner` functions anymore. Can only be called by the current owner. NOTE: Renouncing ownership will leave the contract without an owner, thereby removing any functionality that is only available to the owner."
      },
      "setManager(address)": {
        "details": "Throws if called by any account other than the owner.",
        "params": {
          "_newManager": "New _manager address."
        },
        "returns": {
          "_0": "Boolean to indicate if the operation was successful or not."
        }
      },
      "transferOwnership(address)": {
        "params": {
          "_newOwner": "Address to transfer ownership to."
        }
      },
      "withdrawTo(address,uint256)": {
        "details": "Creates checkpoint before token transfer. Increments withdrawAccumulator with amount.",
        "params": {
          "amount": "Transfer amount",
          "recipient": "Account address"
        }
      }
    },
    "title": "PoolTogether V4 Reserve",
    "version": 1
  },
  "userdoc": {
    "events": {
      "Checkpoint(uint256,uint256)": {
        "notice": "Emit when checkpoint is created."
      },
      "Withdrawn(address,uint256)": {
        "notice": "Emit when the withdrawTo function has executed."
      }
    },
    "kind": "user",
    "methods": {
      "checkpoint()": {
        "notice": "Create observation checkpoint in ring bufferr."
      },
      "claimOwnership()": {
        "notice": "Allows the `_pendingOwner` address to finalize the transfer."
      },
      "constructor": {
        "notice": "Constructs Ticket with passed parameters."
      },
      "getReserveAccumulatedBetween(uint32,uint32)": {
        "notice": "Calculate token accumulation beween timestamp range."
      },
      "getToken()": {
        "notice": "Read global token value."
      },
      "manager()": {
        "notice": "Gets current `_manager`."
      },
      "owner()": {
        "notice": "Returns the address of the current owner."
      },
      "pendingOwner()": {
        "notice": "Gets current `_pendingOwner`."
      },
      "renounceOwnership()": {
        "notice": "Renounce ownership of the contract."
      },
      "setManager(address)": {
        "notice": "Set or change of manager."
      },
      "token()": {
        "notice": "ERC20 token"
      },
      "transferOwnership(address)": {
        "notice": "Allows current owner to set the `_pendingOwner` address."
      },
      "withdrawAccumulator()": {
        "notice": "Total withdraw amount from reserve"
      },
      "withdrawTo(address,uint256)": {
        "notice": "Transfer Reserve token balance to recipient address."
      }
    },
    "notice": "The Reserve contract provides historical lookups of a token balance increase during a target timerange. As the Reserve contract transfers OUT tokens, the withdraw accumulator is increased. When tokens are transfered IN new checkpoint *can* be created if checkpoint() is called after transfering tokens. By using the reserve and withdraw accumulators to create a new checkpoint, any contract or account can lookup the balance increase of the reserve for a target timerange.   ",
    "version": 1
  },
  "storageLayout": {
    "storage": [
      {
        "astId": 2866,
        "contract": "@pooltogether/v4-core/contracts/Reserve.sol:Reserve",
        "label": "_owner",
        "offset": 0,
        "slot": "0",
        "type": "t_address"
      },
      {
        "astId": 2868,
        "contract": "@pooltogether/v4-core/contracts/Reserve.sol:Reserve",
        "label": "_pendingOwner",
        "offset": 0,
        "slot": "1",
        "type": "t_address"
      },
      {
        "astId": 2764,
        "contract": "@pooltogether/v4-core/contracts/Reserve.sol:Reserve",
        "label": "_manager",
        "offset": 0,
        "slot": "2",
        "type": "t_address"
      },
      {
        "astId": 6436,
        "contract": "@pooltogether/v4-core/contracts/Reserve.sol:Reserve",
        "label": "withdrawAccumulator",
        "offset": 0,
        "slot": "3",
        "type": "t_uint224"
      },
      {
        "astId": 6445,
        "contract": "@pooltogether/v4-core/contracts/Reserve.sol:Reserve",
        "label": "reserveAccumulators",
        "offset": 0,
        "slot": "4",
        "type": "t_array(t_struct(Observation)9217_storage)16777215_storage"
      },
      {
        "astId": 6447,
        "contract": "@pooltogether/v4-core/contracts/Reserve.sol:Reserve",
        "label": "cardinality",
        "offset": 0,
        "slot": "16777219",
        "type": "t_uint24"
      }
    ],
    "types": {
      "t_address": {
        "encoding": "inplace",
        "label": "address",
        "numberOfBytes": "20"
      },
      "t_array(t_struct(Observation)9217_storage)16777215_storage": {
        "base": "t_struct(Observation)9217_storage",
        "encoding": "inplace",
        "label": "struct ObservationLib.Observation[16777215]",
        "numberOfBytes": "536870880"
      },
      "t_struct(Observation)9217_storage": {
        "encoding": "inplace",
        "label": "struct ObservationLib.Observation",
        "members": [
          {
            "astId": 9214,
            "contract": "@pooltogether/v4-core/contracts/Reserve.sol:Reserve",
            "label": "amount",
            "offset": 0,
            "slot": "0",
            "type": "t_uint224"
          },
          {
            "astId": 9216,
            "contract": "@pooltogether/v4-core/contracts/Reserve.sol:Reserve",
            "label": "timestamp",
            "offset": 28,
            "slot": "0",
            "type": "t_uint32"
          }
        ],
        "numberOfBytes": "32"
      },
      "t_uint224": {
        "encoding": "inplace",
        "label": "uint224",
        "numberOfBytes": "28"
      },
      "t_uint24": {
        "encoding": "inplace",
        "label": "uint24",
        "numberOfBytes": "3"
      },
      "t_uint32": {
        "encoding": "inplace",
        "label": "uint32",
        "numberOfBytes": "4"
      }
    }
  }
}