{
  "address": "0xD204bade6940C655c0Eb03C9559943a8e368A461",
  "abi": [
    {
      "inputs": [
        {
          "internalType": "address",
          "name": "_owner",
          "type": "address"
        },
        {
          "internalType": "contract IYieldSource",
          "name": "_yieldSource",
          "type": "address"
        }
      ],
      "stateMutability": "nonpayable",
      "type": "constructor"
    },
    {
      "anonymous": false,
      "inputs": [
        {
          "indexed": false,
          "internalType": "uint256",
          "name": "amount",
          "type": "uint256"
        }
      ],
      "name": "AwardCaptured",
      "type": "event"
    },
    {
      "anonymous": false,
      "inputs": [
        {
          "indexed": true,
          "internalType": "address",
          "name": "winner",
          "type": "address"
        },
        {
          "indexed": true,
          "internalType": "contract ITicket",
          "name": "token",
          "type": "address"
        },
        {
          "indexed": false,
          "internalType": "uint256",
          "name": "amount",
          "type": "uint256"
        }
      ],
      "name": "Awarded",
      "type": "event"
    },
    {
      "anonymous": false,
      "inputs": [
        {
          "indexed": true,
          "internalType": "address",
          "name": "winner",
          "type": "address"
        },
        {
          "indexed": true,
          "internalType": "address",
          "name": "token",
          "type": "address"
        },
        {
          "indexed": false,
          "internalType": "uint256",
          "name": "amount",
          "type": "uint256"
        }
      ],
      "name": "AwardedExternalERC20",
      "type": "event"
    },
    {
      "anonymous": false,
      "inputs": [
        {
          "indexed": true,
          "internalType": "address",
          "name": "winner",
          "type": "address"
        },
        {
          "indexed": true,
          "internalType": "address",
          "name": "token",
          "type": "address"
        },
        {
          "indexed": false,
          "internalType": "uint256[]",
          "name": "tokenIds",
          "type": "uint256[]"
        }
      ],
      "name": "AwardedExternalERC721",
      "type": "event"
    },
    {
      "anonymous": false,
      "inputs": [
        {
          "indexed": false,
          "internalType": "uint256",
          "name": "balanceCap",
          "type": "uint256"
        }
      ],
      "name": "BalanceCapSet",
      "type": "event"
    },
    {
      "anonymous": false,
      "inputs": [
        {
          "indexed": true,
          "internalType": "contract ITicket",
          "name": "token",
          "type": "address"
        }
      ],
      "name": "ControlledTokenAdded",
      "type": "event"
    },
    {
      "anonymous": false,
      "inputs": [
        {
          "indexed": true,
          "internalType": "address",
          "name": "yieldSource",
          "type": "address"
        }
      ],
      "name": "Deployed",
      "type": "event"
    },
    {
      "anonymous": false,
      "inputs": [
        {
          "indexed": true,
          "internalType": "address",
          "name": "operator",
          "type": "address"
        },
        {
          "indexed": true,
          "internalType": "address",
          "name": "to",
          "type": "address"
        },
        {
          "indexed": true,
          "internalType": "contract ITicket",
          "name": "token",
          "type": "address"
        },
        {
          "indexed": false,
          "internalType": "uint256",
          "name": "amount",
          "type": "uint256"
        }
      ],
      "name": "Deposited",
      "type": "event"
    },
    {
      "anonymous": false,
      "inputs": [
        {
          "indexed": false,
          "internalType": "bytes",
          "name": "error",
          "type": "bytes"
        }
      ],
      "name": "ErrorAwardingExternalERC721",
      "type": "event"
    },
    {
      "anonymous": false,
      "inputs": [
        {
          "indexed": false,
          "internalType": "uint256",
          "name": "liquidityCap",
          "type": "uint256"
        }
      ],
      "name": "LiquidityCapSet",
      "type": "event"
    },
    {
      "anonymous": false,
      "inputs": [
        {
          "indexed": true,
          "internalType": "address",
          "name": "pendingOwner",
          "type": "address"
        }
      ],
      "name": "OwnershipOffered",
      "type": "event"
    },
    {
      "anonymous": false,
      "inputs": [
        {
          "indexed": true,
          "internalType": "address",
          "name": "previousOwner",
          "type": "address"
        },
        {
          "indexed": true,
          "internalType": "address",
          "name": "newOwner",
          "type": "address"
        }
      ],
      "name": "OwnershipTransferred",
      "type": "event"
    },
    {
      "anonymous": false,
      "inputs": [
        {
          "indexed": true,
          "internalType": "address",
          "name": "prizeStrategy",
          "type": "address"
        }
      ],
      "name": "PrizeStrategySet",
      "type": "event"
    },
    {
      "anonymous": false,
      "inputs": [
        {
          "indexed": true,
          "internalType": "contract ITicket",
          "name": "ticket",
          "type": "address"
        }
      ],
      "name": "TicketSet",
      "type": "event"
    },
    {
      "anonymous": false,
      "inputs": [
        {
          "indexed": true,
          "internalType": "address",
          "name": "to",
          "type": "address"
        },
        {
          "indexed": true,
          "internalType": "address",
          "name": "token",
          "type": "address"
        },
        {
          "indexed": false,
          "internalType": "uint256",
          "name": "amount",
          "type": "uint256"
        }
      ],
      "name": "TransferredExternalERC20",
      "type": "event"
    },
    {
      "anonymous": false,
      "inputs": [
        {
          "indexed": true,
          "internalType": "address",
          "name": "operator",
          "type": "address"
        },
        {
          "indexed": true,
          "internalType": "address",
          "name": "from",
          "type": "address"
        },
        {
          "indexed": true,
          "internalType": "contract ITicket",
          "name": "token",
          "type": "address"
        },
        {
          "indexed": false,
          "internalType": "uint256",
          "name": "amount",
          "type": "uint256"
        },
        {
          "indexed": false,
          "internalType": "uint256",
          "name": "redeemed",
          "type": "uint256"
        }
      ],
      "name": "Withdrawal",
      "type": "event"
    },
    {
      "inputs": [],
      "name": "VERSION",
      "outputs": [
        {
          "internalType": "string",
          "name": "",
          "type": "string"
        }
      ],
      "stateMutability": "view",
      "type": "function"
    },
    {
      "inputs": [
        {
          "internalType": "address",
          "name": "_to",
          "type": "address"
        },
        {
          "internalType": "uint256",
          "name": "_amount",
          "type": "uint256"
        }
      ],
      "name": "award",
      "outputs": [],
      "stateMutability": "nonpayable",
      "type": "function"
    },
    {
      "inputs": [],
      "name": "awardBalance",
      "outputs": [
        {
          "internalType": "uint256",
          "name": "",
          "type": "uint256"
        }
      ],
      "stateMutability": "view",
      "type": "function"
    },
    {
      "inputs": [
        {
          "internalType": "address",
          "name": "_to",
          "type": "address"
        },
        {
          "internalType": "address",
          "name": "_externalToken",
          "type": "address"
        },
        {
          "internalType": "uint256",
          "name": "_amount",
          "type": "uint256"
        }
      ],
      "name": "awardExternalERC20",
      "outputs": [],
      "stateMutability": "nonpayable",
      "type": "function"
    },
    {
      "inputs": [
        {
          "internalType": "address",
          "name": "_to",
          "type": "address"
        },
        {
          "internalType": "address",
          "name": "_externalToken",
          "type": "address"
        },
        {
          "internalType": "uint256[]",
          "name": "_tokenIds",
          "type": "uint256[]"
        }
      ],
      "name": "awardExternalERC721",
      "outputs": [],
      "stateMutability": "nonpayable",
      "type": "function"
    },
    {
      "inputs": [],
      "name": "balance",
      "outputs": [
        {
          "internalType": "uint256",
          "name": "",
          "type": "uint256"
        }
      ],
      "stateMutability": "nonpayable",
      "type": "function"
    },
    {
      "inputs": [
        {
          "internalType": "address",
          "name": "_externalToken",
          "type": "address"
        }
      ],
      "name": "canAwardExternal",
      "outputs": [
        {
          "internalType": "bool",
          "name": "",
          "type": "bool"
        }
      ],
      "stateMutability": "view",
      "type": "function"
    },
    {
      "inputs": [],
      "name": "captureAwardBalance",
      "outputs": [
        {
          "internalType": "uint256",
          "name": "",
          "type": "uint256"
        }
      ],
      "stateMutability": "nonpayable",
      "type": "function"
    },
    {
      "inputs": [],
      "name": "claimOwnership",
      "outputs": [],
      "stateMutability": "nonpayable",
      "type": "function"
    },
    {
      "inputs": [
        {
          "internalType": "contract ICompLike",
          "name": "_compLike",
          "type": "address"
        },
        {
          "internalType": "address",
          "name": "_to",
          "type": "address"
        }
      ],
      "name": "compLikeDelegate",
      "outputs": [],
      "stateMutability": "nonpayable",
      "type": "function"
    },
    {
      "inputs": [
        {
          "internalType": "address",
          "name": "_to",
          "type": "address"
        },
        {
          "internalType": "uint256",
          "name": "_amount",
          "type": "uint256"
        }
      ],
      "name": "depositTo",
      "outputs": [],
      "stateMutability": "nonpayable",
      "type": "function"
    },
    {
      "inputs": [
        {
          "internalType": "address",
          "name": "_to",
          "type": "address"
        },
        {
          "internalType": "uint256",
          "name": "_amount",
          "type": "uint256"
        },
        {
          "internalType": "address",
          "name": "_delegate",
          "type": "address"
        }
      ],
      "name": "depositToAndDelegate",
      "outputs": [],
      "stateMutability": "nonpayable",
      "type": "function"
    },
    {
      "inputs": [],
      "name": "getAccountedBalance",
      "outputs": [
        {
          "internalType": "uint256",
          "name": "",
          "type": "uint256"
        }
      ],
      "stateMutability": "view",
      "type": "function"
    },
    {
      "inputs": [],
      "name": "getBalanceCap",
      "outputs": [
        {
          "internalType": "uint256",
          "name": "",
          "type": "uint256"
        }
      ],
      "stateMutability": "view",
      "type": "function"
    },
    {
      "inputs": [],
      "name": "getLiquidityCap",
      "outputs": [
        {
          "internalType": "uint256",
          "name": "",
          "type": "uint256"
        }
      ],
      "stateMutability": "view",
      "type": "function"
    },
    {
      "inputs": [],
      "name": "getPrizeStrategy",
      "outputs": [
        {
          "internalType": "address",
          "name": "",
          "type": "address"
        }
      ],
      "stateMutability": "view",
      "type": "function"
    },
    {
      "inputs": [],
      "name": "getTicket",
      "outputs": [
        {
          "internalType": "contract ITicket",
          "name": "",
          "type": "address"
        }
      ],
      "stateMutability": "view",
      "type": "function"
    },
    {
      "inputs": [],
      "name": "getToken",
      "outputs": [
        {
          "internalType": "address",
          "name": "",
          "type": "address"
        }
      ],
      "stateMutability": "view",
      "type": "function"
    },
    {
      "inputs": [
        {
          "internalType": "contract ITicket",
          "name": "_controlledToken",
          "type": "address"
        }
      ],
      "name": "isControlled",
      "outputs": [
        {
          "internalType": "bool",
          "name": "",
          "type": "bool"
        }
      ],
      "stateMutability": "view",
      "type": "function"
    },
    {
      "inputs": [
        {
          "internalType": "address",
          "name": "",
          "type": "address"
        },
        {
          "internalType": "address",
          "name": "",
          "type": "address"
        },
        {
          "internalType": "uint256",
          "name": "",
          "type": "uint256"
        },
        {
          "internalType": "bytes",
          "name": "",
          "type": "bytes"
        }
      ],
      "name": "onERC721Received",
      "outputs": [
        {
          "internalType": "bytes4",
          "name": "",
          "type": "bytes4"
        }
      ],
      "stateMutability": "pure",
      "type": "function"
    },
    {
      "inputs": [],
      "name": "owner",
      "outputs": [
        {
          "internalType": "address",
          "name": "",
          "type": "address"
        }
      ],
      "stateMutability": "view",
      "type": "function"
    },
    {
      "inputs": [],
      "name": "pendingOwner",
      "outputs": [
        {
          "internalType": "address",
          "name": "",
          "type": "address"
        }
      ],
      "stateMutability": "view",
      "type": "function"
    },
    {
      "inputs": [],
      "name": "renounceOwnership",
      "outputs": [],
      "stateMutability": "nonpayable",
      "type": "function"
    },
    {
      "inputs": [
        {
          "internalType": "uint256",
          "name": "_balanceCap",
          "type": "uint256"
        }
      ],
      "name": "setBalanceCap",
      "outputs": [
        {
          "internalType": "bool",
          "name": "",
          "type": "bool"
        }
      ],
      "stateMutability": "nonpayable",
      "type": "function"
    },
    {
      "inputs": [
        {
          "internalType": "uint256",
          "name": "_liquidityCap",
          "type": "uint256"
        }
      ],
      "name": "setLiquidityCap",
      "outputs": [],
      "stateMutability": "nonpayable",
      "type": "function"
    },
    {
      "inputs": [
        {
          "internalType": "address",
          "name": "_prizeStrategy",
          "type": "address"
        }
      ],
      "name": "setPrizeStrategy",
      "outputs": [],
      "stateMutability": "nonpayable",
      "type": "function"
    },
    {
      "inputs": [
        {
          "internalType": "contract ITicket",
          "name": "_ticket",
          "type": "address"
        }
      ],
      "name": "setTicket",
      "outputs": [
        {
          "internalType": "bool",
          "name": "",
          "type": "bool"
        }
      ],
      "stateMutability": "nonpayable",
      "type": "function"
    },
    {
      "inputs": [
        {
          "internalType": "address",
          "name": "_to",
          "type": "address"
        },
        {
          "internalType": "address",
          "name": "_externalToken",
          "type": "address"
        },
        {
          "internalType": "uint256",
          "name": "_amount",
          "type": "uint256"
        }
      ],
      "name": "transferExternalERC20",
      "outputs": [],
      "stateMutability": "nonpayable",
      "type": "function"
    },
    {
      "inputs": [
        {
          "internalType": "address",
          "name": "_newOwner",
          "type": "address"
        }
      ],
      "name": "transferOwnership",
      "outputs": [],
      "stateMutability": "nonpayable",
      "type": "function"
    },
    {
      "inputs": [
        {
          "internalType": "address",
          "name": "_from",
          "type": "address"
        },
        {
          "internalType": "uint256",
          "name": "_amount",
          "type": "uint256"
        }
      ],
      "name": "withdrawFrom",
      "outputs": [
        {
          "internalType": "uint256",
          "name": "",
          "type": "uint256"
        }
      ],
      "stateMutability": "nonpayable",
      "type": "function"
    },
    {
      "inputs": [],
      "name": "yieldSource",
      "outputs": [
        {
          "internalType": "contract IYieldSource",
          "name": "",
          "type": "address"
        }
      ],
      "stateMutability": "view",
      "type": "function"
    }
  ],
  "transactionHash": "0xaba462518de883f81f40d04a89ed06e7b954c2ad3fa7fbff0c7d4b87c726cabf",
  "args": [
    "0xE0F4217390221aF47855E094F6e112D43C8698fE",
    "0x8F3e145B899Dc048683C0eE06203D254DEf80396"
  ],
  "solcInputHash": "0617a234d0b660aa82c51becdcd2311f",
  "bytecode": "0x60806040523480156200001157600080fd5b50604051620028ea380380620028ea83398101604081905262000034916200028c565b8180620000418162000201565b5060016002556200005460001962000251565b506001600160a01b038116620000cc5760405162461bcd60e51b815260206004820152603260248201527f5969656c64536f757263655072697a65506f6f6c2f7969656c642d736f757263604482015271652d6e6f742d7a65726f2d6164647265737360701b60648201526084015b60405180910390fd5b600880546001600160a01b0319166001600160a01b03831690811790915560405163c89039c560e01b60208201526000919060240160408051601f19818403018152908290526200011d91620002cb565b600060405180830381855afa9150503d80600081146200015a576040519150601f19603f3d011682016040523d82523d6000602084013e6200015f565b606091505b5050905080620001c45760405162461bcd60e51b815260206004820152602960248201527f5969656c64536f757263655072697a65506f6f6c2f696e76616c69642d7969656044820152686c642d736f7572636560b81b6064820152608401620000c3565b6040516001600160a01b038316907ff40fcec21964ffb566044d083b4073f29f7f7929110ea19e1b3ebe375d89055e90600090a250505062000322565b600080546001600160a01b038381166001600160a01b0319831681178455604051919092169283917f8be0079c531659141344cd1fd0a4f28419497f9722a3daafe3b4186f6b6457e09190a35050565b60068190556040518181527f3ff20538222f568f27ff436c0c49dfd3e48d5b8f86533a3f759dc1c7089775ab9060200160405180910390a150565b60008060408385031215620002a057600080fd5b8251620002ad8162000309565b6020840151909250620002c08162000309565b809150509250929050565b6000825160005b81811015620002ee5760208186018101518583015201620002d2565b81811115620002fe576000828501525b509190910192915050565b6001600160a01b03811681146200031f57600080fd5b50565b6125b880620003326000396000f3fe608060405234801561001057600080fd5b50600436106101e55760003560e01c80637b99adb11161010f578063c002c4d6116100a2578063e6d8a94b11610071578063e6d8a94b1461041a578063f2fde38b14610422578063ffa1ad7414610435578063ffaad6a51461047e57600080fd5b8063c002c4d6146103d4578063d7a169eb146103e5578063d804abaf146103f8578063e30c39781461040957600080fd5b8063aec9c307116100de578063aec9c3071461039e578063b15a49c1146103b1578063b2470e5c146103b9578063b69ef8a8146103cc57600080fd5b80637b99adb1146103545780638da5cb5b1461036757806391ca480e146103785780639470b0bd1461038b57600080fd5b80632f7627e311610187578063630665b411610156578063630665b41461031e5780636a3fd4f914610326578063715018a61461033957806378b3d3271461034157600080fd5b80632f7627e3146102e857806333e5761f146102fb5780634e71e0c8146103035780635d8a776e1461030b57600080fd5b806316960d55116101c357806316960d551461027f5780631c65c78b1461029257806321df0da7146102b55780632b0ab144146102d557600080fd5b806308234319146101ea57806313f55e3914610201578063150b7a0214610216575b600080fd5b6005545b6040519081526020015b60405180910390f35b61021461020f36600461220e565b610491565b005b61024e61022436600461224f565b7f150b7a020000000000000000000000000000000000000000000000000000000095945050505050565b6040517fffffffff0000000000000000000000000000000000000000000000000000000090911681526020016101f8565b61021461028d366004612179565b610553565b6102a56102a036600461213f565b610797565b60405190151581526020016101f8565b6102bd610940565b6040516001600160a01b0390911681526020016101f8565b6102146102e336600461220e565b61094f565b6102146102f636600461237e565b6109fe565b6101ee610b79565b610214610b83565b6102146103193660046122ee565b610c11565b6007546101ee565b6102a561033436600461213f565b610d30565b610214610d51565b6102a561034f36600461213f565b610dc6565b6102146103623660046123b7565b610dd1565b6000546001600160a01b03166102bd565b61021461038636600461213f565b610e46565b6101ee6103993660046122ee565b610eb8565b6102a56103ac3660046123b7565b611019565b6006546101ee565b6008546102bd906001600160a01b031681565b6101ee611095565b6003546001600160a01b03166102bd565b6102146103f336600461231a565b61109f565b6004546001600160a01b03166102bd565b6001546001600160a01b03166102bd565b6101ee6111df565b61021461043036600461213f565b6112e5565b6104716040518060400160405280600581526020017f342e302e3000000000000000000000000000000000000000000000000000000081525081565b6040516101f89190612486565b61021461048c3660046122ee565b611421565b6004546001600160a01b031633146104f05760405162461bcd60e51b815260206004820152601c60248201527f5072697a65506f6f6c2f6f6e6c792d7072697a6553747261746567790000000060448201526064015b60405180910390fd5b6104fb8383836114e2565b1561054e57816001600160a01b0316836001600160a01b03167fb0bac59718cd343c80a813518afcf36846cfcfe6d56e2b3cab9bd49f5f9b251c8360405161054591815260200190565b60405180910390a35b505050565b6004546001600160a01b031633146105ad5760405162461bcd60e51b815260206004820152601c60248201527f5072697a65506f6f6c2f6f6e6c792d7072697a6553747261746567790000000060448201526064016104e7565b6008546001600160a01b038481169116141561060b5760405162461bcd60e51b815260206004820181905260248201527f5072697a65506f6f6c2f696e76616c69642d65787465726e616c2d746f6b656e60448201526064016104e7565b8061061557610791565b60005b8181101561074257836001600160a01b03166342842e0e30878686868181106106435761064361253e565b6040517fffffffff0000000000000000000000000000000000000000000000000000000060e088901b1681526001600160a01b03958616600482015294909316602485015250602090910201356044820152606401600060405180830381600087803b1580156106b257600080fd5b505af19250505080156106c3575060015b610730573d8080156106f1576040519150601f19603f3d011682016040523d82523d6000602084013e6106f6565b606091505b507f17e975018310f88872b58d4d8263adca83cf5c1893496ea2a86923dab15276ad816040516107269190612486565b60405180910390a1505b8061073a816124f4565b915050610618565b50826001600160a01b0316846001600160a01b03167f69c2de32bc4d47f488e72626a6cfdee85089342e52675e7de79c4b417623960c8484604051610788929190612431565b60405180910390a35b50505050565b6000336107ac6000546001600160a01b031690565b6001600160a01b0316146108025760405162461bcd60e51b815260206004820152601860248201527f4f776e61626c652f63616c6c65722d6e6f742d6f776e6572000000000000000060448201526064016104e7565b816001600160a01b03811661087f5760405162461bcd60e51b815260206004820152602160248201527f5072697a65506f6f6c2f7469636b65742d6e6f742d7a65726f2d61646472657360448201527f730000000000000000000000000000000000000000000000000000000000000060648201526084016104e7565b6003546001600160a01b0316156108d85760405162461bcd60e51b815260206004820152601c60248201527f5072697a65506f6f6c2f7469636b65742d616c72656164792d7365740000000060448201526064016104e7565b6003805473ffffffffffffffffffffffffffffffffffffffff19166001600160a01b0385169081179091556040517f9f9d59c87dbdc6ca82d9e5924782004b9aebc366c505c0ccab12f61e2a9f332190600090a2610937600019611575565b50600192915050565b600061094a6115b1565b905090565b6004546001600160a01b031633146109a95760405162461bcd60e51b815260206004820152601c60248201527f5072697a65506f6f6c2f6f6e6c792d7072697a6553747261746567790000000060448201526064016104e7565b6109b48383836114e2565b1561054e57816001600160a01b0316836001600160a01b03167fc65f48aca3b7a99b7443d04b8ffbb073156179bc628dc3f7def50477489734698360405161054591815260200190565b33610a116000546001600160a01b031690565b6001600160a01b031614610a675760405162461bcd60e51b815260206004820152601860248201527f4f776e61626c652f63616c6c65722d6e6f742d6f776e6572000000000000000060448201526064016104e7565b6040517f70a082310000000000000000000000000000000000000000000000000000000081523060048201526000906001600160a01b038416906370a082319060240160206040518083038186803b158015610ac257600080fd5b505afa158015610ad6573d6000803e3d6000fd5b505050506040513d601f19601f82011682018060405250810190610afa91906123d0565b1115610b75576040517f5c19a95c0000000000000000000000000000000000000000000000000000000081526001600160a01b038281166004830152831690635c19a95c90602401600060405180830381600087803b158015610b5c57600080fd5b505af1158015610b70573d6000803e3d6000fd5b505050505b5050565b600061094a611647565b6001546001600160a01b03163314610bdd5760405162461bcd60e51b815260206004820152601f60248201527f4f776e61626c652f63616c6c65722d6e6f742d70656e64696e674f776e65720060448201526064016104e7565b600154610bf2906001600160a01b03166116dd565b6001805473ffffffffffffffffffffffffffffffffffffffff19169055565b6004546001600160a01b03163314610c6b5760405162461bcd60e51b815260206004820152601c60248201527f5072697a65506f6f6c2f6f6e6c792d7072697a6553747261746567790000000060448201526064016104e7565b80610c74575050565b60075480821115610cc75760405162461bcd60e51b815260206004820152601d60248201527f5072697a65506f6f6c2f61776172642d657863656564732d617661696c00000060448201526064016104e7565b610cd182826124b1565b6007556003546001600160a01b0316610ceb84848361173a565b806001600160a01b0316846001600160a01b03167fe2554529d99ab7a67db6b4cea2b32c7d55ae325f958861e05f304fdded867e318560405161078891815260200190565b6000610d4b826008546001600160a01b039182169116141590565b92915050565b33610d646000546001600160a01b031690565b6001600160a01b031614610dba5760405162461bcd60e51b815260206004820152601860248201527f4f776e61626c652f63616c6c65722d6e6f742d6f776e6572000000000000000060448201526064016104e7565b610dc460006116dd565b565b6000610d4b826117ba565b33610de46000546001600160a01b031690565b6001600160a01b031614610e3a5760405162461bcd60e51b815260206004820152601860248201527f4f776e61626c652f63616c6c65722d6e6f742d6f776e6572000000000000000060448201526064016104e7565b610e43816117e3565b50565b33610e596000546001600160a01b031690565b6001600160a01b031614610eaf5760405162461bcd60e51b815260206004820152601860248201527f4f776e61626c652f63616c6c65722d6e6f742d6f776e6572000000000000000060448201526064016104e7565b610e4381611818565b6000600280541415610f0c5760405162461bcd60e51b815260206004820152601f60248201527f5265656e7472616e637947756172643a207265656e7472616e742063616c6c0060448201526064016104e7565b600280556003546040517f631b5dfb0000000000000000000000000000000000000000000000000000000081523360048201526001600160a01b0385811660248301526044820185905290911690819063631b5dfb90606401600060405180830381600087803b158015610f7f57600080fd5b505af1158015610f93573d6000803e3d6000fd5b505050506000610fa2846118c5565b9050610fc18582610fb16115b1565b6001600160a01b0316919061195d565b60408051858152602081018390526001600160a01b03808516929088169133917fe56473357106d0cdea364a045d5ab7abb44b6bd1c0f092ba3734983a43459f8f910160405180910390a46001600255949350505050565b60003361102e6000546001600160a01b031690565b6001600160a01b0316146110845760405162461bcd60e51b815260206004820152601860248201527f4f776e61626c652f63616c6c65722d6e6f742d6f776e6572000000000000000060448201526064016104e7565b61108d82611575565b506001919050565b600061094a611a06565b6002805414156110f15760405162461bcd60e51b815260206004820152601f60248201527f5265656e7472616e637947756172643a207265656e7472616e742063616c6c0060448201526064016104e7565b60028055816110ff81611a79565b61114b5760405162461bcd60e51b815260206004820152601f60248201527f5072697a65506f6f6c2f657863656564732d6c69717569646974792d6361700060448201526064016104e7565b611156338585611aaf565b6003546040517f33e39b610000000000000000000000000000000000000000000000000000000081523360048201526001600160a01b038481166024830152909116906333e39b6190604401600060405180830381600087803b1580156111bc57600080fd5b505af11580156111d0573d6000803e3d6000fd5b50506001600255505050505050565b60006002805414156112335760405162461bcd60e51b815260206004820152601f60248201527f5265656e7472616e637947756172643a207265656e7472616e742063616c6c0060448201526064016104e7565b600280556000611241611647565b6007549091506000611251611a06565b9050600083821161126357600061126d565b61126d84836124b1565b9050600083821161127f576000611289565b61128984836124b1565b905080156112d75761129b8185612499565b60078190556040518281529094507fce2b6e507c7ca1a20ce136810f524eefc19ba4c7e4866eb6cc0cba76e778d4be9060200160405180910390a15b505060016002555092915050565b336112f86000546001600160a01b031690565b6001600160a01b03161461134e5760405162461bcd60e51b815260206004820152601860248201527f4f776e61626c652f63616c6c65722d6e6f742d6f776e6572000000000000000060448201526064016104e7565b6001600160a01b0381166113ca5760405162461bcd60e51b815260206004820152602560248201527f4f776e61626c652f70656e64696e674f776e65722d6e6f742d7a65726f2d616460448201527f647265737300000000000000000000000000000000000000000000000000000060648201526084016104e7565b6001805473ffffffffffffffffffffffffffffffffffffffff19166001600160a01b0383169081179091556040517f239a2ddded15777fa246aed5f7e1a9bc69a39d4eb4a397034d1d85766cca7d4c90600090a250565b6002805414156114735760405162461bcd60e51b815260206004820152601f60248201527f5265656e7472616e637947756172643a207265656e7472616e742063616c6c0060448201526064016104e7565b600280558061148181611a79565b6114cd5760405162461bcd60e51b815260206004820152601f60248201527f5072697a65506f6f6c2f657863656564732d6c69717569646974792d6361700060448201526064016104e7565b6114d8338484611aaf565b5050600160025550565b60006114fd836008546001600160a01b039182169116141590565b6115495760405162461bcd60e51b815260206004820181905260248201527f5072697a65506f6f6c2f696e76616c69642d65787465726e616c2d746f6b656e60448201526064016104e7565b816115565750600061156e565b61156a6001600160a01b038416858461195d565b5060015b9392505050565b60058190556040518181527f439b9ac8f2088164a8d80921758209db1623cf1a37a48913679ef3a43d7a5cf7906020015b60405180910390a150565b600854604080517fc89039c500000000000000000000000000000000000000000000000000000000815290516000926001600160a01b03169163c89039c5916004808301926020929190829003018186803b15801561160f57600080fd5b505afa158015611623573d6000803e3d6000fd5b505050506040513d601f19601f8201168201806040525081019061094a919061215c565b600354604080517f18160ddd00000000000000000000000000000000000000000000000000000000815290516000926001600160a01b0316916318160ddd916004808301926020929190829003018186803b1580156116a557600080fd5b505afa1580156116b9573d6000803e3d6000fd5b505050506040513d601f19601f8201168201806040525081019061094a91906123d0565b600080546001600160a01b0383811673ffffffffffffffffffffffffffffffffffffffff19831681178455604051919092169283917f8be0079c531659141344cd1fd0a4f28419497f9722a3daafe3b4186f6b6457e09190a35050565b6040517f5d7b07580000000000000000000000000000000000000000000000000000000081526001600160a01b03848116600483015260248201849052821690635d7b075890604401600060405180830381600087803b15801561179d57600080fd5b505af11580156117b1573d6000803e3d6000fd5b50505050505050565b6003546000906001600160a01b03838116911614156117db57506001919050565b506000919050565b60068190556040518181527f3ff20538222f568f27ff436c0c49dfd3e48d5b8f86533a3f759dc1c7089775ab906020016115a6565b6001600160a01b03811661186e5760405162461bcd60e51b815260206004820181905260248201527f5072697a65506f6f6c2f7072697a6553747261746567792d6e6f742d7a65726f60448201526064016104e7565b6004805473ffffffffffffffffffffffffffffffffffffffff19166001600160a01b0383169081179091556040517f7f58dc86bc2e435cb77ca0edb1df55e25f90caf2d6bd866971715437d456a21290600090a250565b6008546040517f013054c2000000000000000000000000000000000000000000000000000000008152600481018390526000916001600160a01b03169063013054c290602401602060405180830381600087803b15801561192557600080fd5b505af1158015611939573d6000803e3d6000fd5b505050506040513d601f19601f82011682018060405250810190610d4b91906123d0565b6040516001600160a01b03831660248201526044810182905261054e9084907fa9059cbb00000000000000000000000000000000000000000000000000000000906064015b60408051601f198184030181529190526020810180517bffffffffffffffffffffffffffffffffffffffffffffffffffffffff167fffffffff0000000000000000000000000000000000000000000000000000000090931692909217909152611ba1565b6008546040517fb99152d00000000000000000000000000000000000000000000000000000000081523060048201526000916001600160a01b03169063b99152d090602401602060405180830381600087803b158015611a6557600080fd5b505af11580156116b9573d6000803e3d6000fd5b600654600090600019811415611a925750600192915050565b8083611a9c611647565b611aa69190612499565b11159392505050565b611ab98282611c86565b611b055760405162461bcd60e51b815260206004820152601d60248201527f5072697a65506f6f6c2f657863656564732d62616c616e63652d63617000000060448201526064016104e7565b6003546001600160a01b0316611b1c83838361173a565b611b3b843084611b2a6115b1565b6001600160a01b0316929190611d59565b611b4482611daa565b806001600160a01b0316836001600160a01b0316856001600160a01b03167f4174a9435a04d04d274c76779cad136a41fde6937c56241c09ab9d3c7064a1a985604051611b9391815260200190565b60405180910390a450505050565b6000611bf6826040518060400160405280602081526020017f5361666545524332303a206c6f772d6c6576656c2063616c6c206661696c6564815250856001600160a01b0316611e539092919063ffffffff16565b80519091501561054e5780806020019051810190611c14919061235c565b61054e5760405162461bcd60e51b815260206004820152602a60248201527f5361666545524332303a204552433230206f7065726174696f6e20646964206e60448201527f6f7420737563636565640000000000000000000000000000000000000000000060648201526084016104e7565b6003546005546000916001600160a01b031690600019811415611cae57600192505050610d4b565b6040517f70a082310000000000000000000000000000000000000000000000000000000081526001600160a01b038681166004830152829186918516906370a082319060240160206040518083038186803b158015611d0c57600080fd5b505afa158015611d20573d6000803e3d6000fd5b505050506040513d601f19601f82011682018060405250810190611d4491906123d0565b611d4e9190612499565b111595945050505050565b6040516001600160a01b03808516602483015283166044820152606481018290526107919085907f23b872dd00000000000000000000000000000000000000000000000000000000906084016119a2565b600854611dd3906001600160a01b031682611dc36115b1565b6001600160a01b03169190611e6a565b6008546040517f87a6eeef000000000000000000000000000000000000000000000000000000008152600481018390523060248201526001600160a01b03909116906387a6eeef90604401600060405180830381600087803b158015611e3857600080fd5b505af1158015611e4c573d6000803e3d6000fd5b5050505050565b6060611e628484600085611fc7565b949350505050565b801580611f0c57506040517fdd62ed3e0000000000000000000000000000000000000000000000000000000081523060048201526001600160a01b03838116602483015284169063dd62ed3e9060440160206040518083038186803b158015611ed257600080fd5b505afa158015611ee6573d6000803e3d6000fd5b505050506040513d601f19601f82011682018060405250810190611f0a91906123d0565b155b611f7e5760405162461bcd60e51b815260206004820152603660248201527f5361666545524332303a20617070726f76652066726f6d206e6f6e2d7a65726f60448201527f20746f206e6f6e2d7a65726f20616c6c6f77616e63650000000000000000000060648201526084016104e7565b6040516001600160a01b03831660248201526044810182905261054e9084907f095ea7b300000000000000000000000000000000000000000000000000000000906064016119a2565b60608247101561203f5760405162461bcd60e51b815260206004820152602660248201527f416464726573733a20696e73756666696369656e742062616c616e636520666f60448201527f722063616c6c000000000000000000000000000000000000000000000000000060648201526084016104e7565b843b61208d5760405162461bcd60e51b815260206004820152601d60248201527f416464726573733a2063616c6c20746f206e6f6e2d636f6e747261637400000060448201526064016104e7565b600080866001600160a01b031685876040516120a99190612415565b60006040518083038185875af1925050503d80600081146120e6576040519150601f19603f3d011682016040523d82523d6000602084013e6120eb565b606091505b50915091506120fb828286612106565b979650505050505050565b6060831561211557508161156e565b8251156121255782518084602001fd5b8160405162461bcd60e51b81526004016104e79190612486565b60006020828403121561215157600080fd5b813561156e8161256d565b60006020828403121561216e57600080fd5b815161156e8161256d565b6000806000806060858703121561218f57600080fd5b843561219a8161256d565b935060208501356121aa8161256d565b9250604085013567ffffffffffffffff808211156121c757600080fd5b818701915087601f8301126121db57600080fd5b8135818111156121ea57600080fd5b8860208260051b85010111156121ff57600080fd5b95989497505060200194505050565b60008060006060848603121561222357600080fd5b833561222e8161256d565b9250602084013561223e8161256d565b929592945050506040919091013590565b60008060008060006080868803121561226757600080fd5b85356122728161256d565b945060208601356122828161256d565b935060408601359250606086013567ffffffffffffffff808211156122a657600080fd5b818801915088601f8301126122ba57600080fd5b8135818111156122c957600080fd5b8960208285010111156122db57600080fd5b9699959850939650602001949392505050565b6000806040838503121561230157600080fd5b823561230c8161256d565b946020939093013593505050565b60008060006060848603121561232f57600080fd5b833561233a8161256d565b92506020840135915060408401356123518161256d565b809150509250925092565b60006020828403121561236e57600080fd5b8151801515811461156e57600080fd5b6000806040838503121561239157600080fd5b823561239c8161256d565b915060208301356123ac8161256d565b809150509250929050565b6000602082840312156123c957600080fd5b5035919050565b6000602082840312156123e257600080fd5b5051919050565b600081518084526124018160208601602086016124c8565b601f01601f19169290920160200192915050565b600082516124278184602087016124c8565b9190910192915050565b6020815281602082015260007f07ffffffffffffffffffffffffffffffffffffffffffffffffffffffffffffff83111561246a57600080fd5b8260051b80856040850137600092016040019182525092915050565b60208152600061156e60208301846123e9565b600082198211156124ac576124ac61250f565b500190565b6000828210156124c3576124c361250f565b500390565b60005b838110156124e35781810151838201526020016124cb565b838111156107915750506000910152565b60006000198214156125085761250861250f565b5060010190565b7f4e487b7100000000000000000000000000000000000000000000000000000000600052601160045260246000fd5b7f4e487b7100000000000000000000000000000000000000000000000000000000600052603260045260246000fd5b6001600160a01b0381168114610e4357600080fdfea2646970667358221220a8b2ce01ca151cbc52bb4edef9cf55ed4ff317074ec88cf0c6ad763a7d43237f64736f6c63430008060033",
  "devdoc": {
    "author": "PoolTogether Inc Team",
    "events": {
      "Deployed(address)": {
        "details": "Emitted when yield source prize pool is deployed.",
        "params": {
          "yieldSource": "Address of the yield source."
        }
      }
    },
    "kind": "dev",
    "methods": {
      "award(address,uint256)": {
        "details": "The amount awarded must be less than the awardBalance()",
        "params": {
          "amount": "The amount of assets to be awarded",
          "to": "The address of the winner that receives the award"
        }
      },
      "awardBalance()": {
        "details": "captureAwardBalance() should be called first",
        "returns": {
          "_0": "The total amount of assets to be awarded for the current prize"
        }
      },
      "awardExternalERC20(address,address,uint256)": {
        "details": "Used to award any arbitrary tokens held by the Prize Pool",
        "params": {
          "amount": "The amount of external assets to be awarded",
          "externalToken": "The address of the external asset token being awarded",
          "to": "The address of the winner that receives the award"
        }
      },
      "awardExternalERC721(address,address,uint256[])": {
        "details": "Used to award any arbitrary NFTs held by the Prize Pool",
        "params": {
          "externalToken": "The address of the external NFT token being awarded",
          "to": "The address of the winner that receives the award",
          "tokenIds": "An array of NFT Token IDs to be transferred"
        }
      },
      "balance()": {
        "returns": {
          "_0": "The underlying balance of assets"
        }
      },
      "canAwardExternal(address)": {
        "details": "Checks with the Prize Pool if a specific token type may be awarded as an external prize",
        "params": {
          "externalToken": "The address of the token to check"
        },
        "returns": {
          "_0": "True if the token may be awarded, false otherwise"
        }
      },
      "captureAwardBalance()": {
        "details": "This function also captures the reserve fees.",
        "returns": {
          "_0": "The total amount of assets to be awarded for the current prize"
        }
      },
      "claimOwnership()": {
        "details": "This function is only callable by the `_pendingOwner`."
      },
      "compLikeDelegate(address,address)": {
        "params": {
          "compLike": "The COMP-like token held by the prize pool that should be delegated",
          "to": "The address to delegate to"
        }
      },
      "constructor": {
        "params": {
          "_owner": "Address of the Yield Source Prize Pool owner",
          "_yieldSource": "Address of the yield source"
        }
      },
      "depositTo(address,uint256)": {
        "params": {
          "amount": "The amount of assets to deposit",
          "to": "The address receiving the newly minted tokens"
        }
      },
      "depositToAndDelegate(address,uint256,address)": {
        "params": {
          "amount": "The amount of assets to deposit",
          "delegate": "The address to delegate to for the caller",
          "to": "The address receiving the newly minted tokens"
        }
      },
      "getAccountedBalance()": {
        "returns": {
          "_0": "uint256 accountBalance"
        }
      },
      "isControlled(address)": {
        "details": "Checks if a specific token is controlled by the Prize Pool",
        "params": {
          "controlledToken": "The address of the token to check"
        },
        "returns": {
          "_0": "True if the token is a controlled token, false otherwise"
        }
      },
      "onERC721Received(address,address,uint256,bytes)": {
        "details": "Whenever an {IERC721} `tokenId` token is transferred to this contract via {IERC721-safeTransferFrom} by `operator` from `from`, this function is called. It must return its Solidity selector to confirm the token transfer. If any other value is returned or the interface is not implemented by the recipient, the transfer will be reverted. The selector can be obtained in Solidity with `IERC721.onERC721Received.selector`."
      },
      "pendingOwner()": {
        "returns": {
          "_0": "Current `_pendingOwner` address."
        }
      },
      "renounceOwnership()": {
        "details": "Leaves the contract without owner. It will not be possible to call `onlyOwner` functions anymore. Can only be called by the current owner. NOTE: Renouncing ownership will leave the contract without an owner, thereby removing any functionality that is only available to the owner."
      },
      "setBalanceCap(uint256)": {
        "details": "If a user wins, his balance can go over the cap. He will be able to withdraw the excess but not deposit.Needs to be called after deploying a prize pool to be able to deposit into it.",
        "params": {
          "balanceCap": "New balance cap."
        },
        "returns": {
          "_0": "True if new balance cap has been successfully set."
        }
      },
      "setLiquidityCap(uint256)": {
        "params": {
          "liquidityCap": "The new liquidity cap for the prize pool"
        }
      },
      "setPrizeStrategy(address)": {
        "params": {
          "_prizeStrategy": "The new prize strategy."
        }
      },
      "setTicket(address)": {
        "params": {
          "ticket": "Address of the ticket to set."
        },
        "returns": {
          "_0": "True if ticket has been successfully set."
        }
      },
      "transferExternalERC20(address,address,uint256)": {
        "details": "Used to transfer out tokens held by the Prize Pool.  Could be liquidated, or anything.",
        "params": {
          "amount": "The amount of external assets to be awarded",
          "externalToken": "The address of the external asset token being awarded",
          "to": "The address of the winner that receives the award"
        }
      },
      "transferOwnership(address)": {
        "params": {
          "_newOwner": "Address to transfer ownership to."
        }
      },
      "withdrawFrom(address,uint256)": {
        "params": {
          "amount": "The amount of tokens to redeem for assets.",
          "from": "The address to redeem tokens from."
        },
        "returns": {
          "_0": "The actual amount withdrawn"
        }
      }
    },
    "title": "PoolTogether V4 YieldSourcePrizePool",
    "version": 1
  },
  "userdoc": {
    "kind": "user",
    "methods": {
      "VERSION()": {
        "notice": "Semver Version"
      },
      "award(address,uint256)": {
        "notice": "Called by the prize strategy to award prizes."
      },
      "awardBalance()": {
        "notice": "Returns the balance that is available to award."
      },
      "awardExternalERC20(address,address,uint256)": {
        "notice": "Called by the Prize-Strategy to award external ERC20 prizes"
      },
      "awardExternalERC721(address,address,uint256[])": {
        "notice": "Called by the prize strategy to award external ERC721 prizes"
      },
      "captureAwardBalance()": {
        "notice": "Captures any available interest as award balance."
      },
      "claimOwnership()": {
        "notice": "Allows the `_pendingOwner` address to finalize the transfer."
      },
      "compLikeDelegate(address,address)": {
        "notice": "Delegate the votes for a Compound COMP-like token held by the prize pool"
      },
      "constructor": {
        "notice": "Deploy the Prize Pool and Yield Service with the required contract connections"
      },
      "depositTo(address,uint256)": {
        "notice": "Deposit assets into the Prize Pool in exchange for tokens"
      },
      "depositToAndDelegate(address,uint256,address)": {
        "notice": "Deposit assets into the Prize Pool in exchange for tokens, then sets the delegate on behalf of the caller."
      },
      "getAccountedBalance()": {
        "notice": "Read internal Ticket accounted balance."
      },
      "getBalanceCap()": {
        "notice": "Read internal balanceCap variable"
      },
      "getLiquidityCap()": {
        "notice": "Read internal liquidityCap variable"
      },
      "getPrizeStrategy()": {
        "notice": "Read prizeStrategy variable"
      },
      "getTicket()": {
        "notice": "Read ticket variable"
      },
      "getToken()": {
        "notice": "Read token variable"
      },
      "owner()": {
        "notice": "Returns the address of the current owner."
      },
      "pendingOwner()": {
        "notice": "Gets current `_pendingOwner`."
      },
      "renounceOwnership()": {
        "notice": "Renounce ownership of the contract."
      },
      "setBalanceCap(uint256)": {
        "notice": "Allows the owner to set a balance cap per `token` for the pool."
      },
      "setLiquidityCap(uint256)": {
        "notice": "Allows the Governor to set a cap on the amount of liquidity that he pool can hold"
      },
      "setPrizeStrategy(address)": {
        "notice": "Sets the prize strategy of the prize pool.  Only callable by the owner."
      },
      "setTicket(address)": {
        "notice": "Set prize pool ticket."
      },
      "transferExternalERC20(address,address,uint256)": {
        "notice": "Called by the Prize-Strategy to transfer out external ERC20 tokens"
      },
      "transferOwnership(address)": {
        "notice": "Allows current owner to set the `_pendingOwner` address."
      },
      "withdrawFrom(address,uint256)": {
        "notice": "Withdraw assets from the Prize Pool instantly.  A fairness fee may be charged for an early exit."
      },
      "yieldSource()": {
        "notice": "Address of the yield source."
      }
    },
    "notice": "The Yield Source Prize Pool uses a yield source contract to generate prizes.         Funds that are deposited into the prize pool are then deposited into a yield source. (i.e. Aave, Compound, etc...)",
    "version": 1
  },
  "storageLayout": {
    "storage": [
      {
        "astId": 2866,
        "contract": "@pooltogether/v4-core/contracts/prize-pool/YieldSourcePrizePool.sol:YieldSourcePrizePool",
        "label": "_owner",
        "offset": 0,
        "slot": "0",
        "type": "t_address"
      },
      {
        "astId": 2868,
        "contract": "@pooltogether/v4-core/contracts/prize-pool/YieldSourcePrizePool.sol:YieldSourcePrizePool",
        "label": "_pendingOwner",
        "offset": 0,
        "slot": "1",
        "type": "t_address"
      },
      {
        "astId": 10,
        "contract": "@pooltogether/v4-core/contracts/prize-pool/YieldSourcePrizePool.sol:YieldSourcePrizePool",
        "label": "_status",
        "offset": 0,
        "slot": "2",
        "type": "t_uint256"
      },
      {
        "astId": 10407,
        "contract": "@pooltogether/v4-core/contracts/prize-pool/YieldSourcePrizePool.sol:YieldSourcePrizePool",
        "label": "ticket",
        "offset": 0,
        "slot": "3",
        "type": "t_contract(ITicket)9001"
      },
      {
        "astId": 10410,
        "contract": "@pooltogether/v4-core/contracts/prize-pool/YieldSourcePrizePool.sol:YieldSourcePrizePool",
        "label": "prizeStrategy",
        "offset": 0,
        "slot": "4",
        "type": "t_address"
      },
      {
        "astId": 10413,
        "contract": "@pooltogether/v4-core/contracts/prize-pool/YieldSourcePrizePool.sol:YieldSourcePrizePool",
        "label": "balanceCap",
        "offset": 0,
        "slot": "5",
        "type": "t_uint256"
      },
      {
        "astId": 10416,
        "contract": "@pooltogether/v4-core/contracts/prize-pool/YieldSourcePrizePool.sol:YieldSourcePrizePool",
        "label": "liquidityCap",
        "offset": 0,
        "slot": "6",
        "type": "t_uint256"
      },
      {
        "astId": 10419,
        "contract": "@pooltogether/v4-core/contracts/prize-pool/YieldSourcePrizePool.sol:YieldSourcePrizePool",
        "label": "_currentAwardBalance",
        "offset": 0,
        "slot": "7",
        "type": "t_uint256"
      },
      {
        "astId": 11424,
        "contract": "@pooltogether/v4-core/contracts/prize-pool/YieldSourcePrizePool.sol:YieldSourcePrizePool",
        "label": "yieldSource",
        "offset": 0,
        "slot": "8",
        "type": "t_contract(IYieldSource)13638"
      }
    ],
    "types": {
      "t_address": {
        "encoding": "inplace",
        "label": "address",
        "numberOfBytes": "20"
      },
      "t_contract(ITicket)9001": {
        "encoding": "inplace",
        "label": "contract ITicket",
        "numberOfBytes": "20"
      },
      "t_contract(IYieldSource)13638": {
        "encoding": "inplace",
        "label": "contract IYieldSource",
        "numberOfBytes": "20"
      },
      "t_uint256": {
        "encoding": "inplace",
        "label": "uint256",
        "numberOfBytes": "32"
      }
    }
  }
}