{
  "address": "0x32e8D4c9d1B711BC958d0Ce8D14b41F77Bb03a64",
  "abi": [
    {
      "inputs": [
        {
          "internalType": "contract ATokenInterface",
          "name": "_aToken",
          "type": "address"
        },
        {
          "internalType": "contract IAaveIncentivesController",
          "name": "_incentivesController",
          "type": "address"
        },
        {
          "internalType": "contract ILendingPoolAddressesProviderRegistry",
          "name": "_lendingPoolAddressesProviderRegistry",
          "type": "address"
        },
        {
          "internalType": "uint8",
          "name": "_decimals",
          "type": "uint8"
        },
        {
          "internalType": "string",
          "name": "_symbol",
          "type": "string"
        },
        {
          "internalType": "string",
          "name": "_name",
          "type": "string"
        },
        {
          "internalType": "address",
          "name": "_owner",
          "type": "address"
        }
      ],
      "stateMutability": "nonpayable",
      "type": "constructor"
    },
    {
      "anonymous": false,
      "inputs": [
        {
          "indexed": true,
          "internalType": "contract IAToken",
          "name": "aToken",
          "type": "address"
        },
        {
          "indexed": false,
          "internalType": "contract ILendingPoolAddressesProviderRegistry",
          "name": "lendingPoolAddressesProviderRegistry",
          "type": "address"
        },
        {
          "indexed": false,
          "internalType": "uint8",
          "name": "decimals",
          "type": "uint8"
        },
        {
          "indexed": false,
          "internalType": "string",
          "name": "name",
          "type": "string"
        },
        {
          "indexed": false,
          "internalType": "string",
          "name": "symbol",
          "type": "string"
        },
        {
          "indexed": false,
          "internalType": "address",
          "name": "owner",
          "type": "address"
        }
      ],
      "name": "ATokenYieldSourceInitialized",
      "type": "event"
    },
    {
      "anonymous": false,
      "inputs": [
        {
          "indexed": true,
          "internalType": "address",
          "name": "owner",
          "type": "address"
        },
        {
          "indexed": true,
          "internalType": "address",
          "name": "spender",
          "type": "address"
        },
        {
          "indexed": false,
          "internalType": "uint256",
          "name": "value",
          "type": "uint256"
        }
      ],
      "name": "Approval",
      "type": "event"
    },
    {
      "anonymous": false,
      "inputs": [
        {
          "indexed": true,
          "internalType": "address",
          "name": "user",
          "type": "address"
        },
        {
          "indexed": true,
          "internalType": "address",
          "name": "to",
          "type": "address"
        },
        {
          "indexed": false,
          "internalType": "uint256",
          "name": "amount",
          "type": "uint256"
        }
      ],
      "name": "Claimed",
      "type": "event"
    },
    {
      "anonymous": false,
      "inputs": [
        {
          "indexed": true,
          "internalType": "address",
          "name": "previousManager",
          "type": "address"
        },
        {
          "indexed": true,
          "internalType": "address",
          "name": "newManager",
          "type": "address"
        }
      ],
      "name": "ManagerTransferred",
      "type": "event"
    },
    {
      "anonymous": false,
      "inputs": [
        {
          "indexed": true,
          "internalType": "address",
          "name": "pendingOwner",
          "type": "address"
        }
      ],
      "name": "OwnershipOffered",
      "type": "event"
    },
    {
      "anonymous": false,
      "inputs": [
        {
          "indexed": true,
          "internalType": "address",
          "name": "previousOwner",
          "type": "address"
        },
        {
          "indexed": true,
          "internalType": "address",
          "name": "newOwner",
          "type": "address"
        }
      ],
      "name": "OwnershipTransferred",
      "type": "event"
    },
    {
      "anonymous": false,
      "inputs": [
        {
          "indexed": true,
          "internalType": "address",
          "name": "from",
          "type": "address"
        },
        {
          "indexed": false,
          "internalType": "uint256",
          "name": "shares",
          "type": "uint256"
        },
        {
          "indexed": false,
          "internalType": "uint256",
          "name": "amount",
          "type": "uint256"
        }
      ],
      "name": "RedeemedToken",
      "type": "event"
    },
    {
      "anonymous": false,
      "inputs": [
        {
          "indexed": true,
          "internalType": "address",
          "name": "from",
          "type": "address"
        },
        {
          "indexed": false,
          "internalType": "uint256",
          "name": "amount",
          "type": "uint256"
        }
      ],
      "name": "Sponsored",
      "type": "event"
    },
    {
      "anonymous": false,
      "inputs": [
        {
          "indexed": true,
          "internalType": "address",
          "name": "from",
          "type": "address"
        },
        {
          "indexed": false,
          "internalType": "uint256",
          "name": "shares",
          "type": "uint256"
        },
        {
          "indexed": false,
          "internalType": "uint256",
          "name": "amount",
          "type": "uint256"
        },
        {
          "indexed": true,
          "internalType": "address",
          "name": "to",
          "type": "address"
        }
      ],
      "name": "SuppliedTokenTo",
      "type": "event"
    },
    {
      "anonymous": false,
      "inputs": [
        {
          "indexed": true,
          "internalType": "address",
          "name": "from",
          "type": "address"
        },
        {
          "indexed": true,
          "internalType": "address",
          "name": "to",
          "type": "address"
        },
        {
          "indexed": false,
          "internalType": "uint256",
          "name": "value",
          "type": "uint256"
        }
      ],
      "name": "Transfer",
      "type": "event"
    },
    {
      "anonymous": false,
      "inputs": [
        {
          "indexed": true,
          "internalType": "address",
          "name": "from",
          "type": "address"
        },
        {
          "indexed": true,
          "internalType": "address",
          "name": "to",
          "type": "address"
        },
        {
          "indexed": false,
          "internalType": "uint256",
          "name": "amount",
          "type": "uint256"
        },
        {
          "indexed": true,
          "internalType": "contract IERC20",
          "name": "token",
          "type": "address"
        }
      ],
      "name": "TransferredERC20",
      "type": "event"
    },
    {
      "inputs": [],
      "name": "aToken",
      "outputs": [
        {
          "internalType": "contract ATokenInterface",
          "name": "",
          "type": "address"
        }
      ],
      "stateMutability": "view",
      "type": "function"
    },
    {
      "inputs": [
        {
          "internalType": "address",
          "name": "owner",
          "type": "address"
        },
        {
          "internalType": "address",
          "name": "spender",
          "type": "address"
        }
      ],
      "name": "allowance",
      "outputs": [
        {
          "internalType": "uint256",
          "name": "",
          "type": "uint256"
        }
      ],
      "stateMutability": "view",
      "type": "function"
    },
    {
      "inputs": [
        {
          "internalType": "address",
          "name": "spender",
          "type": "address"
        },
        {
          "internalType": "uint256",
          "name": "amount",
          "type": "uint256"
        }
      ],
      "name": "approve",
      "outputs": [
        {
          "internalType": "bool",
          "name": "",
          "type": "bool"
        }
      ],
      "stateMutability": "nonpayable",
      "type": "function"
    },
    {
      "inputs": [],
      "name": "approveMaxAmount",
      "outputs": [
        {
          "internalType": "bool",
          "name": "",
          "type": "bool"
        }
      ],
      "stateMutability": "nonpayable",
      "type": "function"
    },
    {
      "inputs": [
        {
          "internalType": "address",
          "name": "account",
          "type": "address"
        }
      ],
      "name": "balanceOf",
      "outputs": [
        {
          "internalType": "uint256",
          "name": "",
          "type": "uint256"
        }
      ],
      "stateMutability": "view",
      "type": "function"
    },
    {
      "inputs": [
        {
          "internalType": "address",
          "name": "addr",
          "type": "address"
        }
      ],
      "name": "balanceOfToken",
      "outputs": [
        {
          "internalType": "uint256",
          "name": "",
          "type": "uint256"
        }
      ],
      "stateMutability": "view",
      "type": "function"
    },
    {
      "inputs": [],
      "name": "claimOwnership",
      "outputs": [],
      "stateMutability": "nonpayable",
      "type": "function"
    },
    {
      "inputs": [
        {
          "internalType": "address",
          "name": "to",
          "type": "address"
        }
      ],
      "name": "claimRewards",
      "outputs": [
        {
          "internalType": "bool",
          "name": "",
          "type": "bool"
        }
      ],
      "stateMutability": "nonpayable",
      "type": "function"
    },
    {
      "inputs": [],
      "name": "decimals",
      "outputs": [
        {
          "internalType": "uint8",
          "name": "",
          "type": "uint8"
        }
      ],
      "stateMutability": "view",
      "type": "function"
    },
    {
      "inputs": [
        {
          "internalType": "address",
          "name": "spender",
          "type": "address"
        },
        {
          "internalType": "uint256",
          "name": "subtractedValue",
          "type": "uint256"
        }
      ],
      "name": "decreaseAllowance",
      "outputs": [
        {
          "internalType": "bool",
          "name": "",
          "type": "bool"
        }
      ],
      "stateMutability": "nonpayable",
      "type": "function"
    },
    {
      "inputs": [],
      "name": "depositToken",
      "outputs": [
        {
          "internalType": "address",
          "name": "",
          "type": "address"
        }
      ],
      "stateMutability": "view",
      "type": "function"
    },
    {
      "inputs": [],
      "name": "incentivesController",
      "outputs": [
        {
          "internalType": "contract IAaveIncentivesController",
          "name": "",
          "type": "address"
        }
      ],
      "stateMutability": "view",
      "type": "function"
    },
    {
      "inputs": [
        {
          "internalType": "address",
          "name": "spender",
          "type": "address"
        },
        {
          "internalType": "uint256",
          "name": "addedValue",
          "type": "uint256"
        }
      ],
      "name": "increaseAllowance",
      "outputs": [
        {
          "internalType": "bool",
          "name": "",
          "type": "bool"
        }
      ],
      "stateMutability": "nonpayable",
      "type": "function"
    },
    {
      "inputs": [],
      "name": "lendingPoolAddressesProviderRegistry",
      "outputs": [
        {
          "internalType": "contract ILendingPoolAddressesProviderRegistry",
          "name": "",
          "type": "address"
        }
      ],
      "stateMutability": "view",
      "type": "function"
    },
    {
      "inputs": [],
      "name": "manager",
      "outputs": [
        {
          "internalType": "address",
          "name": "",
          "type": "address"
        }
      ],
      "stateMutability": "view",
      "type": "function"
    },
    {
      "inputs": [],
      "name": "name",
      "outputs": [
        {
          "internalType": "string",
          "name": "",
          "type": "string"
        }
      ],
      "stateMutability": "view",
      "type": "function"
    },
    {
      "inputs": [],
      "name": "owner",
      "outputs": [
        {
          "internalType": "address",
          "name": "",
          "type": "address"
        }
      ],
      "stateMutability": "view",
      "type": "function"
    },
    {
      "inputs": [],
      "name": "pendingOwner",
      "outputs": [
        {
          "internalType": "address",
          "name": "",
          "type": "address"
        }
      ],
      "stateMutability": "view",
      "type": "function"
    },
    {
      "inputs": [
        {
          "internalType": "uint256",
          "name": "redeemAmount",
          "type": "uint256"
        }
      ],
      "name": "redeemToken",
      "outputs": [
        {
          "internalType": "uint256",
          "name": "",
          "type": "uint256"
        }
      ],
      "stateMutability": "nonpayable",
      "type": "function"
    },
    {
      "inputs": [],
      "name": "renounceOwnership",
      "outputs": [],
      "stateMutability": "nonpayable",
      "type": "function"
    },
    {
      "inputs": [
        {
          "internalType": "address",
          "name": "_newManager",
          "type": "address"
        }
      ],
      "name": "setManager",
      "outputs": [
        {
          "internalType": "bool",
          "name": "",
          "type": "bool"
        }
      ],
      "stateMutability": "nonpayable",
      "type": "function"
    },
    {
      "inputs": [
        {
          "internalType": "uint256",
          "name": "amount",
          "type": "uint256"
        }
      ],
      "name": "sponsor",
      "outputs": [],
      "stateMutability": "nonpayable",
      "type": "function"
    },
    {
      "inputs": [
        {
          "internalType": "uint256",
          "name": "mintAmount",
          "type": "uint256"
        },
        {
          "internalType": "address",
          "name": "to",
          "type": "address"
        }
      ],
      "name": "supplyTokenTo",
      "outputs": [],
      "stateMutability": "nonpayable",
      "type": "function"
    },
    {
      "inputs": [],
      "name": "symbol",
      "outputs": [
        {
          "internalType": "string",
          "name": "",
          "type": "string"
        }
      ],
      "stateMutability": "view",
      "type": "function"
    },
    {
      "inputs": [],
      "name": "totalSupply",
      "outputs": [
        {
          "internalType": "uint256",
          "name": "",
          "type": "uint256"
        }
      ],
      "stateMutability": "view",
      "type": "function"
    },
    {
      "inputs": [
        {
          "internalType": "address",
          "name": "recipient",
          "type": "address"
        },
        {
          "internalType": "uint256",
          "name": "amount",
          "type": "uint256"
        }
      ],
      "name": "transfer",
      "outputs": [
        {
          "internalType": "bool",
          "name": "",
          "type": "bool"
        }
      ],
      "stateMutability": "nonpayable",
      "type": "function"
    },
    {
      "inputs": [
        {
          "internalType": "contract IERC20",
          "name": "erc20Token",
          "type": "address"
        },
        {
          "internalType": "address",
          "name": "to",
          "type": "address"
        },
        {
          "internalType": "uint256",
          "name": "amount",
          "type": "uint256"
        }
      ],
      "name": "transferERC20",
      "outputs": [],
      "stateMutability": "nonpayable",
      "type": "function"
    },
    {
      "inputs": [
        {
          "internalType": "address",
          "name": "sender",
          "type": "address"
        },
        {
          "internalType": "address",
          "name": "recipient",
          "type": "address"
        },
        {
          "internalType": "uint256",
          "name": "amount",
          "type": "uint256"
        }
      ],
      "name": "transferFrom",
      "outputs": [
        {
          "internalType": "bool",
          "name": "",
          "type": "bool"
        }
      ],
      "stateMutability": "nonpayable",
      "type": "function"
    },
    {
      "inputs": [
        {
          "internalType": "address",
          "name": "_newOwner",
          "type": "address"
        }
      ],
      "name": "transferOwnership",
      "outputs": [],
      "stateMutability": "nonpayable",
      "type": "function"
    }
  ],
  "transactionHash": "0xe8b1baf5ed76b89837e093912d01b598080a6f1730451d6643aa1b9cbd4d794c",
  "args": [
    "0xBcca60bB61934080951369a648Fb03DF4F96263C",
    "0xd784927Ff2f95ba542BfC824c8a8a98F3495f6b5",
    "0x52D306e36E3B6B02c153d0266ff0f85d18BCD413",
    6,
    "PTaUSDCY",
    "PoolTogether aUSDC Yield",
    "0xDa63D70332139E6A8eCA7513f4b6E2E0Dc93b693"
  ],
  "solcInputHash": "7e8084d0a22db9e877c42567b125a31e",
  "bytecode": "0x60806040523480156200001157600080fd5b506040516200383938038062003839833981016040819052620000349162000b64565b80828481600390805190602001906200004f9291906200092f565b508051620000659060049060208401906200092f565b5050506200007981620003a360201b60201c565b5060016008556001600160a01b038716620000ed5760405162461bcd60e51b815260206004820152602960248201527f41546f6b656e5969656c64536f757263652f61546f6b656e2d6e6f742d7a65726044820152686f2d6164647265737360b81b60648201526084015b60405180910390fd5b600980546001600160a01b0319166001600160a01b03898116919091179091558616620001835760405162461bcd60e51b815260206004820152603760248201527f41546f6b656e5969656c64536f757263652f696e63656e7469766573436f6e7460448201527f726f6c6c65722d6e6f742d7a65726f2d616464726573730000000000000000006064820152608401620000e4565b600a80546001600160a01b0319166001600160a01b03888116919091179091558516620002195760405162461bcd60e51b815260206004820152603660248201527f41546f6b656e5969656c64536f757263652f6c656e64696e67506f6f6c52656760448201527f69737472792d6e6f742d7a65726f2d61646472657373000000000000000000006064820152608401620000e4565b600b80546001600160a01b0319166001600160a01b038781169190911790915581166200029a5760405162461bcd60e51b815260206004820152602860248201527f41546f6b656e5969656c64536f757263652f6f776e65722d6e6f742d7a65726f6044820152672d6164647265737360c01b6064820152608401620000e4565b60008460ff1611620002fa5760405162461bcd60e51b815260206004820152602260248201527f41546f6b656e5969656c64536f757263652f646563696d616c732d67742d7a65604482015261726f60f01b6064820152608401620000e4565b600b805460ff60a01b1916600160a01b60ff8716021790556200034b62000320620003f5565b6000196200032d6200047a565b6001600160a01b0316620004c060201b620013d2179092919060201c565b866001600160a01b03167ffba57dff735bfaf5226b0a6e4ea8161ce10896963a36f6db20759f10b0055b4086868587866040516200038e95949392919062000ca2565b60405180910390a25050505050505062000df6565b600580546001600160a01b038381166001600160a01b0319831681179093556040519116919082907f8be0079c531659141344cd1fd0a4f28419497f9722a3daafe3b4186f6b6457e090600090a35050565b6000620004016200061f565b6001600160a01b0316630261bf8b6040518163ffffffff1660e01b815260040160206040518083038186803b1580156200043a57600080fd5b505afa1580156200044f573d6000803e3d6000fd5b505050506040513d601f19601f8201168201806040525081019062000475919062000a5b565b905090565b600954604080516358b50cef60e11b815290516000926001600160a01b03169163b16a19de916004808301926020929190829003018186803b1580156200043a57600080fd5b8015806200054e5750604051636eb1769f60e11b81523060048201526001600160a01b03838116602483015284169063dd62ed3e9060440160206040518083038186803b1580156200051157600080fd5b505afa15801562000526573d6000803e3d6000fd5b505050506040513d601f19601f820116820180604052508101906200054c919062000c3c565b155b620005c25760405162461bcd60e51b815260206004820152603660248201527f5361666545524332303a20617070726f76652066726f6d206e6f6e2d7a65726f60448201527f20746f206e6f6e2d7a65726f20616c6c6f77616e6365000000000000000000006064820152608401620000e4565b604080516001600160a01b038416602482015260448082018490528251808303909101815260649091019091526020810180516001600160e01b0390811663095ea7b360e01b179091526200061a918591620006c516565b505050565b600b546040805163365ccbbf60e01b815290516000926001600160a01b03169163365ccbbf9160048083019286929190829003018186803b1580156200066457600080fd5b505afa15801562000679573d6000803e3d6000fd5b505050506040513d6000823e601f3d908101601f19168201604052620006a3919081019062000a7b565b600081518110620006b857620006b862000db1565b6020026020010151905090565b600062000721826040518060400160405280602081526020017f5361666545524332303a206c6f772d6c6576656c2063616c6c206661696c6564815250856001600160a01b0316620007a360201b6200157b179092919060201c565b8051909150156200061a578080602001905181019062000742919062000b40565b6200061a5760405162461bcd60e51b815260206004820152602a60248201527f5361666545524332303a204552433230206f7065726174696f6e20646964206e6044820152691bdd081cdd58d8d9595960b21b6064820152608401620000e4565b6060620007b48484600085620007be565b90505b9392505050565b606082471015620008215760405162461bcd60e51b815260206004820152602660248201527f416464726573733a20696e73756666696369656e742062616c616e636520666f6044820152651c8818d85b1b60d21b6064820152608401620000e4565b843b620008715760405162461bcd60e51b815260206004820152601d60248201527f416464726573733a2063616c6c20746f206e6f6e2d636f6e74726163740000006044820152606401620000e4565b600080866001600160a01b031685876040516200088f919062000c84565b60006040518083038185875af1925050503d8060008114620008ce576040519150601f19603f3d011682016040523d82523d6000602084013e620008d3565b606091505b509092509050620008e6828286620008f1565b979650505050505050565b6060831562000902575081620007b7565b825115620009135782518084602001fd5b8160405162461bcd60e51b8152600401620000e4919062000cf9565b8280546200093d9062000d74565b90600052602060002090601f016020900481019282620009615760008555620009ac565b82601f106200097c57805160ff1916838001178555620009ac565b82800160010185558215620009ac579182015b82811115620009ac5782518255916020019190600101906200098f565b50620009ba929150620009be565b5090565b5b80821115620009ba5760008155600101620009bf565b8051620009e28162000ddd565b919050565b600082601f830112620009f957600080fd5b81516001600160401b0381111562000a155762000a1562000dc7565b62000a2a601f8201601f191660200162000d0e565b81815284602083860101111562000a4057600080fd5b62000a5382602083016020870162000d41565b949350505050565b60006020828403121562000a6e57600080fd5b8151620007b78162000ddd565b6000602080838503121562000a8f57600080fd5b82516001600160401b038082111562000aa757600080fd5b818501915085601f83011262000abc57600080fd5b81518181111562000ad15762000ad162000dc7565b8060051b915062000ae484830162000d0e565b8181528481019084860184860187018a101562000b0057600080fd5b600095505b8386101562000b33578051945062000b1d8562000ddd565b8483526001959095019491860191860162000b05565b5098975050505050505050565b60006020828403121562000b5357600080fd5b81518015158114620007b757600080fd5b600080600080600080600060e0888a03121562000b8057600080fd5b875162000b8d8162000ddd565b602089015190975062000ba08162000ddd565b604089015190965062000bb38162000ddd565b606089015190955060ff8116811462000bcb57600080fd5b60808901519094506001600160401b038082111562000be957600080fd5b62000bf78b838c01620009e7565b945060a08a015191508082111562000c0e57600080fd5b5062000c1d8a828b01620009e7565b92505062000c2e60c08901620009d5565b905092959891949750929550565b60006020828403121562000c4f57600080fd5b5051919050565b6000815180845262000c7081602086016020860162000d41565b601f01601f19169290920160200192915050565b6000825162000c9881846020870162000d41565b9190910192915050565b600060018060a01b03808816835260ff8716602084015260a0604084015262000ccf60a084018762000c56565b838103606085015262000ce3818762000c56565b9250508084166080840152509695505050505050565b602081526000620007b7602083018462000c56565b604051601f8201601f191681016001600160401b038111828210171562000d395762000d3962000dc7565b604052919050565b60005b8381101562000d5e57818101518382015260200162000d44565b8381111562000d6e576000848401525b50505050565b600181811c9082168062000d8957607f821691505b6020821081141562000dab57634e487b7160e01b600052602260045260246000fd5b50919050565b634e487b7160e01b600052603260045260246000fd5b634e487b7160e01b600052604160045260246000fd5b6001600160a01b038116811462000df357600080fd5b50565b612a338062000e066000396000f3fe608060405234801561001057600080fd5b50600436106101cf5760003560e01c806395d89b4111610104578063b99152d0116100a2578063dd62ed3e11610071578063dd62ed3e146103d7578063e30c397814610410578063ef5cfb8c14610421578063f2fde38b1461043457600080fd5b8063b99152d0146103a1578063c89039c5146103b4578063d0ebdbe7146103bc578063daa4f975146103cf57600080fd5b8063a457c2d7116100de578063a457c2d714610355578063a9059cbb14610368578063af1df2551461037b578063b6cce5e21461038e57600080fd5b806395d89b41146103275780639db5dbe41461032f578063a0c1f15e1461034257600080fd5b8063481c6a7511610171578063715018a61161014b578063715018a6146102e8578063873ba41e146102f057806387a6eeef146103035780638da5cb5b1461031657600080fd5b8063481c6a75146102905780634e71e0c8146102b557806370a08231146102bf57600080fd5b806318160ddd116101ad57806318160ddd1461023257806323b872dd1461023a578063313ce5671461024d578063395093511461027d57600080fd5b8063013054c2146101d457806306fdde03146101fa578063095ea7b31461020f575b600080fd5b6101e76101e2366004612785565b610447565b6040519081526020015b60405180910390f35b6102026106db565b6040516101f19190612899565b61022261021d36600461266b565b61076d565b60405190151581526020016101f1565b6002546101e7565b61022261024836600461262a565b610784565b600b5474010000000000000000000000000000000000000000900460ff1660405160ff90911681526020016101f1565b61022261028b36600461266b565b610845565b6007546001600160a01b03165b6040516001600160a01b0390911681526020016101f1565b6102bd610881565b005b6101e76102cd3660046125b7565b6001600160a01b031660009081526020819052604090205490565b6102bd61090f565b600b5461029d906001600160a01b031681565b6102bd6103113660046127b7565b610984565b6005546001600160a01b031661029d565b610202610a9c565b6102bd61033d36600461262a565b610aab565b60095461029d906001600160a01b031681565b61022261036336600461266b565b610c52565b61022261037636600461266b565b610d03565b600a5461029d906001600160a01b031681565b6102bd61039c366004612785565b610d10565b6101e76103af3660046125b7565b610dae565b61029d610dd0565b6102226103ca3660046125b7565b610ddf565b610222610e58565b6101e76103e53660046125f1565b6001600160a01b03918216600090815260016020908152604080832093909416825291909152205490565b6006546001600160a01b031661029d565b61022261042f3660046125b7565b610f8b565b6102bd6104423660046125b7565b611296565b6000600260085414156104a15760405162461bcd60e51b815260206004820152601f60248201527f5265656e7472616e637947756172643a207265656e7472616e742063616c6c0060448201526064015b60405180910390fd5b600260085560006104b0611592565b90508060006104be85611628565b90506104ca33826116e3565b6040516370a0823160e01b81523060048201526000906001600160a01b038416906370a082319060240160206040518083038186803b15801561050c57600080fd5b505afa158015610520573d6000803e3d6000fd5b505050506040513d601f19601f82011682018060405250810190610544919061279e565b905061054e611868565b6040517f69328dec0000000000000000000000000000000000000000000000000000000081526001600160a01b0386811660048301526024820189905230604483015291909116906369328dec90606401602060405180830381600087803b1580156105b957600080fd5b505af11580156105cd573d6000803e3d6000fd5b505050506040513d601f19601f820116820180604052508101906105f1919061279e565b506040516370a0823160e01b81523060048201526000906001600160a01b038516906370a082319060240160206040518083038186803b15801561063457600080fd5b505afa158015610648573d6000803e3d6000fd5b505050506040513d601f19601f8201168201806040525081019061066c919061279e565b9050600061067a82846118aa565b90506106906001600160a01b03861633836118b6565b60408051858152602081018a905233917f5c9b0a8fe13a826ca676f5ad4f98c747b5086beb79ab58589b8211b62fa32fb9910160405180910390a26001600855979650505050505050565b6060600380546106ea90612968565b80601f016020809104026020016040519081016040528092919081815260200182805461071690612968565b80156107635780601f1061073857610100808354040283529160200191610763565b820191906000526020600020905b81548152906001019060200180831161074657829003601f168201915b5050505050905090565b600061077a3384846118ff565b5060015b92915050565b6000610791848484611a57565b6001600160a01b03841660009081526001602090815260408083203384529091529020548281101561082b5760405162461bcd60e51b815260206004820152602860248201527f45524332303a207472616e7366657220616d6f756e742065786365656473206160448201527f6c6c6f77616e63650000000000000000000000000000000000000000000000006064820152608401610498565b61083885338584036118ff565b60019150505b9392505050565b3360008181526001602090815260408083206001600160a01b0387168452909152812054909161077a91859061087c9086906128cc565b6118ff565b6006546001600160a01b031633146108db5760405162461bcd60e51b815260206004820152601f60248201527f4f776e61626c652f63616c6c65722d6e6f742d70656e64696e674f776e6572006044820152606401610498565b6006546108f0906001600160a01b0316611c70565b6006805473ffffffffffffffffffffffffffffffffffffffff19169055565b336109226005546001600160a01b031690565b6001600160a01b0316146109785760405162461bcd60e51b815260206004820152601860248201527f4f776e61626c652f63616c6c65722d6e6f742d6f776e657200000000000000006044820152606401610498565b6109826000611c70565b565b600260085414156109d75760405162461bcd60e51b815260206004820152601f60248201527f5265656e7472616e637947756172643a207265656e7472616e742063616c6c006044820152606401610498565b600260085560006109e783611628565b905060008111610a395760405162461bcd60e51b815260206004820181905260248201527f41546f6b656e5969656c64536f757263652f7368617265732d67742d7a65726f6044820152606401610498565b610a4283611ccf565b610a4c8282611d8b565b60408051828152602081018590526001600160a01b0384169133917fdef5cc95ad9b1c65c586d0fce815ec764b575719636edf58ff2553ae6f110452910160405180910390a35050600160085550565b6060600480546106ea90612968565b33610abe6007546001600160a01b031690565b6001600160a01b03161480610aec575033610ae16005546001600160a01b031690565b6001600160a01b0316145b610b5e5760405162461bcd60e51b815260206004820152602660248201527f4d616e61676561626c652f63616c6c65722d6e6f742d6d616e616765722d6f7260448201527f2d6f776e657200000000000000000000000000000000000000000000000000006064820152608401610498565b6009546001600160a01b0384811691161415610be25760405162461bcd60e51b815260206004820152602d60248201527f41546f6b656e5969656c64536f757263652f61546f6b656e2d7472616e73666560448201527f722d6e6f742d616c6c6f776564000000000000000000000000000000000000006064820152608401610498565b610bf66001600160a01b03841683836118b6565b826001600160a01b0316826001600160a01b0316336001600160a01b03167f29fcb7bb954d37295343e742bab21760748bdba4e026e4469a8100183996913884604051610c4591815260200190565b60405180910390a4505050565b3360009081526001602090815260408083206001600160a01b038616845290915281205482811015610cec5760405162461bcd60e51b815260206004820152602560248201527f45524332303a2064656372656173656420616c6c6f77616e63652062656c6f7760448201527f207a65726f0000000000000000000000000000000000000000000000000000006064820152608401610498565b610cf933858584036118ff565b5060019392505050565b600061077a338484611a57565b60026008541415610d635760405162461bcd60e51b815260206004820152601f60248201527f5265656e7472616e637947756172643a207265656e7472616e742063616c6c006044820152606401610498565b6002600855610d7181611ccf565b60405181815233907fbb2c10eb8b0d65523a501a1c079906e38af3c4231e31b799d408daacd7ce72269060200160405180910390a2506001600855565b6001600160a01b03811660009081526020819052604081205461077e90611e6a565b6000610dda611592565b905090565b600033610df46005546001600160a01b031690565b6001600160a01b031614610e4a5760405162461bcd60e51b815260206004820152601860248201527f4f776e61626c652f63616c6c65722d6e6f742d6f776e657200000000000000006044820152606401610498565b61077e82611f17565b919050565b600033610e6d6005546001600160a01b031690565b6001600160a01b031614610ec35760405162461bcd60e51b815260206004820152601860248201527f4f776e61626c652f63616c6c65722d6e6f742d6f776e657200000000000000006044820152606401610498565b6000610ecd611868565b90506000610ed9611592565b604051636eb1769f60e11b81523060048201526001600160a01b03848116602483015291925060009183169063dd62ed3e9060440160206040518083038186803b158015610f2657600080fd5b505afa158015610f3a573d6000803e3d6000fd5b505050506040513d601f19601f82011682018060405250810190610f5e919061279e565b9050610f8183610f70600019846118aa565b6001600160a01b0385169190612003565b6001935050505090565b600033610fa06007546001600160a01b031690565b6001600160a01b03161480610fce575033610fc36005546001600160a01b031690565b6001600160a01b0316145b6110405760405162461bcd60e51b815260206004820152602660248201527f4d616e61676561626c652f63616c6c65722d6e6f742d6d616e616765722d6f7260448201527f2d6f776e657200000000000000000000000000000000000000000000000000006064820152608401610498565b6001600160a01b0382166110bc5760405162461bcd60e51b815260206004820152602c60248201527f41546f6b656e5969656c64536f757263652f726563697069656e742d6e6f742d60448201527f7a65726f2d6164647265737300000000000000000000000000000000000000006064820152608401610498565b600a546040805160018082528183019092526001600160a01b039092169160009160208083019080368337505060095482519293506001600160a01b03169183915060009061110d5761110d6129b9565b6001600160a01b0392831660209182029290920101526040517f8b599f26000000000000000000000000000000000000000000000000000000008152600091841690638b599f2690611165908590309060040161283c565b60206040518083038186803b15801561117d57600080fd5b505afa158015611191573d6000803e3d6000fd5b505050506040513d601f19601f820116820180604052508101906111b5919061279e565b90506000836001600160a01b0316633111e7b38484896040518463ffffffff1660e01b81526004016111e993929190612867565b602060405180830381600087803b15801561120357600080fd5b505af1158015611217573d6000803e3d6000fd5b505050506040513d601f19601f8201168201806040525081019061123b919061279e565b9050856001600160a01b0316336001600160a01b03167ff7a40077ff7a04c7e61f6f26fb13774259ddf1b6bce9ecf26a8276cdd39926838360405161128291815260200190565b60405180910390a350600195945050505050565b336112a96005546001600160a01b031690565b6001600160a01b0316146112ff5760405162461bcd60e51b815260206004820152601860248201527f4f776e61626c652f63616c6c65722d6e6f742d6f776e657200000000000000006044820152606401610498565b6001600160a01b03811661137b5760405162461bcd60e51b815260206004820152602560248201527f4f776e61626c652f70656e64696e674f776e65722d6e6f742d7a65726f2d616460448201527f64726573730000000000000000000000000000000000000000000000000000006064820152608401610498565b6006805473ffffffffffffffffffffffffffffffffffffffff19166001600160a01b0383169081179091556040517f239a2ddded15777fa246aed5f7e1a9bc69a39d4eb4a397034d1d85766cca7d4c90600090a250565b80158061145b5750604051636eb1769f60e11b81523060048201526001600160a01b03838116602483015284169063dd62ed3e9060440160206040518083038186803b15801561142157600080fd5b505afa158015611435573d6000803e3d6000fd5b505050506040513d601f19601f82011682018060405250810190611459919061279e565b155b6114cd5760405162461bcd60e51b815260206004820152603660248201527f5361666545524332303a20617070726f76652066726f6d206e6f6e2d7a65726f60448201527f20746f206e6f6e2d7a65726f20616c6c6f77616e6365000000000000000000006064820152608401610498565b6040516001600160a01b0383166024820152604481018290526115769084907f095ea7b300000000000000000000000000000000000000000000000000000000906064015b60408051601f198184030181529190526020810180517bffffffffffffffffffffffffffffffffffffffffffffffffffffffff167fffffffff00000000000000000000000000000000000000000000000000000000909316929092179091526120dd565b505050565b606061158a84846000856121c2565b949350505050565b600954604080517fb16a19de00000000000000000000000000000000000000000000000000000000815290516000926001600160a01b03169163b16a19de916004808301926020929190829003018186803b1580156115f057600080fd5b505afa158015611604573d6000803e3d6000fd5b505050506040513d601f19601f82011682018060405250810190610dda91906125d4565b600080600061163660025490565b905080611645578391506116dc565b6009546040516370a0823160e01b81523060048201526000916116cc9184916001600160a01b0316906370a082319060240160206040518083038186803b15801561168f57600080fd5b505afa1580156116a3573d6000803e3d6000fd5b505050506040513d601f19601f820116820180604052508101906116c7919061279e565b612301565b90506116d88582612322565b9250505b5092915050565b6001600160a01b03821661175f5760405162461bcd60e51b815260206004820152602160248201527f45524332303a206275726e2066726f6d20746865207a65726f2061646472657360448201527f73000000000000000000000000000000000000000000000000000000000000006064820152608401610498565b6001600160a01b038216600090815260208190526040902054818110156117ee5760405162461bcd60e51b815260206004820152602260248201527f45524332303a206275726e20616d6f756e7420657863656564732062616c616e60448201527f63650000000000000000000000000000000000000000000000000000000000006064820152608401610498565b6001600160a01b038316600090815260208190526040812083830390556002805484929061181d908490612925565b90915550506040518281526000906001600160a01b038516907fddf252ad1be2c89b69c2b068fc378daa952ba7f163c4a11628f55a4df523b3ef9060200160405180910390a3505050565b6000611872612343565b6001600160a01b0316630261bf8b6040518163ffffffff1660e01b815260040160206040518083038186803b1580156115f057600080fd5b600061083e8284612925565b6040516001600160a01b0383166024820152604481018290526115769084907fa9059cbb0000000000000000000000000000000000000000000000000000000090606401611512565b6001600160a01b03831661197a5760405162461bcd60e51b8152602060048201526024808201527f45524332303a20617070726f76652066726f6d20746865207a65726f2061646460448201527f72657373000000000000000000000000000000000000000000000000000000006064820152608401610498565b6001600160a01b0382166119f65760405162461bcd60e51b815260206004820152602260248201527f45524332303a20617070726f766520746f20746865207a65726f20616464726560448201527f73730000000000000000000000000000000000000000000000000000000000006064820152608401610498565b6001600160a01b0383811660008181526001602090815260408083209487168084529482529182902085905590518481527f8c5be1e5ebec7d5bd14f71427d1e84f3dd0314c0f7b2291e5b200ac8c7c3b925910160405180910390a3505050565b6001600160a01b038316611ad35760405162461bcd60e51b815260206004820152602560248201527f45524332303a207472616e736665722066726f6d20746865207a65726f20616460448201527f64726573730000000000000000000000000000000000000000000000000000006064820152608401610498565b6001600160a01b038216611b4f5760405162461bcd60e51b815260206004820152602360248201527f45524332303a207472616e7366657220746f20746865207a65726f206164647260448201527f65737300000000000000000000000000000000000000000000000000000000006064820152608401610498565b6001600160a01b03831660009081526020819052604090205481811015611bde5760405162461bcd60e51b815260206004820152602660248201527f45524332303a207472616e7366657220616d6f756e742065786365656473206260448201527f616c616e636500000000000000000000000000000000000000000000000000006064820152608401610498565b6001600160a01b03808516600090815260208190526040808220858503905591851681529081208054849290611c159084906128cc565b92505081905550826001600160a01b0316846001600160a01b03167fddf252ad1be2c89b69c2b068fc378daa952ba7f163c4a11628f55a4df523b3ef84604051611c6191815260200190565b60405180910390a35b50505050565b600580546001600160a01b0383811673ffffffffffffffffffffffffffffffffffffffff19831681179093556040519116919082907f8be0079c531659141344cd1fd0a4f28419497f9722a3daafe3b4186f6b6457e090600090a35050565b6000611cd9611592565b90506000611ce5611868565b905081611cfd6001600160a01b0382163330876123fb565b6040517fe8eda9df0000000000000000000000000000000000000000000000000000000081526001600160a01b0384811660048301526024820186905230604483015260bc606483015283169063e8eda9df90608401600060405180830381600087803b158015611d6d57600080fd5b505af1158015611d81573d6000803e3d6000fd5b5050505050505050565b6001600160a01b038216611de15760405162461bcd60e51b815260206004820152601f60248201527f45524332303a206d696e7420746f20746865207a65726f2061646472657373006044820152606401610498565b8060026000828254611df391906128cc565b90915550506001600160a01b03821660009081526020819052604081208054839290611e209084906128cc565b90915550506040518181526001600160a01b038316906000907fddf252ad1be2c89b69c2b068fc378daa952ba7f163c4a11628f55a4df523b3ef9060200160405180910390a35050565b6000806000611e7860025490565b905080611e87578391506116dc565b6009546040516370a0823160e01b815230600482015261158a918391611f11916001600160a01b0316906370a082319060240160206040518083038186803b158015611ed257600080fd5b505afa158015611ee6573d6000803e3d6000fd5b505050506040513d601f19601f82011682018060405250810190611f0a919061279e565b879061244c565b90612458565b6007546000906001600160a01b03908116908316811415611fa05760405162461bcd60e51b815260206004820152602360248201527f4d616e61676561626c652f6578697374696e672d6d616e616765722d6164647260448201527f65737300000000000000000000000000000000000000000000000000000000006064820152608401610498565b6007805473ffffffffffffffffffffffffffffffffffffffff19166001600160a01b0385811691821790925560405190918316907f9cb45c728de594dab506a1f1a8554e24c8eeaf983618d5ec5dd7bc6f3c49feee90600090a350600192915050565b604051636eb1769f60e11b81523060048201526001600160a01b038381166024830152600091839186169063dd62ed3e9060440160206040518083038186803b15801561204f57600080fd5b505afa158015612063573d6000803e3d6000fd5b505050506040513d601f19601f82011682018060405250810190612087919061279e565b61209191906128cc565b6040516001600160a01b038516602482015260448101829052909150611c6a9085907f095ea7b30000000000000000000000000000000000000000000000000000000090606401611512565b6000612132826040518060400160405280602081526020017f5361666545524332303a206c6f772d6c6576656c2063616c6c206661696c6564815250856001600160a01b031661157b9092919063ffffffff16565b80519091501561157657808060200190518101906121509190612763565b6115765760405162461bcd60e51b815260206004820152602a60248201527f5361666545524332303a204552433230206f7065726174696f6e20646964206e60448201527f6f742073756363656564000000000000000000000000000000000000000000006064820152608401610498565b60608247101561223a5760405162461bcd60e51b815260206004820152602660248201527f416464726573733a20696e73756666696369656e742062616c616e636520666f60448201527f722063616c6c00000000000000000000000000000000000000000000000000006064820152608401610498565b843b6122885760405162461bcd60e51b815260206004820152601d60248201527f416464726573733a2063616c6c20746f206e6f6e2d636f6e74726163740000006044820152606401610498565b600080866001600160a01b031685876040516122a49190612820565b60006040518083038185875af1925050503d80600081146122e1576040519150601f19603f3d011682016040523d82523d6000602084013e6122e6565b606091505b50915091506122f6828286612464565b979650505050505050565b60008061231684670de0b6b3a764000061249d565b905061158a8184612538565b60008061232f838561249d565b905061158a81670de0b6b3a7640000612538565b600b54604080517f365ccbbf00000000000000000000000000000000000000000000000000000000815290516000926001600160a01b03169163365ccbbf9160048083019286929190829003018186803b1580156123a057600080fd5b505afa1580156123b4573d6000803e3d6000fd5b505050506040513d6000823e601f3d908101601f191682016040526123dc9190810190612697565b6000815181106123ee576123ee6129b9565b6020026020010151905090565b6040516001600160a01b0380851660248301528316604482015260648101829052611c6a9085907f23b872dd0000000000000000000000000000000000000000000000000000000090608401611512565b600061083e8284612906565b600061083e82846128e4565b6060831561247357508161083e565b8251156124835782518084602001fd5b8160405162461bcd60e51b81526004016104989190612899565b6000826124ac5750600061077e565b60006124b88385612906565b9050826124c585836128e4565b1461083e5760405162461bcd60e51b815260206004820152602160248201527f536166654d6174683a206d756c7469706c69636174696f6e206f766572666c6f60448201527f77000000000000000000000000000000000000000000000000000000000000006064820152608401610498565b600061083e83836040518060400160405280601a81526020017f536166654d6174683a206469766973696f6e206279207a65726f000000000000815250600081836125965760405162461bcd60e51b81526004016104989190612899565b5060006125a384866128e4565b95945050505050565b8051610e53816129e5565b6000602082840312156125c957600080fd5b813561083e816129e5565b6000602082840312156125e657600080fd5b815161083e816129e5565b6000806040838503121561260457600080fd5b823561260f816129e5565b9150602083013561261f816129e5565b809150509250929050565b60008060006060848603121561263f57600080fd5b833561264a816129e5565b9250602084013561265a816129e5565b929592945050506040919091013590565b6000806040838503121561267e57600080fd5b8235612689816129e5565b946020939093013593505050565b600060208083850312156126aa57600080fd5b825167ffffffffffffffff808211156126c257600080fd5b818501915085601f8301126126d657600080fd5b8151818111156126e8576126e86129cf565b8060051b604051601f19603f8301168101818110858211171561270d5761270d6129cf565b604052828152858101935084860182860187018a101561272c57600080fd5b600095505b8386101561275657612742816125ac565b855260019590950194938601938601612731565b5098975050505050505050565b60006020828403121561277557600080fd5b8151801515811461083e57600080fd5b60006020828403121561279757600080fd5b5035919050565b6000602082840312156127b057600080fd5b5051919050565b600080604083850312156127ca57600080fd5b82359150602083013561261f816129e5565b600081518084526020808501945080840160005b838110156128155781516001600160a01b0316875295820195908201906001016127f0565b509495945050505050565b6000825161283281846020870161293c565b9190910192915050565b60408152600061284f60408301856127dc565b90506001600160a01b03831660208301529392505050565b60608152600061287a60608301866127dc565b90508360208301526001600160a01b0383166040830152949350505050565b60208152600082518060208401526128b881604085016020870161293c565b601f01601f19169190910160400192915050565b600082198211156128df576128df6129a3565b500190565b60008261290157634e487b7160e01b600052601260045260246000fd5b500490565b6000816000190483118215151615612920576129206129a3565b500290565b600082821015612937576129376129a3565b500390565b60005b8381101561295757818101518382015260200161293f565b83811115611c6a5750506000910152565b600181811c9082168061297c57607f821691505b6020821081141561299d57634e487b7160e01b600052602260045260246000fd5b50919050565b634e487b7160e01b600052601160045260246000fd5b634e487b7160e01b600052603260045260246000fd5b634e487b7160e01b600052604160045260246000fd5b6001600160a01b03811681146129fa57600080fd5b5056fea2646970667358221220bafefb8a602953385da2093e50f6477e48073573dabaa176d9c977920a5676dc64736f6c63430008060033",
  "devdoc": {
    "details": "This contract inherits from the ERC20 implementation to keep track of users depositsThis contract inherits AssetManager which extends OwnableUpgradable",
    "kind": "dev",
    "methods": {
      "allowance(address,address)": {
        "details": "See {IERC20-allowance}."
      },
      "approve(address,uint256)": {
        "details": "See {IERC20-approve}. Requirements: - `spender` cannot be the zero address."
      },
      "approveMaxAmount()": {
        "details": "Emergency function to re-approve max amount if approval amount dropped too low",
        "returns": {
          "_0": "true if operation is successful"
        }
      },
      "balanceOf(address)": {
        "details": "See {IERC20-balanceOf}."
      },
      "balanceOfToken(address)": {
        "params": {
          "addr": "User address"
        },
        "returns": {
          "_0": "The underlying balance of asset tokens"
        }
      },
      "claimOwnership()": {
        "details": "This function is only callable by the `_pendingOwner`."
      },
      "claimRewards(address)": {
        "params": {
          "to": "Address where the claimed rewards will be sent."
        },
        "returns": {
          "_0": "True if operation was successful."
        }
      },
      "constructor": {
        "params": {
          "_aToken": "Aave aToken address",
          "_decimals": "Number of decimals the shares (inhereted ERC20) will have. Set as same as underlying asset to ensure sane ExchangeRates",
          "_incentivesController": "Aave incentivesController address",
          "_lendingPoolAddressesProviderRegistry": "Aave lendingPoolAddressesProviderRegistry address",
          "_name": "Token name for the underlying shares ERC20",
          "_symbol": "Token symbol for the underlying shares ERC20"
        }
      },
      "decimals()": {
        "details": "Returns the number of decimals used to get its user representation. For example, if `decimals` equals `2`, a balance of `505` tokens should be displayed to a user as `5.05` (`505 / 10 ** 2`). Tokens usually opt for a value of 18, imitating the relationship between Ether and Wei. This is the value {ERC20} uses, unless this function is overridden; NOTE: This information is only used for _display_ purposes: it in no way affects any of the arithmetic of the contract, including {IERC20-balanceOf} and {IERC20-transfer}."
      },
      "decreaseAllowance(address,uint256)": {
        "details": "Atomically decreases the allowance granted to `spender` by the caller. This is an alternative to {approve} that can be used as a mitigation for problems described in {IERC20-approve}. Emits an {Approval} event indicating the updated allowance. Requirements: - `spender` cannot be the zero address. - `spender` must have allowance for the caller of at least `subtractedValue`."
      },
      "depositToken()": {
        "returns": {
          "_0": "The ERC20 asset token address"
        }
      },
      "increaseAllowance(address,uint256)": {
        "details": "Atomically increases the allowance granted to `spender` by the caller. This is an alternative to {approve} that can be used as a mitigation for problems described in {IERC20-approve}. Emits an {Approval} event indicating the updated allowance. Requirements: - `spender` cannot be the zero address."
      },
      "manager()": {
        "returns": {
          "_0": "Current `_manager` address."
        }
      },
      "name()": {
        "details": "Returns the name of the token."
      },
      "pendingOwner()": {
        "returns": {
          "_0": "Current `_pendingOwner` address."
        }
      },
      "redeemToken(uint256)": {
        "details": "Shares corresponding to the number of tokens withdrawn are burnt from the user's balanceAsset tokens are withdrawn from Aave, then transferred from the yield source to the user's wallet",
        "params": {
          "redeemAmount": "The amount of asset tokens to be redeemed"
        },
        "returns": {
          "_0": "The actual amount of asset tokens that were redeemed"
        }
      },
      "renounceOwnership()": {
        "details": "Leaves the contract without owner. It will not be possible to call `onlyOwner` functions anymore. Can only be called by the current owner. NOTE: Renouncing ownership will leave the contract without an owner, thereby removing any functionality that is only available to the owner."
      },
      "setManager(address)": {
        "details": "Throws if called by any account other than the owner.",
        "params": {
          "_newManager": "New _manager address."
        },
        "returns": {
          "_0": "Boolean to indicate if the operation was successful or not."
        }
      },
      "sponsor(uint256)": {
        "details": "This allows anyone to distribute tokens among the share holders",
        "params": {
          "amount": "The amount of tokens to deposit"
        }
      },
      "supplyTokenTo(uint256,address)": {
        "details": "Shares corresponding to the number of tokens supplied are mint to the user's balanceAsset tokens are supplied to the yield source, then deposited into Aave",
        "params": {
          "mintAmount": "The amount of asset tokens to be supplied",
          "to": "The user whose balance will receive the tokens"
        }
      },
      "symbol()": {
        "details": "Returns the symbol of the token, usually a shorter version of the name."
      },
      "totalSupply()": {
        "details": "See {IERC20-totalSupply}."
      },
      "transfer(address,uint256)": {
        "details": "See {IERC20-transfer}. Requirements: - `recipient` cannot be the zero address. - the caller must have a balance of at least `amount`."
      },
      "transferERC20(address,address,uint256)": {
        "details": "This function is only callable by the owner or asset manager",
        "params": {
          "amount": "The amount of tokens to transfer",
          "erc20Token": "The ERC20 token to transfer",
          "to": "The recipient of the tokens"
        }
      },
      "transferFrom(address,address,uint256)": {
        "details": "See {IERC20-transferFrom}. Emits an {Approval} event indicating the updated allowance. This is not required by the EIP. See the note at the beginning of {ERC20}. Requirements: - `sender` and `recipient` cannot be the zero address. - `sender` must have a balance of at least `amount`. - the caller must have allowance for ``sender``'s tokens of at least `amount`."
      },
      "transferOwnership(address)": {
        "params": {
          "_newOwner": "Address to transfer ownership to."
        }
      }
    },
    "stateVariables": {
      "ADDRESSES_PROVIDER_ID": {
        "details": "Aave genesis market LendingPoolAddressesProvider's IDThis variable could evolve in the future if we decide to support other markets"
      },
      "REFERRAL_CODE": {
        "details": "PoolTogether's Aave Referral Code"
      }
    },
    "title": "Aave Yield Source integration contract, implementing PoolTogether's generic yield source interface",
    "version": 1
  },
  "userdoc": {
    "events": {
      "ATokenYieldSourceInitialized(address,address,uint8,string,string,address)": {
        "notice": "Emitted when the yield source is initialized"
      },
      "Claimed(address,address,uint256)": {
        "notice": "Emitted when Aave rewards have been claimed"
      },
      "RedeemedToken(address,uint256,uint256)": {
        "notice": "Emitted when asset tokens are redeemed from the yield source"
      },
      "Sponsored(address,uint256)": {
        "notice": "Emitted when asset tokens are supplied to sponsor the yield source"
      },
      "SuppliedTokenTo(address,uint256,uint256,address)": {
        "notice": "Emitted when asset tokens are supplied to the yield source"
      },
      "TransferredERC20(address,address,uint256,address)": {
        "notice": "Emitted when ERC20 tokens other than yield source's aToken are withdrawn from the yield source"
      }
    },
    "kind": "user",
    "methods": {
      "aToken()": {
        "notice": "Interface for the yield-bearing Aave aToken"
      },
      "approveMaxAmount()": {
        "notice": "Approve lending pool contract to spend max uint256 amount"
      },
      "balanceOfToken(address)": {
        "notice": "Returns user total balance (in asset tokens). This includes the deposits and interest."
      },
      "claimOwnership()": {
        "notice": "Allows the `_pendingOwner` address to finalize the transfer."
      },
      "claimRewards(address)": {
        "notice": "Claims the accrued rewards for the aToken, accumulating any pending rewards."
      },
      "constructor": {
        "notice": "Initializes the yield source with Aave aToken"
      },
      "depositToken()": {
        "notice": "Returns the ERC20 asset token used for deposits"
      },
      "incentivesController()": {
        "notice": "Interface for Aave incentivesController"
      },
      "lendingPoolAddressesProviderRegistry()": {
        "notice": "Interface for Aave lendingPoolAddressesProviderRegistry"
      },
      "manager()": {
        "notice": "Gets current `_manager`."
      },
      "owner()": {
        "notice": "Returns the address of the current owner."
      },
      "pendingOwner()": {
        "notice": "Gets current `_pendingOwner`."
      },
      "redeemToken(uint256)": {
        "notice": "Redeems asset tokens from the yield source"
      },
      "renounceOwnership()": {
        "notice": "Renounce ownership of the contract."
      },
      "setManager(address)": {
        "notice": "Set or change of manager."
      },
      "sponsor(uint256)": {
        "notice": "Allows someone to deposit into the yield source without receiving any shares"
      },
      "supplyTokenTo(uint256,address)": {
        "notice": "Supplies asset tokens to the yield source"
      },
      "transferERC20(address,address,uint256)": {
        "notice": "Transfer ERC20 tokens other than the aTokens held by this contract to the recipient address"
      },
      "transferOwnership(address)": {
        "notice": "Allows current owner to set the `_pendingOwner` address."
      }
    },
    "notice": "Yield source for a PoolTogether prize pool that generates yield by depositing into Aave V2",
    "version": 1
  },
  "storageLayout": {
    "storage": [
      {
        "astId": 55,
        "contract": "@pooltogether/aave-yield-source/contracts/yield-source/ATokenYieldSource.sol:ATokenYieldSource",
        "label": "_balances",
        "offset": 0,
        "slot": "0",
        "type": "t_mapping(t_address,t_uint256)"
      },
      {
        "astId": 61,
        "contract": "@pooltogether/aave-yield-source/contracts/yield-source/ATokenYieldSource.sol:ATokenYieldSource",
        "label": "_allowances",
        "offset": 0,
        "slot": "1",
        "type": "t_mapping(t_address,t_mapping(t_address,t_uint256))"
      },
      {
        "astId": 63,
        "contract": "@pooltogether/aave-yield-source/contracts/yield-source/ATokenYieldSource.sol:ATokenYieldSource",
        "label": "_totalSupply",
        "offset": 0,
        "slot": "2",
        "type": "t_uint256"
      },
      {
        "astId": 65,
        "contract": "@pooltogether/aave-yield-source/contracts/yield-source/ATokenYieldSource.sol:ATokenYieldSource",
        "label": "_name",
        "offset": 0,
        "slot": "3",
        "type": "t_string_storage"
      },
      {
        "astId": 67,
        "contract": "@pooltogether/aave-yield-source/contracts/yield-source/ATokenYieldSource.sol:ATokenYieldSource",
        "label": "_symbol",
        "offset": 0,
        "slot": "4",
        "type": "t_string_storage"
      },
      {
        "astId": 4754,
        "contract": "@pooltogether/aave-yield-source/contracts/yield-source/ATokenYieldSource.sol:ATokenYieldSource",
        "label": "_owner",
        "offset": 0,
        "slot": "5",
        "type": "t_address"
      },
      {
        "astId": 4756,
        "contract": "@pooltogether/aave-yield-source/contracts/yield-source/ATokenYieldSource.sol:ATokenYieldSource",
        "label": "_pendingOwner",
        "offset": 0,
        "slot": "6",
        "type": "t_address"
      },
      {
        "astId": 4652,
        "contract": "@pooltogether/aave-yield-source/contracts/yield-source/ATokenYieldSource.sol:ATokenYieldSource",
        "label": "_manager",
        "offset": 0,
        "slot": "7",
        "type": "t_address"
      },
      {
        "astId": 10,
        "contract": "@pooltogether/aave-yield-source/contracts/yield-source/ATokenYieldSource.sol:ATokenYieldSource",
        "label": "_status",
        "offset": 0,
        "slot": "8",
        "type": "t_uint256"
      },
      {
        "astId": 3656,
        "contract": "@pooltogether/aave-yield-source/contracts/yield-source/ATokenYieldSource.sol:ATokenYieldSource",
        "label": "aToken",
        "offset": 0,
        "slot": "9",
        "type": "t_contract(ATokenInterface)3080"
      },
      {
        "astId": 3660,
        "contract": "@pooltogether/aave-yield-source/contracts/yield-source/ATokenYieldSource.sol:ATokenYieldSource",
        "label": "incentivesController",
        "offset": 0,
        "slot": "10",
        "type": "t_contract(IAaveIncentivesController)3316"
      },
      {
        "astId": 3664,
        "contract": "@pooltogether/aave-yield-source/contracts/yield-source/ATokenYieldSource.sol:ATokenYieldSource",
        "label": "lendingPoolAddressesProviderRegistry",
        "offset": 0,
        "slot": "11",
        "type": "t_contract(ILendingPoolAddressesProviderRegistry)3531"
      },
      {
        "astId": 3666,
        "contract": "@pooltogether/aave-yield-source/contracts/yield-source/ATokenYieldSource.sol:ATokenYieldSource",
        "label": "__decimals",
        "offset": 20,
        "slot": "11",
        "type": "t_uint8"
      }
    ],
    "types": {
      "t_address": {
        "encoding": "inplace",
        "label": "address",
        "numberOfBytes": "20"
      },
      "t_contract(ATokenInterface)3080": {
        "encoding": "inplace",
        "label": "contract ATokenInterface",
        "numberOfBytes": "20"
      },
      "t_contract(IAaveIncentivesController)3316": {
        "encoding": "inplace",
        "label": "contract IAaveIncentivesController",
        "numberOfBytes": "20"
      },
      "t_contract(ILendingPoolAddressesProviderRegistry)3531": {
        "encoding": "inplace",
        "label": "contract ILendingPoolAddressesProviderRegistry",
        "numberOfBytes": "20"
      },
      "t_mapping(t_address,t_mapping(t_address,t_uint256))": {
        "encoding": "mapping",
        "key": "t_address",
        "label": "mapping(address => mapping(address => uint256))",
        "numberOfBytes": "32",
        "value": "t_mapping(t_address,t_uint256)"
      },
      "t_mapping(t_address,t_uint256)": {
        "encoding": "mapping",
        "key": "t_address",
        "label": "mapping(address => uint256)",
        "numberOfBytes": "32",
        "value": "t_uint256"
      },
      "t_string_storage": {
        "encoding": "bytes",
        "label": "string",
        "numberOfBytes": "32"
      },
      "t_uint256": {
        "encoding": "inplace",
        "label": "uint256",
        "numberOfBytes": "32"
      },
      "t_uint8": {
        "encoding": "inplace",
        "label": "uint8",
        "numberOfBytes": "1"
      }
    }
  }
}