{
  "address": "0xB2631852E98335d6F4282109f45e377FeD58B807",
  "abi": [
    {
      "inputs": [
        {
          "internalType": "address",
          "name": "owner",
          "type": "address"
        }
      ],
      "stateMutability": "nonpayable",
      "type": "constructor"
    },
    {
      "anonymous": false,
      "inputs": [
        {
          "indexed": true,
          "internalType": "address",
          "name": "previousManager",
          "type": "address"
        },
        {
          "indexed": true,
          "internalType": "address",
          "name": "newManager",
          "type": "address"
        }
      ],
      "name": "ManagerTransferred",
      "type": "event"
    },
    {
      "anonymous": false,
      "inputs": [
        {
          "indexed": true,
          "internalType": "address",
          "name": "pendingOwner",
          "type": "address"
        }
      ],
      "name": "OwnershipOffered",
      "type": "event"
    },
    {
      "anonymous": false,
      "inputs": [
        {
          "indexed": true,
          "internalType": "address",
          "name": "previousOwner",
          "type": "address"
        },
        {
          "indexed": true,
          "internalType": "address",
          "name": "newOwner",
          "type": "address"
        }
      ],
      "name": "OwnershipTransferred",
      "type": "event"
    },
    {
      "anonymous": false,
      "inputs": [
        {
          "indexed": true,
          "internalType": "uint32",
          "name": "drawId",
          "type": "uint32"
        },
        {
          "components": [
            {
              "internalType": "uint8",
              "name": "bitRangeSize",
              "type": "uint8"
            },
            {
              "internalType": "uint32",
              "name": "drawId",
              "type": "uint32"
            },
            {
              "internalType": "uint32",
              "name": "maxPicksPerUser",
              "type": "uint32"
            },
            {
              "internalType": "uint32",
              "name": "expiryDuration",
              "type": "uint32"
            },
            {
              "internalType": "uint32",
              "name": "endTimestampOffset",
              "type": "uint32"
            },
            {
              "internalType": "uint256",
              "name": "prize",
              "type": "uint256"
            },
            {
              "internalType": "uint32[16]",
              "name": "tiers",
              "type": "uint32[16]"
            }
          ],
          "indexed": false,
          "internalType": "struct IPrizeTierHistory.PrizeTier",
          "name": "prizeTier",
          "type": "tuple"
        }
      ],
      "name": "PrizeTierPushed",
      "type": "event"
    },
    {
      "anonymous": false,
      "inputs": [
        {
          "indexed": true,
          "internalType": "uint32",
          "name": "drawId",
          "type": "uint32"
        },
        {
          "components": [
            {
              "internalType": "uint8",
              "name": "bitRangeSize",
              "type": "uint8"
            },
            {
              "internalType": "uint32",
              "name": "drawId",
              "type": "uint32"
            },
            {
              "internalType": "uint32",
              "name": "maxPicksPerUser",
              "type": "uint32"
            },
            {
              "internalType": "uint32",
              "name": "expiryDuration",
              "type": "uint32"
            },
            {
              "internalType": "uint32",
              "name": "endTimestampOffset",
              "type": "uint32"
            },
            {
              "internalType": "uint256",
              "name": "prize",
              "type": "uint256"
            },
            {
              "internalType": "uint32[16]",
              "name": "tiers",
              "type": "uint32[16]"
            }
          ],
          "indexed": false,
          "internalType": "struct IPrizeTierHistory.PrizeTier",
          "name": "prizeTier",
          "type": "tuple"
        }
      ],
      "name": "PrizeTierSet",
      "type": "event"
    },
    {
      "inputs": [],
      "name": "claimOwnership",
      "outputs": [],
      "stateMutability": "nonpayable",
      "type": "function"
    },
    {
      "inputs": [],
      "name": "count",
      "outputs": [
        {
          "internalType": "uint256",
          "name": "",
          "type": "uint256"
        }
      ],
      "stateMutability": "view",
      "type": "function"
    },
    {
      "inputs": [],
      "name": "getNewestDrawId",
      "outputs": [
        {
          "internalType": "uint32",
          "name": "",
          "type": "uint32"
        }
      ],
      "stateMutability": "view",
      "type": "function"
    },
    {
      "inputs": [],
      "name": "getOldestDrawId",
      "outputs": [
        {
          "internalType": "uint32",
          "name": "",
          "type": "uint32"
        }
      ],
      "stateMutability": "view",
      "type": "function"
    },
    {
      "inputs": [
        {
          "internalType": "uint32",
          "name": "drawId",
          "type": "uint32"
        }
      ],
      "name": "getPrizeTier",
      "outputs": [
        {
          "components": [
            {
              "internalType": "uint8",
              "name": "bitRangeSize",
              "type": "uint8"
            },
            {
              "internalType": "uint32",
              "name": "drawId",
              "type": "uint32"
            },
            {
              "internalType": "uint32",
              "name": "maxPicksPerUser",
              "type": "uint32"
            },
            {
              "internalType": "uint32",
              "name": "expiryDuration",
              "type": "uint32"
            },
            {
              "internalType": "uint32",
              "name": "endTimestampOffset",
              "type": "uint32"
            },
            {
              "internalType": "uint256",
              "name": "prize",
              "type": "uint256"
            },
            {
              "internalType": "uint32[16]",
              "name": "tiers",
              "type": "uint32[16]"
            }
          ],
          "internalType": "struct IPrizeTierHistory.PrizeTier",
          "name": "",
          "type": "tuple"
        }
      ],
      "stateMutability": "view",
      "type": "function"
    },
    {
      "inputs": [
        {
          "internalType": "uint256",
          "name": "index",
          "type": "uint256"
        }
      ],
      "name": "getPrizeTierAtIndex",
      "outputs": [
        {
          "components": [
            {
              "internalType": "uint8",
              "name": "bitRangeSize",
              "type": "uint8"
            },
            {
              "internalType": "uint32",
              "name": "drawId",
              "type": "uint32"
            },
            {
              "internalType": "uint32",
              "name": "maxPicksPerUser",
              "type": "uint32"
            },
            {
              "internalType": "uint32",
              "name": "expiryDuration",
              "type": "uint32"
            },
            {
              "internalType": "uint32",
              "name": "endTimestampOffset",
              "type": "uint32"
            },
            {
              "internalType": "uint256",
              "name": "prize",
              "type": "uint256"
            },
            {
              "internalType": "uint32[16]",
              "name": "tiers",
              "type": "uint32[16]"
            }
          ],
          "internalType": "struct IPrizeTierHistory.PrizeTier",
          "name": "",
          "type": "tuple"
        }
      ],
      "stateMutability": "view",
      "type": "function"
    },
    {
      "inputs": [
        {
          "internalType": "uint32[]",
          "name": "_drawIds",
          "type": "uint32[]"
        }
      ],
      "name": "getPrizeTierList",
      "outputs": [
        {
          "components": [
            {
              "internalType": "uint8",
              "name": "bitRangeSize",
              "type": "uint8"
            },
            {
              "internalType": "uint32",
              "name": "drawId",
              "type": "uint32"
            },
            {
              "internalType": "uint32",
              "name": "maxPicksPerUser",
              "type": "uint32"
            },
            {
              "internalType": "uint32",
              "name": "expiryDuration",
              "type": "uint32"
            },
            {
              "internalType": "uint32",
              "name": "endTimestampOffset",
              "type": "uint32"
            },
            {
              "internalType": "uint256",
              "name": "prize",
              "type": "uint256"
            },
            {
              "internalType": "uint32[16]",
              "name": "tiers",
              "type": "uint32[16]"
            }
          ],
          "internalType": "struct IPrizeTierHistory.PrizeTier[]",
          "name": "",
          "type": "tuple[]"
        }
      ],
      "stateMutability": "view",
      "type": "function"
    },
    {
      "inputs": [],
      "name": "manager",
      "outputs": [
        {
          "internalType": "address",
          "name": "",
          "type": "address"
        }
      ],
      "stateMutability": "view",
      "type": "function"
    },
    {
      "inputs": [],
      "name": "owner",
      "outputs": [
        {
          "internalType": "address",
          "name": "",
          "type": "address"
        }
      ],
      "stateMutability": "view",
      "type": "function"
    },
    {
      "inputs": [],
      "name": "pendingOwner",
      "outputs": [
        {
          "internalType": "address",
          "name": "",
          "type": "address"
        }
      ],
      "stateMutability": "view",
      "type": "function"
    },
    {
      "inputs": [
        {
          "components": [
            {
              "internalType": "uint8",
              "name": "bitRangeSize",
              "type": "uint8"
            },
            {
              "internalType": "uint32",
              "name": "drawId",
              "type": "uint32"
            },
            {
              "internalType": "uint32",
              "name": "maxPicksPerUser",
              "type": "uint32"
            },
            {
              "internalType": "uint32",
              "name": "expiryDuration",
              "type": "uint32"
            },
            {
              "internalType": "uint32",
              "name": "endTimestampOffset",
              "type": "uint32"
            },
            {
              "internalType": "uint256",
              "name": "prize",
              "type": "uint256"
            },
            {
              "internalType": "uint32[16]",
              "name": "tiers",
              "type": "uint32[16]"
            }
          ],
          "internalType": "struct IPrizeTierHistory.PrizeTier",
          "name": "newPrizeTier",
          "type": "tuple"
        }
      ],
      "name": "popAndPush",
      "outputs": [
        {
          "internalType": "uint32",
          "name": "",
          "type": "uint32"
        }
      ],
      "stateMutability": "nonpayable",
      "type": "function"
    },
    {
      "inputs": [
        {
          "components": [
            {
              "internalType": "uint8",
              "name": "bitRangeSize",
              "type": "uint8"
            },
            {
              "internalType": "uint32",
              "name": "drawId",
              "type": "uint32"
            },
            {
              "internalType": "uint32",
              "name": "maxPicksPerUser",
              "type": "uint32"
            },
            {
              "internalType": "uint32",
              "name": "expiryDuration",
              "type": "uint32"
            },
            {
              "internalType": "uint32",
              "name": "endTimestampOffset",
              "type": "uint32"
            },
            {
              "internalType": "uint256",
              "name": "prize",
              "type": "uint256"
            },
            {
              "internalType": "uint32[16]",
              "name": "tiers",
              "type": "uint32[16]"
            }
          ],
          "internalType": "struct IPrizeTierHistory.PrizeTier",
          "name": "nextPrizeTier",
          "type": "tuple"
        }
      ],
      "name": "push",
      "outputs": [],
      "stateMutability": "nonpayable",
      "type": "function"
    },
    {
      "inputs": [],
      "name": "renounceOwnership",
      "outputs": [],
      "stateMutability": "nonpayable",
      "type": "function"
    },
    {
      "inputs": [
        {
          "components": [
            {
              "internalType": "uint8",
              "name": "bitRangeSize",
              "type": "uint8"
            },
            {
              "internalType": "uint32",
              "name": "drawId",
              "type": "uint32"
            },
            {
              "internalType": "uint32",
              "name": "maxPicksPerUser",
              "type": "uint32"
            },
            {
              "internalType": "uint32",
              "name": "expiryDuration",
              "type": "uint32"
            },
            {
              "internalType": "uint32",
              "name": "endTimestampOffset",
              "type": "uint32"
            },
            {
              "internalType": "uint256",
              "name": "prize",
              "type": "uint256"
            },
            {
              "internalType": "uint32[16]",
              "name": "tiers",
              "type": "uint32[16]"
            }
          ],
          "internalType": "struct IPrizeTierHistory.PrizeTier",
          "name": "newPrizeTier",
          "type": "tuple"
        }
      ],
      "name": "replace",
      "outputs": [],
      "stateMutability": "nonpayable",
      "type": "function"
    },
    {
      "inputs": [
        {
          "internalType": "address",
          "name": "_newManager",
          "type": "address"
        }
      ],
      "name": "setManager",
      "outputs": [
        {
          "internalType": "bool",
          "name": "",
          "type": "bool"
        }
      ],
      "stateMutability": "nonpayable",
      "type": "function"
    },
    {
      "inputs": [
        {
          "internalType": "address",
          "name": "_newOwner",
          "type": "address"
        }
      ],
      "name": "transferOwnership",
      "outputs": [],
      "stateMutability": "nonpayable",
      "type": "function"
    }
  ],
  "transactionHash": "0x564e87b9c3725e420854e15b4e9edb30b9ce954543d6667ef90fd51da3e2332d",
  "args": [
    "0x21E8fFC0108B0cbA465E26cA0a0EA3955475e9b2"
  ],
  "numDeployments": 2,
  "solcInputHash": "b226b923e97f9e7040456287570603f1",
  "bytecode": "0x60806040523480156200001157600080fd5b5060405162001de138038062001de1833981016040819052620000349162000098565b80620000408162000048565b5050620000ca565b600080546001600160a01b038381166001600160a01b0319831681178455604051919092169283917f8be0079c531659141344cd1fd0a4f28419497f9722a3daafe3b4186f6b6457e09190a35050565b600060208284031215620000ab57600080fd5b81516001600160a01b0381168114620000c357600080fd5b9392505050565b611d0780620000da6000396000f3fe608060405234801561001057600080fd5b50600436106101005760003560e01c8063715018a611610097578063e30c397811610066578063e30c397814610211578063e4dd269014610222578063f114376514610235578063f2fde38b1461024857600080fd5b8063715018a6146101c25780638da5cb5b146101ca578063d0ebdbe7146101db578063d365027d146101fe57600080fd5b8063481c6a75116100d3578063481c6a75146101555780634aac253d1461017a5780634e602cd81461019a5780634e71e0c8146101ba57600080fd5b806306661abd146101055780633659f5431461011b57806339dd7f0814610130578063472b619c1461014d575b600080fd5b6003546040519081526020015b60405180910390f35b61012e61012936600461173c565b61025b565b005b61013861032d565b60405163ffffffff9091168152602001610112565b61013861036e565b6002546001600160a01b03165b6040516001600160a01b039091168152602001610112565b61018d61018836600461181f565b610392565b60405161011291906119c7565b6101ad6101a83660046116c7565b610514565b60405161011291906118b9565b61012e6106d2565b61012e610760565b6000546001600160a01b0316610162565b6101ee6101e936600461169e565b6107d5565b6040519015158152602001610112565b61012e61020c36600461173c565b610851565b6001546001600160a01b0316610162565b61018d610230366004611806565b6108c3565b61013861024336600461173c565b610986565b61012e61025636600461169e565b610b05565b3361026e6002546001600160a01b031690565b6001600160a01b0316148061029c5750336102916000546001600160a01b031690565b6001600160a01b0316145b6103135760405162461bcd60e51b815260206004820152602660248201527f4d616e61676561626c652f63616c6c65722d6e6f742d6d616e616765722d6f7260448201527f2d6f776e6572000000000000000000000000000000000000000000000000000060648201526084015b60405180910390fd5b61032a61032536839003830183611755565b610c41565b50565b6000600360008154811061034357610343611b23565b90600052602060002090600891828204019190066004029054906101000a900463ffffffff16905090565b600380546000919061038290600190611a2f565b8154811061034357610343611b23565b61039a6114fd565b60008263ffffffff16116104165760405162461bcd60e51b815260206004820152602160248201527f5072697a6554696572486973746f72792f647261772d69642d6e6f742d7a657260448201527f6f00000000000000000000000000000000000000000000000000000000000000606482015260840161030a565b60046000610425600385610ec9565b63ffffffff90811682526020808301939093526040918201600020825160e081018452815460ff81168252610100810484169582019590955265010000000000850483168185015269010000000000000000008504831660608201526d01000000000000000000000000009094049091166080840152600181015460a0840152815161020081019092529060c08301906002830160108282826020028201916000905b82829054906101000a900463ffffffff1663ffffffff16815260200190600401906020826003010492830192600103820291508084116104c85790505050505050815250509050919050565b60608160008167ffffffffffffffff81111561053257610532611b39565b60405190808252806020026020018201604052801561056b57816020015b6105586114fd565b8152602001906001900390816105505790505b50905060005b828110156106c757600460006105af88888581811061059257610592611b23565b90506020020160208101906105a7919061181f565b600390610ec9565b63ffffffff90811682526020808301939093526040918201600020825160e081018452815460ff81168252610100810484169582019590955265010000000000850483168185015269010000000000000000008504831660608201526d01000000000000000000000000009094049091166080840152600181015460a0840152815161020081019092529060c08301906002830160108282826020028201916000905b82829054906101000a900463ffffffff1663ffffffff16815260200190600401906020826003010492830192600103820291508084116106525790505050505050815250508282815181106106a9576106a9611b23565b602002602001018190525080806106bf90611ad4565b915050610571565b509150505b92915050565b6001546001600160a01b0316331461072c5760405162461bcd60e51b815260206004820152601f60248201527f4f776e61626c652f63616c6c65722d6e6f742d70656e64696e674f776e657200604482015260640161030a565b600154610741906001600160a01b0316611147565b6001805473ffffffffffffffffffffffffffffffffffffffff19169055565b336107736000546001600160a01b031690565b6001600160a01b0316146107c95760405162461bcd60e51b815260206004820152601860248201527f4f776e61626c652f63616c6c65722d6e6f742d6f776e65720000000000000000604482015260640161030a565b6107d36000611147565b565b6000336107ea6000546001600160a01b031690565b6001600160a01b0316146108405760405162461bcd60e51b815260206004820152601860248201527f4f776e61626c652f63616c6c65722d6e6f742d6f776e65720000000000000000604482015260640161030a565b610849826111a4565b90505b919050565b336108646000546001600160a01b031690565b6001600160a01b0316146108ba5760405162461bcd60e51b815260206004820152601860248201527f4f776e61626c652f63616c6c65722d6e6f742d6f776e65720000000000000000604482015260640161030a565b61032a81611290565b6108cb6114fd565b63ffffffff828116600090815260046020818152604092839020835160e081018552815460ff81168252610100810487168285015265010000000000810487168287015269010000000000000000008104871660608301526d0100000000000000000000000000900486166080820152600182015460a0820152845161020081019586905260028301805490971681529095919460c08701949193601092849186018084116104c85790505050505050815250509050919050565b60003361099b6000546001600160a01b031690565b6001600160a01b0316146109f15760405162461bcd60e51b815260206004820152601860248201527f4f776e61626c652f63616c6c65722d6e6f742d6f776e65720000000000000000604482015260640161030a565b60035480610a415760405162461bcd60e51b815260206004820152601e60248201527f5072697a6554696572486973746f72792f686973746f72792d656d7074790000604482015260640161030a565b610a51604084016020850161181f565b63ffffffff166003610a64600184611a2f565b81548110610a7457610a74611b23565b6000918252602090912060088204015460079091166004026101000a900463ffffffff1614610ae55760405162461bcd60e51b815260206004820181905260248201527f5072697a6554696572486973746f72792f696e76616c69642d647261772d6964604482015260640161030a565b610aee83611290565b610afe604084016020850161181f565b9392505050565b33610b186000546001600160a01b031690565b6001600160a01b031614610b6e5760405162461bcd60e51b815260206004820152601860248201527f4f776e61626c652f63616c6c65722d6e6f742d6f776e65720000000000000000604482015260640161030a565b6001600160a01b038116610bea5760405162461bcd60e51b815260206004820152602560248201527f4f776e61626c652f70656e64696e674f776e65722d6e6f742d7a65726f2d616460448201527f6472657373000000000000000000000000000000000000000000000000000000606482015260840161030a565b6001805473ffffffffffffffffffffffffffffffffffffffff19166001600160a01b0383169081179091556040517f239a2ddded15777fa246aed5f7e1a9bc69a39d4eb4a397034d1d85766cca7d4c90600090a250565b60035463ffffffff811615610d245760006003610c5f600184611a46565b63ffffffff1681548110610c7557610c75611b23565b90600052602060002090600891828204019190066004029054906101000a900463ffffffff1690508063ffffffff16836020015163ffffffff1611610d225760405162461bcd60e51b815260206004820152602260248201527f5072697a6554696572486973746f72792f6e6f6e2d73657175656e7469616c2d60448201527f6964000000000000000000000000000000000000000000000000000000000000606482015260840161030a565b505b60208083018051600380546001818101909255600881047fc2575a0e9e593c00f959f8c92f12db2869c3395a3b0502d05e2516446f71f85b01805463ffffffff94851660046007909416840261010090810a91820291870219909216179091558684166000908152919095526040908190208751815495519289015160608a015160808b015187166d0100000000000000000000000000027fffffffffffffffffffffffffffffff00000000ffffffffffffffffffffffffff9188166901000000000000000000026cffffffff000000000000000000199389166501000000000002939093167fffffffffffffffffffffffffffffffffffffff0000000000000000ffffffffff9690981690990264ffffffffff1990981660ff90931692909217969096179290921693909317939093179290921692909217825560a08401519082015560c0830151839190610e809060028301906010611540565b50905050816020015163ffffffff167efa6c2cd74e788568ac0c75b649897ed491b894d237486258b420d7e77490bf83604051610ebd91906119c7565b60405180910390a25050565b60008060008060018680549050610ee09190611a2f565b9050600086600081548110610ef757610ef7611b23565b90600052602060002090600891828204019190066004029054906101000a900463ffffffff1690506000878363ffffffff1681548110610f3957610f39611b23565b90600052602060002090600891828204019190066004029054906101000a900463ffffffff1690508163ffffffff168763ffffffff161015610fe25760405162461bcd60e51b8152602060048201526024808201527f42696e6172795365617263684c69622f647261772d69642d6f75742d6f662d7260448201527f616e676500000000000000000000000000000000000000000000000000000000606482015260840161030a565b8063ffffffff168763ffffffff16106110025782955050505050506106cc565b8163ffffffff168763ffffffff1614156110235783955050505050506106cc565b600061102f8585611a46565b9050600061103e6002836119fe565b61104890876119d6565b905060008a8263ffffffff168154811061106457611064611b23565b6000918252602090912060088204015460079091166004026101000a900463ffffffff90811691508a1681141561109f5750955061113b9050565b60018363ffffffff1611611109578963ffffffff168b8763ffffffff16815481106110cc576110cc611b23565b6000918252602090912060088204015460079091166004026101000a900463ffffffff16116110fd57859750611101565b8697505b50505061113b565b8963ffffffff168163ffffffff16101561112557819650611133565b611130600183611a46565b95505b505050611023565b50929695505050505050565b600080546001600160a01b0383811673ffffffffffffffffffffffffffffffffffffffff19831681178455604051919092169283917f8be0079c531659141344cd1fd0a4f28419497f9722a3daafe3b4186f6b6457e09190a35050565b6002546000906001600160a01b0390811690831681141561122d5760405162461bcd60e51b815260206004820152602360248201527f4d616e61676561626c652f6578697374696e672d6d616e616765722d6164647260448201527f6573730000000000000000000000000000000000000000000000000000000000606482015260840161030a565b6002805473ffffffffffffffffffffffffffffffffffffffff19166001600160a01b0385811691821790925560405190918316907f9cb45c728de594dab506a1f1a8554e24c8eeaf983618d5ec5dd7bc6f3c49feee90600090a350600192915050565b600354806112e05760405162461bcd60e51b815260206004820152601f60248201527f5072697a6554696572486973746f72792f6e6f2d7072697a652d746965727300604482015260640161030a565b600060036000815481106112f6576112f6611b23565b600091825260209182902060088204015460079091166004026101000a900463ffffffff169150819061132f906040860190860161181f565b63ffffffff1610156113a95760405162461bcd60e51b815260206004820152602560248201527f5072697a6554696572486973746f72792f647261772d69642d6f75742d6f662d60448201527f72616e6765000000000000000000000000000000000000000000000000000000606482015260840161030a565b60006113be6105a7604086016020870161181f565b90506113d0604085016020860161181f565b63ffffffff1660038263ffffffff16815481106113ef576113ef611b23565b6000918252602090912060088204015460079091166004026101000a900463ffffffff16146114865760405162461bcd60e51b815260206004820152602360248201527f5072697a6554696572486973746f72792f647261772d69642d6d7573742d6d6160448201527f7463680000000000000000000000000000000000000000000000000000000000606482015260840161030a565b63ffffffff8116600090815260046020526040902084906114a78282611b5c565b506114ba9050604085016020860161181f565b63ffffffff167fec70f602a8e5c0eab140e799c5b7bb34035bd73c6eb882fad555c7c8860817e7856040516114ef9190611908565b60405180910390a250505050565b6040805160e081018252600080825260208201819052918101829052606081018290526080810182905260a081019190915260c0810161153b6115dc565b905290565b6002830191839082156115cc5791602002820160005b8382111561159a57835183826101000a81548163ffffffff021916908363ffffffff1602179055509260200192600401602081600301049283019260010302611556565b80156115ca5782816101000a81549063ffffffff021916905560040160208160030104928301926001030261159a565b505b506115d89291506115fb565b5090565b6040518061020001604052806010906020820280368337509192915050565b5b808211156115d857600081556001016115fc565b600082601f83011261162157600080fd5b60405161020080820182811067ffffffffffffffff8211171561164657611646611b39565b604052818482810187101561165a57600080fd5b600092505b601083101561168857803561167381611cb0565b8252600192909201916020918201910161165f565b509195945050505050565b803561084c81611cb0565b6000602082840312156116b057600080fd5b81356001600160a01b0381168114610afe57600080fd5b600080602083850312156116da57600080fd5b823567ffffffffffffffff808211156116f257600080fd5b818501915085601f83011261170657600080fd5b81358181111561171557600080fd5b8660208260051b850101111561172a57600080fd5b60209290920196919550909350505050565b60006102c0828403121561174f57600080fd5b50919050565b60006102c0828403121561176857600080fd5b60405160e0810181811067ffffffffffffffff8211171561178b5761178b611b39565b604052823561179981611cc2565b815260208301356117a981611cb0565b602082015260408301356117bc81611cb0565b60408201526117cd60608401611693565b60608201526117de60808401611693565b608082015260a083013560a08201526117fa8460c08501611610565b60c08201529392505050565b60006020828403121561181857600080fd5b5035919050565b60006020828403121561183157600080fd5b8135610afe81611cb0565b60ff815116825260208082015163ffffffff8082168386015280604085015116604086015280606085015116606086015280608085015116608086015260a084015160a086015260c0840151915060c0850160005b60108110156118b0578351831682529284019290840190600101611891565b50505050505050565b6020808252825182820181905260009190848201906040850190845b818110156118fc576118e883855161183c565b928401926102c092909201916001016118d5565b50909695505050505050565b6102c08101823561191881611cc2565b60ff16825260208381013561192c81611cb0565b63ffffffff9081168483015260408501359061194782611cb0565b908116604085015260608501359061195e82611cb0565b908116606085015260808501359061197582611cb0565b808216608086015260a086013560a086015260c08501915060c0860160005b60108110156119bc5781356119a881611cb0565b831684529284019290840190600101611994565b505050505092915050565b6102c081016106cc828461183c565b600063ffffffff8083168185168083038211156119f5576119f5611b0d565b01949350505050565b600063ffffffff80841680611a2357634e487b7160e01b600052601260045260246000fd5b92169190910492915050565b600082821015611a4157611a41611b0d565b500390565b600063ffffffff83811690831681811015611a6357611a63611b0d565b039392505050565b81816000805b6010811015611acc578335611a8581611cb0565b835463ffffffff600385901b81811b801990931693909116901b1617835560209390930192600490910190601c821115611ac457600091506001830192505b600101611a71565b505050505050565b60007fffffffffffffffffffffffffffffffffffffffffffffffffffffffffffffffff821415611b0657611b06611b0d565b5060010190565b634e487b7160e01b600052601160045260246000fd5b634e487b7160e01b600052603260045260246000fd5b634e487b7160e01b600052604160045260246000fd5b600081356106cc81611cb0565b8135611b6781611cc2565b60ff811690508154817fffffffffffffffffffffffffffffffffffffffffffffffffffffffffffffff0082161783556020840135611ba481611cb0565b64ffffffff008160081b168364ffffffffff198416171784555050506040820135611bce81611cb0565b81547fffffffffffffffffffffffffffffffffffffffffffffff00000000ffffffffff16602882901b68ffffffff00000000001617825550611c41611c1560608401611b4f565b82546cffffffff000000000000000000191660489190911b6cffffffff00000000000000000016178255565b611c92611c5060808401611b4f565b82547fffffffffffffffffffffffffffffff00000000ffffffffffffffffffffffffff1660689190911b70ffffffff0000000000000000000000000016178255565b60a08201356001820155611cac60c0830160028301611a6b565b5050565b63ffffffff8116811461032a57600080fd5b60ff8116811461032a57600080fdfea264697066735822122057e4a00d81e4e0b38aa17d0f8c1ba99ce45147e9708759473f19e1edead7412364736f6c63430008060033",
  "devdoc": {
    "author": "PoolTogether Inc Team",
    "details": "If the history param has single PrizeTier struct with a \"drawId\" of 1 all subsequent Draws will use that PrizeTier struct for PrizeDitribution calculations. The BinarySearchLib will find a PrizeTier using a \"atOrBefore\" range search when supplied drawId input parameter.",
    "kind": "dev",
    "methods": {
      "claimOwnership()": {
        "details": "This function is only callable by the `_pendingOwner`."
      },
      "count()": {
        "returns": {
          "_0": "The number of prize tiers that have been pushed"
        }
      },
      "getOldestDrawId()": {
        "returns": {
          "_0": "Draw ID of first PrizeTier record"
        }
      },
      "getPrizeTier(uint32)": {
        "params": {
          "drawId": "Draw ID"
        },
        "returns": {
          "_0": "prizeTier"
        }
      },
      "manager()": {
        "returns": {
          "_0": "Current `_manager` address."
        }
      },
      "pendingOwner()": {
        "returns": {
          "_0": "Current `_pendingOwner` address."
        }
      },
      "renounceOwnership()": {
        "details": "Leaves the contract without owner. It will not be possible to call `onlyOwner` functions anymore. Can only be called by the current owner. NOTE: Renouncing ownership will leave the contract without an owner, thereby removing any functionality that is only available to the owner."
      },
      "setManager(address)": {
        "details": "Throws if called by any account other than the owner.",
        "params": {
          "_newManager": "New _manager address."
        },
        "returns": {
          "_0": "Boolean to indicate if the operation was successful or not."
        }
      },
      "transferOwnership(address)": {
        "params": {
          "_newOwner": "Address to transfer ownership to."
        }
      }
    },
    "stateVariables": {
      "history": {
        "details": "The history, with sequentially ordered ids, can be searched using binary search. The binary search will find index of a drawId (atOrBefore) using a specific drawId (at). When a new Draw ID is added to the history, a corresponding mapping of the ID is  updated in the prizeTiers mapping."
      },
      "prizeTiers": {
        "details": "The prizeTiers mapping links a Draw ID to a PrizeTier struct. The prizeTiers mapping is updated when a new Draw ID is added to the history."
      }
    },
    "title": "PoolTogether V4 PrizeTierHistory",
    "version": 1
  },
  "userdoc": {
    "events": {
      "PrizeTierPushed(uint32,(uint8,uint32,uint32,uint32,uint32,uint256,uint32[16]))": {
        "notice": "Emit when new PrizeTier is added to history"
      },
      "PrizeTierSet(uint32,(uint8,uint32,uint32,uint32,uint32,uint256,uint32[16]))": {
        "notice": "Emit when existing PrizeTier is updated in history"
      }
    },
    "kind": "user",
    "methods": {
      "claimOwnership()": {
        "notice": "Allows the `_pendingOwner` address to finalize the transfer."
      },
      "count()": {
        "notice": "Returns the number of Prize Tier structs pushed"
      },
      "getOldestDrawId()": {
        "notice": "Read first Draw ID used to initialize history"
      },
      "getPrizeTier(uint32)": {
        "notice": "Read PrizeTierHistory struct from history array."
      },
      "manager()": {
        "notice": "Gets current `_manager`."
      },
      "owner()": {
        "notice": "Returns the address of the current owner."
      },
      "pendingOwner()": {
        "notice": "Gets current `_pendingOwner`."
      },
      "renounceOwnership()": {
        "notice": "Renounce ownership of the contract."
      },
      "setManager(address)": {
        "notice": "Set or change of manager."
      },
      "transferOwnership(address)": {
        "notice": "Allows current owner to set the `_pendingOwner` address."
      }
    },
    "notice": "The PrizeTierHistory smart contract stores a history of PrizeTier structs linked to  a range of valid Draw IDs. ",
    "version": 1
  },
  "storageLayout": {
    "storage": [
      {
        "astId": 5077,
        "contract": "@pooltogether/v4-periphery/contracts/PrizeTierHistory.sol:PrizeTierHistory",
        "label": "_owner",
        "offset": 0,
        "slot": "0",
        "type": "t_address"
      },
      {
        "astId": 5079,
        "contract": "@pooltogether/v4-periphery/contracts/PrizeTierHistory.sol:PrizeTierHistory",
        "label": "_pendingOwner",
        "offset": 0,
        "slot": "1",
        "type": "t_address"
      },
      {
        "astId": 4975,
        "contract": "@pooltogether/v4-periphery/contracts/PrizeTierHistory.sol:PrizeTierHistory",
        "label": "_manager",
        "offset": 0,
        "slot": "2",
        "type": "t_address"
      },
      {
        "astId": 15460,
        "contract": "@pooltogether/v4-periphery/contracts/PrizeTierHistory.sol:PrizeTierHistory",
        "label": "history",
        "offset": 0,
        "slot": "3",
        "type": "t_array(t_uint32)dyn_storage"
      },
      {
        "astId": 15466,
        "contract": "@pooltogether/v4-periphery/contracts/PrizeTierHistory.sol:PrizeTierHistory",
        "label": "prizeTiers",
        "offset": 0,
        "slot": "4",
        "type": "t_mapping(t_uint32,t_struct(PrizeTier)17009_storage)"
      }
    ],
    "types": {
      "t_address": {
        "encoding": "inplace",
        "label": "address",
        "numberOfBytes": "20"
      },
      "t_array(t_uint32)16_storage": {
        "base": "t_uint32",
        "encoding": "inplace",
        "label": "uint32[16]",
        "numberOfBytes": "64"
      },
      "t_array(t_uint32)dyn_storage": {
        "base": "t_uint32",
        "encoding": "dynamic_array",
        "label": "uint32[]",
        "numberOfBytes": "32"
      },
      "t_mapping(t_uint32,t_struct(PrizeTier)17009_storage)": {
        "encoding": "mapping",
        "key": "t_uint32",
        "label": "mapping(uint32 => struct IPrizeTierHistory.PrizeTier)",
        "numberOfBytes": "32",
        "value": "t_struct(PrizeTier)17009_storage"
      },
      "t_struct(PrizeTier)17009_storage": {
        "encoding": "inplace",
        "label": "struct IPrizeTierHistory.PrizeTier",
        "members": [
          {
            "astId": 16994,
            "contract": "@pooltogether/v4-periphery/contracts/PrizeTierHistory.sol:PrizeTierHistory",
            "label": "bitRangeSize",
            "offset": 0,
            "slot": "0",
            "type": "t_uint8"
          },
          {
            "astId": 16996,
            "contract": "@pooltogether/v4-periphery/contracts/PrizeTierHistory.sol:PrizeTierHistory",
            "label": "drawId",
            "offset": 1,
            "slot": "0",
            "type": "t_uint32"
          },
          {
            "astId": 16998,
            "contract": "@pooltogether/v4-periphery/contracts/PrizeTierHistory.sol:PrizeTierHistory",
            "label": "maxPicksPerUser",
            "offset": 5,
            "slot": "0",
            "type": "t_uint32"
          },
          {
            "astId": 17000,
            "contract": "@pooltogether/v4-periphery/contracts/PrizeTierHistory.sol:PrizeTierHistory",
            "label": "expiryDuration",
            "offset": 9,
            "slot": "0",
            "type": "t_uint32"
          },
          {
            "astId": 17002,
            "contract": "@pooltogether/v4-periphery/contracts/PrizeTierHistory.sol:PrizeTierHistory",
            "label": "endTimestampOffset",
            "offset": 13,
            "slot": "0",
            "type": "t_uint32"
          },
          {
            "astId": 17004,
            "contract": "@pooltogether/v4-periphery/contracts/PrizeTierHistory.sol:PrizeTierHistory",
            "label": "prize",
            "offset": 0,
            "slot": "1",
            "type": "t_uint256"
          },
          {
            "astId": 17008,
            "contract": "@pooltogether/v4-periphery/contracts/PrizeTierHistory.sol:PrizeTierHistory",
            "label": "tiers",
            "offset": 0,
            "slot": "2",
            "type": "t_array(t_uint32)16_storage"
          }
        ],
        "numberOfBytes": "128"
      },
      "t_uint256": {
        "encoding": "inplace",
        "label": "uint256",
        "numberOfBytes": "32"
      },
      "t_uint32": {
        "encoding": "inplace",
        "label": "uint32",
        "numberOfBytes": "4"
      },
      "t_uint8": {
        "encoding": "inplace",
        "label": "uint8",
        "numberOfBytes": "1"
      }
    }
  }
}