{
  "address": "0xd89a09084555a7D0ABe7B111b1f78DFEdDd638Be",
  "abi": [
    {
      "inputs": [
        {
          "internalType": "address",
          "name": "_owner",
          "type": "address"
        },
        {
          "internalType": "contract IYieldSource",
          "name": "_yieldSource",
          "type": "address"
        }
      ],
      "stateMutability": "nonpayable",
      "type": "constructor"
    },
    {
      "anonymous": false,
      "inputs": [
        {
          "indexed": false,
          "internalType": "uint256",
          "name": "amount",
          "type": "uint256"
        }
      ],
      "name": "AwardCaptured",
      "type": "event"
    },
    {
      "anonymous": false,
      "inputs": [
        {
          "indexed": true,
          "internalType": "address",
          "name": "winner",
          "type": "address"
        },
        {
          "indexed": true,
          "internalType": "contract ITicket",
          "name": "token",
          "type": "address"
        },
        {
          "indexed": false,
          "internalType": "uint256",
          "name": "amount",
          "type": "uint256"
        }
      ],
      "name": "Awarded",
      "type": "event"
    },
    {
      "anonymous": false,
      "inputs": [
        {
          "indexed": true,
          "internalType": "address",
          "name": "winner",
          "type": "address"
        },
        {
          "indexed": true,
          "internalType": "address",
          "name": "token",
          "type": "address"
        },
        {
          "indexed": false,
          "internalType": "uint256",
          "name": "amount",
          "type": "uint256"
        }
      ],
      "name": "AwardedExternalERC20",
      "type": "event"
    },
    {
      "anonymous": false,
      "inputs": [
        {
          "indexed": true,
          "internalType": "address",
          "name": "winner",
          "type": "address"
        },
        {
          "indexed": true,
          "internalType": "address",
          "name": "token",
          "type": "address"
        },
        {
          "indexed": false,
          "internalType": "uint256[]",
          "name": "tokenIds",
          "type": "uint256[]"
        }
      ],
      "name": "AwardedExternalERC721",
      "type": "event"
    },
    {
      "anonymous": false,
      "inputs": [
        {
          "indexed": false,
          "internalType": "uint256",
          "name": "balanceCap",
          "type": "uint256"
        }
      ],
      "name": "BalanceCapSet",
      "type": "event"
    },
    {
      "anonymous": false,
      "inputs": [
        {
          "indexed": true,
          "internalType": "contract ITicket",
          "name": "token",
          "type": "address"
        }
      ],
      "name": "ControlledTokenAdded",
      "type": "event"
    },
    {
      "anonymous": false,
      "inputs": [
        {
          "indexed": true,
          "internalType": "address",
          "name": "yieldSource",
          "type": "address"
        }
      ],
      "name": "Deployed",
      "type": "event"
    },
    {
      "anonymous": false,
      "inputs": [
        {
          "indexed": true,
          "internalType": "address",
          "name": "operator",
          "type": "address"
        },
        {
          "indexed": true,
          "internalType": "address",
          "name": "to",
          "type": "address"
        },
        {
          "indexed": true,
          "internalType": "contract ITicket",
          "name": "token",
          "type": "address"
        },
        {
          "indexed": false,
          "internalType": "uint256",
          "name": "amount",
          "type": "uint256"
        }
      ],
      "name": "Deposited",
      "type": "event"
    },
    {
      "anonymous": false,
      "inputs": [
        {
          "indexed": false,
          "internalType": "bytes",
          "name": "error",
          "type": "bytes"
        }
      ],
      "name": "ErrorAwardingExternalERC721",
      "type": "event"
    },
    {
      "anonymous": false,
      "inputs": [
        {
          "indexed": false,
          "internalType": "uint256",
          "name": "liquidityCap",
          "type": "uint256"
        }
      ],
      "name": "LiquidityCapSet",
      "type": "event"
    },
    {
      "anonymous": false,
      "inputs": [
        {
          "indexed": true,
          "internalType": "address",
          "name": "pendingOwner",
          "type": "address"
        }
      ],
      "name": "OwnershipOffered",
      "type": "event"
    },
    {
      "anonymous": false,
      "inputs": [
        {
          "indexed": true,
          "internalType": "address",
          "name": "previousOwner",
          "type": "address"
        },
        {
          "indexed": true,
          "internalType": "address",
          "name": "newOwner",
          "type": "address"
        }
      ],
      "name": "OwnershipTransferred",
      "type": "event"
    },
    {
      "anonymous": false,
      "inputs": [
        {
          "indexed": true,
          "internalType": "address",
          "name": "prizeStrategy",
          "type": "address"
        }
      ],
      "name": "PrizeStrategySet",
      "type": "event"
    },
    {
      "anonymous": false,
      "inputs": [
        {
          "indexed": false,
          "internalType": "uint256",
          "name": "amount",
          "type": "uint256"
        }
      ],
      "name": "Swept",
      "type": "event"
    },
    {
      "anonymous": false,
      "inputs": [
        {
          "indexed": true,
          "internalType": "contract ITicket",
          "name": "ticket",
          "type": "address"
        }
      ],
      "name": "TicketSet",
      "type": "event"
    },
    {
      "anonymous": false,
      "inputs": [
        {
          "indexed": true,
          "internalType": "address",
          "name": "to",
          "type": "address"
        },
        {
          "indexed": true,
          "internalType": "address",
          "name": "token",
          "type": "address"
        },
        {
          "indexed": false,
          "internalType": "uint256",
          "name": "amount",
          "type": "uint256"
        }
      ],
      "name": "TransferredExternalERC20",
      "type": "event"
    },
    {
      "anonymous": false,
      "inputs": [
        {
          "indexed": true,
          "internalType": "address",
          "name": "operator",
          "type": "address"
        },
        {
          "indexed": true,
          "internalType": "address",
          "name": "from",
          "type": "address"
        },
        {
          "indexed": true,
          "internalType": "contract ITicket",
          "name": "token",
          "type": "address"
        },
        {
          "indexed": false,
          "internalType": "uint256",
          "name": "amount",
          "type": "uint256"
        },
        {
          "indexed": false,
          "internalType": "uint256",
          "name": "redeemed",
          "type": "uint256"
        }
      ],
      "name": "Withdrawal",
      "type": "event"
    },
    {
      "inputs": [],
      "name": "VERSION",
      "outputs": [
        {
          "internalType": "string",
          "name": "",
          "type": "string"
        }
      ],
      "stateMutability": "view",
      "type": "function"
    },
    {
      "inputs": [
        {
          "internalType": "address",
          "name": "_to",
          "type": "address"
        },
        {
          "internalType": "uint256",
          "name": "_amount",
          "type": "uint256"
        }
      ],
      "name": "award",
      "outputs": [],
      "stateMutability": "nonpayable",
      "type": "function"
    },
    {
      "inputs": [],
      "name": "awardBalance",
      "outputs": [
        {
          "internalType": "uint256",
          "name": "",
          "type": "uint256"
        }
      ],
      "stateMutability": "view",
      "type": "function"
    },
    {
      "inputs": [
        {
          "internalType": "address",
          "name": "_to",
          "type": "address"
        },
        {
          "internalType": "address",
          "name": "_externalToken",
          "type": "address"
        },
        {
          "internalType": "uint256",
          "name": "_amount",
          "type": "uint256"
        }
      ],
      "name": "awardExternalERC20",
      "outputs": [],
      "stateMutability": "nonpayable",
      "type": "function"
    },
    {
      "inputs": [
        {
          "internalType": "address",
          "name": "_to",
          "type": "address"
        },
        {
          "internalType": "address",
          "name": "_externalToken",
          "type": "address"
        },
        {
          "internalType": "uint256[]",
          "name": "_tokenIds",
          "type": "uint256[]"
        }
      ],
      "name": "awardExternalERC721",
      "outputs": [],
      "stateMutability": "nonpayable",
      "type": "function"
    },
    {
      "inputs": [],
      "name": "balance",
      "outputs": [
        {
          "internalType": "uint256",
          "name": "",
          "type": "uint256"
        }
      ],
      "stateMutability": "nonpayable",
      "type": "function"
    },
    {
      "inputs": [
        {
          "internalType": "address",
          "name": "_externalToken",
          "type": "address"
        }
      ],
      "name": "canAwardExternal",
      "outputs": [
        {
          "internalType": "bool",
          "name": "",
          "type": "bool"
        }
      ],
      "stateMutability": "view",
      "type": "function"
    },
    {
      "inputs": [],
      "name": "captureAwardBalance",
      "outputs": [
        {
          "internalType": "uint256",
          "name": "",
          "type": "uint256"
        }
      ],
      "stateMutability": "nonpayable",
      "type": "function"
    },
    {
      "inputs": [],
      "name": "claimOwnership",
      "outputs": [],
      "stateMutability": "nonpayable",
      "type": "function"
    },
    {
      "inputs": [
        {
          "internalType": "contract ICompLike",
          "name": "_compLike",
          "type": "address"
        },
        {
          "internalType": "address",
          "name": "_to",
          "type": "address"
        }
      ],
      "name": "compLikeDelegate",
      "outputs": [],
      "stateMutability": "nonpayable",
      "type": "function"
    },
    {
      "inputs": [
        {
          "internalType": "address",
          "name": "_to",
          "type": "address"
        },
        {
          "internalType": "uint256",
          "name": "_amount",
          "type": "uint256"
        }
      ],
      "name": "depositTo",
      "outputs": [],
      "stateMutability": "nonpayable",
      "type": "function"
    },
    {
      "inputs": [
        {
          "internalType": "address",
          "name": "_to",
          "type": "address"
        },
        {
          "internalType": "uint256",
          "name": "_amount",
          "type": "uint256"
        },
        {
          "internalType": "address",
          "name": "_delegate",
          "type": "address"
        }
      ],
      "name": "depositToAndDelegate",
      "outputs": [],
      "stateMutability": "nonpayable",
      "type": "function"
    },
    {
      "inputs": [],
      "name": "getAccountedBalance",
      "outputs": [
        {
          "internalType": "uint256",
          "name": "",
          "type": "uint256"
        }
      ],
      "stateMutability": "view",
      "type": "function"
    },
    {
      "inputs": [],
      "name": "getBalanceCap",
      "outputs": [
        {
          "internalType": "uint256",
          "name": "",
          "type": "uint256"
        }
      ],
      "stateMutability": "view",
      "type": "function"
    },
    {
      "inputs": [],
      "name": "getLiquidityCap",
      "outputs": [
        {
          "internalType": "uint256",
          "name": "",
          "type": "uint256"
        }
      ],
      "stateMutability": "view",
      "type": "function"
    },
    {
      "inputs": [],
      "name": "getPrizeStrategy",
      "outputs": [
        {
          "internalType": "address",
          "name": "",
          "type": "address"
        }
      ],
      "stateMutability": "view",
      "type": "function"
    },
    {
      "inputs": [],
      "name": "getTicket",
      "outputs": [
        {
          "internalType": "contract ITicket",
          "name": "",
          "type": "address"
        }
      ],
      "stateMutability": "view",
      "type": "function"
    },
    {
      "inputs": [],
      "name": "getToken",
      "outputs": [
        {
          "internalType": "address",
          "name": "",
          "type": "address"
        }
      ],
      "stateMutability": "view",
      "type": "function"
    },
    {
      "inputs": [
        {
          "internalType": "contract ITicket",
          "name": "_controlledToken",
          "type": "address"
        }
      ],
      "name": "isControlled",
      "outputs": [
        {
          "internalType": "bool",
          "name": "",
          "type": "bool"
        }
      ],
      "stateMutability": "view",
      "type": "function"
    },
    {
      "inputs": [
        {
          "internalType": "address",
          "name": "",
          "type": "address"
        },
        {
          "internalType": "address",
          "name": "",
          "type": "address"
        },
        {
          "internalType": "uint256",
          "name": "",
          "type": "uint256"
        },
        {
          "internalType": "bytes",
          "name": "",
          "type": "bytes"
        }
      ],
      "name": "onERC721Received",
      "outputs": [
        {
          "internalType": "bytes4",
          "name": "",
          "type": "bytes4"
        }
      ],
      "stateMutability": "pure",
      "type": "function"
    },
    {
      "inputs": [],
      "name": "owner",
      "outputs": [
        {
          "internalType": "address",
          "name": "",
          "type": "address"
        }
      ],
      "stateMutability": "view",
      "type": "function"
    },
    {
      "inputs": [],
      "name": "pendingOwner",
      "outputs": [
        {
          "internalType": "address",
          "name": "",
          "type": "address"
        }
      ],
      "stateMutability": "view",
      "type": "function"
    },
    {
      "inputs": [],
      "name": "renounceOwnership",
      "outputs": [],
      "stateMutability": "nonpayable",
      "type": "function"
    },
    {
      "inputs": [
        {
          "internalType": "uint256",
          "name": "_balanceCap",
          "type": "uint256"
        }
      ],
      "name": "setBalanceCap",
      "outputs": [
        {
          "internalType": "bool",
          "name": "",
          "type": "bool"
        }
      ],
      "stateMutability": "nonpayable",
      "type": "function"
    },
    {
      "inputs": [
        {
          "internalType": "uint256",
          "name": "_liquidityCap",
          "type": "uint256"
        }
      ],
      "name": "setLiquidityCap",
      "outputs": [],
      "stateMutability": "nonpayable",
      "type": "function"
    },
    {
      "inputs": [
        {
          "internalType": "address",
          "name": "_prizeStrategy",
          "type": "address"
        }
      ],
      "name": "setPrizeStrategy",
      "outputs": [],
      "stateMutability": "nonpayable",
      "type": "function"
    },
    {
      "inputs": [
        {
          "internalType": "contract ITicket",
          "name": "_ticket",
          "type": "address"
        }
      ],
      "name": "setTicket",
      "outputs": [
        {
          "internalType": "bool",
          "name": "",
          "type": "bool"
        }
      ],
      "stateMutability": "nonpayable",
      "type": "function"
    },
    {
      "inputs": [],
      "name": "sweep",
      "outputs": [],
      "stateMutability": "nonpayable",
      "type": "function"
    },
    {
      "inputs": [
        {
          "internalType": "address",
          "name": "_to",
          "type": "address"
        },
        {
          "internalType": "address",
          "name": "_externalToken",
          "type": "address"
        },
        {
          "internalType": "uint256",
          "name": "_amount",
          "type": "uint256"
        }
      ],
      "name": "transferExternalERC20",
      "outputs": [],
      "stateMutability": "nonpayable",
      "type": "function"
    },
    {
      "inputs": [
        {
          "internalType": "address",
          "name": "_newOwner",
          "type": "address"
        }
      ],
      "name": "transferOwnership",
      "outputs": [],
      "stateMutability": "nonpayable",
      "type": "function"
    },
    {
      "inputs": [
        {
          "internalType": "address",
          "name": "_from",
          "type": "address"
        },
        {
          "internalType": "uint256",
          "name": "_amount",
          "type": "uint256"
        }
      ],
      "name": "withdrawFrom",
      "outputs": [
        {
          "internalType": "uint256",
          "name": "",
          "type": "uint256"
        }
      ],
      "stateMutability": "nonpayable",
      "type": "function"
    },
    {
      "inputs": [],
      "name": "yieldSource",
      "outputs": [
        {
          "internalType": "contract IYieldSource",
          "name": "",
          "type": "address"
        }
      ],
      "stateMutability": "view",
      "type": "function"
    }
  ],
  "transactionHash": "0x53586677d6894b3ab11703526b437d6833c41256416605ebfc007091eb69928c",
  "args": [
    "0xE0F4217390221aF47855E094F6e112D43C8698fE",
    "0x32e8D4c9d1B711BC958d0Ce8D14b41F77Bb03a64"
  ],
  "solcInputHash": "7e8084d0a22db9e877c42567b125a31e",
  "bytecode": "0x60a06040523480156200001157600080fd5b5060405162002bcc38038062002bcc8339810160408190526200003491620002f0565b818062000041816200023e565b506001600255620000546000196200028e565b506001600160a01b038116620000cc5760405162461bcd60e51b815260206004820152603260248201527f5969656c64536f757263655072697a65506f6f6c2f7969656c642d736f757263604482015271652d6e6f742d7a65726f2d6164647265737360701b60648201526084015b60405180910390fd5b606081901b6001600160601b03191660805260405163c89039c560e01b602082015260009081906001600160a01b0384169060240160408051601f19818403018152908290526200011d916200032f565b600060405180830381855afa9150503d80600081146200015a576040519150601f19603f3d011682016040523d82523d6000602084013e6200015f565b606091505b509150915060008082511115620001895781806020019051810190620001869190620002c9565b90505b8280156200019f57506001600160a01b03811615155b620001ff5760405162461bcd60e51b815260206004820152602960248201527f5969656c64536f757263655072697a65506f6f6c2f696e76616c69642d7969656044820152686c642d736f7572636560b81b6064820152608401620000c3565b6040516001600160a01b038516907ff40fcec21964ffb566044d083b4073f29f7f7929110ea19e1b3ebe375d89055e90600090a2505050505062000386565b600080546001600160a01b038381166001600160a01b0319831681178455604051919092169283917f8be0079c531659141344cd1fd0a4f28419497f9722a3daafe3b4186f6b6457e09190a35050565b60068190556040518181527f3ff20538222f568f27ff436c0c49dfd3e48d5b8f86533a3f759dc1c7089775ab9060200160405180910390a150565b600060208284031215620002dc57600080fd5b8151620002e9816200036d565b9392505050565b600080604083850312156200030457600080fd5b825162000311816200036d565b602084015190925062000324816200036d565b809150509250929050565b6000825160005b8181101562000352576020818601810151858301520162000336565b8181111562000362576000828501525b509190910192915050565b6001600160a01b03811681146200038357600080fd5b50565b60805160601c6127fd620003cf600039600081816103d10152818161177301528181611876015281816119a001528181611a0d01528181611c650152611dc301526127fd6000f3fe608060405234801561001057600080fd5b50600436106101f05760003560e01c80637b99adb11161010f578063c002c4d6116100a2578063e6d8a94b11610071578063e6d8a94b14610441578063f2fde38b14610449578063ffa1ad741461045c578063ffaad6a5146104a557600080fd5b8063c002c4d6146103fb578063d7a169eb1461040c578063d804abaf1461041f578063e30c39781461043057600080fd5b8063aec9c307116100de578063aec9c307146103b1578063b15a49c1146103c4578063b2470e5c146103cc578063b69ef8a8146103f357600080fd5b80637b99adb1146103675780638da5cb5b1461037a57806391ca480e1461038b5780639470b0bd1461039e57600080fd5b806333e5761f11610187578063630665b411610156578063630665b4146103315780636a3fd4f914610339578063715018a61461034c57806378b3d3271461035457600080fd5b806333e5761f1461030657806335faa4161461030e5780634e71e0c8146103165780635d8a776e1461031e57600080fd5b80631c65c78b116101c35780631c65c78b1461029d57806321df0da7146102c05780632b0ab144146102e05780632f7627e3146102f357600080fd5b806308234319146101f557806313f55e391461020c578063150b7a021461022157806316960d551461028a575b600080fd5b6005545b6040519081526020015b60405180910390f35b61021f61021a366004612480565b6104b8565b005b61025961022f3660046124c1565b7f150b7a020000000000000000000000000000000000000000000000000000000095945050505050565b6040517fffffffff000000000000000000000000000000000000000000000000000000009091168152602001610203565b61021f6102983660046123eb565b61057a565b6102b06102ab3660046123b1565b610844565b6040519015158152602001610203565b6102c86109eb565b6040516001600160a01b039091168152602001610203565b61021f6102ee366004612480565b6109fa565b61021f6103013660046125f0565b610aa9565b6101f9610c06565b61021f610c10565b61021f610d98565b61021f61032c366004612560565b610e26565b6007546101f9565b6102b06103473660046123b1565b610f4c565b61021f610f5d565b6102b06103623660046123b1565b610fd2565b61021f610375366004612629565b610feb565b6000546001600160a01b03166102c8565b61021f6103993660046123b1565b611060565b6101f96103ac366004612560565b6110d2565b6102b06103bf366004612629565b611233565b6006546101f9565b6102c87f000000000000000000000000000000000000000000000000000000000000000081565b6101f96112a7565b6003546001600160a01b03166102c8565b61021f61041a36600461258c565b6112b1565b6004546001600160a01b03166102c8565b6001546001600160a01b03166102c8565b6101f96113f1565b61021f6104573660046123b1565b6114ef565b6104986040518060400160405280600581526020017f342e302e3000000000000000000000000000000000000000000000000000000081525081565b60405161020391906126e7565b61021f6104b3366004612560565b61162b565b6004546001600160a01b031633146105175760405162461bcd60e51b815260206004820152601c60248201527f5072697a65506f6f6c2f6f6e6c792d7072697a6553747261746567790000000060448201526064015b60405180910390fd5b6105228383836116ec565b1561057557816001600160a01b0316836001600160a01b03167fb0bac59718cd343c80a813518afcf36846cfcfe6d56e2b3cab9bd49f5f9b251c8360405161056c91815260200190565b60405180910390a35b505050565b6004546001600160a01b031633146105d45760405162461bcd60e51b815260206004820152601c60248201527f5072697a65506f6f6c2f6f6e6c792d7072697a65537472617465677900000000604482015260640161050e565b6105dd8361176f565b6106295760405162461bcd60e51b815260206004820181905260248201527f5072697a65506f6f6c2f696e76616c69642d65787465726e616c2d746f6b656e604482015260640161050e565b806106335761083e565b60008167ffffffffffffffff81111561064e5761064e61279c565b604051908082528060200260200182016040528015610677578160200160208202803683370190505b5090506000805b838110156107e857856001600160a01b03166342842e0e30898888868181106106a9576106a9612786565b6040517fffffffff0000000000000000000000000000000000000000000000000000000060e088901b1681526001600160a01b03958616600482015294909316602485015250602090910201356044820152606401600060405180830381600087803b15801561071857600080fd5b505af1925050508015610729575060015b61079a573d808015610757576040519150601f19603f3d011682016040523d82523d6000602084013e61075c565b606091505b507f17e975018310f88872b58d4d8263adca83cf5c1893496ea2a86923dab15276ad8160405161078c91906126e7565b60405180910390a1506107d6565b600191508484828181106107b0576107b0612786565b905060200201358382815181106107c9576107c9612786565b6020026020010181815250505b806107e081612755565b91505061067e565b50801561083b57846001600160a01b0316866001600160a01b03167f69c2de32bc4d47f488e72626a6cfdee85089342e52675e7de79c4b417623960c8460405161083291906126a3565b60405180910390a35b50505b50505050565b6000336108596000546001600160a01b031690565b6001600160a01b0316146108af5760405162461bcd60e51b815260206004820152601860248201527f4f776e61626c652f63616c6c65722d6e6f742d6f776e65720000000000000000604482015260640161050e565b6001600160a01b03821661092b5760405162461bcd60e51b815260206004820152602160248201527f5072697a65506f6f6c2f7469636b65742d6e6f742d7a65726f2d61646472657360448201527f7300000000000000000000000000000000000000000000000000000000000000606482015260840161050e565b6003546001600160a01b0316156109845760405162461bcd60e51b815260206004820152601c60248201527f5072697a65506f6f6c2f7469636b65742d616c72656164792d73657400000000604482015260640161050e565b6003805473ffffffffffffffffffffffffffffffffffffffff19166001600160a01b0384169081179091556040517f9f9d59c87dbdc6ca82d9e5924782004b9aebc366c505c0ccab12f61e2a9f332190600090a26109e3600019611836565b506001919050565b60006109f5611872565b905090565b6004546001600160a01b03163314610a545760405162461bcd60e51b815260206004820152601c60248201527f5072697a65506f6f6c2f6f6e6c792d7072697a65537472617465677900000000604482015260640161050e565b610a5f8383836116ec565b1561057557816001600160a01b0316836001600160a01b03167fc65f48aca3b7a99b7443d04b8ffbb073156179bc628dc3f7def50477489734698360405161056c91815260200190565b33610abc6000546001600160a01b031690565b6001600160a01b031614610b125760405162461bcd60e51b815260206004820152601860248201527f4f776e61626c652f63616c6c65722d6e6f742d6f776e65720000000000000000604482015260640161050e565b6040516370a0823160e01b81523060048201526000906001600160a01b038416906370a082319060240160206040518083038186803b158015610b5457600080fd5b505afa158015610b68573d6000803e3d6000fd5b505050506040513d601f19601f82011682018060405250810190610b8c9190612642565b1115610c02576040517f5c19a95c0000000000000000000000000000000000000000000000000000000081526001600160a01b038281166004830152831690635c19a95c90602401600060405180830381600087803b158015610bee57600080fd5b505af115801561083b573d6000803e3d6000fd5b5050565b60006109f5611905565b600280541415610c625760405162461bcd60e51b815260206004820152601f60248201527f5265656e7472616e637947756172643a207265656e7472616e742063616c6c00604482015260640161050e565b6002805533610c796000546001600160a01b031690565b6001600160a01b031614610ccf5760405162461bcd60e51b815260206004820152601860248201527f4f776e61626c652f63616c6c65722d6e6f742d6f776e65720000000000000000604482015260640161050e565b6000610cd9611872565b6040516370a0823160e01b81523060048201526001600160a01b0391909116906370a082319060240160206040518083038186803b158015610d1a57600080fd5b505afa158015610d2e573d6000803e3d6000fd5b505050506040513d601f19601f82011682018060405250810190610d529190612642565b9050610d5d8161199b565b6040518181527f7f221332ee403570bf4d61630b58189ea566ff1635269001e9df6a890f413dd89060200160405180910390a1506001600255565b6001546001600160a01b03163314610df25760405162461bcd60e51b815260206004820152601f60248201527f4f776e61626c652f63616c6c65722d6e6f742d70656e64696e674f776e657200604482015260640161050e565b600154610e07906001600160a01b0316611a74565b6001805473ffffffffffffffffffffffffffffffffffffffff19169055565b6004546001600160a01b03163314610e805760405162461bcd60e51b815260206004820152601c60248201527f5072697a65506f6f6c2f6f6e6c792d7072697a65537472617465677900000000604482015260640161050e565b80610e89575050565b60075480821115610edc5760405162461bcd60e51b815260206004820152601d60248201527f5072697a65506f6f6c2f61776172642d657863656564732d617661696c000000604482015260640161050e565b8181036007556003546001600160a01b0316610ef9848483611ad1565b806001600160a01b0316846001600160a01b03167fe2554529d99ab7a67db6b4cea2b32c7d55ae325f958861e05f304fdded867e3185604051610f3e91815260200190565b60405180910390a350505050565b6000610f578261176f565b92915050565b33610f706000546001600160a01b031690565b6001600160a01b031614610fc65760405162461bcd60e51b815260206004820152601860248201527f4f776e61626c652f63616c6c65722d6e6f742d6f776e65720000000000000000604482015260640161050e565b610fd06000611a74565b565b6003546000906001600160a01b03808416911614610f57565b33610ffe6000546001600160a01b031690565b6001600160a01b0316146110545760405162461bcd60e51b815260206004820152601860248201527f4f776e61626c652f63616c6c65722d6e6f742d6f776e65720000000000000000604482015260640161050e565b61105d81611b51565b50565b336110736000546001600160a01b031690565b6001600160a01b0316146110c95760405162461bcd60e51b815260206004820152601860248201527f4f776e61626c652f63616c6c65722d6e6f742d6f776e65720000000000000000604482015260640161050e565b61105d81611b86565b60006002805414156111265760405162461bcd60e51b815260206004820152601f60248201527f5265656e7472616e637947756172643a207265656e7472616e742063616c6c00604482015260640161050e565b600280556003546040517f631b5dfb0000000000000000000000000000000000000000000000000000000081523360048201526001600160a01b0385811660248301526044820185905290911690819063631b5dfb90606401600060405180830381600087803b15801561119957600080fd5b505af11580156111ad573d6000803e3d6000fd5b5050505060006111bc84611c33565b90506111db85826111cb611872565b6001600160a01b03169190611ce9565b60408051858152602081018390526001600160a01b03808516929088169133917fe56473357106d0cdea364a045d5ab7abb44b6bd1c0f092ba3734983a43459f8f910160405180910390a46001600255949350505050565b6000336112486000546001600160a01b031690565b6001600160a01b03161461129e5760405162461bcd60e51b815260206004820152601860248201527f4f776e61626c652f63616c6c65722d6e6f742d6f776e65720000000000000000604482015260640161050e565b6109e382611836565b60006109f5611d92565b6002805414156113035760405162461bcd60e51b815260206004820152601f60248201527f5265656e7472616e637947756172643a207265656e7472616e742063616c6c00604482015260640161050e565b600280558161131181611e23565b61135d5760405162461bcd60e51b815260206004820152601f60248201527f5072697a65506f6f6c2f657863656564732d6c69717569646974792d63617000604482015260640161050e565b611368338585611e59565b6003546040517f33e39b610000000000000000000000000000000000000000000000000000000081523360048201526001600160a01b038481166024830152909116906333e39b6190604401600060405180830381600087803b1580156113ce57600080fd5b505af11580156113e2573d6000803e3d6000fd5b50506001600255505050505050565b60006002805414156114455760405162461bcd60e51b815260206004820152601f60248201527f5265656e7472616e637947756172643a207265656e7472616e742063616c6c00604482015260640161050e565b600280556000611453611905565b6007549091506000611463611d92565b9050600083821161147557600061147f565b61147f8483612712565b9050600083821161149157600061149b565b61149b8483612712565b905080156114e157600782905560405181815291935083917fce2b6e507c7ca1a20ce136810f524eefc19ba4c7e4866eb6cc0cba76e778d4be9060200160405180910390a15b505060016002555092915050565b336115026000546001600160a01b031690565b6001600160a01b0316146115585760405162461bcd60e51b815260206004820152601860248201527f4f776e61626c652f63616c6c65722d6e6f742d6f776e65720000000000000000604482015260640161050e565b6001600160a01b0381166115d45760405162461bcd60e51b815260206004820152602560248201527f4f776e61626c652f70656e64696e674f776e65722d6e6f742d7a65726f2d616460448201527f6472657373000000000000000000000000000000000000000000000000000000606482015260840161050e565b6001805473ffffffffffffffffffffffffffffffffffffffff19166001600160a01b0383169081179091556040517f239a2ddded15777fa246aed5f7e1a9bc69a39d4eb4a397034d1d85766cca7d4c90600090a250565b60028054141561167d5760405162461bcd60e51b815260206004820152601f60248201527f5265656e7472616e637947756172643a207265656e7472616e742063616c6c00604482015260640161050e565b600280558061168b81611e23565b6116d75760405162461bcd60e51b815260206004820152601f60248201527f5072697a65506f6f6c2f657863656564732d6c69717569646974792d63617000604482015260640161050e565b6116e2338484611e59565b5050600160025550565b60006116f78361176f565b6117435760405162461bcd60e51b815260206004820181905260248201527f5072697a65506f6f6c2f696e76616c69642d65787465726e616c2d746f6b656e604482015260640161050e565b8161175057506000611768565b6117646001600160a01b0384168584611ce9565b5060015b9392505050565b60007f00000000000000000000000000000000000000000000000000000000000000006001600160a01b03838116908216148015906117685750806001600160a01b031663c89039c56040518163ffffffff1660e01b815260040160206040518083038186803b1580156117e257600080fd5b505afa1580156117f6573d6000803e3d6000fd5b505050506040513d601f19601f8201168201806040525081019061181a91906123ce565b6001600160a01b0316836001600160a01b031614159392505050565b60058190556040518181527f439b9ac8f2088164a8d80921758209db1623cf1a37a48913679ef3a43d7a5cf7906020015b60405180910390a150565b60007f00000000000000000000000000000000000000000000000000000000000000006001600160a01b031663c89039c56040518163ffffffff1660e01b815260040160206040518083038186803b1580156118cd57600080fd5b505afa1580156118e1573d6000803e3d6000fd5b505050506040513d601f19601f820116820180604052508101906109f591906123ce565b600354604080517f18160ddd00000000000000000000000000000000000000000000000000000000815290516000926001600160a01b0316916318160ddd916004808301926020929190829003018186803b15801561196357600080fd5b505afa158015611977573d6000803e3d6000fd5b505050506040513d601f19601f820116820180604052508101906109f59190612642565b6119d87f0000000000000000000000000000000000000000000000000000000000000000826119c8611872565b6001600160a01b03169190611f4b565b6040517f87a6eeef000000000000000000000000000000000000000000000000000000008152600481018290523060248201527f00000000000000000000000000000000000000000000000000000000000000006001600160a01b0316906387a6eeef90604401600060405180830381600087803b158015611a5957600080fd5b505af1158015611a6d573d6000803e3d6000fd5b5050505050565b600080546001600160a01b0383811673ffffffffffffffffffffffffffffffffffffffff19831681178455604051919092169283917f8be0079c531659141344cd1fd0a4f28419497f9722a3daafe3b4186f6b6457e09190a35050565b6040517f5d7b07580000000000000000000000000000000000000000000000000000000081526001600160a01b03848116600483015260248201849052821690635d7b075890604401600060405180830381600087803b158015611b3457600080fd5b505af1158015611b48573d6000803e3d6000fd5b50505050505050565b60068190556040518181527f3ff20538222f568f27ff436c0c49dfd3e48d5b8f86533a3f759dc1c7089775ab90602001611867565b6001600160a01b038116611bdc5760405162461bcd60e51b815260206004820181905260248201527f5072697a65506f6f6c2f7072697a6553747261746567792d6e6f742d7a65726f604482015260640161050e565b6004805473ffffffffffffffffffffffffffffffffffffffff19166001600160a01b0383169081179091556040517f7f58dc86bc2e435cb77ca0edb1df55e25f90caf2d6bd866971715437d456a21290600090a250565b6040517f013054c2000000000000000000000000000000000000000000000000000000008152600481018290526000907f00000000000000000000000000000000000000000000000000000000000000006001600160a01b03169063013054c290602401602060405180830381600087803b158015611cb157600080fd5b505af1158015611cc5573d6000803e3d6000fd5b505050506040513d601f19601f82011682018060405250810190610f579190612642565b6040516001600160a01b0383166024820152604481018290526105759084907fa9059cbb00000000000000000000000000000000000000000000000000000000906064015b60408051601f198184030181529190526020810180517bffffffffffffffffffffffffffffffffffffffffffffffffffffffff167fffffffff000000000000000000000000000000000000000000000000000000009093169290921790915261203e565b6040517fb99152d00000000000000000000000000000000000000000000000000000000081523060048201526000907f00000000000000000000000000000000000000000000000000000000000000006001600160a01b03169063b99152d090602401602060405180830381600087803b158015611e0f57600080fd5b505af1158015611977573d6000803e3d6000fd5b600654600090600019811415611e3c5750600192915050565b8083611e46611905565b611e5091906126fa565b11159392505050565b611e638282612123565b611eaf5760405162461bcd60e51b815260206004820152601d60248201527f5072697a65506f6f6c2f657863656564732d62616c616e63652d636170000000604482015260640161050e565b6003546001600160a01b0316611eda843084611ec9611872565b6001600160a01b03169291906121d1565b611ee5838383611ad1565b611eee8261199b565b806001600160a01b0316836001600160a01b0316856001600160a01b03167f4174a9435a04d04d274c76779cad136a41fde6937c56241c09ab9d3c7064a1a985604051611f3d91815260200190565b60405180910390a450505050565b6040517fdd62ed3e0000000000000000000000000000000000000000000000000000000081523060048201526001600160a01b038381166024830152600091839186169063dd62ed3e9060440160206040518083038186803b158015611fb057600080fd5b505afa158015611fc4573d6000803e3d6000fd5b505050506040513d601f19601f82011682018060405250810190611fe89190612642565b611ff291906126fa565b6040516001600160a01b03851660248201526044810182905290915061083e9085907f095ea7b30000000000000000000000000000000000000000000000000000000090606401611d2e565b6000612093826040518060400160405280602081526020017f5361666545524332303a206c6f772d6c6576656c2063616c6c206661696c6564815250856001600160a01b03166122229092919063ffffffff16565b80519091501561057557808060200190518101906120b191906125ce565b6105755760405162461bcd60e51b815260206004820152602a60248201527f5361666545524332303a204552433230206f7065726174696f6e20646964206e60448201527f6f74207375636365656400000000000000000000000000000000000000000000606482015260840161050e565b60055460009060001981141561213d576001915050610f57565b6003546040516370a0823160e01b81526001600160a01b038681166004830152839286929116906370a082319060240160206040518083038186803b15801561218557600080fd5b505afa158015612199573d6000803e3d6000fd5b505050506040513d601f19601f820116820180604052508101906121bd9190612642565b6121c791906126fa565b1115949350505050565b6040516001600160a01b038085166024830152831660448201526064810182905261083e9085907f23b872dd0000000000000000000000000000000000000000000000000000000090608401611d2e565b60606122318484600085612239565b949350505050565b6060824710156122b15760405162461bcd60e51b815260206004820152602660248201527f416464726573733a20696e73756666696369656e742062616c616e636520666f60448201527f722063616c6c0000000000000000000000000000000000000000000000000000606482015260840161050e565b843b6122ff5760405162461bcd60e51b815260206004820152601d60248201527f416464726573733a2063616c6c20746f206e6f6e2d636f6e7472616374000000604482015260640161050e565b600080866001600160a01b0316858760405161231b9190612687565b60006040518083038185875af1925050503d8060008114612358576040519150601f19603f3d011682016040523d82523d6000602084013e61235d565b606091505b509150915061236d828286612378565b979650505050505050565b60608315612387575081611768565b8251156123975782518084602001fd5b8160405162461bcd60e51b815260040161050e91906126e7565b6000602082840312156123c357600080fd5b8135611768816127b2565b6000602082840312156123e057600080fd5b8151611768816127b2565b6000806000806060858703121561240157600080fd5b843561240c816127b2565b9350602085013561241c816127b2565b9250604085013567ffffffffffffffff8082111561243957600080fd5b818701915087601f83011261244d57600080fd5b81358181111561245c57600080fd5b8860208260051b850101111561247157600080fd5b95989497505060200194505050565b60008060006060848603121561249557600080fd5b83356124a0816127b2565b925060208401356124b0816127b2565b929592945050506040919091013590565b6000806000806000608086880312156124d957600080fd5b85356124e4816127b2565b945060208601356124f4816127b2565b935060408601359250606086013567ffffffffffffffff8082111561251857600080fd5b818801915088601f83011261252c57600080fd5b81358181111561253b57600080fd5b89602082850101111561254d57600080fd5b9699959850939650602001949392505050565b6000806040838503121561257357600080fd5b823561257e816127b2565b946020939093013593505050565b6000806000606084860312156125a157600080fd5b83356125ac816127b2565b92506020840135915060408401356125c3816127b2565b809150509250925092565b6000602082840312156125e057600080fd5b8151801515811461176857600080fd5b6000806040838503121561260357600080fd5b823561260e816127b2565b9150602083013561261e816127b2565b809150509250929050565b60006020828403121561263b57600080fd5b5035919050565b60006020828403121561265457600080fd5b5051919050565b60008151808452612673816020860160208601612729565b601f01601f19169290920160200192915050565b60008251612699818460208701612729565b9190910192915050565b6020808252825182820181905260009190848201906040850190845b818110156126db578351835292840192918401916001016126bf565b50909695505050505050565b602081526000611768602083018461265b565b6000821982111561270d5761270d612770565b500190565b60008282101561272457612724612770565b500390565b60005b8381101561274457818101518382015260200161272c565b8381111561083e5750506000910152565b600060001982141561276957612769612770565b5060010190565b634e487b7160e01b600052601160045260246000fd5b634e487b7160e01b600052603260045260246000fd5b634e487b7160e01b600052604160045260246000fd5b6001600160a01b038116811461105d57600080fdfea26469706673582212203b9a3eacc5bab3d0c6daf5f532edf73ef2faa59f656eff65b25c33ffa0f2203464736f6c63430008060033",
  "devdoc": {
    "author": "PoolTogether Inc Team",
    "events": {
      "Deployed(address)": {
        "details": "Emitted when yield source prize pool is deployed.",
        "params": {
          "yieldSource": "Address of the yield source."
        }
      },
      "Swept(uint256)": {
        "params": {
          "amount": "The amount that was swept"
        }
      }
    },
    "kind": "dev",
    "methods": {
      "award(address,uint256)": {
        "details": "The amount awarded must be less than the awardBalance()",
        "params": {
          "amount": "The amount of assets to be awarded",
          "to": "The address of the winner that receives the award"
        }
      },
      "awardBalance()": {
        "details": "captureAwardBalance() should be called first",
        "returns": {
          "_0": "The total amount of assets to be awarded for the current prize"
        }
      },
      "awardExternalERC20(address,address,uint256)": {
        "details": "Used to award any arbitrary tokens held by the Prize Pool",
        "params": {
          "amount": "The amount of external assets to be awarded",
          "externalToken": "The address of the external asset token being awarded",
          "to": "The address of the winner that receives the award"
        }
      },
      "awardExternalERC721(address,address,uint256[])": {
        "details": "Used to award any arbitrary NFTs held by the Prize Pool",
        "params": {
          "externalToken": "The address of the external NFT token being awarded",
          "to": "The address of the winner that receives the award",
          "tokenIds": "An array of NFT Token IDs to be transferred"
        }
      },
      "balance()": {
        "returns": {
          "_0": "The underlying balance of assets"
        }
      },
      "canAwardExternal(address)": {
        "details": "Checks with the Prize Pool if a specific token type may be awarded as an external prize",
        "params": {
          "externalToken": "The address of the token to check"
        },
        "returns": {
          "_0": "True if the token may be awarded, false otherwise"
        }
      },
      "captureAwardBalance()": {
        "details": "This function also captures the reserve fees.",
        "returns": {
          "_0": "The total amount of assets to be awarded for the current prize"
        }
      },
      "claimOwnership()": {
        "details": "This function is only callable by the `_pendingOwner`."
      },
      "compLikeDelegate(address,address)": {
        "params": {
          "compLike": "The COMP-like token held by the prize pool that should be delegated",
          "to": "The address to delegate to"
        }
      },
      "constructor": {
        "params": {
          "_owner": "Address of the Yield Source Prize Pool owner",
          "_yieldSource": "Address of the yield source"
        }
      },
      "depositTo(address,uint256)": {
        "params": {
          "amount": "The amount of assets to deposit",
          "to": "The address receiving the newly minted tokens"
        }
      },
      "depositToAndDelegate(address,uint256,address)": {
        "params": {
          "amount": "The amount of assets to deposit",
          "delegate": "The address to delegate to for the caller",
          "to": "The address receiving the newly minted tokens"
        }
      },
      "getAccountedBalance()": {
        "returns": {
          "_0": "uint256 accountBalance"
        }
      },
      "isControlled(address)": {
        "details": "Checks if a specific token is controlled by the Prize Pool",
        "params": {
          "controlledToken": "The address of the token to check"
        },
        "returns": {
          "_0": "True if the token is a controlled token, false otherwise"
        }
      },
      "onERC721Received(address,address,uint256,bytes)": {
        "details": "Whenever an {IERC721} `tokenId` token is transferred to this contract via {IERC721-safeTransferFrom} by `operator` from `from`, this function is called. It must return its Solidity selector to confirm the token transfer. If any other value is returned or the interface is not implemented by the recipient, the transfer will be reverted. The selector can be obtained in Solidity with `IERC721.onERC721Received.selector`."
      },
      "pendingOwner()": {
        "returns": {
          "_0": "Current `_pendingOwner` address."
        }
      },
      "renounceOwnership()": {
        "details": "Leaves the contract without owner. It will not be possible to call `onlyOwner` functions anymore. Can only be called by the current owner. NOTE: Renouncing ownership will leave the contract without an owner, thereby removing any functionality that is only available to the owner."
      },
      "setBalanceCap(uint256)": {
        "details": "If a user wins, his balance can go over the cap. He will be able to withdraw the excess but not deposit.Needs to be called after deploying a prize pool to be able to deposit into it.",
        "params": {
          "balanceCap": "New balance cap."
        },
        "returns": {
          "_0": "True if new balance cap has been successfully set."
        }
      },
      "setLiquidityCap(uint256)": {
        "params": {
          "liquidityCap": "The new liquidity cap for the prize pool"
        }
      },
      "setPrizeStrategy(address)": {
        "params": {
          "_prizeStrategy": "The new prize strategy."
        }
      },
      "setTicket(address)": {
        "params": {
          "ticket": "Address of the ticket to set."
        },
        "returns": {
          "_0": "True if ticket has been successfully set."
        }
      },
      "sweep()": {
        "details": "This becomes prize money"
      },
      "transferExternalERC20(address,address,uint256)": {
        "details": "Used to transfer out tokens held by the Prize Pool.  Could be liquidated, or anything.",
        "params": {
          "amount": "The amount of external assets to be awarded",
          "externalToken": "The address of the external asset token being awarded",
          "to": "The address of the winner that receives the award"
        }
      },
      "transferOwnership(address)": {
        "params": {
          "_newOwner": "Address to transfer ownership to."
        }
      },
      "withdrawFrom(address,uint256)": {
        "params": {
          "amount": "The amount of tokens to redeem for assets.",
          "from": "The address to redeem tokens from."
        },
        "returns": {
          "_0": "The actual amount withdrawn"
        }
      }
    },
    "title": "PoolTogether V4 YieldSourcePrizePool",
    "version": 1
  },
  "userdoc": {
    "events": {
      "Swept(uint256)": {
        "notice": "Emitted when stray deposit token balance in this contract is swept"
      }
    },
    "kind": "user",
    "methods": {
      "VERSION()": {
        "notice": "Semver Version"
      },
      "award(address,uint256)": {
        "notice": "Called by the prize strategy to award prizes."
      },
      "awardBalance()": {
        "notice": "Returns the balance that is available to award."
      },
      "awardExternalERC20(address,address,uint256)": {
        "notice": "Called by the Prize-Strategy to award external ERC20 prizes"
      },
      "awardExternalERC721(address,address,uint256[])": {
        "notice": "Called by the prize strategy to award external ERC721 prizes"
      },
      "captureAwardBalance()": {
        "notice": "Captures any available interest as award balance."
      },
      "claimOwnership()": {
        "notice": "Allows the `_pendingOwner` address to finalize the transfer."
      },
      "compLikeDelegate(address,address)": {
        "notice": "Delegate the votes for a Compound COMP-like token held by the prize pool"
      },
      "constructor": {
        "notice": "Deploy the Prize Pool and Yield Service with the required contract connections"
      },
      "depositTo(address,uint256)": {
        "notice": "Deposit assets into the Prize Pool in exchange for tokens"
      },
      "depositToAndDelegate(address,uint256,address)": {
        "notice": "Deposit assets into the Prize Pool in exchange for tokens, then sets the delegate on behalf of the caller."
      },
      "getAccountedBalance()": {
        "notice": "Read internal Ticket accounted balance."
      },
      "getBalanceCap()": {
        "notice": "Read internal balanceCap variable"
      },
      "getLiquidityCap()": {
        "notice": "Read internal liquidityCap variable"
      },
      "getPrizeStrategy()": {
        "notice": "Read prizeStrategy variable"
      },
      "getTicket()": {
        "notice": "Read ticket variable"
      },
      "getToken()": {
        "notice": "Read token variable"
      },
      "owner()": {
        "notice": "Returns the address of the current owner."
      },
      "pendingOwner()": {
        "notice": "Gets current `_pendingOwner`."
      },
      "renounceOwnership()": {
        "notice": "Renounce ownership of the contract."
      },
      "setBalanceCap(uint256)": {
        "notice": "Allows the owner to set a balance cap per `token` for the pool."
      },
      "setLiquidityCap(uint256)": {
        "notice": "Allows the Governor to set a cap on the amount of liquidity that he pool can hold"
      },
      "setPrizeStrategy(address)": {
        "notice": "Sets the prize strategy of the prize pool.  Only callable by the owner."
      },
      "setTicket(address)": {
        "notice": "Set prize pool ticket."
      },
      "sweep()": {
        "notice": "Sweeps any stray balance of deposit tokens into the yield source."
      },
      "transferExternalERC20(address,address,uint256)": {
        "notice": "Called by the Prize-Strategy to transfer out external ERC20 tokens"
      },
      "transferOwnership(address)": {
        "notice": "Allows current owner to set the `_pendingOwner` address."
      },
      "withdrawFrom(address,uint256)": {
        "notice": "Withdraw assets from the Prize Pool instantly.  A fairness fee may be charged for an early exit."
      },
      "yieldSource()": {
        "notice": "Address of the yield source."
      }
    },
    "notice": "The Yield Source Prize Pool uses a yield source contract to generate prizes.         Funds that are deposited into the prize pool are then deposited into a yield source. (i.e. Aave, Compound, etc...)",
    "version": 1
  },
  "storageLayout": {
    "storage": [
      {
        "astId": 4754,
        "contract": "@pooltogether/v4-core/contracts/prize-pool/YieldSourcePrizePool.sol:YieldSourcePrizePool",
        "label": "_owner",
        "offset": 0,
        "slot": "0",
        "type": "t_address"
      },
      {
        "astId": 4756,
        "contract": "@pooltogether/v4-core/contracts/prize-pool/YieldSourcePrizePool.sol:YieldSourcePrizePool",
        "label": "_pendingOwner",
        "offset": 0,
        "slot": "1",
        "type": "t_address"
      },
      {
        "astId": 10,
        "contract": "@pooltogether/v4-core/contracts/prize-pool/YieldSourcePrizePool.sol:YieldSourcePrizePool",
        "label": "_status",
        "offset": 0,
        "slot": "2",
        "type": "t_uint256"
      },
      {
        "astId": 12343,
        "contract": "@pooltogether/v4-core/contracts/prize-pool/YieldSourcePrizePool.sol:YieldSourcePrizePool",
        "label": "ticket",
        "offset": 0,
        "slot": "3",
        "type": "t_contract(ITicket)10943"
      },
      {
        "astId": 12346,
        "contract": "@pooltogether/v4-core/contracts/prize-pool/YieldSourcePrizePool.sol:YieldSourcePrizePool",
        "label": "prizeStrategy",
        "offset": 0,
        "slot": "4",
        "type": "t_address"
      },
      {
        "astId": 12349,
        "contract": "@pooltogether/v4-core/contracts/prize-pool/YieldSourcePrizePool.sol:YieldSourcePrizePool",
        "label": "balanceCap",
        "offset": 0,
        "slot": "5",
        "type": "t_uint256"
      },
      {
        "astId": 12352,
        "contract": "@pooltogether/v4-core/contracts/prize-pool/YieldSourcePrizePool.sol:YieldSourcePrizePool",
        "label": "liquidityCap",
        "offset": 0,
        "slot": "6",
        "type": "t_uint256"
      },
      {
        "astId": 12355,
        "contract": "@pooltogether/v4-core/contracts/prize-pool/YieldSourcePrizePool.sol:YieldSourcePrizePool",
        "label": "_currentAwardBalance",
        "offset": 0,
        "slot": "7",
        "type": "t_uint256"
      }
    ],
    "types": {
      "t_address": {
        "encoding": "inplace",
        "label": "address",
        "numberOfBytes": "20"
      },
      "t_contract(ITicket)10943": {
        "encoding": "inplace",
        "label": "contract ITicket",
        "numberOfBytes": "20"
      },
      "t_uint256": {
        "encoding": "inplace",
        "label": "uint256",
        "numberOfBytes": "32"
      }
    }
  }
}